:020000040802F0
:10000000E090002095020208D71B030829BC0208D3
:10001000D51B0308212F020895D603080000000015
:10002000000000000000000000000000CF85030871
:100030006B50020800000000E957030859980308B4
:10004000AF020208AF020208AF020208AF020208C4
:10005000AF020208AF020208AF020208AF020208B4
:10006000AF020208AF020208AF020208AF020208A4
:10007000AF020208AF020208AF020208AF02020894
:10008000AF020208AF020208AF020208AF02020884
:10009000AF020208AF020208AF020208AF02020874
:1000A000AF020208AF020208AF020208AF02020864
:1000B000AF020208699D0308F1A10308AF0202081C
:1000C000AF020208AF020208AF020208AF02020844
:1000D000AF0202081DD20308AF02020839D3030899
:1000E000AF020208AF020208AF020208AF02020824
:1000F000AF020208AF020208AF020208AF02020814
:10010000AF020208AF02020841A90308AF020208C9
:10011000AF020208AF02020821AA0308AF020208D8
:10012000894E0208AF020208AF020208AF020208BD
:10013000AF020208AF020208AF020208AF020208D3
:10014000AF020208AF020208AF020208AF020208C3
:10015000AF020208AF020208AF020208AF020208B3
:10016000AF020208AF020208AF020208AF020208A3
:10017000AF020208AF020208AF020208AF02020893
:10018000AF020208AF02020800F002F800F072F8B5
:100190000AA090E8000C82448344AAF10107DA45E2
:1001A00001D100F067F8AFF2090EBAE80F0013F0C2
:1001B000010F18BFFB1A43F001031847CC0E0500CE
:1001C000EC0E05000A444FF0000C10F8013B13F050
:1001D000070408BF10F8014B1D1108BF10F8015BA0
:1001E000641E05D010F8016B641E01F8016BF9D193
:1001F00013F0080F1EBF10F8014BAD1C0C1B09D1EA
:100200006D1E58BF01F801CBFAD505E014F8016B5B
:1002100001F8016B6D1EF9D59142D6D370470000ED
:100220000023002400250026103A28BF78C1FBD8FF
:10023000520728BF30C148BF0B607047662931F0B4
:100240002382642900F08280002070471FB531F0BE
:100250000EFA00F093FE04000020002130F010FCA4
:10026000401C60600020002130F0F4FBE0601FBD06
:1002700010B510BD00F0F6FF1146FFF7E7FF2FF0B5
:100280006FFE01F09FFA03B4FFF7F2FF03BC01F029
:10029000CDFC00000948804709480047FEE7FEE71B
:1002A000FEE7FEE7FEE7FEE7FEE7FEE7FEE7FEE726
:1002B00004480549054A064B704700002199030888
:1002C00089010208E08A0020E0900020E08C0020F4
:1002D000E08C00200FB41CB5074B06AA7B4469468E
:1002E0000090059800F03BFD0020694600F04AFDB3
:1002F0001CBC5DF814FB0000A50A000070B50446A4
:1003000085690068C10601D5302600E02026C007B7
:1003100007D070BDD4E9012130469047206A401CC7
:1003200020626D1EF6D570BD70B5044685690078F3
:10033000C00707D170BDD4E9012120209047206A71
:10034000401C20626D1EF6D570BD00002DE9F04105
:100350000646002410687529314616A510D0AFF363
:100360000080002802DA404213A507E031688A07BE
:1003700001D512A502E0490704D511A5012401E029
:10038000AFF3008000210A2206F1240709E0B0FB48
:10039000F2FCB0FBF2F302FB1C003030785418463C
:1003A000491C0028F3D123462A463046BDE8F041D7
:1003B00000F067BA000000002D0000002B000000D4
:1003C000200000002DE9F05F894604464FF0000A46
:1003D000DFF824B1FB44C0F820A02046E16888473C
:1003E00000287DD0252806D0D4E901219047206A35
:1003F000401C2062F1E700255F462046E1688847FF
:100400002028064607DB312E05D2B81910F8200C3B
:1004100008B10543F1E7A80701D525F00405C4F8A4
:100420001CA00027C4F818A02A2E09D030462FF0AF
:100430003BFB38B304EB8708303EC8F8186019E07E
:1004400059F8041B204604EB87029161E168884754
:10045000012F064618D1E069002820DA25F0200592
:100460001DE0D8F8180000EB800006EB40003038A3
:10047000C8F818002046E168884706462FF014FBAC
:100480000028EED1012F0AD02E2E08D12046E16897
:1004900088477F1C0646022F45F02005C4DBA06973
:1004A000002803DA404245F00105A061E80701D0C9
:1004B00025F01005A6B1A6F14100192802D8203672
:1004C00045F400654A463146204625604D46FFF713
:1004D000B5FE60B1012807D0ED1D25F0070000E052
:1004E00007E000F1080978E705F1040975E73046EF
:1004F0007AE7206ABDE8F09FCC0B050070B5064690
:1005000000F0B0F90468054630460A22002100F0E8
:1005100091FC2C6070BD40EA0103024630B59B0798
:1005200010D14FF0013400E008C208C91D1B9D43E3
:1005300015EAC41FF8D013F0FF0102F8011B0DD01B
:100540001B0AF8E711F8013B002B02F8013B05D02C
:1005500011F8013B002B02F8013BF3D130BD10B57F
:10056000431C02E010F8011B71B18107FAD14FF072
:10057000013202C88C1A8C4314EAC211F9D0C01A95
:100580000A0603D0C01E10BDC01A10BD0A0401D057
:10059000801E10BD0902FCD0401E10BD421E12F884
:1005A000013F002BFBD111F8013B002B02F8013B6E
:1005B000F9D17047032A40F2308010F0030C00F0AC
:1005C000158011F8013BBCF1020F624498BF11F88D
:1005D00001CB00F8013B38BF11F8013BA2F1040246
:1005E00098BF00F801CB38BF00F8013B11F00303BE
:1005F00000F06780083AC0F0088051F8043B083AE0
:1006000051F804CBA0E80810F5E7121D5CBF51F8C3
:10061000043B40F8043BAFF30080D20724BF11F83D
:10062000013B11F801CB48BF11F8012B24BF00F8A2
:10063000013B00F801CB48BF00F8012B7047431A7B
:1006400028BF9A427FF6B6AF032A1044114440F205
:10065000268010F0030F1EBF11F8013D521E00F856
:10066000013D10F0030F7FF4F6AF11F0030300F02B
:100670002C84083AC0F00B8051F8043D083A51F838
:1006800004CD40F8043D40F804CDFFF7F3BF121D40
:100690005CBF51F8043D40F8043DAFF30080D20741
:1006A00024BF11F8013D11F801CD48BF11F8012C0C
:1006B00024BF00F8013D00F801CD48BF00F8012C2F
:1006C000704710B5203AC0F00B80B1E81850203ABE
:1006D000A0E81850B1E81850A0E81850BFF4F5AFE2
:1006E0005FEA027C24BFB1E81850A0E8185044BF6C
:1006F00018C918C0BDE810405FEA827C24BF51F8D9
:10070000043B40F8043B08BF7047D20728BF31F8CC
:10071000023B48BF11F8012B28BF20F8023B48BF1D
:1007200000F8012B704702F0FF0343EA032242EA7C
:10073000024200F0F6BB4FF0000200B513469446AB
:100740009646203922BFA0E80C50A0E80C50B1F129
:100750002001BFF4F7AF090728BFA0E80C5048BF3D
:100760000CC05DF804EB890028BF40F8042B08BFDB
:10077000704748BF20F8022B11F0804F18BF00F8D7
:10078000012B704710B5044610F0030F08BF11F09D
:10079000030F40F015804FF0013E121FC0F20E8093
:1007A00051F8043BA3EB0E0C2CEA030C1CEACE1C04
:1007B00008BF40F8043BF0D0A1F1040102F10402AB
:1007C000521E08DB11F8013B002B00F8013BF7D16A
:1007D000114600F0A4FB204610BD00004FF0013C84
:1007E00050F8042B51F8043B9A4221D1A2EB0C03A0
:1007F000934313EACC1317D150F8042B51F8043B60
:100800009A4215D1A2EB0C03934313EACC130BD1FC
:1008100050F8042B51F8043B9A4209D1A2EB0C0387
:10082000934313EACC13DBD04FF00000704700BFB6
:10083000D01A01BAB1FA81F101F0180122FA01F0DF
:10084000CB40C1F12001DBB2C0B2C01A2CFA01F3D7
:10085000D11A914311EAC311E6D17047704770472E
:100860007047000000487047808A002010B5FFF7ED
:10087000F9FF006810BD10B50446FFF7F3FF0460F0
:1008800010BD2DE9F0470D4699469246044600F109
:1008900024080168880604D5E06921F01001216070
:1008A00000E00120A84201DD471B00E00027A1690C
:1008B0007A1902EB0900081AA0612078C00602D458
:1008C0002046FFF71BFD002608E0D4E901211AF8B5
:1008D00006009047206A401C761C20624E45F4DBDF
:1008E0002078C0060AD52046FFF708FD06E0D4E9C7
:1008F000012130209047206A401C2062381EA7F159
:100900000107F4DC07E0D4E9012118F8050090475D
:10091000206A401C2062281EA5F10105F3DC204658
:10092000FFF702FD2078000602D50220BDE8F0871F
:100930000120FBE770472DE9FF4F0C461E464FF0A4
:10094000FF378BB0D2E90001DDF860800A908A465B
:10095000C1F30A5505B93D46002108464FF0000095
:10096000BAF1000F00F4400005DA00EB80004FF40C
:10097000400101EA50004FEA9059B9F1010F00DD42
:10098000B9460A9850EA4A000ED044F61050A5F233
:10099000FF3545432F14B8F1000F1ED07542291EB4
:1009A0001EDDC9F100021CE0B8F1010F4FF000009C
:1009B00001D0302103E0F24305E02154401CB04255
:1009C000FBDB30460022002121540B99C1F808803E
:1009D000C1E900200FB0BDE8F08FBD1B6D1CDEE744
:1009E0004A4600DA694206A800F0CAFB06AB93E863
:1009F000070003AB83E8070050460A9901F030F97D
:100A00008DE80700A0F500501F3800900398002DD6
:100A10000ADD42F21F014A460844002303A903905D
:100A2000684601F0DBFB09E0A0F500504A461F389C
:100A3000002303A90390684601F0FAFB8DE8070044
:100A40000004000C03D04FF0FF30410800E01046D6
:100A5000B8F1000F03D00022009215461EE0751E6B
:100A600005D400F08FFA303262556D1EF9D5B346C9
:100A70000122084302D000227F1C04E020783028A5
:100A800001D100227F1E002A099784D01DE0112D7C
:100A900007DA00F077FA303262556D1C50EA010235
:100AA000F5D1084302D00098C8B10EE00021681EBD
:100AB00005E0235C625C63542254401E491C814261
:100AC000F7DBAB46A81B401E0990002004F80B0082
:100AD0000B98099AC0F80880C0E9002B7AE7112624
:100AE0004FF0000857E72DE9F04F88460446D21D25
:100AF00022F0070191B0D1E90001CDE90A0127F008
:100B00009BF902460B98C00F01D02D2007E020680A
:100B1000810701D52B2002E0202101EAC000032A31
:100B2000099001D0072A05DB03464146204600F024
:100B300077FA0BE12078800601D5E06900E0062015
:100B4000B8F1650F814606D0B8F1660F18D0B8F13C
:100B5000670F70D131E00020B9F1110F009001DB77
:100B6000112301E009F101030AAA01A90CA8FFF76A
:100B7000E2FEDDE90C70002609F10105834647E03D
:100B800001204B4600904FF000470AAA01A90CA88B
:100B9000FFF7D1FEDDE90DB00C995D46002610B9D6
:100BA00009F101000D18B9EB050003D4C0F1FF36BF
:100BB00009F10105A5EB09002BE0B9F1010F01DAFC
:100BC0004FF001090020B9F1110F0090484601DDF6
:100BD000112300E003460AAA01A90CA8FFF7ABFE07
:100BE000DDE90C704D4600268346207800070AD4C4
:100BF000AB4500DA5D4601A8012D04DD411911F86D
:100C0000011C302907D04F4502DA17F1040F04DA2E
:100C1000012082460FE06D1EEEE7002F02DCED1B87
:100C20003E4403E0781CA84200DD7D1CB81B00F1A7
:100C3000010A4FF000472078000703D4AA4501DBE2
:100C40004FF0FF3A0021B7F1004F0DF143088DF846
:100C5000431024D002202B23002F01DA7F422D23C2
:100C60000A21021EA0F1010000DC5FB197FBF1FC3C
:100C700097FBF1F201FB1C7C17460CF1300C08F8D5
:100C800001CDEEE7A8F1010003702188090501D527
:100C9000452100E06521A0F1010800F8011C099838
:100CA0000FA9A1EB0807FF1D00B10120411901EBBD
:100CB000EA70A1693844081A401EA0612078C00675
:100CC00002D42046FFF71AFB099828B1D4E9012184
:100CD0009047206A401C20622078C00622D520461A
:100CE000FFF70CFB1EE0002E04DBB34502DD01A87C
:100CF000805D00E03020D4E901219047206A401C4B
:100D00002062761CAAF101005FEA000A0AD100F015
:100D100035F9C0680168405CD4E901219047206A38
:100D2000401C2062281EA5F10105DCDC07E0D4E9A7
:100D3000012118F8010B9047206A401C2062381EE0
:100D4000A7F10107F3DC2046FFF7EEFA032011B00C
:100D500041E6000001694A1C02610878704700B54D
:100D60008FB0CDE901310021059105497944CDE9E4
:100D7000031011466846FFF725FB0FB000BD0000C9
:100D8000E5FFFFFF0A6802F8010B0A6070470000E8
:100D90000FB4002300B589B00CA900910B99CB606A
:100DA000214B7B440693214B7B44079304236FF034
:100DB0000042CDE901321E4A7A446B46089202464F
:100DC000002030F0C3FC09B05DF814FB70B5064696
:100DD0004FF0FF3015460C46324686B00091CDE903
:100DE000010169460020049004A8FFF7D1FF0246E4
:100DF0000498211825B108B1084600E02046286073
:100E0000049800280DD0002A02DD0098884208D0FE
:100E10003246081B69460094CDE9010404A8FFF797
:100E2000B7FF06B070BD0000FB0200001303000016
:100E3000530200002DE9F04791460F4680460446D4
:100E4000002614F8015B2DB100F090F80068405DB9
:100E5000C007F6D12B2D02D02D2D18D0641E4A4686
:100E60003946204600F03CF927B13968A14201D14A
:100E7000C7F800804FF0020471050BD540420028EE
:100E800003DDFFF7EFFC0460A007BDE8F08746F440
:100E90008066E4E70028F8DAFFF7E4FC04606FF00E
:100EA0000040F2E7431A28BF9A427FF60AAC10448A
:100EB00010F0030F11441EBF11F8013D521E00F83F
:100EC000013D10F0030F7FF4F6AF103AC0F00A8036
:100ED00010B531E91850103A20E91850BFF4F9AFB5
:100EE000BDE81040530724BF31E9081020E908107D
:100EF00044BF51F8043D40F8043D12F0030F08BF11
:100F00007047D20728BF31F8023D48BF11F8012CC5
:100F100028BF20F8023D48BF00F8012C70474FF071
:100F200000020429C0F0128010F0030C3FF405AC5D
:100F3000CCF1040CBCF1020F18BF00F8012BA8BFC4
:100F400020F8022BA1EB0C01FFF7F7BB5FEAC17C95
:100F500024BF00F8012B00F8012B48BF00F8012B3B
:100F60007047000000487047808A002010B500F0EC
:100F700005F8001D10BD00BF09FB020000487047C6
:100F8000A08A002030B5B0F10A024FEA900E71F14C
:100F900000034EEA817EB0EB0E0061EB91014FEA57
:100FA000101E4EEA017E10EB0E0041EB11114FEACC
:100FB000102E4EEA016E10EB0E0041EB11214FEAAC
:100FC000104E4EEA014E10EB0E0041EB114140185D
:100FD00041F100014FEAD00040EA41704FEAD101EF
:100FE00010EB80054FEA810444EA907444EB01045D
:100FF0006D1944EB0404521BA3414FF0000348BF9A
:101000000A3200D530BD401C41F1000130BD10B5A1
:101010000446FFF7ABFF0068005D00F0010010BD63
:101020002DE9F0411F46044603260168072A01F412
:10103000006004DB08B116A505E016A503E008B1C1
:1010400015A500E015A521F010002060A069C01EC4
:10105000A0610FB1401EA0612046FFF74FF94FB1CC
:10106000D4E9012138469047206A401C2062C01C08
:10107000206206E0206AFAE7D4E9012115F8010BA5
:101080009047761EF8D22046FFF74EF9BDE8F08172
:101090004E414E006E616E00494E4600696E66001C
:1010A000426842B1016811F8013B23B1521EC0E908
:1010B0000012184670470121C160881E70474268BF
:1010C0005AB1C368016843B983688B4205D0491E91
:1010D000521CC0E90012002070474FF0FF307047EB
:1010E0002DE9F05F824615468B4600270AF1010480
:1010F000B9460078302801D09DB113E014F8010BF7
:101100000127782803D0582801D045B10AE00DB155
:10111000102D07D1002714F8010B102502E0082537
:1011200000E00A250026B0460EE005FB080005FB9E
:1011300006F101271FFA80F801EB1046B6F5803F53
:1011400000D3B94614F8010B294600F0B0F8002886
:10115000EBDABBF1000F05D00FB1641E00E054467E
:10116000CBF80040B9F1000F06D0FFF77BFB02215E
:101170000160C81EBDE8F09F48EA0640FAE700009B
:101180002DE9F047814616468AB0354878440DC8A7
:101190008DE80D0032487844801C03AC0DC884E80B
:1011A0000D0041F69B300844372190FBF1F290FB93
:1011B000F1F5A5F1800501FB12041B3C02D5644248
:1011C000012000E00020DFF898A080460027FA44C4
:1011D000AAF1BE0A0EE0E0070AD03246684607EBE5
:1011E000470101230AEB810101F022F88DE8070095
:1011F00064107F1C002CEED1194F7F44AE3F19E0E4
:10120000E80715D007EB04100DF1180A90E80E005E
:101210008AE80E00C068F04201D198190890324661
:10122000012306A903A801F003F803AB83E8070034
:101230006D10641C002DE3D14FF001033246694666
:10124000B8F1000F03A802D000F0C8FF01E000F0E1
:10125000EFFFC9E90001C9F808200AB0BDE8F0872E
:10126000A4FE04007546FFF77DFEAE460500694604
:10127000534620F00700854618B020B5FFF718F850
:10128000BDE820404FF000064FF000074FF0000887
:101290004FF0000B21F00701AC46ACE8C009ACE808
:1012A000C009ACE8C009ACE8C0098D4670473A28CF
:1012B00000D2303820F02002412A01D3A2F13700B9
:1012C000884201D34FF0FF30704700002DE9FF4FF7
:1012D00006468BB00878FF2806D0491C2D2805D07B
:1012E00000244FF0000908E000200CE00124F8E79A
:1012F00009EB8903491C00EB43090878FF28F7D163
:1013000014B1C9F100008146107800252C46AA4688
:1013100029462D2801D02B2804D1521C2D2813D06A
:10132000002082468B461078FF280FD04FF0000C2B
:101330000A21521CA5FB017804FB018105FB0C115D
:10134000C5194BEB0104EEE70120EAE7002108464E
:101350004FF00000BAF1000F02D000EB800040080F
:10136000C0F38157012F01DD4FF0FF370E9955EA89
:10137000040009EB01080BD04FF0020918F5FA7FC1
:1013800016DA4FEACA70002F706008DD012007E00E
:101390004FEACA70C6E900B00FB0BDE8F08F002078
:1013A0003060FFF75FFAC0F800901821084616E099
:1013B000B8F5FA7F18DD002F02DAF748784401E02B
:1013C000F6487844D0E90010C6E9001040EACA7037
:1013D0007060FFF747FAC0F80090142108460FB07C
:1013E000BDE8F04F30F04DB9002108464FF0000045
:1013F000B8F10001099002DAC7F1000200E03A46B4
:1014000001DAC8F1000106A8FFF7BAFE06AB93E8BF
:10141000070003AB83E8070044F23E005BEA0401E7
:101420000090584604D144F21E012C465D460091BE
:10143000210C0904014306D10099240444EA15440F
:101440002D041039009104F07F41014306D1009929
:10145000240244EA15642D020839009104F0704119
:10146000014306D10099240144EA15742D01091F96
:10147000009104F04041014306D10099A40044EAE0
:101480009574AD00891E009104F00041084304D119
:1014900000986D196441401E00904FF001033A46D8
:1014A0006846B8F1000FCDE9014503A902DD00F05F
:1014B000D4FE01E000F0A7FEBAF1000F04460D468D
:1014C00001D084F00044002108464FF00000099943
:1014D00040F2FF77484010F00C0F07D124F0004095
:1014E000284303D0C4F30A50B84212D1FFF7BAF927
:1014F000C0F80090C4F30A50B8420AD1A848784412
:10150000D0E90010C6E9001004F000410843706003
:1015100042E7C6E900543FE72DE9FF4F1F464FF071
:10152000000A4FF0FF38454691B0D7E90146CDF8A3
:101530003CA0FFF723FDC0680168405C1090B969CA
:1015400012986D1C8847396A814688470028F6D171
:10155000B9F1FF3F0AD0002E24F4D06411DDB9F1B7
:101560002B0F08D0B9F12D0F0BD102E0404615B07A
:1015700013E744F48064B96912986D1C8847761E9D
:101580008146600504A901D52D2000E02B20002E06
:1015900001F1010B0DF130088DF810003FDDB9F1BC
:1015A000690F08D0B9F1490F05D0B9F16E0F02D01B
:1015B000B9F14E0F1CD13B4601A8009580E85002BE
:1015C000DDE912126FF0020030F0C4F8C11CCED178
:1015D0000EE0B96912986D1C884781461398761EF3
:1015E00044F4007405600F98401C002E0F9016DD27
:1015F000B9F1300FEDD0B9F1780F02D0B9F1580F31
:101600000DD10F9801280AD13B46CDE90054DDE900
:101610001212001F029630F09BF8C11CA7D110993E
:1016200089453ED144F0800406E01399681CAAF174
:10163000010A44F400740860B9696D1C1298761EA2
:10164000884730288146F0D02BE01099894505D194
:10165000200603D4761E44F0800418E048462EF09D
:1016600023FA08B3761E0DF123018B4544F4007470
:1016700008D2A9F130000BF8010B200607D5AAF11A
:10168000010003E0200602D40AF101008246A00511
:1016900002D51399681C0860B96912986D1C8847B7
:1016A0008146002ED1DC53E0002E51DDB9F1650FEB
:1016B00002D0B9F1450F4BD1A00549D5B9696D1CD0
:1016C0001298761E24F440748847002E81460CDD63
:1016D0002B2804D0B9F12D0F07D144F48074B969D7
:1016E00012986D1C8847761E8146E00501D52D2194
:1016F00000E02B2108F8011BCDF8008021E0761EC8
:101700000DF13901884544F400740CD2A9F1300080
:1017100010F0FF0088F8000002D10099884509D92F
:1017200008F1010806E0E00501D51E4801E042F29B
:101730000F708246B96912986D1C884781461398CC
:101740000560002E04DD48462EF0AEF90028D6D103
:10175000F96912988847FF2053468BF8000088F8F3
:10176000000000200A900B9004AA0CA90AA8FFF719
:10177000ADFDA00502D46FF00100F8E614F0240FCF
:1017800012D0E0071CD13868DDE90A12031D3B6066
:101790000068C0E9001213E0F0FC0400E2FC040061
:1017A000A6FB0400F1D8FFFF0AA9684626F094FDC5
:1017B000E00705D13868009A011D396000680260B1
:1017C0002846D4E610B50446AFF300802046BDE8B5
:1017D0001040FEF758BD00002DE9FF4F1F464FF0A7
:1017E0003C0987B04FF00042DDE9141001F1010817
:1017F000DDF858A002EA405003900020059083468F
:10180000054604460490B969461E08988847AAF11F
:10181000010A0290BAF1000F3BDD02982E2815D084
:101820001021FFF744FD00282EDB4FF0010B059936
:10183000014317D0B9F1000F0BDB4A46C11700F086
:10184000FBF905430C43A9F1040905E001200490CC
:101850000BE008B145F0010501200590049820B97E
:10186000361D02E0049800B1361FB969089808F1E6
:1018700001088847BBF1000FAAF1010A0290C9D004
:101880000999C1F80080C5E70298702808D050284F
:1018900006D0F96908988847BBF1000F14D04FE0D3
:1018A000002002900120BBF1000F049009D0B9691B
:1018B000089808F101088847AAF10109B9F1000F59
:1018C00007DCF969089888476FF001000BB0BDE8A4
:1018D000F08F2B2804D02D280CD14FF0FF3004902E
:1018E000B969089808F101088847A9F10109B9F117
:1018F000000FE6DD411CE4D00A21FFF7D8FC0028E8
:10190000DFDB029908F1010801EB810100EB4100E6
:101910000290B969089888470A21FFF7C8FC099A1C
:10192000A9F10109B9F1000FC2F8008001DD00281A
:10193000E7DAF969089888470499029800FB01667C
:1019400055EA040004D004F04041090002D006E04A
:10195000039898E0A40044EA9574AD00B61E04F024
:101960000041080002D16D196441761E159810F0EF
:10197000240F03D04FF00B095C4803E04FF0280917
:101980006FF07D008246564507DAAAEB06018944CE
:10199000B9F1410F01DD4FF0410901200021A9F10A
:1019A000010200F049F9024628400B462140084355
:1019B00001D0012100E00021501E029143F1FF31CE
:1019C00028402140084301D0012000E00020029976
:1019D000834651EA0B014FD0002108464FF000002A
:1019E000039900F4400039B100EB80004FF440014E
:1019F00000EBD07001EA60008015012802DD4FF095
:101A0000FF3000E013D0401C36D0029860B3BBF129
:101A1000000F0CD14A460120002100F00DF92840AA
:101A20002140084301D0012000E00020E0B1012066
:101A30004A46002100F000F9034640190A46614178
:101A40002D1A8C4111D3B9F1400F09DD159810F012
:101A5000240F02D0AAF1340603E0AAF1170600E031
:101A6000761C00254FF0004406E05B1E42F1FF3279
:101A700020EA030521EA0204CAF10100B04206DAB5
:101A80001B49039808430190002000900EE0039A40
:101A9000C4F3D321E80A0A43164940EA44500A43F2
:101AA0003146CDE90002684626F01FFC159810F07B
:101AB000240F0BD01598C00715D13868DDE9001246
:101AC000031D3B600068C0E900120CE002A86946F3
:101AD00026F002FC1598C00705D13868029A011D4E
:101AE0003960006802604046F0E6000002FCFFFF3B
:101AF0000000F07F0000F03F2DE9FF4F92461D46A9
:101B000085B04FF00041DDE9124BDDE914727F1E14
:101B100001EA4B50414940F0FF4940EA01080021E9
:101B200022F020004928049102D04E2828D04CE011
:101B30003BA0012607C88DE80700A9690698641C28
:101B400088477F1E014606D41DF8060018B121F013
:101B5000200181420BD0E96906988847032E34D0D2
:101B6000082E32D06FF0010009B0BDE8F08F761C6E
:101B7000032E01D0082EE0D1601CCAF80000DCE77B
:101B8000A9690698641C88477F1E2AD420F020008B
:101B9000412826D1A9690698641C88477F1E20D455
:101BA00020F020004E281CD1A9690698641C8847A3
:101BB0007F1E48F4002849F48009CAF8004001D487
:101BC000282806D0E969069888475FEACB7012D0CA
:101BD00022E0A9690698641C88477F1E01D400286A
:101BE00003DAE96906988847BCE72928F1D1641C23
:101BF000CAF80040E9E71BF0240F07D028680499D1
:101C0000031D2B600068C0E9001805E02868021D6C
:101C10002A600068C0F800902046A5E70000F07F29
:101C2000494E46494E4954590000000001491820C8
:101C3000ABBEFEE726000200B2F120030AD5C2F1D6
:101C4000200301FA02F120FA03F300FA02F041EA5C
:101C50000301704700FA03F14FF00000704770472E
:101C60005FEA400C08BF91F0000F4FEA8C234FEA67
:101C7000C12243EA51514FEA1C5018BF00F5F04011
:101C80004FEA300018BF41F000415FEA6C5C00F0A1
:101C90002980BCF1FF3F08BF40F080407047130C23
:101CA00006BF12044FF0100C4FF0000C130E04BFCF
:101CB00012020CF1080C130F04BF12010CF1040CFA
:101CC000930F04BF92000CF1020CD30F04BF52001B
:101CD0000CF1010C11464FF00002A0F11F00A0EB27
:101CE0000C00704711F0004F08BF704731F0004101
:101CF0003FF4D5AF0B0C06BF09044FF0100C4FF0AA
:101D0000000C0B0E04BF09020CF1080C0B0F04BFF2
:101D100009010CF1040C8B0F04BF89000CF1020CBB
:101D2000CB0F04BF49000CF1010CCCF12003A0EB58
:101D30000C0022FA03F302FA0CF241EA030100F16B
:101D40000100704720F07F4C80EA030023F07F47BA
:101D5000ACEB070303F57C5300F0004003F1FF03F5
:101D60002DE980494FEA154B09B44FEA144325EA9F
:101D70000B4E24EA03480FF2042606EB132749080A
:101D80003E785FEA320203FB0667C7F5000707FBF0
:101D900006F64FEA54374FEAD64606F1020607FB2D
:101DA000066CCCF1005C4FEA1C472CEA074C07FBA1
:101DB00006F40CFB06F504EB15464FEA961634BF05
:101DC00000204FF000404FEAD13706FB07FC4FEAF6
:101DD0001C4C0CFB0BF7D21B03FB0CF761EB070150
:101DE0000CFB0EF7B0EB074072EB17420CFB08F749
:101DF00034BFA2EB0742B2EB074261EB17414FEA57
:101E00000C444FEA910706FB07FC4FEA1C4C0CFB05
:101E10000BF7B0EBC74072EB573203FB0CF734BF44
:101E2000A2EBC742B2EBC74261EB57310CFB0EF796
:101E3000B0EBC70072EB57720CFB08F734BFA2EB94
:101E4000C702B2EBC70261EB5771039F4FEA816192
:101E500041EA921104EBCC044FEAD1374FEA826297
:101E600006FB07FC42EA90124FEA80604FEA1C4CE6
:101E70000CFB0BF7D21B03FB0CF761EB07010CFB10
:101E80000EF7B0EB074072EB17420CFB08F734BFBC
:101E9000A2EB0742B2EB074261EB17414FEA8C55C8
:101EA0004FEA910704EB9C2406FB07FC4FEA1C4C0D
:101EB0000CFB0BF7B0EBC74072EB573203FB0CF790
:101EC00034BFA2EBC742B2EBC74261EB57310CFB08
:101ED0000EF7B0EBC70072EB57720CFB08F734BF7C
:101EE000A2EBC702B2EBC70261EB577115EB4C25B1
:101EF0004FEA816141EA92114FEA82624FEAD1379B
:101F000042EA901206FB07FC44F100044FEA8060AD
:101F10004FEA1C4C0CFB0BF7D21B03FB0CF761EBDD
:101F200007010CFB0EF7B0EB074072EB17420CFBFE
:101F300008F734BFA2EB0742B2EB074261EB17414F
:101F400015EB1C154FEA813141EA92414FEA82328A
:101F500042EA90424FEA80304FEA0C7644F10004A6
:101F600048EA03434EEA0B484FF0000EB2EB080C70
:101F700071EB030724BF624639464EEB0E0E4FF05D
:101F8000000B0018524149414BEB0B0BB2EB080C14
:101F900071EB03077BF1000B24BF624639464EEB21
:101FA0000E0E4FF0000B0018524149414BEB0B0B4A
:101FB000B2EB080C71EB03077BF1000B24BF624608
:101FC00039464EEB0E0E51EA020718BF46F00106E5
:101FD00016EB0E7655F1000254F1000103D5BDE871
:101FE0008901BDE80088BDE88901BDE80048B6194F
:101FF000524141EB0101A3F10103704780807F7ED4
:102000007D7C7B7A7978777676757473727171706E
:102010006F6E6E6D6C6C6B6A6A6968686766666520
:102020006464636362616160605F5F5E5E5D5D5CAE
:102030005C5B5B5A5A59595858575756565555551F
:102040005454535352525251515050504F4F4F4E7F
:102050004E4D4D4D4C4C4C4B4B4B4A4A4A494949CD
:10206000484848474747474646464545454444440F
:1020700044434343434242424241414146EA0646C9
:10208000A3F570534FEA164646EA42564FEAD2226B
:1020900042EA415210B54FEAD121A3F1010300F009
:1020A0002FF820F0004000F1020C00F0004701EB97
:1020B00000501146BCF5006F40EA070000D210BD89
:1020C000BAF1000F0AD01CB503B44FF004004FF072
:1020D00004014FF000000FBCBDE810404FF00001BC
:1020E000BBF1010FB9BF04484FF0FF310348002195
:1020F00040EA070010BD00BFFFFFEF7F0000F07F48
:10210000002B9C4630D477002BD01CB54FEA370704
:1021100003B44FF010004FF01001BAF1000F06D0D9
:10212000BCF1000FDCBF40F0080040F008014FF0A8
:1021300000000FBCBDE810400BF1010BBBF1010F1B
:1021400008BF5FEA170722BF12F1010211F1010176
:102150004FF0004143F1000300F0004043EA00006B
:102160007047F9D35708D0E746EA064613F1400F07
:102170004FEA16461FDD13F1200FDFBF16430A4654
:10218000002120335B42BED0C3F1200746EA064659
:1021900002FA07F74FEA164646EA0706C3F1200798
:1021A00022FA03F201FA07F721FA03F14FF00003D4
:1021B00042EA0702A7E746EA020646EA06464FEA6F
:1021C000164646EA0106BCBF46EA0646360C4FF004
:1021D00000034FF000024FF0000194E72DE9804C1E
:1021E0009A46934670B491E8380007C831EA400C2B
:1021F00048BF34EA430C03D5FFF7A4FDFFF780FF87
:10220000F0BCBDE8008C2DE9804C9A46934670B432
:1022100091E8380007C831EA400C48BF34EA430C63
:1022200003D5FFF78FFDFFF729FFF0BCBDE8008C59
:102230002DE9804C9A46934670B491E8380007C85F
:1022400010F0804F08BF13F0804F03D100F01AF850
:10225000FFF756FFF0BCBDE8008C2DE9804C9A4694
:10226000934670B491E8380007C810F0804F08BF5B
:1022700013F0804F03D100F005F8FFF7FFFEF0BC2C
:10228000BDE8008C20F07F4780EA030023F07F4CFC
:1022900007EB0C03A3F57C5300F00040A3F1FE0311
:1022A00092F0000F00F0B38095F0000F00F07780FF
:1022B0002DE901494FEA11404FEA144621EA00484E
:1022C00000FB06FC24EA064708FB06F607FB08F8B5
:1022D00000FB07F718EB06484CEB164C4FEA124B85
:1022E00018EB07484FEA15464CEB174022EA0B4E15
:1022F0000BFB06FC25EA06470EFB06F607FB0EFE67
:102300000BFB07F71EEB064E4CEB164C4FF000068E
:102310001EEB074E4CEB174B18EB0B0840F100007F
:1023200018EB0E0B58EB000840F100008F1A4FF02D
:1023300000013CBFC943661B14BFB5EB040C002170
:102340003CBFC943F61B4FEA17444EEA8E0E27EAFC
:1023500004454FEA1C4704FB07622CEA074C05FBC7
:1023600007F70CFB05F604FB0CFC16EB074642EBEB
:10237000174216EB0C4642EB1C421BEB060658EBD1
:102380000202414146EA9E0601D5BDE80189B6191F
:10239000524141EB0101A3F10103BDE801894FEA7C
:1023A00014454FEA114724EA054621EA074C05FB8C
:1023B00007F406FB07F70CFB06F105FB0CFC11EB21
:1023C000074144EB17444FEA124711EB0C4144EB31
:1023D0001C4422EA074C05FB07F206FB07F70CFB3F
:1023E00006F605FB0CFC16EB074642EB174216EB14
:1023F0000C4642EB1C456A1854F1000148BF704777
:10240000B619524141EB0101A3F10103704795F068
:10241000000F37D04FEA11424FEA144721EA024633
:1024200024EA074C02FB07F106FB07F70CFB06F456
:1024300002FB0CFC14EB074441EB17414FEA154734
:1024400014EB0C4441EB1C4125EA074C02FB07F559
:1024500006FB07F70CFB06F602FB0CFC16EB074627
:1024600045EB174516EB0C4645EB1C42121951F192
:10247000000148BF7047B619524141EB0101A3F179
:10248000010370474FEA14454FEA114724EA054615
:1024900021EA074C05FB07F106FB07F70CFB06F2E8
:1024A0004FF0000605FB0CFC12EB074241EB174115
:1024B00012EB0C4251EB1C4148BF7047921841EBA4
:1024C0000101A3F10103704708B54FF47A70009041
:1024D00003E0BDF80000401E0090BDF80000002899
:1024E000F7D108BD2DE9F04188B00121080313F0B0
:1024F000D7FD02278DF81D7001268DF81C60002481
:102500008DF81E4040200690DFF8A08006A94046C6
:1025100005F0D4FB382506958DF81C708DF81E400B
:1025200003208DF81D008DF81F6006A9404605F0B8
:10253000C5FB05220321404605F0FEFB05220421D0
:10254000404605F0F9FB05221146404605F0F4FB34
:102550004021404605F009FCFFF7B6FF4021404608
:1025600005F001FCADF804404FF48270ADF80600B0
:10257000F002ADF80800ADF80A40ADF80C4080104C
:10258000ADF80E00ADF81050ADF812400720ADF8D0
:102590001400074C01A9204615F0FDFF012120463B
:1025A00015F0E2FF08B0BDE8F08100000004024031
:1025B0000030014070B588B0002507956A4C16E0E0
:1025C0009DF81C10012015F0A3FF9DF81C1024F8A5
:1025D0001100A0880290E088049060890390A0898F
:1025E0000190E08900909DF81C00401C07909DF828
:1025F0001C000828E4D3BDF810305C4A1078411C58
:102600001170410058481030435211783C2918D1BC
:102610001570059506950AE09DF8181030F8111010
:10262000059B194405919DF81810491C06919DF8C9
:1026300018103C29F0D305983C21B0FBF1F04C492F
:102640000860BDF80C305078411C5170410046487C
:102650008830435251781E231E2917D15570059595
:1026600006950AE09DF8181030F81110059C2144D9
:1026700005919DF81810491C06919DF818101E2907
:10268000F0D305983B49B0FBF3F00880BDF8044057
:102690001079411C1171410037484452117964246A
:1026A000642917D11571059506950AE09DF8181053
:1026B00030F81110059E314405919DF81810491C01
:1026C00006919DF818106429F0D305982B49B0FBAA
:1026D000F4F00880BDF808609078411C91704100CA
:1026E0002148EC3046529178642900D195700595C7
:1026F00006950AE09DF8181030F81110059E314437
:1027000005919DF81810491C06919DF81810642930
:10271000F0D305981A49B0FBF4F00860BDF800400A
:10272000D078411CD170410013483C384452D178D4
:102730001E2917D1D570059506950AE09DF8181049
:1027400030F81110059A114405919DF81810491C94
:1027500006919DF818101E29F0D305980949B0FB81
:10276000F3F0088008B070BDC40C00204F010020B9
:102770006C0000206A000020B40E002070000020D1
:10278000740000207800002011B581B00C4C0221AB
:10279000204615F0F5FE0028F9D0BDF804102046BB
:1027A00015F0F7FE0121204615F0EAFE0028F9D0C9
:1027B000204615F0ECFE0090BDF800001CBD0000A6
:1027C00000300140F0B59BB001210D02284613F006
:1027D00067FC0121880513F039FC40200090032696
:1027E0008DF8046000248DF8074069462B4805F0F9
:1027F00065FA02942A4803902A48049005943220EE
:1028000006900794A80008904000099080000A9064
:102810000B9500010C900D9401250E950F941094CA
:10282000214F02A9384602F07DFB0121384602F013
:1028300053FB01221021384602F05AFB01F0B2FF8F
:10284000174F01214C3F384600F072F81194129452
:102850001394149411A800F057F815948DF858505B
:102860008DF85950189419948DF8686015A9384658
:1028700000F076F8002301220621384600F096F891
:102880000121384600F034F8384600F0C9F801213B
:10289000384600F059F81BB0F0BD000000000240BF
:1028A0004C200140080A0020106402400CB50020B2
:1028B000009001900C490AE09DF8040031F81000E6
:1028C000009A104400909DF80400401C01909DF86F
:1028D00004003228F0D300984FF4FA71B0FBF1F005
:1028E000024908800CBD0000080A00206800002092
:1028F000002904D0816841F001018160704781683E
:1029000021F001018160704710B5074C226807492A
:102910000A40D0E900131943D0E9023003431943B8
:102920001143216010BD000004230140E030FCFF92
:10293000002904D0816841F480718160704781680A
:1029400021F4807181607047002904D0816841F4CE
:10295000007181607047816821F400718160704767
:1029600030B542680F4B1A400C790B6842EA0422DA
:102970001343436083680C4A1340D1E90342224366
:102980004D798C6844EA450422431A438260C26A46
:1029900022F47002097D491EC9B242EA0151C162A6
:1029A00030BD0000FFFEFFFCFDF7FFC070B507263D
:1029B00009290AD9C568A1F10A0404EB4404A64018
:1029C000B543A3401D43C56007E0056901EB410421
:1029D000A640B543A3401D4305611F23072A09D222
:1029E000446B521E02EB820293409C4391400C4385
:1029F000446370BD0D2A09D2046BD21F02EB820220
:102A000093409C4391400C43046370BDC46A0D3AEB
:102A100002EB820293409C4391400C43C46270BD20
:102A2000816841F0804181607047002800DC4042AD
:102A300070474178007841EA0020704710B50C4893
:102A40000078400612D40B4C206841070ED50206D0
:102A500009484FF4007103D4BDE8104005F085B972
:102A600005F081F9206820F00400206010BD00000E
:102A7000440000203C00002000080240054908688E
:102A800040F00400044B00221A8020F0800008600F
:102A9000704700003C0000208200002038B54568E7
:102AA0000446014628461AF033FE00282AD0206842
:102AB000304A0F2819D006DC0B2824D00C2810D05F
:102AC0000E2851D12FE0112802D028284CD145E002
:102AD0009268002A16D02146284601B0BDE8304051
:102AE0001047214628465268F7E7284606F084F842
:102AF0000090406E0468684606F0C8F8002C01D0CB
:102B00002846A04738BD284606F076F80090683081
:102B100005F0DAFF009803216C3005F0DDFF684610
:102B200006F0B4F820E0E168486809680D2902D091
:102B3000202913D105E0002810DD284621F094FF5C
:102B400006E0002804DD2846BDE8384021F08CBFAF
:102B50002846BDE83840022121F09CBFE06818B942
:102B60000021284600F097F92046BDE838401BF0C8
:102B700043BA0000D8020020F0B5044685B0806951
:102B8000B4F90850668A0027CDE90265CDE900173F
:102B90000490B4F90C00B4F91060C118B4F90A003B
:102BA000B4F90E50104433462A4600F007F80546A3
:102BB000616800F079F905B02846F0BDF0B585B040
:102BC0000C46DDE90D514C31DFF850C0DDE90A67F4
:102BD000CDE902C12146CDE900671BF05DF9040093
:102BE00018D006F009F81022294604901AF0B4FF14
:102BF000049830220A493430FDF763FD084D0499EA
:102C00000C3D2868486604A806F040F8286841682A
:102C10002046884705B02046F0BD00009D2A0208E6
:102C2000E4020020F0B5044680688B4989B051F871
:102C30002050606800287DD0052804D006287AD06E
:102C4000122879D1AEE0E86900284FD095E80E004F
:102C50008DE80F0004F110010FC908F081FB002678
:102C600055F8260007F0E0FBA169E8690A1A216916
:102C700001446069304406F061FDA169E8690A1AFF
:102C800021690144E069801B06F058FDE169E869AB
:102C90000A1A616901442069304406F00BFEE169BB
:102CA000E8690A1A61690144A069801B06F002FE06
:102CB000761C022ED4DBA86807F0B6FBE069E96950
:102CC0006669431A20694218521E3144801C06F07E
:102CD0005BFEE169E869A2690B1A61690144101A97
:102CE000401C921E06F050FEEE6913E05FF00006F5
:102CF00055F8260007F098FBE069831BA069821B4A
:102D0000606981192069304406F096FD761C022E18
:102D1000EEDB0226D5E90301CDE900016169E06936
:102D200008444310A069891C821B2069304406F0C6
:102D3000ADFC02E089E012E08AE0D5E90501CDE9C9
:102D40000001E36960690121184401EB6001A06999
:102D50009B1E821B2069304406F098FC78E02068B6
:102D600005F04AFF049020681CF076F940B1A06895
:102D700008B1002008E00498006F28B1012003E0AA
:102D80000498406F00B10220049901EB8000C56EE9
:102D900004A805F07BFF00231A462846216806F0A8
:102DA00007FA55E0206805F027FF0490866EEEB321
:102DB000B0F95C70A168D1B3032942D05FF0000183
:102DC00000EB8101406D0C6C07F038FB204607F0EA
:102DD0002BFB05A806F028FEBDF81410A88B0144B3
:102DE000ADF81410BDF81810081AADF81800BDF8A9
:102DF0001600801CADF81600BDF81A00801EADF854
:102E00001A0004985E30B0F90220B0F9001005A84D
:102E100007F068FA04A805F039FF022007F04EFB1E
:102E2000304605F0E9FE3A4605A901E00BE006E070
:102E3000079006F0B5FA07A805F028FF08E0012181
:102E4000BEE70221BCE704A8F6E720681BF0C8FD36
:102E500009B00020F0BD000020CD0608044A034957
:102E6000116004494A6A4862104670471403002002
:102E7000D8020020E402002038B50D46040009D035
:102E800005F0BAFE00904565684605F0FFFE204655
:102E90001BF0A9FB38BD4FF480720029114601D008
:102EA0001AF0C0BC1AF012BC2DE9FF410E46050015
:102EB0004FF001041CD005F09FFE0190876E01A821
:102EC000009705F0E3FE3146684608F029FD78B129
:102ED00000980024B84208D0284605F08DFE0190E5
:102EE0000099816601A805F0D1FE28461BF07BFB06
:102EF00004B02046BDE8F081F8B515460C46060042
:102F00000DD005F079FE0090032C02D200EB840076
:102F10000564684605F0BAFE30461BF064FBF8BD58
:102F2000FEE700002DE9F05F884D2978884CDFF836
:102F300024B240F66F06A0696FF070476FF07F48CB
:102F400040F6710940F6790A21297CD02ADC4FF439
:102F5000076A19294CD040F677061A2964D040F642
:102F6000780A1B297FD01C291AD151461BF052F92F
:102F700006463946304616F09BFD4146304616F06F
:102F8000E9FD4946A0691BF045F90446594620462B
:102F900016F08EFD0021204616F0DCFD2120287061
:102FA000BDE8F09F40F67209222978D040F6431A16
:102FB000242975D05B29F3D151461BF02BF98146AA
:102FC0003946484616F074FD4146484616F0C2FDA3
:102FD0003146A0691BF01EF904465946204616F0FA
:102FE00067FD0021204616F0B5FD19202870D7E7AF
:102FF00031461BF00FF906463946304616F058FDAB
:103000004146304616F0A6FD5146A0691BF002F974
:1030100004465946204616F04BFD0021204616F086
:1030200099FD1A202870BBE751461BF0F3F8814642
:103030003946484616F03CFD4146484616F08AFDA2
:103040003146A06901E02CE00DE01BF0E3F80446F6
:103050005946204616F02CFD0021204616F07AFD38
:103060001B2028709CE731461BF0D4F806463946F1
:10307000304616F01DFD4146304616F06BFD5146B8
:10308000A0691BF0C7F804465946204616F010FD0B
:103090000021204616F05EFD1C20287080E71CE011
:1030A00037E049461BF0B6F806463946304616F07A
:1030B000FFFC4146304616F04DFD5146A0691BF01D
:1030C000A9F804465946204616F0F2FC0021204695
:1030D00016F040FD2220287062E751461BF09AF856
:1030E00006463946304616F0E3FC4146304616F0B7
:1030F00031FD4946A0691BF08DF80446594620462B
:1031000016F0D6FC0021204616F024FD242028705D
:1031100046E749461BF07EF806463946304616F02B
:10312000C7FC4146304616F015FD5146A0691BF01C
:1031300071F804465946204616F0BAFC0021204694
:1031400016F008FD5B2028702AE70000C701002068
:10315000E0010020FFFFBF00084800785B2808D18D
:103160000748C17A012905D0C17A002901D101217E
:10317000C17270470021C17270470000C701002072
:10318000E0010020084800785B2808D10748C17A90
:10319000012905D0C17A002901D10121C1727047EE
:1031A0000021C17270470000C7010020E00100202B
:1031B0002DE9F05F874D2978874C40F67806DFF8D7
:1031C0001CB2F71FA0696FF070486FF07F4940F69E
:1031D000431A21297ED02ADC40F66F0719294BD0EB
:1031E0004FF4076A1A2963D040F677071B297ED06F
:1031F0001C291AD131461BF00DF8064641463046CF
:1032000016F056FC4946304616F0A4FC3946A06933
:103210001BF000F804465946204616F049FC0021F0
:10322000204616F097FC1B202870BDE8F09F40F662
:103230007906222977D0F71F242975D05B29F4D18C
:1032400051461AF0E7FF06464146304616F030FC7C
:103250004946304616F07EFC3946A0691AF0DAFF7E
:1032600004465946204616F023FC0021204616F05D
:1032700071FC24202870D8E739461AF0CBFF0646A7
:103280004146304616F014FC4946304616F062FCC2
:103290005146A0691AF0BEFF04465946204616F072
:1032A00007FC0021204616F055FC5B202870BCE787
:1032B00051461AF0AFFF06464146304616F0F8FB7D
:1032C0004946304616F046FC3946A0691AF0A2FF7E
:1032D000044601E029E00AE05946204616F0E8FBE2
:1032E0000021204616F036FC192028709DE739464B
:1032F0001AF090FF06464146304616F0D9FB494683
:10330000304616F027FC5146A0691AF083FF0446A8
:103310005946204616F0CCFB0021204616F01AFC38
:103320001A20287081E71CE037E039461AF072FF56
:1033300007464146384616F0BBFB4946384616F06C
:1033400009FC3146A0691AF065FF0446594620463B
:1033500016F0AEFB0021204616F0FCFB1C20287066
:1033600063E731461AF056FF06464146304616F0EE
:103370009FFB4946304616F0EDFB3946A0691AF02E
:1033800049FF04465946204616F092FB002120468C
:1033900016F0E0FB2120287047E739461AF03AFF83
:1033A00007464146384616F083FB4946384616F034
:1033B000D1FB3146A0691AF02DFF0446594620463C
:1033C00016F076FB0021204616F0C4FB2220287060
:1033D0002BE70000C7010020E0010020FFFFBF0035
:1033E0002DE9F04F2DED068B83B0FE48416E00EEC7
:1033F000101AB8EE400A9FEDFCAAC0EE0A9A816E40
:1034000000EE101AB8EE400ADFEDF80A80EE209ABE
:10341000C16E006F00EE100AB8EE400ADFEDF20A4E
:10342000C0EE20AAF2480278F24D9FEDF38BF448EB
:103430000024F44E8069DFF8D09340F6790840F616
:103440007D0B40F6720A222A7ED010DCA2F119020E
:10345000DFF8B88340F6730B4FF06407092A74D283
:10346000DFE802F07AF5F4F3B1F2F1F0EF0040F6A4
:103470007A07272A6AD047DC232A68D0242A67D013
:10348000E34F4FF6FF79252A7ED0262A5DD140F6FC
:103490007C01DFF86C831AF0BDFE82466FF070414C
:1034A000504616F005FB6FF07F41504616F052FB78
:1034B0003078002869D0307898B10094019432783F
:1034C000D449121D6846FDF75DF9684624F048FDB1
:1034D00053EC182B51EC100B2DF02EFE2DF098FD17
:1034E000F880F98842F21070814200D9F88098F88B
:1034F0000D0000287ED098F80D0001287BD098F8A8
:103500000D00022878D0C5E2282A76D040F643186C
:1035100040F644175B2A71D05C2A4FD13946B84F28
:103520001AF078FE83466FF07041584616F0C0FAE4
:103530006FF07F41584616F00DFBF87A42F20F7A91
:1035400000287CD0F87A04E0CCE237E0F8E25AE3D5
:10355000F9E3012874D0F7E340F66F01A84E1AF0A2
:1035600059FE07466FF07041384616F0A1FA6FF029
:103570007F41384616F0EEFA5946B0691AF04AFE15
:103580000646A549304601E0A5E15BE216F090FA57
:103590000021304616F0DEFA02949E4906E09DF8BE
:1035A00008000C549DF80800401C02909DF808008B
:1035B0000628F4D38E491D2008702C7003B0BDEC92
:1035C000068BBDE8F08F5946DFF834921AF022FEE0
:1035D00082466FF07041504616F06AFA6FF07F41F4
:1035E000504616F0B7FA307890B33078E0B10094D6
:1035F000019404E031E23AE243E23EE3F6E332785A
:103600008449D21C6846FDF7BDF8684624F0A8FC42
:103610009FED821B51EC100B53EC112B2DF08CFD08
:103620002DF0F6FC6F49C8676E48C26F41F638014D
:103630008A4200D9C167C16F4160416809E0FDE37A
:10364000FDE350E3FCE380E370E0CBE113E13DE018
:1036500034E0B1FBF7F182685143414500D9446041
:10366000406800EE100AF8EE400A80EE8A0A10EE7A
:10367000100A2DF08BFF41EC100B6AA153EC102BBC
:103680006846FCF727FE6946504616F03EFA40F6BB
:103690006F01D9F818001AF0BDFD07465E4938469B
:1036A00016F006FA0021384616F054FA504919204F
:1036B00008702C7034701BF035FF7FE75548FCF71D
:1036C0001DFF642148434749C867ADE74FF40761D0
:1036D0004B4D1AF09FFD06466FF07041304616F0D4
:1036E000E7F96FF07F41304616F034FA0294494909
:1036F00006E09DF808000C549DF80800401C02905C
:103700009DF808000628F4D340F67401A8691AF061
:1037100081FD04464049204616F0CAF900212046A2
:1037200016F018FA32491E20087047E740F6740177
:10373000DFF8CC901AF06EFD82466FF07041504673
:1037400016F0B6F96FF07F41504616F003FA307864
:10375000F0B33078A8B10094019432782D49121D4D
:103760006846FDF70FF8684624F0FAFB53EC182B77
:1037700051EC100B2DF0E0FC2DF04AFC1949C1F87A
:1037800088001848D0F8882042F210718A4201D986
:10379000C0F88810D0F88810816041688268B1FB59
:1037A000F7F15143414500D9846080689FED0F1ABD
:1037B00000EE100AF8EE400A80EE810A10EE100AC0
:1037C0002DF0E4FE41EC100B18A153EC102B00E09F
:1037D00047E06846FCF77EFD6946504616F095F9CD
:1037E00028E00000DC0B00200000C84200007A4402
:1037F000C7010020780100200000000000408F4039
:10380000E0010020790100208887002077D40300A0
:103810007C870020BC010020FFFFBF0000000000EB
:1038200000005940252E326600000000252E336628
:10383000000000004FF40761D9F818001AF0EAFC04
:103840000746FA49384616F033F90021384616F093
:1038500081F9F7491A2008702C7034701BF062FE51
:10386000ACE6F448FCF74AFE4FF47A714843F2495B
:10387000C1F8880085E740F67701F04D1AF0CAFCE0
:1038800006466FF07041304616F012F96FF07F4136
:10389000304616F05FF90294E64906E09DF808000C
:1038A0000C549DF80800401C02909DF80800062862
:1038B000F4D340F67B01A8691AF0ACFC0446DB495E
:1038C000204616F0F5F80021204616F043F9D849B5
:1038D0002520087072E640F67B01DFF860831AF05D
:1038E00099FC82466FF07041504616F0E1F86FF097
:1038F0007F41504616F02EF9307848B33078A8B1A1
:10390000009401943278CB49D21C6846FCF73AFF08
:10391000684624F025FB1FED3F1B51EC100B53ECC8
:10392000112B2DF009FC2DF073FB3880398841F6FE
:103930003800814200D9388098F80C0098B198F886
:103940000C00012817D098F80C0002281BD021E0A9
:10395000B848FCF7D3FD00EBC00101EB001009EA09
:1039600080003880E2E7388800EE100AB8EE400A9E
:10397000C0EE0A9A0EE0788800EE100AB8EE400A0F
:10398000C0EE0A9A06E0B88800EE100AB8EE400AC7
:10399000C0EE0A9A19EE900A2DF0F8FD41EC100BDA
:1039A00053EC102BAFF284116846FCF793FC694688
:1039B000504616F0AAF840F67701D8F818001AF029
:1039C00029FC07469949384616F072F80021384616
:1039D00016F0C0F896491B2008702C7034701BF04C
:1039E000A1FDEBE540F67801944D1AF013FC064674
:1039F0006FF07041304616F05BF86FF07F41304653
:103A000016F0A8F802948B4906E09DF808000C54C3
:103A10009DF80800401C02909DF808000628F4D389
:103A200040F67C01A8691AF0F5FB04467F49204660
:103A300016F03EF80021204616F08CF87C4926202E
:103A40000870BBE57B48FCF759FD00EB4001C1EB7A
:103A5000C01009EAC000F88043E5F88800EE100ABB
:103A6000B8EE400A5FED9F0A80EE209A12E0388996
:103A700000EE100AB8EE400A5FEDA40A80EE209A2C
:103A800008E0788900EE100AB8EE400A5FEDA90A56
:103A900080EE209A19EE100A2DF078FD41EC100B03
:103AA00053EC102BAFF27C216846FCF713FC6946FF
:103AB000504616F02AF840F67801D8F818001AF0A7
:103AC000A9FB07465949384615F0F2FF0021384650
:103AD00016F040F856491C2008702C7034701BF00A
:103AE00021FD6BE54146554D1AF094FB06466FF0FB
:103AF0007041304615F0DCFF6FF07F41304616F024
:103B000029F802944B4906E09DF808000C549DF8F2
:103B10000800401C02909DF808000628F4D359467E
:103B2000A8691AF077FB04464049204615F0C0FF0B
:103B30000021204616F00EF83D49272008703DE58B
:103B400059463E4F1AF066FB81466FF07041484679
:103B500015F0AEFF6FF07F41484615F0FBFF30785F
:103B6000E8B33078A0B10094019432783149121D45
:103B70006846FCF707FE684624F0F2F953EC182B70
:103B800051EC100B2DF0D8FA2DF042FA2A49C866F4
:103B90002948C06E00EE100AF8EE400A1FEDED1A3B
:103BA00080EE810A10EE100A2DF0F0FC41EC100BB3
:103BB00053EC102BAFF28C316846FCF78BFB694657
:103BC000484615F0A2FF4146B8691AF023FB0746A4
:103BD0001649384615F06CFF0021384600E009E030
:103BE00015F0B8FF1249222008702C7034701BF0B9
:103BF00099FCE3E40F48FCF781FC4FF47A714843E9
:103C00000D49C866C4E739460C4D1AF003FB064659
:103C10006FF07041304615F04BFF6FF07F4130463A
:103C200015F098FF0294034911E00000FFFFBF0068
:103C3000C7010020BC010020DC0B0020E0010020B7
:103C40009DF808000C549DF80800401C02909DF857
:103C500008000628F4D340F67E01A8691AF0DAFAC3
:103C60000446FE49204615F023FF0021204615F0AA
:103C700071FFFB4928200870A0E440F67E01DFF8C0
:103C8000E4831AF0C7FA81466FF07041484615F098
:103C90000FFF6FF07F41484615F05CFF1AEE900A67
:103CA0002DF074FC41EC100B53EC102BAFF28C4157
:103CB0006846FCF70FFB6946484615F026FF394673
:103CC000D8F818001AF0A6FA0746E449384615F065
:103CD000EFFE0021384615F03DFFE1492320087032
:103CE0002C7034706AE440F67101DE4D1AF092FADD
:103CF00006466FF07041304615F0DAFE6FF07F41F6
:103D0000304615F027FF0294D74906E09DF80800D9
:103D10000C549DF80800401C02909DF808000628ED
:103D2000F4D340F67501A8691AF074FA0446CB4939
:103D3000204615F0BDFE0021204615F00BFFC849B6
:103D40001F2008703AE48BE083E140F67501C54F0F
:103D50001AF060FA80466FF07041404615F0A8FEF8
:103D60006FF07F41404615F0F5FE3078E8B33078CB
:103D7000A8B1009401943278BB49121D6846FCF743
:103D800001FD684624F0ECF853EC182B51EC100BB5
:103D90002DF0D2F92DF03CF9B449C1F89C00B3489C
:103DA000D0F89C1047F23052914213D8D0F89C10B2
:103DB00000EE101AF8EE400A9FEDAD1AAD49AE4A7A
:103DC00080EE810AD1ED000A20EE200A10EE101AD2
:103DD000914201DDC0F89C40D0F89C10016100695F
:103DE00000EE100AF8EE400A01E02FE0BCE09FED83
:103DF000A01A80EE810A10EE100A2DF0C7FB41ECEC
:103E0000100B53EC102BAFF2DC516846FCF762FA52
:103E10006946404615F079FE40F67101B8691AF01E
:103E2000F9F907468D49384615F042FE002138461B
:103E300015F090FE8A492120087002E0C2E0E8E017
:103E40003DE02C7034701BF06DFB36E48648FCF7C7
:103E500055FB4FF47A7148438449C1F89C009EE7B2
:103E60005146804D1AF0D6F906466FF07041304643
:103E700015F01EFE6FF07F41304615F06BFE029488
:103E8000794906E09DF808000C549DF80800401C94
:103E900002909DF808000628F4D340F67601A86940
:103EA0001AF0B8F904466D49204615F001FE0021CC
:103EB000204615F04FFE6A492020087035E440F690
:103EC0007601684F1AF0A6F980466FF070414046BF
:103ED00015F0EEFD6FF07F41404615F03BFE307867
:103EE000D8B3307878B10094019432785E4968464E
:103EF000FCF748FC684624F033F851EC100B2DF029
:103F000057F8C9F8A000D9F8A0104FF4FA70814210
:103F100001DDC9F8A00059A16846D9F8A020FCF736
:103F2000D9F96946404615F0F0FD5146B8691AF0D6
:103F300071F907464949384615F0BAFD002138465F
:103F400015F008FE4649242008702C7034704C4A45
:103F50002B214C4802F075FD82E4FFE74248FCF754
:103F6000CDFAC9F8A000CEE741463E4D1AF052F90D
:103F700006466FF07041304615F09AFD6FF07F41B4
:103F8000304615F0E7FD0294374906E09DF8080039
:103F90000C549DF80800401C02909DF8080006286B
:103FA000F4D33946A8691AF035F904462B4920465E
:103FB00015F07EFD0021204615F0CCFD28495C203F
:103FC00008704DE43078F0B1307878B10094019405
:103FD000327825496846FCF7D5FB684623F0C0FFD8
:103FE00051EC100B2CF0E4FFC9F8A400D9F8A400A0
:103FF000504501DDC9F8A4A020A16846D9F8A42045
:10400000FCF768F925E01848FCF778FAC9F8A4002D
:10401000ECE73078C0B3307878B10094019432780E
:1040200011496846FCF7AEFB684623F099FF51EC56
:10403000100B2CF0BDFFC9F8A800D9F8A800504516
:1040400001DDC9F8A8A00DA16846D9F8A820FCF7A1
:1040500041F96946584615F058FD16E0FFFFBF00CC
:10406000C7010020E0010020BC010020DC0B002083
:1040700000007A44240000200000484325356400F5
:104080008887002000000E0817E04146B8691AF042
:10409000C1F807460C49384615F00AFD002138469C
:1040A00015F058FD09495B2008702C703470084ADF
:1040B0002B21084802F0C5FC0CE40748FCF71EFA67
:1040C000C9F8A800B9E70000FFFFBF00C701002042
:1040D0008887002000000E08BC01002070B5174C36
:1040E00061792046164D806940F69902012912D067
:1040F000A17B01291DD011461AF08CF806466FF0FD
:104100007041304615F0D4FC2946304615F022FDAA
:104110002F20207070BD11461AF07CF80446294605
:10412000204615F0C5FC2046BDE87040002115F082
:1041300011BDBDE8704000F087BA000020020020E9
:10414000FFFFBF002DE9FF470446006810B11AF0D9
:1041500083FF68B10022314850F8221060680A28B5
:1041600041D007DCF0B306280DD0072854D106E073
:104170000122F0E712280AD019284DD137E0204655
:104180001CF072FB48E020461DF0FCFC44E0206877
:1041900004F032FD0290B0F9548090F85650476C0C
:1041A000466B02A804F072FD206800F039F88146E1
:1041B00068461AF007F8BDF8001009EB050008443E
:1041C000ADF80000246A304606F038F9022006F007
:1041D00075F9384606F028F942466946204605F04A
:1041E000DFF819E007E020461DF0B8FF14E0886909
:1041F00004B0BDE8F08720681AF0F2FB206804F0F4
:10420000FBFC0390B0F90610B0F90220891A491C92
:10421000C16703A804F03AFD0020E9E730CD0608A5
:1042200038B504F0E9FC0090C46F684604F02EFD38
:10423000204638BD044A034911600449CA69C8616F
:1042400010467047A0030020680700206C0700207C
:1042500000B589B024216846FCF76DFA1920019059
:1042600003480068806841686846884709B000BD17
:104270006807002070B5FF22FF23084D05F5807602
:1042800005E010F8014B54402A5D5A40335D491E49
:1042900089B2F6D243EA022070BD000088170508F3
:1042A00010B50A4A0A4C4FF40061002807D00128D3
:1042B00004D1104603F059FD0120E07010BD1046F6
:1042C00003F051FD0020E07010BD0000000002402E
:1042D000580100207CB51B4C2078012500281DD0FA
:1042E0001948C16F4160D0F888108160D0F89C10E7
:1042F0000161164805707021682016F0DCFC290366
:10430000134803F030FD08F0EDFDA902114803F059
:104310002AFD1148016841F08001016025700F49B4
:10432000192008700E480024047019F067FF034636
:1043300000940C4A2C210C48019404F055FE0B49C2
:1043400088617CBD7A010020DC0B00208900002000
:10435000000C02400008024048000020C701002075
:104360008800002075AC040854230508E0010020F3
:104370001CB50E48002404700D4804700D480470EC
:104380007021682016F097FC4FF480510A4803F022
:10439000EAFC19F033FF03460094084A0921084853
:1043A000019404F021FE074908601CBD7A01002039
:1043B0008900002088000020000C0240BDC70408CE
:1043C00024280508FC0100207CB5134C5020A07166
:1043D0000320A070114908700025E5712BF0D6FF6D
:1043E0000020FFF75DFF0E480570E08ADFED0D0A43
:1043F00000EE100AB8EE400A80EE201A84ED081A8A
:1044000019F0FCFE03460095074A2B210748019549
:1044100004F0EAFD60627CBD780100208900002084
:104420008800002000007A44998E0408001C0508CA
:104430001CB50F49052008700E48002404700E4872
:1044400004707021682016F036FC4FF480510B4840
:1044500003F089FC19F0D2FE03460094084A272194
:104460000848019404F0C0FD074948601CBD0000E5
:104470007A010020C701002088000020000C0240C3
:10448000DDCC040820290508100200201CB50849CD
:104490000620087019F0B2FE03460020009001903B
:1044A000044A0121044804F09FFD044948601CBDF2
:1044B0007A010020F5DD0408642D050818020020AB
:1044C0007CB5274C2078002815D02078022812D0FF
:1044D0004FF40041234803F048FC234D02212846B5
:1044E00003F041FC4FF4FA7000F0C0FD4FF40051AE
:1044F000284603F03AFC022020701C4908701C4931
:10450000092008701B48D0F898104160D0F8A0101E
:1045100081601948DFED190A194D90ED050AB8EED2
:10452000C00A80EE201A85ED021A16480024047095
:104530001549032008707021682016F0BCFB4FF469
:104540008051124803F00FFC19F058FE0346009406
:104550000F4A16210F48019404F046FD68607CBDA7
:104560007A0100200000024000080240890000207B
:10457000C7010020DC0B00208887002000007A445F
:104580006C01002088000020C4010020000C0240C3
:104590008D830408981905087CB51F4C20780028E5
:1045A00001D008F09FFC042020701C4908701C49B1
:1045B000172008701B48DFED1C0A1C4E90ED040A02
:1045C000B8EEC00A80EE201A86ED031A184CD4F813
:1045D000940020610020FFF763FE16480025057057
:1045E000154902200870D4F8A400E060702168200A
:1045F00016F061FB4FF48051104803F0B4FB19F042
:10460000FDFD034600950E4A18210E48019504F061
:10461000EBFCB0607CBD00007A0100208900002026
:10462000C70100208887002000007A44CC010020C8
:10463000DC0B002088000020C4010020000C024098
:1046400035ED0408B42005081CB519F0D7FD002489
:1046500003460094064A07210648019404F0C4FC6E
:104660000549486005490C70054A082111701CBDB8
:1046700055E50408441C0608480200208800002074
:104680007A0100201CB519F0B9FD002403460094FE
:10469000074A12210748019404F0A6FC06498861E4
:1046A000064A1470064B07221A702F220A701CBD8E
:1046B00075DE04084C1A060820020020880000203D
:1046C0007A0100201CB502208DF8050001208DF82C
:1046D000040000208DF806001C2000906946024866
:1046E00003F0ECFA1CBD00000010024031B582B0AE
:1046F0002B4D0421284603F036FB0821284603F001
:1047000034FB00BF00BF00BF00BF0421284603F0F8
:104710002CFB00BF0821284603F027FB0421284674
:1047200003F021FB002101914FF6FF7429E09DF871
:104730000410072912D9BDF80810080404D5102167
:10474000284603F012FB03E01021284603F00BFB80
:10475000BDF8081004EA4100029003E01021284649
:1047600003F001FB0821284603F0FDFA00BF00BF5B
:1047700000BF0821284603F0F8FA9DF80410491CF0
:1047800001919DF804001828D1D30421284603F094
:10479000ECFA03B02846BDE83040082103F0E5BA42
:1047A0000010024008B538208DF8000003208DF875
:1047B00001008DF8020001208DF8030068460DF01D
:1047C0000BFA08BD70B5594DA97928460024406AF6
:1047D00005F14406462964D01BDC152935D016297D
:1047E00049D040297ED140F6051119F013FD2978F2
:1047F00021B12978491E29702978745429786A785A
:10480000914200D16C70BDE870404849443115F0C8
:104810007CB94D2959D04E2970D04F2962D140F62C
:10482000341119F0F7FC297821B12978491E297033
:104830002978745429786A78914200D16C70BDE867
:1048400070403A49443115F060B940F66B0119F0F7
:10485000E1FC297821B12978491E297029787454FE
:1048600029786A78914200D16C70BDE870402F4978
:10487000443115F04AB940F66C0119F0CBFC2978A7
:1048800021B12978491E29702978745429786A78C9
:10489000914200D16C70BDE870402449443115F05C
:1048A00034B940F60E1119F0B5FC297821B12978F8
:1048B000491E29702978745429786A78914200D168
:1048C0006C701A49443115F020F940F63211686ACB
:1048D00019F0A0FC297821B12978491E297029787E
:1048E000745400E020E029786A78914200D16C701D
:1048F000BDE870400D49443115F007B940F6331159
:1049000019F088FC297821B12978491E2970297865
:10491000745429786A78914200D16C70BDE8704077
:104920000249443115F0F1B870BD00007801002053
:104930002DE9F0416F4801786F48704F002480697D
:104940006F4D704E252979D01CDC1D2937D01E29CA
:104950004AD01F295DD020297ED140F6760119F07A
:1049600059FC297821B12978491E297029787C546D
:1049700029783278914200D13470BDE8F0415F4926
:1049800015F0C3B8262973D0272967D0282966D007
:104990005C2961D140F6441119F03CFC297821B121
:1049A0002978491E297029787C54297832789142D7
:1049B00000D13470BDE8F041504915F0A6B840F67A
:1049C000730119F027FC297821B12978491E297033
:1049D00029787C5429783278914200D13470BDE82E
:1049E000F041464915F091B840F6740119F012FCF7
:1049F000297821B12978491E297029787C54297891
:104A00003278914200D13470BDE8F0413B4915F055
:104A10007CB840F6750119F0FDFB297821B12978A1
:104A2000491E297029787C5429783278914200D126
:104A30003470BDE8F041314915F067B840F67B01AC
:104A400019F0E8FB297821B12978491E29702978C5
:104A50007C542978327803E049E009E01DE031E038
:104A6000914200D13470BDE8F041244915F04DB8B1
:104A700040F67C0119F0CEFB297821B12978491E36
:104A8000297029787C5429783278914200D1347089
:104A9000BDE8F041194915F038B840F67D0119F02C
:104AA000B9FB297821B12978491E297029787C54CD
:104AB00029783278914200D13470BDE8F0410F4935
:104AC00015F023B840F67E0119F0A4FB297821B136
:104AD0002978491E297029787C54297832789142A6
:104AE00000D13470BDE8F041044915F00EB8BDE8BE
:104AF000F0810000C7010020E0010020BC0100207F
:104B000078010020790100202DE9F0412748017843
:104B10002748284F00248068274D284E182918D090
:104B200043292BD056293ED140F62D1119F072FBA6
:104B3000297821B12978491E297029787C5429784F
:104B40003278914200D13470BDE8F041194914F037
:104B5000DCBF40F66E0119F05DFB297821B12978A0
:104B6000491E297029787C5429783278914200D1E5
:104B70003470BDE8F0410F4914F0C7BF40F6111181
:104B800019F048FB297821B12978491E2970297824
:104B90007C5429783278914200D13470BDE8F041DC
:104BA000044914F0B2BFBDE8F0810000C701002045
:104BB000CC010020BC0100207801002079010020F8
:104BC0002DE9F0417948017879487A4F002440680E
:104BD000794D7A4E10297DD008DCA1F10B01052911
:104BE00079D2DFE801F02035748DA200512944D03C
:104BF000522957D053296FD054296CD140F638111F
:104C000019F008FB297821B12978491E29702978E3
:104C10007C5429783278914200D13470BDE8F0415B
:104C2000644914F072BF4FF4066119F0F3FA297861
:104C300021B12978491E297029787C542978327845
:104C4000914200D13470BDE8F0415A4914F05DBF83
:104C500040F6610119F0DEFA297821B12978491E60
:104C6000297029787C5429783278914200D13470A7
:104C7000BDE8F0414F4914F048BF40F6351119F036
:104C8000C9FA297821B12978491E297029787C54DC
:104C900029783278914200D13470BDE8F04145491D
:104CA00014F033BF40F6361119F0B4FA297821B167
:104CB0002978491E297029787C54297832789142C4
:104CC00000D13470BDE8F0413A4914F01EBF40F6FF
:104CD000620102E03EE067E051E019F09BFA2978BA
:104CE00021B12978491E297029787C542978327895
:104CF000914200D13470BDE8F0412E4914F005BF57
:104D000040F6630119F086FA297821B12978491E05
:104D1000297029787C5429783278914200D13470F6
:104D2000BDE8F041234914F0F0BE40F6640119F0EB
:104D300071FA297821B12978491E297029787C5483
:104D400029783278914200D13470BDE8F041194998
:104D500014F0DBBE40F6650119F05CFA297821B148
:104D60002978491E297029787C5429783278914213
:104D700000D13470BDE8F0410E4914F0C6BE40F6D3
:104D8000371119F047FA297821B12978491E29707D
:104D900029787C5429783278914200D13470BDE86A
:104DA000F041044914F0B1BEBDE8F081C701002014
:104DB00010020020BC0100207801002079010020B1
:104DC0002DE9F04128480078284A294F0024294D30
:104DD000294E112819D012282DD0582841D140F63B
:104DE0002E11506819F016FA297821B12978491E38
:104DF000297029787C5429783278914200D1347016
:104E0000BDE8F0411A4914F080BE40F666015068D2
:104E100019F000FA297821B12978491E29702978DA
:104E20007C5429783278914200D13470BDE8F04149
:104E30000F4914F06ABE40F66701506819F0EAF9AC
:104E4000297821B12978491E297029787C5429783C
:104E50003278914200D13470BDE8F041044914F039
:104E600054BEBDE8F0810000C70100206C010020A5
:104E7000BC01002078010020790100200148006871
:104E800070470000EC03002010B50549054800F00C
:104E90000DF80548016841F00201016010BD0000F5
:104EA00020800010106402403C000020074A90421D
:104EB00001D2074801E005481038064A8B0001EA94
:104EC000020101D5C16070478160704710640240E3
:104ED000006002407D0F7D0F002904D0016841F081
:104EE000010101607047016821F001010160704714
:104EF0000B0609D522B1436943F08003436103E007
:104F0000436923F080034361802905D001F01E012D
:104F10001AB102680A430260704702688A4302605D
:104F20007047000030B50368124A1340CC680A6825
:104F30002243D1E905452C432243CC6922430C6A24
:104F400022434C6A22438C6A22434C6B22438C6B73
:104F500022431A430260426922F00703D1E90B247D
:104F600022431A4342610A6942604A688260896842
:104F7000C16030BD3F801CF0F8B50546006803F005
:104F80003BFE0090448ED0F88860684603F07EFEB9
:104F900006B1012604F0010428681AF05DF80EB18C
:104FA000002006E00CB1012003E008B1022000E07F
:104FB00003201B4951F82010686858B302280CD010
:104FC000052802D0122828D103E028461BF078FCDF
:104FD00023E028461DF057FD1FE06A69E8694FF09D
:104FE000FF33801AA0F1080203EB6204421CAB6994
:104FF000001B4510A3EB6206C86905F015FA06E030
:105000003219311B284604F099FB641E6D1C002CDC
:10501000F6DA02E0286819F0E3FC0020F8BD000091
:1050200090CD0608044A0349116004490A6B0863DD
:1050300010467047F0030020A8070020AC070020AE
:1050400038B50D46002403F0D7FD0090C06B29460B
:1050500003F0B4FE0546684603F018FE1DB128466D
:1050600003F0CAFD0446204638BD704711B54FF421
:105070007A7402E0204600F006F8BDF800104A1EDF
:105080000092F7D218BD01B582B000200190042132
:1050900010E0009100BF00BF00BF00BF00BFBDF81F
:1050A0000000401E0004000C0090F3D1BDF8040085
:1050B000401C0190BDF80400BDF808209042E8D3E0
:1050C0000EBD000010B52DED028B20490A78204C52
:1050D000B2EE048A022AE0681ED00978032918D1AA
:1050E0001C4991ED000A20EE080ABDEEC00A10EE40
:1050F000101A09B202F010FF174890ED000A20EED6
:10510000080ABDEEC00A10EE100A01B2206902F0D2
:1051100003FFBDEC028B10BD104991ED000A20EE9B
:10512000080ABDEEC00A10EE101A09B202F0F4FE31
:105130000B4890ED000A20EE080ABDEEC00A10EE02
:10514000100A01B2206902F0E7FEE2E7C401002084
:10515000FC01002028000020300000202400002056
:105160002C0000201CB51048C07901281AD1FF205E
:1051700005F05AF9022005F08FF9B4200021CDE99D
:105180000010032306220C214FF4C37004F0B2F97F
:1051900002B00C23BDE8104040F27F120421034806
:1051A00004F02EBB1CBD00008800002088190508F3
:1051B00031B52AF0EDFDA0202AF0B2FD2AF018FE4C
:1051C00070B99DF800002AF0ABFD2AF011FE38B945
:1051D0002AF0DEFDA1202AF0A3FD2AF009FE18B175
:1051E0002AF0F2FD002038BD2AF06EFD034C20703D
:1051F0002AF052FD2AF0E8FD207838BD800000201A
:1052000070B50120FFF7D4FFFE4C20600120FFF7AE
:10521000CFFF20602068000220600220FFF7C8FF57
:105220002168084420602068000220600320FFF706
:10523000BFFF21680844206020680002206004202D
:10524000FFF7B6FF2168084420600520FFF7B0FF94
:10525000ED4D28602868000228600620FFF7A8FFAF
:105260002968084428602868000228600720FFF7A2
:105270009FFF2968084428602868000228600820E9
:10528000FFF796FF296808442860C020FFF790FFC9
:105290006063606B00026063C120FFF789FF616B90
:1052A00008446063606B00026063C220FFF780FF08
:1052B000616B08446063606B00026063C320FFF7AA
:1052C00077FF616B08446063C420FFF771FF686378
:1052D000686B00026863C520FFF76AFF696B0844CA
:1052E0006863686B00026863C620FFF761FF696B43
:1052F00008446863686B00026863C720FFF758FFC3
:10530000696B08446863C820FFF752FFA063A06B75
:105310000002A063C920FFF74BFFA16B0844A06304
:10532000A06B0002A063CA20FFF742FFA16B0844F4
:10533000A063A06B0002A063CB20FFF739FFA16B35
:105340000844A063CC20FFF733FFA863A86B0002DA
:10535000A863CD20FFF72CFFA96B0844A863A86BB6
:105360000002A863CE20FFF723FFA96B0844A863BF
:10537000A86B0002A863CF20FFF71AFFA96B0844AF
:10538000A8630920FFF714FF606060680002606096
:105390000A20FFF70DFF6168084460606068000242
:1053A00060600B20FFF704FF61680844606060687C
:1053B000000260600C20FFF7FBFE6168084460603B
:1053C0000D20FFF7F5FE68606868000268600E2037
:1053D000FFF7EEFE6968084468606868000268606C
:1053E0000F20FFF7E5FE69680844686068680002FE
:1053F00068601020FFF7DCFE6968084468601120CF
:10540000FFF7D6FEA060A0680002A0601220FFF7A0
:10541000CFFEA1680844A060A0680002A06013202D
:10542000FFF7C6FEA1680844A060A0680002A06063
:105430001420FFF7BDFEA1680844A0601520FFF707
:10544000B7FEA860A8680002A8601620FFF7B0FEAB
:10545000A9680844A860A8680002A8601720FFF7A0
:10546000A7FEA9680844A860A8680002A8601820E0
:10547000FFF79EFEA9680844A8601920FFF798FE70
:10548000E060E0680002E0601A20FFF791FEE1684A
:105490000844E060E0680002E0601B20FFF788FE3F
:1054A000E1680844E060E0680002E0601C20FFF76B
:1054B0007FFEE1680844E0601D20FFF779FEE860A8
:1054C000E8680002E8601E20FFF772FEE968084401
:1054D000E860E8680002E8601F20FFF769FEE968FD
:1054E0000844E860E8680002E8602020FFF760FEFA
:1054F000E9680844E8602120FFF75AFE206120692E
:10550000000220612220FFF753FE21690844206138
:105510002069000220612320FFF74AFE2169084428
:1055200020612069000220612420FFF741FE2169EB
:10553000084420612520FFF73BFE2861286900020E
:1055400028612620FFF734FE29690844286128696C
:10555000000228612720FFF72BFE296908442861F3
:105560002869000228612820FFF722FE29690844E3
:1055700028612920FFF71CFE6061606900026061FC
:105580002A20FFF715FE6169084460616069000226
:1055900060612B20FFF70CFE61690844606160695F
:1055A000000260612C20FFF703FE6169084460611E
:1055B0002D20FFF7FDFD68616869000268612E20FB
:1055C000FFF7F6FD6969084468616869000268616F
:1055D0002F20FFF7EDFD69690844686168690002E2
:1055E00068613020FFF7E4FD696908446861AB2019
:1055F000FFF7DEFDE062E06A0002E062AC20FFF748
:10560000D7FD03E0340B0020880B0020E16A08443A
:10561000E062E06A0002E062AD20FFF7C9FDE16AE6
:105620000844E062E06A0002E062AE20FFF7C0FDDD
:10563000E16A0844E062AF20FFF7BAFDE862E86A79
:105640000002E862B020FFF7B3FDE96A0844E862AF
:10565000E86A0002E862B120FFF7AAFDE96A08449F
:10566000E862E86A0002E862B220FFF7A1FDE96A99
:105670000844E862B720FFF79BFD2063206B00021F
:105680002063B820FFF794FD216B08442063206B52
:1056900000022063B920FFF78BFD216B08442063D3
:1056A000206B00022063BA20FFF782FD216B0844C3
:1056B0002063BB20FFF77CFD2863286B0002286372
:1056C000BC20FFF775FD296B08442863286B000296
:1056D0002863BD20FFF76CFD296B08442863286B05
:1056E00000022863BE20FFF763FD296B084428638E
:1056F0003120FFF75DFDA061A0690002A0613220AA
:10570000FFF756FDA1690844A061A0690002A061ED
:105710003320FFF74DFDA1690844A061A069000294
:10572000A0613420FFF744FDA1690844A061352041
:10573000FFF73EFDA861A8690002A8613620FFF7C7
:1057400037FDA9690844A861A8690002A86137204B
:10575000FFF72EFDA9690844A861A8690002A861A5
:105760003820FFF725FDA9690844A8613920FFF713
:105770001FFDE061E0690002E0613A20FFF718FDDB
:10578000E1690844E061E0690002E0613B20FFF765
:105790000FFDE1690844E061E0690002E0613C203E
:1057A000FFF706FDE1690844E0613D20FFF700FDD9
:1057B000E861E8690002E8613E20FFF7F9FCE96969
:1057C0000844E861E8690002E8613F20FFF7F0FC67
:1057D000E9690844E861E8690002E8614020FFF7F0
:1057E000E7FCE9690844E8614120FFF7E1FC206239
:1057F000206A000220624220FFF7DAFC216A084496
:105800002062206A000220624320FFF7D1FC216A57
:1058100008442062206A000220624420FFF7C8FC8E
:10582000216A084420624520FFF7C2FC2862286AEA
:10583000000228624620FFF7BBFC296A0844286260
:10584000286A000228624720FFF7B2FC296A084450
:105850002862286A000228624820FFF7A9FC296A0A
:1058600008442862D020FFF7A3FCE063E06B00024D
:10587000E063D120FFF79CFCE16B0844E063E06B40
:105880000002E063D220FFF793FCE16B0844E06381
:10589000E06B0002E063D320FFF78AFCE16B084471
:1058A000E063D420FFF784FCE863E86B0002E86360
:1058B000D520FFF77DFCE96B0844E863E86B000244
:1058C000E863D620FFF774FCE96B0844E863E86BF3
:1058D0000002E863D720FFF76BFCE96B0844E8633C
:1058E000D820FFF765FC2064206C00022064D920DA
:1058F000FFF75EFC216C08442064206C00022064E9
:10590000DA20FFF755FC216C08442064206C00026B
:105910002064DB20FFF74CFC216C08442064DC2071
:10592000FFF746FC2864286C00022864DD20FFF79E
:105930003FFC296C08442864286C00022864DE209F
:10594000FFF736FC296C08442864286C00022864A0
:10595000DF20FFF72DFC296C084428644920FFF75D
:1059600027FC6062606A000260624A20FFF720FC48
:10597000616A08446062606A000260624B20FFF75F
:1059800017FC616A08446062606A000260624C2031
:10599000FFF70EFC616A084460624D20FFF708FCC7
:1059A0006862686A000268624E20FFF701FC696A5B
:1059B00008446862686A000268624F20FFF7F8FBDB
:1059C000696A08446862686A000268625020FFF7EA
:1059D000EFFB696A08446862E020FFF7E9FBE064D6
:1059E000E06C0002E064E120FFF7E2FBE16C0844B8
:1059F000E064E06C0002E064E220FFF7D9FBE16CB8
:105A00000844E064E06C0002E064E320FFF7D0FBB0
:105A1000E16C0844E064E420FFF7CAFBE864E86C4A
:105A20000002E864E520FFF7C3FBE96C0844E86482
:105A3000E86C0002E864E620FFF7BAFBE96C084472
:105A4000E864E86C0002E864E720FFF7B1FBE96C6A
:105A50000844E864E820FFF7ABFB2065206D0002F6
:105A60002065E920FFF7A4FB216D08442065206D27
:105A700000022065EA20FFF79BFB216D08442065AA
:105A8000206D00022065EB20FFF792FB216D08449A
:105A90002065EC20FFF78CFB2865286D0002286547
:105AA000ED20FFF785FB296D08442865286D00026D
:105AB0002865EE20FFF77CFB296D08442865286DDA
:105AC00000022865EF20FFF773FB296D0844286565
:105AD0005120FFF76DFBA062A06A0002A062522075
