:020000040800F2
:10000000A890002095020008270B0108EDBF00080A
:10001000250B0108F52E000871AD01080000000055
:10002000000000000000000000000000BB650108A7
:100030006B54000800000000B93A0108A1760108DD
:10004000AF020008AF020008AF020008AF020008CC
:10005000AF020008AF020008AF020008AF020008BC
:10006000AF020008AF020008AF020008AF020008AC
:10007000AF020008AF020008AF020008AF0200089C
:10008000AF020008AF020008AF020008AF0200088C
:10009000AF020008AF020008AF020008AF0200087C
:1000A000AF020008AF020008AF020008AF0200086C
:1000B000AF020008B17B0108BD7E0108AF02000855
:1000C000AF020008AF020008AF020008AF0200084C
:1000D000AF02000825A90108AF0200082DAA0108F7
:1000E000AF020008AF020008AF020008AF0200082C
:1000F000AF020008AF020008AF020008AF0200081C
:10010000AF020008AF020008C5850108AF02000871
:10011000AF020008AF020008A5860108AF02000880
:1001200089520008AF020008AF020008AF020008C1
:10013000AF020008AF020008AF020008AF020008DB
:10014000AF020008AF020008AF020008AF020008CB
:10015000AF020008AF020008AF020008AF020008BB
:10016000AF020008AF020008AF020008AF020008AB
:10017000AF020008AF020008AF020008AF0200089B
:10018000AF020008AF02000800F002F800F072F8B9
:100190000AA090E8000C82448344AAF10107DA45E2
:1001A00001D100F067F8AFF2090EBAE80F0013F0C2
:1001B000010F18BFFB1A43F0010318473CB90400B4
:1001C0005CB904000A444FF0000C10F8013B13F036
:1001D000070408BF10F8014B1D1108BF10F8015BA0
:1001E000641E05D010F8016B641E01F8016BF9D193
:1001F00013F0080F1EBF10F8014BAD1C0C1B09D1EA
:100200006D1E58BF01F801CBFAD505E014F8016B5B
:1002100001F8016B6D1EF9D59142D6D370470000ED
:100220000023002400250026103A28BF78C1FBD8FF
:10023000520728BF30C148BF0B60704766292CF0B9
:100240002986642900F08280002070471FB52CF0B9
:1002500014FE00F093FE0400002000212CF016F89C
:10026000401C6060002000212BF0FAFFE0601FBD01
:1002700010B510BD00F0F6FF1146FFF7E7FF2BF0B9
:100280001FFB01F09FFA03B4FFF7F2FF03BC01F07C
:10029000CDFC00000948804709480047FEE7FEE71B
:1002A000FEE7FEE7FEE7FEE7FEE7FEE7FEE7FEE726
:1002B00004480549054A064B704700006977010864
:1002C00089010008A88A0020A8900020A88C00209E
:1002D000A88C00200FB41CB5074B06AA7B446946C6
:1002E0000090059800F03BFD0020694600F04AFDB3
:1002F0001CBC5DF814FB0000A50A000070B50446A4
:1003000085690068C10601D5302600E02026C007B7
:1003100007D070BDD4E9012130469047206A401CC7
:1003200020626D1EF6D570BD70B5044685690078F3
:10033000C00707D170BDD4E9012120209047206A71
:10034000401C20626D1EF6D570BD00002DE9F04105
:100350000646002410687529314616A510D0AFF363
:100360000080002802DA404213A507E031688A07BE
:1003700001D512A502E0490704D511A5012401E029
:10038000AFF3008000210A2206F1240709E0B0FB48
:10039000F2FCB0FBF2F302FB1C003030785418463C
:1003A000491C0028F3D123462A463046BDE8F041D7
:1003B00000F067BA000000002D0000002B000000D4
:1003C000200000002DE9F05F894604464FF0000A46
:1003D000DFF824B1FB44C0F820A02046E16888473C
:1003E00000287DD0252806D0D4E901219047206A35
:1003F000401C2062F1E700255F462046E1688847FF
:100400002028064607DB312E05D2B81910F8200C3B
:1004100008B10543F1E7A80701D525F00405C4F8A4
:100420001CA00027C4F818A02A2E09D030462AF0B4
:10043000E9FF38B304EB8708303EC8F8186019E0CC
:1004400059F8041B204604EB87029161E168884754
:10045000012F064618D1E069002820DA25F0200592
:100460001DE0D8F8180000EB800006EB40003038A3
:10047000C8F818002046E168884706462AF0C2FFFF
:100480000028EED1012F0AD02E2E08D12046E16897
:1004900088477F1C0646022F45F02005C4DBA06973
:1004A000002803DA404245F00105A061E80701D0C9
:1004B00025F01005A6B1A6F14100192802D8203672
:1004C00045F400654A463146204625604D46FFF713
:1004D000B5FE60B1012807D0ED1D25F0070000E052
:1004E00007E000F1080978E705F1040975E73046EF
:1004F0007AE7206ABDE8F09F3CB6040070B5064676
:1005000000F0B0F90468054630460A22002100F0E8
:1005100091FC2C6070BD40EA0103024630B59B0798
:1005200010D14FF0013400E008C208C91D1B9D43E3
:1005300015EAC41FF8D013F0FF0102F8011B0DD01B
:100540001B0AF8E711F8013B002B02F8013B05D02C
:1005500011F8013B002B02F8013BF3D130BD10B57F
:10056000431C02E010F8011B71B18107FAD14FF072
:10057000013202C88C1A8C4314EAC211F9D0C01A95
:100580000A0603D0C01E10BDC01A10BD0A0401D057
:10059000801E10BD0902FCD0401E10BD421E12F884
:1005A000013F002BFBD111F8013B002B02F8013B6E
:1005B000F9D17047032A40F2308010F0030C00F0AC
:1005C000158011F8013BBCF1020F624498BF11F88D
:1005D00001CB00F8013B38BF11F8013BA2F1040246
:1005E00098BF00F801CB38BF00F8013B11F00303BE
:1005F00000F06780083AC0F0088051F8043B083AE0
:1006000051F804CBA0E80810F5E7121D5CBF51F8C3
:10061000043B40F8043BAFF30080D20724BF11F83D
:10062000013B11F801CB48BF11F8012B24BF00F8A2
:10063000013B00F801CB48BF00F8012B7047431A7B
:1006400028BF9A427FF6B6AF032A1044114440F205
:10065000268010F0030F1EBF11F8013D521E00F856
:10066000013D10F0030F7FF4F6AF11F0030300F02B
:100670002C84083AC0F00B8051F8043D083A51F838
:1006800004CD40F8043D40F804CDFFF7F3BF121D40
:100690005CBF51F8043D40F8043DAFF30080D20741
:1006A00024BF11F8013D11F801CD48BF11F8012C0C
:1006B00024BF00F8013D00F801CD48BF00F8012C2F
:1006C000704710B5203AC0F00B80B1E81850203ABE
:1006D000A0E81850B1E81850A0E81850BFF4F5AFE2
:1006E0005FEA027C24BFB1E81850A0E8185044BF6C
:1006F00018C918C0BDE810405FEA827C24BF51F8D9
:10070000043B40F8043B08BF7047D20728BF31F8CC
:10071000023B48BF11F8012B28BF20F8023B48BF1D
:1007200000F8012B704702F0FF0343EA032242EA7C
:10073000024200F0F6BB4FF0000200B513469446AB
:100740009646203922BFA0E80C50A0E80C50B1F129
:100750002001BFF4F7AF090728BFA0E80C5048BF3D
:100760000CC05DF804EB890028BF40F8042B08BFDB
:10077000704748BF20F8022B11F0804F18BF00F8D7
:10078000012B704710B5044610F0030F08BF11F09D
:10079000030F40F015804FF0013E121FC0F20E8093
:1007A00051F8043BA3EB0E0C2CEA030C1CEACE1C04
:1007B00008BF40F8043BF0D0A1F1040102F10402AB
:1007C000521E08DB11F8013B002B00F8013BF7D16A
:1007D000114600F0A4FB204610BD00004FF0013C84
:1007E00050F8042B51F8043B9A4221D1A2EB0C03A0
:1007F000934313EACC1317D150F8042B51F8043B60
:100800009A4215D1A2EB0C03934313EACC130BD1FC
:1008100050F8042B51F8043B9A4209D1A2EB0C0387
:10082000934313EACC13DBD04FF00000704700BFB6
:10083000D01A01BAB1FA81F101F0180122FA01F0DF
:10084000CB40C1F12001DBB2C0B2C01A2CFA01F3D7
:10085000D11A914311EAC311E6D17047704770472E
:100860007047000000487047488A002010B5FFF725
:10087000F9FF006810BD10B50446FFF7F3FF0460F0
:1008800010BD2DE9F0470D4699469246044600F109
:1008900024080168880604D5E06921F01001216070
:1008A00000E00120A84201DD471B00E00027A1690C
:1008B0007A1902EB0900081AA0612078C00602D458
:1008C0002046FFF71BFD002608E0D4E901211AF8B5
:1008D00006009047206A401C761C20624E45F4DBDF
:1008E0002078C0060AD52046FFF708FD06E0D4E9C7
:1008F000012130209047206A401C2062381EA7F159
:100900000107F4DC07E0D4E9012118F8050090475D
:10091000206A401C2062281EA5F10105F3DC204658
:10092000FFF702FD2078000602D50220BDE8F0871F
:100930000120FBE770472DE9FF4F0C461E464FF0A4
:10094000FF378BB0D2E90001DDF860800A908A465B
:10095000C1F30A5505B93D46002108464FF0000095
:10096000BAF1000F00F4400005DA00EB80004FF40C
:10097000400101EA50004FEA9059B9F1010F00DD42
:10098000B9460A9850EA4A000ED044F61050A5F233
:10099000FF3545432F14B8F1000F1ED07542291EB4
:1009A0001EDDC9F100021CE0B8F1010F4FF000009C
:1009B00001D0302103E0F24305E02154401CB04255
:1009C000FBDB30460022002121540B99C1F808803E
:1009D000C1E900200FB0BDE8F08FBD1B6D1CDEE744
:1009E0004A4600DA694206A800F0CAFB06AB93E863
:1009F000070003AB83E8070050460A9901F030F97D
:100A00008DE80700A0F500501F3800900398002DD6
:100A10000ADD42F21F014A460844002303A903905D
:100A2000684601F0DBFB09E0A0F500504A461F389C
:100A3000002303A90390684601F0FAFB8DE8070044
:100A40000004000C03D04FF0FF30410800E01046D6
:100A5000B8F1000F03D00022009215461EE0751E6B
:100A600005D400F08FFA303262556D1EF9D5B346C9
:100A70000122084302D000227F1C04E020783028A5
:100A800001D100227F1E002A099784D01DE0112D7C
:100A900007DA00F077FA303262556D1C50EA010235
:100AA000F5D1084302D00098C8B10EE00021681EBD
:100AB00005E0235C625C63542254401E491C814261
:100AC000F7DBAB46A81B401E0990002004F80B0082
:100AD0000B98099AC0F80880C0E9002B7AE7112624
:100AE0004FF0000857E72DE9F04F88460446D21D25
:100AF00022F0070191B0D1E90001CDE90A0124F00B
:100B0000F5FC02460B98C00F01D02D2007E02068AD
:100B1000810701D52B2002E0202101EAC000032A31
:100B2000099001D0072A05DB03464146204600F024
:100B300077FA0BE12078800601D5E06900E0062015
:100B4000B8F1650F814606D0B8F1660F18D0B8F13C
:100B5000670F70D131E00020B9F1110F009001DB77
:100B6000112301E009F101030AAA01A90CA8FFF76A
:100B7000E2FEDDE90C70002609F10105834647E03D
:100B800001204B4600904FF000470AAA01A90CA88B
:100B9000FFF7D1FEDDE90DB00C995D46002610B9D6
:100BA00009F101000D18B9EB050003D4C0F1FF36BF
:100BB00009F10105A5EB09002BE0B9F1010F01DAFC
:100BC0004FF001090020B9F1110F0090484601DDF6
:100BD000112300E003460AAA01A90CA8FFF7ABFE07
:100BE000DDE90C704D4600268346207800070AD4C4
:100BF000AB4500DA5D4601A8012D04DD411911F86D
:100C0000011C302907D04F4502DA17F1040F04DA2E
:100C1000012082460FE06D1EEEE7002F02DCED1B87
:100C20003E4403E0781CA84200DD7D1CB81B00F1A7
:100C3000010A4FF000472078000703D4AA4501DBE2
:100C40004FF0FF3A0021B7F1004F0DF143088DF846
:100C5000431024D002202B23002F01DA7F422D23C2
:100C60000A21021EA0F1010000DC5FB197FBF1FC3C
:100C700097FBF1F201FB1C7C17460CF1300C08F8D5
:100C800001CDEEE7A8F1010003702188090501D527
:100C9000452100E06521A0F1010800F8011C099838
:100CA0000FA9A1EB0807FF1D00B10120411901EBBD
:100CB000EA70A1693844081A401EA0612078C00675
:100CC00002D42046FFF71AFB099828B1D4E9012184
:100CD0009047206A401C20622078C00622D520461A
:100CE000FFF70CFB1EE0002E04DBB34502DD01A87C
:100CF000805D00E03020D4E901219047206A401C4B
:100D00002062761CAAF101005FEA000A0AD100F015
:100D100035F9C0680168405CD4E901219047206A38
:100D2000401C2062281EA5F10105DCDC07E0D4E9A7
:100D3000012118F8010B9047206A401C2062381EE0
:100D4000A7F10107F3DC2046FFF7EEFA032011B00C
:100D500041E6000001694A1C02610878704700B54D
:100D60008FB0CDE901310021059105497944CDE9E4
:100D7000031011466846FFF725FB0FB000BD0000C9
:100D8000E5FFFFFF0A6802F8010B0A6070470000E8
:100D90000FB4002300B589B00CA900910B99CB606A
:100DA000214B7B440693214B7B44079304236FF034
:100DB0000042CDE901321E4A7A446B46089202464F
:100DC00000202CF0C9F809B05DF814FB70B5064698
:100DD0004FF0FF3015460C46324686B00091CDE903
:100DE000010169460020049004A8FFF7D1FF0246E4
:100DF0000498211825B108B1084600E02046286073
:100E0000049800280DD0002A02DD0098884208D0FE
:100E10003246081B69460094CDE9010404A8FFF797
:100E2000B7FF06B070BD0000FB0200001303000016
:100E3000530200002DE9F04791460F4680460446D4
:100E4000002614F8015B2DB100F090F80068405DB9
:100E5000C007F6D12B2D02D02D2D18D0641E4A4686
:100E60003946204600F03CF927B13968A14201D14A
:100E7000C7F800804FF0020471050BD540420028EE
:100E800003DDFFF7EFFC0460A007BDE8F08746F440
:100E90008066E4E70028F8DAFFF7E4FC04606FF00E
:100EA0000040F2E7431A28BF9A427FF60AAC10448A
:100EB00010F0030F11441EBF11F8013D521E00F83F
:100EC000013D10F0030F7FF4F6AF103AC0F00A8036
:100ED00010B531E91850103A20E91850BFF4F9AFB5
:100EE000BDE81040530724BF31E9081020E908107D
:100EF00044BF51F8043D40F8043D12F0030F08BF11
:100F00007047D20728BF31F8023D48BF11F8012CC5
:100F100028BF20F8023D48BF00F8012C70474FF071
:100F200000020429C0F0128010F0030C3FF405AC5D
:100F3000CCF1040CBCF1020F18BF00F8012BA8BFC4
:100F400020F8022BA1EB0C01FFF7F7BB5FEAC17C95
:100F500024BF00F8012B00F8012B48BF00F8012B3B
:100F60007047000000487047488A002010B500F024
:100F700005F8001D10BD00BF15B302000048704702
:100F8000688A002030B5B0F10A024FEA900E71F184
:100F900000034EEA817EB0EB0E0061EB91014FEA57
:100FA000101E4EEA017E10EB0E0041EB11114FEACC
:100FB000102E4EEA016E10EB0E0041EB11214FEAAC
:100FC000104E4EEA014E10EB0E0041EB114140185D
:100FD00041F100014FEAD00040EA41704FEAD101EF
:100FE00010EB80054FEA810444EA907444EB01045D
:100FF0006D1944EB0404521BA3414FF0000348BF9A
:101000000A3200D530BD401C41F1000130BD10B5A1
:101010000446FFF7ABFF0068005D00F0010010BD63
:101020002DE9F0411F46044603260168072A01F412
:10103000006004DB08B116A505E016A503E008B1C1
:1010400015A500E015A521F010002060A069C01EC4
:10105000A0610FB1401EA0612046FFF74FF94FB1CC
:10106000D4E9012138469047206A401C2062C01C08
:10107000206206E0206AFAE7D4E9012115F8010BA5
:101080009047761EF8D22046FFF74EF9BDE8F08172
:101090004E414E006E616E00494E4600696E66001C
:1010A000426842B1016811F8013B23B1521EC0E908
:1010B0000012184670470121C160881E70474268BF
:1010C0005AB1C368016843B983688B4205D0491E91
:1010D000521CC0E90012002070474FF0FF307047EB
:1010E0002DE9F05F824615468B4600270AF1010480
:1010F000B9460078302801D09DB113E014F8010BF7
:101100000127782803D0582801D045B10AE00DB155
:10111000102D07D1002714F8010B102502E0082537
:1011200000E00A250026B0460EE005FB080005FB9E
:1011300006F101271FFA80F801EB1046B6F5803F53
:1011400000D3B94614F8010B294600F0B0F8002886
:10115000EBDABBF1000F05D00FB1641E00E054467E
:10116000CBF80040B9F1000F06D0FFF77BFB02215E
:101170000160C81EBDE8F09F48EA0640FAE700009B
:101180002DE9F047814616468AB0354878440DC8A7
:101190008DE80D0032487844801C03AC0DC884E80B
:1011A0000D0041F69B300844372190FBF1F290FB93
:1011B000F1F5A5F1800501FB12041B3C02D5644248
:1011C000012000E00020DFF898A080460027FA44C4
:1011D000AAF1BE0A0EE0E0070AD03246684607EBE5
:1011E000470101230AEB810101F022F88DE8070095
:1011F00064107F1C002CEED1194F7F44AE3F19E0E4
:10120000E80715D007EB04100DF1180A90E80E005E
:101210008AE80E00C068F04201D198190890324661
:10122000012306A903A801F003F803AB83E8070034
:101230006D10641C002DE3D14FF001033246694666
:10124000B8F1000F03A802D000F0C8FF01E000F0E1
:10125000EFFFC9E90001C9F808200AB0BDE8F0872E
:1012600014A904007546FFF77DFEAE4605006946E9
:10127000534620F00700854618B020B5FFF718F850
:10128000BDE820404FF000064FF000074FF0000887
:101290004FF0000B21F00701AC46ACE8C009ACE808
:1012A000C009ACE8C009ACE8C0098D4670473A28CF
:1012B00000D2303820F02002412A01D3A2F13700B9
:1012C000884201D34FF0FF30704700002DE9FF4FF7
:1012D00006468BB00878FF2806D0491C2D2805D07B
:1012E00000244FF0000908E000200CE00124F8E79A
:1012F00009EB8903491C00EB43090878FF28F7D163
:1013000014B1C9F100008146107800252C46AA4688
:1013100029462D2801D02B2804D1521C2D2813D06A
:10132000002082468B461078FF280FD04FF0000C2B
:101330000A21521CA5FB017804FB018105FB0C115D
:10134000C5194BEB0104EEE70120EAE7002108464E
:101350004FF00000BAF1000F02D000EB800040080F
:10136000C0F38157012F01DD4FF0FF370E9955EA89
:10137000040009EB01080BD04FF0020918F5FA7FC1
:1013800016DA4FEACA70002F706008DD012007E00E
:101390004FEACA70C6E900B00FB0BDE8F08F002078
:1013A0003060FFF75FFAC0F800901821084616E099
:1013B000B8F5FA7F18DD002F02DAF748784401E02B
:1013C000F6487844D0E90010C6E9001040EACA7037
:1013D0007060FFF747FAC0F80090142108460FB07C
:1013E000BDE8F04F2BF053BD002108464FF0000040
:1013F000B8F10001099002DAC7F1000200E03A46B4
:1014000001DAC8F1000106A8FFF7BAFE06AB93E8BF
:10141000070003AB83E8070044F23E005BEA0401E7
:101420000090584604D144F21E012C465D460091BE
:10143000210C0904014306D10099240444EA15440F
:101440002D041039009104F07F41014306D1009929
:10145000240244EA15642D020839009104F0704119
:10146000014306D10099240144EA15742D01091F96
:10147000009104F04041014306D10099A40044EAE0
:101480009574AD00891E009104F00041084304D119
:1014900000986D196441401E00904FF001033A46D8
:1014A0006846B8F1000FCDE9014503A902DD00F05F
:1014B000D4FE01E000F0A7FEBAF1000F04460D468D
:1014C00001D084F00044002108464FF00000099943
:1014D00040F2FF77484010F00C0F07D124F0004095
:1014E000284303D0C4F30A50B84212D1FFF7BAF927
:1014F000C0F80090C4F30A50B8420AD1A848784412
:10150000D0E90010C6E9001004F000410843706003
:1015100042E7C6E900543FE72DE9FF4F1F464FF071
:10152000000A4FF0FF38454691B0D7E90146CDF8A3
:101530003CA0FFF723FDC0680168405C1090B969CA
:1015400012986D1C8847396A814688470028F6D171
:10155000B9F1FF3F0AD0002E24F4D06411DDB9F1B7
:101560002B0F08D0B9F12D0F0BD102E0404615B07A
:1015700013E744F48064B96912986D1C8847761E9D
:101580008146600504A901D52D2000E02B20002E06
:1015900001F1010B0DF130088DF810003FDDB9F1BC
:1015A000690F08D0B9F1490F05D0B9F16E0F02D01B
:1015B000B9F14E0F1CD13B4601A8009580E85002BE
:1015C000DDE912126FF002002BF0CAFCC11CCED173
:1015D0000EE0B96912986D1C884781461398761EF3
:1015E00044F4007405600F98401C002E0F9016DD27
:1015F000B9F1300FEDD0B9F1780F02D0B9F1580F31
:101600000DD10F9801280AD13B46CDE90054DDE900
:101610001212001F02962BF0A1FCC11CA7D1109939
:1016200089453ED144F0800406E01399681CAAF174
:10163000010A44F400740860B9696D1C1298761EA2
:10164000884730288146F0D02BE01099894505D194
:10165000200603D4761E44F0800418E0484629F0A2
:10166000D1FE08B3761E0DF123018B4544F40074BE
:1016700008D2A9F130000BF8010B200607D5AAF11A
:10168000010003E0200602D40AF101008246A00511
:1016900002D51399681C0860B96912986D1C8847B7
:1016A0008146002ED1DC53E0002E51DDB9F1650FEB
:1016B00002D0B9F1450F4BD1A00549D5B9696D1CD0
:1016C0001298761E24F440748847002E81460CDD63
:1016D0002B2804D0B9F12D0F07D144F48074B969D7
:1016E00012986D1C8847761E8146E00501D52D2194
:1016F00000E02B2108F8011BCDF8008021E0761EC8
:101700000DF13901884544F400740CD2A9F1300080
:1017100010F0FF0088F8000002D10099884509D92F
:1017200008F1010806E0E00501D51E4801E042F29B
:101730000F708246B96912986D1C884781461398CC
:101740000560002E04DD484629F05CFE0028D6D155
:10175000F96912988847FF2053468BF8000088F8F3
:10176000000000200A900B9004AA0CA90AA8FFF719
:10177000ADFDA00502D46FF00100F8E614F0240FCF
:1017800012D0E0071CD13868DDE90A12031D3B6066
:101790000068C0E9001213E060A7040052A704002B
:1017A00016A60400F1D8FFFF0AA9684624F0F0F855
:1017B000E00705D13868009A011D396000680260B1
:1017C0002846D4E610B50446AFF300802046BDE8B5
:1017D0001040FEF758BD00002DE9FF4F1F464FF0A7
:1017E0003C0987B04FF00042DDE9141001F1010817
:1017F000DDF858A002EA405003900020059083468F
:10180000054604460490B969461E08988847AAF11F
:10181000010A0290BAF1000F3BDD02982E2815D084
:101820001021FFF744FD00282EDB4FF0010B059936
:10183000014317D0B9F1000F0BDB4A46C11700F086
:10184000FBF905430C43A9F1040905E001200490CC
:101850000BE008B145F0010501200590049820B97E
:10186000361D02E0049800B1361FB969089808F1E6
:1018700001088847BBF1000FAAF1010A0290C9D004
:101880000999C1F80080C5E70298702808D050284F
:1018900006D0F96908988847BBF1000F14D04FE0D3
:1018A000002002900120BBF1000F049009D0B9691B
:1018B000089808F101088847AAF10109B9F1000F59
:1018C00007DCF969089888476FF001000BB0BDE8A4
:1018D000F08F2B2804D02D280CD14FF0FF3004902E
:1018E000B969089808F101088847A9F10109B9F117
:1018F000000FE6DD411CE4D00A21FFF7D8FC0028E8
:10190000DFDB029908F1010801EB810100EB4100E6
:101910000290B969089888470A21FFF7C8FC099A1C
:10192000A9F10109B9F1000FC2F8008001DD00281A
:10193000E7DAF969089888470499029800FB01667C
:1019400055EA040004D004F04041090002D006E04A
:10195000039898E0A40044EA9574AD00B61E04F024
:101960000041080002D16D196441761E159810F0EF
:10197000240F03D04FF00B095C4803E04FF0280917
:101980006FF07D008246564507DAAAEB06018944CE
:10199000B9F1410F01DD4FF0410901200021A9F10A
:1019A000010200F049F9024628400B462140084355
:1019B00001D0012100E00021501E029143F1FF31CE
:1019C00028402140084301D0012000E00020029976
:1019D000834651EA0B014FD0002108464FF000002A
:1019E000039900F4400039B100EB80004FF440014E
:1019F00000EBD07001EA60008015012802DD4FF095
:101A0000FF3000E013D0401C36D0029860B3BBF129
:101A1000000F0CD14A460120002100F00DF92840AA
:101A20002140084301D0012000E00020E0B1012066
:101A30004A46002100F000F9034640190A46614178
:101A40002D1A8C4111D3B9F1400F09DD159810F012
:101A5000240F02D0AAF1340603E0AAF1170600E031
:101A6000761C00254FF0004406E05B1E42F1FF3279
:101A700020EA030521EA0204CAF10100B04206DAB5
:101A80001B49039808430190002000900EE0039A40
:101A9000C4F3D321E80A0A43164940EA44500A43F2
:101AA0003146CDE90002684623F07BFF159810F01F
:101AB000240F0BD01598C00715D13868DDE9001246
:101AC000031D3B600068C0E900120CE002A86946F3
:101AD00023F05EFF1598C00705D13868029A011DF2
:101AE0003960006802604046F0E6000002FCFFFF3B
:101AF0000000F07F0000F03F2DE9FF4F92461D46A9
:101B000085B04FF00041DDE9124BDDE914727F1E14
:101B100001EA4B50414940F0FF4940EA01080021E9
:101B200022F020004928049102D04E2828D04CE011
:101B30003BA0012607C88DE80700A9690698641C28
:101B400088477F1E014606D41DF8060018B121F013
:101B5000200181420BD0E96906988847032E34D0D2
:101B6000082E32D06FF0010009B0BDE8F08F761C6E
:101B7000032E01D0082EE0D1601CCAF80000DCE77B
:101B8000A9690698641C88477F1E2AD420F020008B
:101B9000412826D1A9690698641C88477F1E20D455
:101BA00020F020004E281CD1A9690698641C8847A3
:101BB0007F1E48F4002849F48009CAF8004001D487
:101BC000282806D0E969069888475FEACB7012D0CA
:101BD00022E0A9690698641C88477F1E01D400286A
:101BE00003DAE96906988847BCE72928F1D1641C23
:101BF000CAF80040E9E71BF0240F07D028680499D1
:101C0000031D2B600068C0E9001805E02868021D6C
:101C10002A600068C0F800902046A5E70000F07F29
:101C2000494E46494E4954590000000001491820C8
:101C3000ABBEFEE726000200B2F120030AD5C2F1D6
:101C4000200301FA02F120FA03F300FA02F041EA5C
:101C50000301704700FA03F14FF00000704770472E
:101C60005FEA400C08BF91F0000F4FEA8C234FEA67
:101C7000C12243EA51514FEA1C5018BF00F5F04011
:101C80004FEA300018BF41F000415FEA6C5C00F0A1
:101C90002980BCF1FF3F08BF40F080407047130C23
:101CA00006BF12044FF0100C4FF0000C130E04BFCF
:101CB00012020CF1080C130F04BF12010CF1040CFA
:101CC000930F04BF92000CF1020CD30F04BF52001B
:101CD0000CF1010C11464FF00002A0F11F00A0EB27
:101CE0000C00704711F0004F08BF704731F0004101
:101CF0003FF4D5AF0B0C06BF09044FF0100C4FF0AA
:101D0000000C0B0E04BF09020CF1080C0B0F04BFF2
:101D100009010CF1040C8B0F04BF89000CF1020CBB
:101D2000CB0F04BF49000CF1010CCCF12003A0EB58
:101D30000C0022FA03F302FA0CF241EA030100F16B
:101D40000100704720F07F4C80EA030023F07F47BA
:101D5000ACEB070303F57C5300F0004003F1FF03F5
:101D60002DE980494FEA154B09B44FEA144325EA9F
:101D70000B4E24EA03480FF2042606EB132749080A
:101D80003E785FEA320203FB0667C7F5000707FBF0
:101D900006F64FEA54374FEAD64606F1020607FB2D
:101DA000066CCCF1005C4FEA1C472CEA074C07FBA1
:101DB00006F40CFB06F504EB15464FEA961634BF05
:101DC00000204FF000404FEAD13706FB07FC4FEAF6
:101DD0001C4C0CFB0BF7D21B03FB0CF761EB070150
:101DE0000CFB0EF7B0EB074072EB17420CFB08F749
:101DF00034BFA2EB0742B2EB074261EB17414FEA57
:101E00000C444FEA910706FB07FC4FEA1C4C0CFB05
:101E10000BF7B0EBC74072EB573203FB0CF734BF44
:101E2000A2EBC742B2EBC74261EB57310CFB0EF796
:101E3000B0EBC70072EB57720CFB08F734BFA2EB94
:101E4000C702B2EBC70261EB5771039F4FEA816192
:101E500041EA921104EBCC044FEAD1374FEA826297
:101E600006FB07FC42EA90124FEA80604FEA1C4CE6
:101E70000CFB0BF7D21B03FB0CF761EB07010CFB10
:101E80000EF7B0EB074072EB17420CFB08F734BFBC
:101E9000A2EB0742B2EB074261EB17414FEA8C55C8
:101EA0004FEA910704EB9C2406FB07FC4FEA1C4C0D
:101EB0000CFB0BF7B0EBC74072EB573203FB0CF790
:101EC00034BFA2EBC742B2EBC74261EB57310CFB08
:101ED0000EF7B0EBC70072EB57720CFB08F734BF7C
:101EE000A2EBC702B2EBC70261EB577115EB4C25B1
:101EF0004FEA816141EA92114FEA82624FEAD1379B
:101F000042EA901206FB07FC44F100044FEA8060AD
:101F10004FEA1C4C0CFB0BF7D21B03FB0CF761EBDD
:101F200007010CFB0EF7B0EB074072EB17420CFBFE
:101F300008F734BFA2EB0742B2EB074261EB17414F
:101F400015EB1C154FEA813141EA92414FEA82328A
:101F500042EA90424FEA80304FEA0C7644F10004A6
:101F600048EA03434EEA0B484FF0000EB2EB080C70
:101F700071EB030724BF624639464EEB0E0E4FF05D
:101F8000000B0018524149414BEB0B0BB2EB080C14
:101F900071EB03077BF1000B24BF624639464EEB21
:101FA0000E0E4FF0000B0018524149414BEB0B0B4A
:101FB000B2EB080C71EB03077BF1000B24BF624608
:101FC00039464EEB0E0E51EA020718BF46F00106E5
:101FD00016EB0E7655F1000254F1000103D5BDE871
:101FE0008901BDE80088BDE88901BDE80048B6194F
:101FF000524141EB0101A3F10103704780807F7ED4
:102000007D7C7B7A7978777676757473727171706E
:102010006F6E6E6D6C6C6B6A6A6968686766666520
:102020006464636362616160605F5F5E5E5D5D5CAE
:102030005C5B5B5A5A59595858575756565555551F
:102040005454535352525251515050504F4F4F4E7F
:102050004E4D4D4D4C4C4C4B4B4B4A4A4A494949CD
:10206000484848474747474646464545454444440F
:1020700044434343434242424241414146EA0646C9
:10208000A3F570534FEA164646EA42564FEAD2226B
:1020900042EA415210B54FEAD121A3F1010300F009
:1020A0002FF820F0004000F1020C00F0004701EB97
:1020B00000501146BCF5006F40EA070000D210BD89
:1020C000BAF1000F0AD01CB503B44FF004004FF072
:1020D00004014FF000000FBCBDE810404FF00001BC
:1020E000BBF1010FB9BF04484FF0FF310348002195
:1020F00040EA070010BD00BFFFFFEF7F0000F07F48
:10210000002B9C4630D477002BD01CB54FEA370704
:1021100003B44FF010004FF01001BAF1000F06D0D9
:10212000BCF1000FDCBF40F0080040F008014FF0A8
:1021300000000FBCBDE810400BF1010BBBF1010F1B
:1021400008BF5FEA170722BF12F1010211F1010176
:102150004FF0004143F1000300F0004043EA00006B
:102160007047F9D35708D0E746EA064613F1400F07
:102170004FEA16461FDD13F1200FDFBF16430A4654
:10218000002120335B42BED0C3F1200746EA064659
:1021900002FA07F74FEA164646EA0706C3F1200798
:1021A00022FA03F201FA07F721FA03F14FF00003D4
:1021B00042EA0702A7E746EA020646EA06464FEA6F
:1021C000164646EA0106BCBF46EA0646360C4FF004
:1021D00000034FF000024FF0000194E72DE9804C1E
:1021E0009A46934670B491E8380007C831EA400C2B
:1021F00048BF34EA430C03D5FFF7A4FDFFF780FF87
:10220000F0BCBDE8008C2DE9804C9A46934670B432
:1022100091E8380007C831EA400C48BF34EA430C63
:1022200003D5FFF78FFDFFF729FFF0BCBDE8008C59
:102230002DE9804C9A46934670B491E8380007C85F
:1022400010F0804F08BF13F0804F03D100F01AF850
:10225000FFF756FFF0BCBDE8008C2DE9804C9A4694
:10226000934670B491E8380007C810F0804F08BF5B
:1022700013F0804F03D100F005F8FFF7FFFEF0BC2C
:10228000BDE8008C20F07F4780EA030023F07F4CFC
:1022900007EB0C03A3F57C5300F00040A3F1FE0311
:1022A00092F0000F00F0B38095F0000F00F07780FF
:1022B0002DE901494FEA11404FEA144621EA00484E
:1022C00000FB06FC24EA064708FB06F607FB08F8B5
:1022D00000FB07F718EB06484CEB164C4FEA124B85
:1022E00018EB07484FEA15464CEB174022EA0B4E15
:1022F0000BFB06FC25EA06470EFB06F607FB0EFE67
:102300000BFB07F71EEB064E4CEB164C4FF000068E
:102310001EEB074E4CEB174B18EB0B0840F100007F
:1023200018EB0E0B58EB000840F100008F1A4FF02D
:1023300000013CBFC943661B14BFB5EB040C002170
:102340003CBFC943F61B4FEA17444EEA8E0E27EAFC
:1023500004454FEA1C4704FB07622CEA074C05FBC7
:1023600007F70CFB05F604FB0CFC16EB074642EBEB
:10237000174216EB0C4642EB1C421BEB060658EBD1
:102380000202414146EA9E0601D5BDE80189B6191F
:10239000524141EB0101A3F10103BDE801894FEA7C
:1023A00014454FEA114724EA054621EA074C05FB8C
:1023B00007F406FB07F70CFB06F105FB0CFC11EB21
:1023C000074144EB17444FEA124711EB0C4144EB31
:1023D0001C4422EA074C05FB07F206FB07F70CFB3F
:1023E00006F605FB0CFC16EB074642EB174216EB14
:1023F0000C4642EB1C456A1854F1000148BF704777
:10240000B619524141EB0101A3F10103704795F068
:10241000000F37D04FEA11424FEA144721EA024633
:1024200024EA074C02FB07F106FB07F70CFB06F456
:1024300002FB0CFC14EB074441EB17414FEA154734
:1024400014EB0C4441EB1C4125EA074C02FB07F559
:1024500006FB07F70CFB06F602FB0CFC16EB074627
:1024600045EB174516EB0C4645EB1C42121951F192
:10247000000148BF7047B619524141EB0101A3F179
:10248000010370474FEA14454FEA114724EA054615
:1024900021EA074C05FB07F106FB07F70CFB06F2E8
:1024A0004FF0000605FB0CFC12EB074241EB174115
:1024B00012EB0C4251EB1C4148BF7047921841EBA4
:1024C0000101A3F10103704708B54FF47A70009041
:1024D00003E0BDF80000401E0090BDF80000002899
:1024E000F7D108BD2DE9F04188B00121080311F0B2
:1024F0001DFE02278DF81D7001268DF81C6000243A
:102500008DF81E4040200690DFF8A08006A94046C6
:1025100005F0B6FD382506958DF81C708DF81E4027
:1025200003208DF81D008DF81F6006A9404605F0B8
:10253000A7FD05220321404605F0E0FD0522042108
:10254000404605F0DBFD05221146404605F0D6FD6C
:102550004021404605F0EBFDFFF7B6FF4021404625
:1025600005F0E3FDADF804404FF48270ADF80600CD
:10257000F002ADF80800ADF80A40ADF80C4080104C
:10258000ADF80E00ADF81050ADF812400720ADF8D0
:102590001400074C01A9204613F0F3FF0121204647
:1025A00013F0D8FF08B0BDE8F0810000000402403D
:1025B0000030014070B588B0002507956A4C16E0E0
:1025C0009DF81C10012013F099FF9DF81C1024F8B1
:1025D0001100A0880290E088049060890390A0898F
:1025E0000190E08900909DF81C00401C07909DF828
:1025F0001C000828E4D3BDF810305C4A1078411C58
:102600001170410058481030435211783C2918D1BC
:102610001570059506950AE09DF8181030F8111010
:10262000059B194405919DF81810491C06919DF8C9
:1026300018103C29F0D305983C21B0FBF1F04C492F
:102640000860BDF80C305078411C5170410046487C
:102650008830435251781E231E2917D15570059595
:1026600006950AE09DF8181030F81110059C2144D9
:1026700005919DF81810491C06919DF818101E2907
:10268000F0D305983B49B0FBF3F00880BDF8044057
:102690001079411C1171410037484452117964246A
:1026A000642917D11571059506950AE09DF8181053
:1026B00030F81110059E314405919DF81810491C01
:1026C00006919DF818106429F0D305982B49B0FBAA
:1026D000F4F00880BDF808609078411C91704100CA
:1026E0002148EC3046529178642900D195700595C7
:1026F00006950AE09DF8181030F81110059E314437
:1027000005919DF81810491C06919DF81810642930
:10271000F0D305981A49B0FBF4F00860BDF800400A
:10272000D078411CD170410013483C384452D178D4
:102730001E2917D1D570059506950AE09DF8181049
:1027400030F81110059A114405919DF81810491C94
:1027500006919DF818101E29F0D305980949B0FB81
:10276000F3F0088008B070BD980C00203101002003
:102770006400002062000020880E00206800002015
:102780006C0000207000002011B581B00C4C0221BB
:10279000204613F0EBFE0028F9D0BDF804102046C7
:1027A00013F0EDFE0121204613F0E0FE0028F9D0E1
:1027B000204613F0E2FE0090BDF800001CBD0000B2
:1027C00000300140F0B59BB001210D02284611F008
:1027D000ADFC0121880511F07FFC4020009003260C
:1027E0008DF8046000248DF8074069462B4805F0F9
:1027F00047FC02942A4803902A480490059432200A
:1028000006900794A80008904000099080000A9064
:102810000B9500010C900D9401250E950F941094CA
:10282000214F02A9384602F07DFD0121384602F011
:1028300053FD01221021384602F05AFD02F0C8F97A
:10284000174F01214C3F384600F070F81194129454
:102850001394149411A800F055F815948DF858505D
:102860008DF85950189419948DF8686015A9384658
:1028700000F074F8002301220621384600F094F895
:102880000121384600F032F8384600F0C7F801213F
:10289000384600F057F81BB0F0BD000000000240C1
:1028A0004C200140DC090020106402400CB50020DF
:1028B000009001900B490AE09DF8040031F81000E7
:1028C000009A104400909DF80400401C01909DF86F
:1028D00004003228F0D300983221B0FBF1F0024915
:1028E00008800CBDDC09002060000020002904D015
:1028F000816841F0010181607047816821F0010128
:102900008160704710B5074C226807490A40D0E93A
:1029100000131943D0E902300343194311432160E6
:1029200010BD000004230140E030FCFF002904D06A
:10293000816841F4807181607047816821F4807101
:1029400081607047002904D0816841F40071816082
:102950007047816821F400718160704730B542682A
:102960000F4B1A400C790B6842EA04221343436070
:1029700083680C4A1340D1E9034222434D798C68A5
:1029800044EA450422431A438260C26A22F4700278
:10299000097D491EC9B242EA0151C16230BD000041
:1029A000FFFEFFFCFDF7FFC070B5072609290AD915
:1029B000C568A1F10A0404EB4404A640B543A34052
:1029C0001D43C56007E0056901EB4104A640B5431E
:1029D000A3401D4305611F23072A09D2446B521EE1
:1029E00002EB820293409C4391400C43446370BDD0
:1029F0000D2A09D2046BD21F02EB820293409C4342
:102A000091400C43046370BDC46A0D3A02EB82022C
:102A100093409C4391400C43C46270BD816841F077
:102A2000804181607047002800DC40427047417857
:102A3000007841EA0020704710B50C480078400645
:102A400012D40B4C206841070ED5020609484FF4FA
:102A5000007103D4BDE8104005F069BB05F065FBCB
:102A6000206820F00400206010BD00004400002019
:102A70003C000020000802400549086840F00400BE
:102A8000044B00221A8020F080000860704700008C
:102A90003C0000207A00002038B545680446014615
:102AA000284618F0A3F900282AD02068304A0F28B9
:102AB00019D006DC0B2824D00C2810D00E2851D1B8
:102AC0002FE0112802D028284CD145E09268002A36
:102AD00016D02146284601B0BDE8304010472146B7
:102AE00028465268F7E7284606F068FA0090406EDC
:102AF0000468684606F0ACFA002C01D02846A047CE
:102B000038BD284606F05AFA0090683006F0BEF943
:102B1000009803216C3006F0C1F9684606F098FA77
:102B200020E0E168486809680D2902D0202913D106
:102B300005E0002810DD28461FF0F0FA06E0002826
:102B400004DD2846BDE838401FF0E8BA2846BDE855
:102B5000384002211FF0F8BAE06818B90021284671
:102B600000F097F92046BDE8384018F0B3BD0000EA
:102B7000AC020020F0B5044685B08069B4F9085075
:102B8000668A0027CDE90265CDE900170490B4F903
:102B90000C00B4F91060C118B4F90A00B4F90E5071
:102BA000104433462A4600F007F80546616800F0F5
:102BB00079F905B02846F0BDF0B585B00C46DDE9E1
:102BC0000D514C31DFF850C0DDE90A67CDE902C193
:102BD0002146CDE9006718F0CDFC040018D006F0BE
:102BE000EDF910222946049018F024FB04983022B5
:102BF0000A493430FDF765FD084D04990C3D2868FD
:102C0000486604A806F024FA2868416820468847E8
:102C100005B02046F0BD0000992A0008B802002047
:102C2000F0B5044680688B4989B051F8205060683F
:102C300000287DD0052804D006287AD0122879D122
:102C4000AEE0E86900284FD095E80E008DE80F004F
:102C500004F110010FC908F065FD002655F82600A3
:102C600007F0C4FDA169E8690A1A21690144606995
:102C7000304406F045FFA169E8690A1A2169014458
:102C8000E069801B06F03CFFE169E8690A1A6169A6
:102C900001442069304406F0EFFFE169E8690A1A4F
:102CA00061690144A069801B06F0E6FF761C022ED4
:102CB000D4DBA86807F09AFDE069E9696669431A00
:102CC00020694218521E3144801C07F03FF8E16928
:102CD000E869A2690B1A61690144101A401C921E2E
:102CE00007F034F8EE6913E05FF0000655F82600AF
:102CF00007F07CFDE069831BA069821B6069811974
:102D00002069304406F07AFF761C022EEEDB0226A4
:102D1000D5E90301CDE900016169E0690844431088
:102D2000A069891C821B2069304406F091FE02E0F4
:102D300089E012E08AE0D5E90501CDE90001E36907
:102D400060690121184401EB6001A0699B1E821B90
:102D50002069304406F07CFE78E0206806F02EF909
:102D60000490206819F0E6FC40B1A06808B100208A
:102D700008E00498006F28B1012003E00498406F38
:102D800000B10220049901EB8000C56E04A806F092
:102D90005FF900231A462846216806F0EBFB55E050
:102DA000206806F00BF90490866EEEB3B0F95C7003
:102DB000A168D1B3032942D05FF0000100EB81018B
:102DC000406D0C6C07F01CFD204607F00FFD05A8B8
:102DD00007F00CF8BDF81410A88B0144ADF81410DE
:102DE000BDF81810081AADF81800BDF81600801CC0
:102DF000ADF81600BDF81A00801EADF81A00049850
:102E00005E30B0F90220B0F9001005A807F04CFCC4
:102E100004A806F01DF9022007F032FD304606F046
:102E2000CDF83A4605A901E00BE006E0079006F070
:102E300099FC07A806F00CF908E00121BEE7022181
:102E4000BCE704A8F6E7206819F038F909B00020BB
:102E5000F0BD000090770408044A0349116004495A
:102E60004A6A486210467047E8020020AC0200201F
:102E7000B802002038B50D46040009D006F09EF8CF
:102E800000904565684606F0E3F8204618F019FF03
:102E900038BD4FF480720029114601D018F030B8C7
:102EA00017F082BF2DE9FF410E4605004FF00104E7
:102EB0001CD006F083F80190876E01A8009706F0F9
:102EC000C7F83146684608F00DFF78B10098002435
:102ED000B84208D0284606F071F801900099816642
:102EE00001A806F0B5F8284618F0EBFE04B020461D
:102EF000BDE8F081FEE700002DE9F05F7B4C217812
:102F00007B4840F66F0519396F1C82696FF0704677
:102F100040F6770840F6780940F6710A40F6790BDA
:102F20000C2925D2DFE801F0062645642424242458
:102F300083A224C229460546104618F0D9FC8046D3
:102F40003146404614F0D8FC6FF07F41404614F003
:102F500025FD3946A86918F0CBFC05466549284689
:102F600014F0CAFC0021284614F018FD1A20207025
:102F7000BDE8F09F05463946104618F0B9FC0746F3
:102F80003146384614F0B8FC6FF07F41384614F0F3
:102F900005FD4146A86918F0ABFC05465549284691
:102FA00014F0AAFC0021284614F0F8FC1B20207025
:102FB000DEE705464146104618F09AFC07463146C2
:102FC000384614F099FC6FF07F41384614F0E6FC67
:102FD0004946A86918F08CFC05464649284614F075
:102FE0008BFC0021284614F0D9FC1C202070BFE780
:102FF00005464946104618F07BFC074631463846E0
:1030000014F07AFC6FF07F41384614F0C7FC51464B
:10301000A86918F06DFC05463649284614F06CFC8A
:103020000021284614F0BAFC21202070A0E70546B4
:103030005146104618F05CFC07463146384614F0FD
:103040005BFC6FF07F41384614F0A8FC5946A86934
:1030500018F04EFC05462749284614F04DFC002187
:10306000284614F09BFC2220207081E70546594633
:10307000104618F03DFC07463146384614F03CFC3B
:103080006FF07F41384614F089FC40F67201A86960
:1030900018F02EFC05461749284614F02DFC002197
:1030A000284614F07BFC2420207061E7074640F698
:1030B0007201104618F01CFC80463146404614F060
:1030C0001BFC6FF07F41404614F068FC2946B8694C
:1030D00018F00EFC05460749284614F00DFC0021A7
:1030E000284614F05BFC1920207041E7A301002062
:1030F000B4010020FFFFBF00F0B52DED028B83B0BF
:10310000B0480178B04A00269FEDB00AB04C0125C6
:103110001929A06938D0DFEDAF0A1A297ED0AE4A4E
:103120001B297CD01C292BD1217C40F678031F1D44
:10313000022975D0217C012922D1D18800EE101AF4
:10314000B8EE400A80EE208A194618F0D1FBA3A100
:1031500014F0FFFB3946A06918F0CAFB054618EECB
:10316000100A29F019FE41EC100BA0A153EC102B12
:1031700001A8FDF7AFF801A9284614F0EAFB267470
:1031800003B0BDEC028BF0BD617B40F66F031F1DE9
:10319000012927D0617B0229F2D1D2F8801000EEFC
:1031A000901AF8EE600A80EE808A194618F0A0FBAB
:1031B00090A114F0CEFB3946A06918F099FB0646A1
:1031C00018EE100A29F0E8FD41EC100B8DA153EC2C
:1031D000102B01A8FDF77EF801A9304614F0B9FBC9
:1031E0006573CDE7D16F00EE901AF8EE600A80EEBD
:1031F000808A194618F07CFB84A114F0AAFB39469A
:10320000A06918F075FB054618EE100A29F0C4FDF8
:1032100041EC100B7BA153EC102B02E00AE05CE0C8
:10322000ACE001A8FDF756F801A9284614F091FB7F
:103230006673A5E7A17B4FF407631F1D022927D002
:10324000A17B01299CD1D2F8881000EE101AB8EEAB
:10325000400A80EE208A194618F04AFB6FA114F04C
:1032600078FB3946A06918F043FB054618EE100AB2
:1032700029F092FD41EC100B5CA153EC102B01A83E
:10328000FDF728F801A9284614F063FBA67377E739
:10329000D2F88C1000EE101AB8EE400A80EE208AA8
:1032A000194618F025FB61A114F053FB3946A069BB
:1032B00018F01EFB064618EE100A29F06DFD41ECD1
:1032C000100B4AA153EC102B01A8FDF703F801A93C
:1032D000304614F03EFBA57352E7E17B40F67703DE
:1032E0001F1D022926D0E17B0129A2D1118800EE01
:1032F000901AF8EE600A80EE808A194618F0F8FA03
:103300004EA114F026FB3946A06918F0F1FA0546E3
:1033100018EE100A29F040FD41EC100B39A153ECD6
:10332000102B01A8FCF7D6FF01A9284614F011FBC9
:10333000E67325E7518800EE901AF8EE600A80EEF9
:10334000808A194618F0D4FA40A114F002FB3946DD
:10335000A06918F0CDFA064618EE100A29F01CFDF7
:1033600041EC100B27A153EC102B01A8FCF7B2FF86
:1033700001A9304614F0EDFAE57301E7118900EE7A
:10338000101AB8EE400A80EE208A194618F0B0FAFA
:1033900032A114F0DEFA3946A06918F0A9FA0646FF
:1033A00018EE100A29F0F8FC41EC100B0FA153ECB9
:1033B000102B01A8FCF78EFF01A9304614F0C9FAC2
:1033C0002574DDE6A3010020B00B00200000C842F8
:1033D000B401002000007A4450870020E688AAE665
:1033E000ADA2E794B5E6B58131000000252E336625
:1033F00000000000E8BE93E587BAE794B5E58E8B40
:1034000032000000252E326600000000E8BE93E581
:1034100087BAE794B5E58E8B31000000E99990E515
:1034200088B6E794B5E6B58131000000E99990E5EA
:1034300088B6E794B5E6B58132000000E688AAE6D2
:10344000ADA2E794B5E58E8B31000000E688AAE6D0
:10345000ADA2E794B5E58E8B32000000E688AAE6BF
:10346000ADA2E794B5E6B58132000000F0B52DEDD0
:10347000028B83B0AF480178AF4A9FEDB00AB04CE1
:1034800001250226A069192938D0DFEDAE0A1A29D4
:103490007ED0AD4A1B297CD01C292BD1217C40F643
:1034A00078031F1D002975D0217C012922D1518963
:1034B00000EE101AB8EE400A80EE208A194618F085
:1034C00017FAA2A114F045FA3946A06918F010FACB
:1034D000054618EE100A29F05FFC41EC100B9FA185
:1034E00053EC102B01A8FCF7F5FE01A9284614F0B7
:1034F00030FA267403B0BDEC028BF0BD617B40F660
:103500006F031F1D39B3617B0129F3D1D2F88410F9
:1035100000EE901AF8EE600A80EE808A194618F0E4
:10352000E7F990A114F015FA3946A06918F0E0F90E
:10353000054618EE100A29F02FFC41EC100B8DA166
:1035400053EC102B01A8FCF7C5FE01A9284614F086
:1035500000FA6673CEE7D2F8801000EE901AF8EE0B
:10356000600A80EE808A194618F0C2F983A114F02F
:10357000F0F93946A06918F0BBF9064618EE100AB2
:1035800029F00AFC41EC100B7AA153EC102B02E05D
:103590000AE05BE0AAE001A8FCF79CFE01A9304626
:1035A00014F0D7F96573A5E7A17B4FF407631F1DDE
:1035B00039B3A17B01299DD1D2F8901000EE101AE9
:1035C000B8EE400A80EE208A194618F091F96FA1F2
:1035D00014F0BFF93946A06918F08AF9054618EECB
:1035E000100A29F0D9FB41EC100B5CA153EC102B15
:1035F00001A8FCF76FFE01A9284614F0AAF9A673EA
:1036000078E7D2F88C1000EE101AB8EE400A80EE7F
:10361000208A194618F06CF960A114F09AF939461D
:10362000A06918F065F9064618EE100A29F0B4FBF7
:1036300041EC100B49A153EC102B01A8FCF74AFEFA
:1036400001A9304614F085F9A57353E7E17B40F6F4
:1036500077031F1D31B3E17B0129A4D1918800EECE
:10366000901AF8EE600A80EE808A194618F040F948
:103670004EA114F06EF93946A06918F039F90546E3
:1036800018EE100A29F088FB41EC100B39A153EC1D
:10369000102B01A8FCF71EFE01A9284614F059F9C9
:1036A000E67327E7518800EE901AF8EE600A80EE84
:1036B000808A194618F01CF940A114F04AF93946DD
:1036C000A06918F015F9064618EE100A29F064FBF7
:1036D00041EC100B27A153EC102B01A8FCF7FAFDCD
:1036E00001A9304614F035F9E57303E7118900EEBE
:1036F000101AB8EE400A80EE208A194618F0F8F841
:1037000032A114F026F93946A06918F0F1F80646FE
:1037100018EE100A29F040FB41EC100B0FA153ECFE
:10372000102B01A8FCF7D6FD01A9304614F011F9C1
:103730002574DFE6A3010020B00B00200000C84282
:10374000B401002000007A4450870020E688AAE6F1
:10375000ADA2E794B5E6B58133000000252E3366AF
:1037600000000000E8BE93E587BAE794B5E58E8BCC
:1037700033000000252E326600000000E8BE93E50D
:1037800087BAE794B5E58E8B32000000E99990E5A1
:1037900088B6E794B5E6B58133000000E99990E575
:1037A00088B6E794B5E6B58132000000E688AAE65F
:1037B000ADA2E794B5E58E8B33000000E688AAE65B
:1037C000ADA2E794B5E58E8B32000000E688AAE64C
:1037D000ADA2E794B5E6B581320000002DE9F05FB7
:1037E0007B4C21787B4840F66F056E1C1939F71D1C
:1037F00082696FF0704B40F6780840F6710940F628
:10380000790A0C2926D2DFE801F00627466525252E
:10381000252584A325C229460546104618F068F8D8
:1038200006465946304614F067F86FF07F4130463F
:1038300014F0B4F840F67201A86918F059F805467A
:103840006549284614F058F80021284614F0A6F8D7
:1038500024202070BDE8F09F31460646104618F03F
:1038600047F807465946384614F046F86FF07F414E
:10387000384614F093F82946B06918F039F805462F
:103880005549284614F038F80021284614F086F8E7
:1038900019202070DEE705463946104618F028F852
:1038A00007465946384614F027F86FF07F413846EE
:1038B00014F074F83146A86918F01AF8054646491C
:1038C000284614F019F80021284614F067F81A2049
:1038D0002070BFE705464146104618F009F8064635
:1038E0005946304614F008F86FF07F41304614F026
:1038F00055F83946A86917F0FBFF054636492846B2
:1039000013F0FAFF0021284614F048F81B2020701D
:10391000A0E705464946104617F0EAFF0646594615
:10392000304613F0E9FF6FF07F41304614F036F86F
:103930004146A86917F0DCFF05462749284613F0E1
:10394000DBFF0021284614F029F81C20207081E7B5
:1039500005465146104617F0CBFF064659463046FD
:1039600013F0CAFF6FF07F41304614F017F8494654
:10397000A86917F0BDFF05461749284613F0BCFF9C
:103980000021284614F00AF82120207062E705463D
:1039900040F67201104617F0ABFF06465946304616
:1039A00013F0AAFF6FF07F41304613F0F7FF514646
:1039B000A86917F09DFF05460749284613F09CFFAC
:1039C0000021284613F0EAFF2220207042E7000081
:1039D000A3010020B4010020FFFFBF002DE9F04F3C
:1039E0002DED068B83B0FD48416E00EE101AB8EE47
:1039F000400ADFEDFB0AC0EE209A816E00EE101A3D
:103A0000B8EE400ADFEDF70A80EE209AC16E006F33
:103A100000EE100AB8EE400ADFEDF10A80EE20AAAF
:103A2000F1480178F14D1939DFF8C48364274FF468
:103A3000076A9FEDF08BF1480024F14E826940F651
:103A400077094FF6FF7B10293AD2DFE801F008B47E
:103A5000F0EF3EF1EDECEBEAE9E8E7E6E5E40646F7
:103A600040F66F01104617F043FF07466FF07041B4
:103A7000384613F041FF6FF07F41384613F08EFF58
:103A800040F67301B06917F033FF0646DD49304652
:103A900013F032FF0021304613F080FF0294DA4920
:103AA00006E09DF808000C549DF80800401C0290A8
:103AB0009DF808000628F4D3CB491D2008702C700F
:103AC00003B0BDEC068BBDE8F08F814640F6730174
:103AD000104617F00DFF82466FF07041504613F00C
:103AE0000BFF6FF07F41504613F058FF30780028ED
:103AF00059D03078B0B1009401943278C249D21CC8
:103B00006846FCF73FFE684621F086FD9FEDBF1B2F
:103B100051EC100B53EC112B28F014FF28F07EFE13
:103B2000AE49C867AD48C26F41F638018A4200D934
:103B3000C167C16F416041688268B1FBF7F15143D1
:103B4000414500D94460406800EE100AF8EE400A92
:103B50009FEDA31A80EE810A10EE100A29F01CF9DD
:103B600041EC100BABA153EC102B6846FCF7B2FBF9
:103B70006946504613F0EDFE40F66F01D9F8180083
:103B800017F0B6FE07469F49384613F0B5FE0021F0
:103B9000384613F003FF9449192008702C703470D4
:103BA00019F02EF88CE79848FCF7A8FC64214843EC
:103BB0008A49C867B6E705465146104617F098FE91
:103BC00006466FF07041304613F096FE6FF07F416D
:103BD000304613F0E3FE02948B4A06E09DF808009D
:103BE00014549DF80810491C02919DF808000628FD
:103BF000F4D340F67401A86917F07AFE04468149AF
:103C0000204613F079FE0021204613F0C7FE7649C6
:103C10001E20087054E7EAE252E296E1B1E0E0E3E8
:103C2000B4E21CE225E3F0E354E301E05CE178E078
:103C3000814640F67401104617F05AFE83466FF035
:103C40007041584613F058FE6FF07F41584613F00C
:103C5000A5FE307800285AD03078A8B1009401949D
:103C600032786949121D6846FCF78CFD684621F0E0
:103C7000D3FC53EC182B51EC100B28F063FE28F00A
:103C8000CDFD5649C1F888005448D0F8882042F24A
:103C900010718A4201D9C0F88810D0F8881081606C
:103CA00041688268B1FBF7F15143414500D9846016
:103CB000806800EE100AF8EE400A9FED4A1A80EE86
:103CC000810A10EE100A29F067F841EC100B53A19D
:103CD00053EC102B6846FCF7FDFA6946584613F082
:103CE00038FE5146D9F8180017F002FE074645493C
:103CF000384613F001FE0021384613F04FFE3A49D2
:103D00001A2008702C70347018F07AFFD8E63E48FC
:103D1000FCF7F4FB4FF47A7148433049C1F888004E
:103D2000B2E705464946104617F0E2FD06466FF039
:103D30007041304613F0E0FD6FF07F41304613F0E4
:103D40002DFE0294304A06E09DF8080014549DF8B8
:103D50000810491C02919DF808000628F4D340F68B
:103D60007B01A86917F0C4FD04462649204613F0DC
:103D7000C3FD0021204613F011FE1B4925200870C9
:103D80009EE6074640F67B01104617F0B1FD8046DF
:103D90006FF07041404613F0AFFD6FF07F41404639
:103DA00013F0FCFD3078F8B33078B0B10094019492
:103DB00032781549921C6846FCF7E4FC684621F00D
:103DC0002BFC9FED121B51EC100B53EC112B28F028
:103DD000B9FD28F023FD1349088026E0B00B002030
:103DE0000000C84200007A44A301002058010020CE
:103DF00077D403000000000000408F40B401002091
:103E000059010020FFFFBF009801002000000000C2
:103E100000005940252E326600000000252E336632
:103E200000000000508700200FE0FE48028841F6A5
:103E300038018A4200D90180F97B91B1F97B0129CF
:103E400019D0F97B022920D028E0F748FCF756FB6F
:103E500000EBC00101EB00100BEA8001F14801808A
:103E6000BBE700885FED220A00EE100AB8EE400AB8
:103E7000C0EE209A12E040885FED270A00EE100A9B
:103E8000B8EE400AC0EE209A08E080885FED2C0A68
:103E900000EE100AB8EE400AC0EE209A19EE900A21
:103EA00028F07AFF41EC100B53EC102BAFF29C0181
:103EB0006846FCF70FFA6946404613F04AFD49464A
:103EC000B86917F015FD0746D849384613F014FDB8
:103ED0000021384613F062FDD5491B2008702C7074
:103EE000347018F08DFEEBE5054640F6780110467B
:103EF00017F0FEFC06466FF07041304613F0FCFCF4
:103F00006FF07F41304613F049FD0294C64A06E047
:103F10009DF8080014549DF80810491C02919DF862
:103F200008000628F4D340F67C01A86917F0E0FCED
:103F30000446BE49204613F0DFFC0021204613F062
:103F40002DFDBB4926200870BAE5074640F67C01E6
:103F5000104617F0CDFC80466FF07041404613F0DC
:103F6000CBFC6FF07F41404613F018FD307830B342
:103F70003078A0B1009401943278AB49121D6846A4
:103F8000FCF700FC684621F047FB53EC182B51EC82
:103F9000100B28F0D7FC28F041FCA249C880A148AA
:103FA000C28842F210718A4200D9C180397C91B135
:103FB000397C012919D0397C022920D028E09A487F
:103FC000FCF79CFA00EB4001C1EBC01095490BEAED
:103FD000C000C880E3E7C08800EE100AB8EE400ACF
:103FE0005FED800A80EE209A12E0008900EE100A50
:103FF000B8EE400A5FED850A80EE209A08E040891D
:1040000000EE100AB8EE400A5FED8A0A80EE209AB0
:1040100019EE100A28F0C0FE41EC100B53EC102BE7
:10402000AFF208216846FCF755F96946404613F09F
:1040300090FC40F67801B86917F05AFC07467B49B6
:10404000384613F059FC0021384613F0A7FC784994
:104050001C2008702C70347018F0D2FD30E5054635
:1040600040F67901104617F043FC06466FF07041A8
:10407000304613F041FC6FF07F41304613F08EFC68
:104080000294694A06E09DF8080014549DF808104F
:10409000491C02919DF808000628F4D340F67D01E2
:1040A000A86917F025FC04466049204613F024FC5B
:1040B0000021204613F072FC5D4927200870FFE4C0
:1040C000074640F67D01104617F012FC80466FF05F
:1040D0007041404613F010FC6FF07F41404613F0F2
:1040E0005DFC3078F0B33078A0B100940194327860
:1040F0004D49121D6846FCF745FB684621F08CFAD5
:1041000053EC182B51EC100B28F01CFC28F086FB0C
:104110004849C8664748C06E00EE100AF8EE400AEB
:104120001FEDD01A80EE810A10EE100A28F034FE3E
:1041300041EC100B53EC102BAFF220316846FCF72A
:10414000C9F86946404613F004FC40F67901B869A5
:1041500017F0CEFB07463549384613F0CDFB00215A
:10416000384600E009E013F019FC314922200870BC
:104170002C70347018F044FDA2E42B48FCF7BEF913
:104180004FF47A7148432B49C866C3E7054640F6A9
:104190007A01104617F0ACFB06466FF070413046CE
:1041A00013F0AAFB6FF07F41304613F0F7FB029447
:1041B0001D4A06E09DF8080014549DF80810491C9B
:1041C00002919DF808000628F4D340F67E01A86904
:1041D00017F08EFB04461549204613F08DFB002195
:1041E000204613F0DBFB12492820087068E40746DC
:1041F00040F67E01104617F07BFB80466FF0704161
:10420000404613F079FB6FF07F41404613F0C6FB48
:104210001AEE100A28F0C0FD41EC100B53EC102BE5
:104220000AE000005087002098010020FFFFBF0037
:10423000A3010020B00B0020AFF228416846FCF734
:1042400049F86946404613F084FB40F67A01B869A4
:1042500017F04EFB0746A049384613F04DFB0021EE
:10426000384613F09BFB9D49232008702C70347056
:1042700026E4054640F67101104617F039FB064664
:104280006FF07041304613F037FB6FF07F413046DE
:1042900013F084FB0294924A06E09DF8080014543F
:1042A0009DF80810491C02919DF808000628F4D3D7
:1042B00040F67501A86917F01BFB044686492046A5
:1042C00013F01AFB0021204613F068FB83491F20DE
:1042D000087067E4074640F67501104617F008FBC2
:1042E00080466FF07041404613F006FB6FF07F414F
:1042F000404613F053FB3078E8B33078A8B100940F
:10430000019432787649121D6846FCF73BFA6846FC
:1043100021F082F953EC182B51EC100B28F012FB12
:1043200028F07CFA6F49C1F89C006E48D0F89C10C8
:1043300047F23052914213D8D0F89C1000EE101A78
:10434000F8EE400A9FED681A6849694A80EE810AD2
:10435000D1ED000A20EE200A10EE101A914201DD84
:10436000C0F89C40D0F89C100161006900EE100A72
:10437000F8EE400A00E02AE09FED5B1A80EE810A29
:1043800010EE100A28F008FD41EC100B53EC102B36
:10439000AFF278516846FBF79DFF6946404613F03F
:1043A000D8FA40F67101B86917F0A2FA07464A49EF
:1043B000384613F0A1FA0021384613F0EFFA4749C6
:1043C000212008702C70347018F01AFC22E4444844
:1043D000FCF794F84FF47A7148434249C1F89C00C5
:1043E000A3E7054640F67201104617F081FA06462B
:1043F0006FF07041304613F07FFA6FF07F41304626
:1044000013F0CCFA0294364A07E01CE09DF808004D
:1044100014549DF80810491C02919DF808000628C4
:10442000F4D340F67601A86917F062FA04462A49E7
:10443000204613F061FA0021204613F0AFFA274915
:104440002020087062E4074640F67601104617F017
:104450004FFA80466FF07041404613F04DFA6FF00E
:104460007F41404613F09AFA307878B3307870B1D3
:104470000094019432781A496846FCF783F968463B
:1044800021F0CAF851EC100B28F0C8F938703A78CE
:1044900018A16846FBF71EFF6946404613F059FA1B
:1044A00040F67201B86917F023FA07460A49384600
:1044B00013F022FA0021384613F070FA074924203D
:1044C00008702C70347018F09BFB1FE4FFE7044861
:1044D000FCF714F83870DAE7FFFFBF00A3010020F3
:1044E00098010020B00B002000007A442400002036
:1044F000000048432533640070B5174C61792046AD
:10450000164D806940F69902012912D0A17B01293C
:104510001DD0114617F0ECF906466FF07041304699
:1045200013F0EAF92946304613F038FA2F202070AC
:1045300070BD114617F0DCF904462946204613F0F9
:10454000DBF92046BDE87040002113F027BABDE832
:10455000704000F08FBA0000F4010020FFFFBF00A0
:104560002DE9FF470446006810B118F0E3F868B180
:104570000022314850F8221060680A2841D007DC38
:10458000F0B306280DD0072854D106E00122F0E749
:1045900012280AD019284DD137E0204619F0BEFC68
:1045A00048E020461AF048FE44E0206804F006FD8A
:1045B0000290B0F9548090F85650476C466B02A8B0
:1045C00004F046FD206800F039F88146684617F08F
:1045D00067F9BDF8001009EB05000844ADF80000CC
:1045E000246A304606F00CF9022006F049F93846F4
:1045F00006F0FCF842466946204605F0B3F819E09B
:1046000007E020461BF004F914E0886904B0BDE817
:10461000F087206817F052FD206804F0CFFC03906B
:10462000B0F90610B0F90220891A491CC16703A825
:1046300004F00EFD0020E9E7A077040838B504F087
:10464000BDFC0090C46F684604F002FD204638BDF2
:10465000044A034911600449CA69C8611046704799
:10466000740300203C0700204007002000B589B0FB
:1046700024216846FCF75FF8192001900348006880
:10468000806841686846884709B000BD3C07002043
:1046900070B5FF22FF23084D05F5807605E010F880
:1046A000014B54402A5D5A40335D491E89B2F6D20F
:1046B00043EA022070BD000094CF020810B50A4AF8
:1046C0000A4C4FF40061002807D0012804D110469D
:1046D00003F02DFD0120A07010BD104603F025FD54
:1046E0000020A07010BD0000000002403C0100202E
:1046F0007CB51B4C2078012500281DD01948C16FBE
:104700004160D0F888108160D0F89C100161164893
:1047100005707021682014F010F92903134803F084
:1047200004FD08F087FDA902114803F0FEFC1148C2
:10473000016841F08001016025700F49192008705F
:104740000E480024047017F0C7F8034600940C4A82
:104750002A210C48019404F029FE0B4988617CBD94
:104760005A010020B00B002081000020000C024004
:104770000008024048000020A30100208000002023
:104780004179020844DB0208B40100201CB50E4840
:10479000002404700D4804700D48047070216820D6
:1047A00014F0CBF84FF480510A4803F0BEFC17F028
:1047B00093F803460094084A09210848019404F03C
:1047C000F5FD074908601CBD5A010020810000204A
:1047D00080000020000C0240618C0208DCDF02082F
:1047E000D00100207CB5134C5020A0710320A07094
:1047F000114908700025E57127F034FA0120FFF710
:104800005DFF0E480570E08ADFED0D0A00EE100A2C
:10481000B8EE400A80EE201A84ED071A17F05CF813
:1048200003460095074A2A210748019504F0BEFD7A
:1048300020627CBD58010020810000208000002003
:1048400000007A448D6202080CD402081CB50F499E
:10485000052008700E48002404700E480470702172
:10486000682014F06AF84FF480510B4803F05DFCA7
:1048700017F032F803460094084A252108480194AD
:1048800004F094FD074948601CBD00005A01002057
:10489000A301002080000020000C024021900208AB
:1048A000D8E00208E40100201CB508490620087081
:1048B00017F012F80346002000900190044A0121ED
:1048C000044804F073FD044948601CBD5A010020EF
:1048D000C19B0208E4E40208EC0100207CB5274CEF
:1048E0002078002815D02078022812D04FF40041FB
:1048F000234803F01CFC234D0221284603F015FC3D
:104900004FF4FA7000F0B2FD4FF40051284603F066
:104910000EFC022020701C4908701C4909200870F8
:104920001B48D0F898104160D0F8A0108160194859
:10493000DFED190A194D90ED050AB8EEC00A80EEB8
:10494000201A85ED021A1648002404701549032028
:1049500008707021682013F0F0FF4FF48051124866
:1049600003F0E3FB16F0B8FF034600940F4A16214C
:104970000F48019404F01AFD68607CBD5A010020C4
:10498000000002400008024081000020A301002036
:10499000B00B00205C87002000007A444C0100200E
:1049A00080000020A0010020000C0240455A0208AF
:1049B000A4D102087CB5234C2078002801D008F04F
:1049C00039FC042020702049087020491720087005
:1049D0001F48DFED200A204E90ED040AB8EEC00A11
:1049E00080EE201A86ED021A1C4CD4F89400206147
:1049F000206940F6C411884203D90120FFF75EFE0A
:104A000002E00020FFF75AFE154800250570154901
:104A100002200870D4F8A400E0607021682013F030
:104A20008CFF4FF48051104803F07FFB16F054FFC9
:104A3000034600950D4A18210D48019504F0B6FC77
:104A400070607CBD5A01002081000020A30100207D
:104A50005C87002000007A44A8010020B00B0020F1
:104A600080000020A0010020000C0240CDA9020817
:104A7000A4D802081CB516F02FFF002403460094AA
:104A8000064A07210648019404F090FC0549486055
:104A900005490C70054A082111701CBD19A20208B5
:104AA000C4D303081C020020800000205A0100200B
:104AB0001CB516F011FF002403460094074A12218A
:104AC0000748019404F072FC06498861064A147094
:104AD000064B07221A702F220A701CBD419C020847
:104AE000CCD10308F4010020800000205A010020EE
:104AF0001CB502208DF8050001208DF8040000206F
:104B00008DF806001C2000906946024803F0B8FAB0
:104B10001CBD00000010024031B582B02B4D0421B5
:104B2000284603F002FB0821284603F000FB00BFE3
:104B300000BF00BF00BF0421284603F0F8FA00BF01
:104B40000821284603F0F3FA0421284603F0EDFA81
:104B5000002101914FF6FF7429E09DF80410072908
:104B600012D9BDF80810080404D51021284603F016
:104B7000DEFA03E01021284603F0D7FABDF808104A
:104B800004EA4100029003E01021284603F0CDFA28
:104B90000821284603F0C9FA00BF00BF00BF082162
:104BA000284603F0C4FA9DF80410491C01919DF8B1
:104BB00004001828D1D30421284603F0B8FA03B022
:104BC0002846BDE83040082103F0B1BA0010024089
:104BD00008B538208DF8000003208DF801008DF80D
:104BE000020001208DF8030068460BF09DFF08BD10
:104BF00070B5594DA97928460024006A05F1400690
:104C0000462964D01BDC152935D0162949D0402906
:104C10007ED140F6051116F06BFE297821B1297876
:104C2000491E29702978745429786A78914200D1F4
:104C30006C70BDE870404849403112F08ABE4D2981
:104C400059D04E2970D04F2962D140F6341116F058
:104C50004FFE297821B12978491E2970297874548A
:104C600029786A78914200D16C70BDE870403A4969
:104C7000403112F06EBE40F66B0116F039FE297815
:104C800021B12978491E29702978745429786A78C5
:104C9000914200D16C70BDE870402F49403112F054
:104CA00058BE40F66C0116F023FE297821B1297810
:104CB000491E29702978745429786A78914200D164
:104CC0006C70BDE870402449403112F042BE40F69D
:104CD0000E1116F00DFE297821B12978491E297090
:104CE0002978745429786A78914200D16C701A49F5
:104CF000403112F02EFE40F63211286A16F0F8FD0F
:104D0000297821B12978491E29702978745400E046
:104D100020E029786A78914200D16C70BDE870403B
:104D20000D49403112F015BE40F6331116F0E0FD8A
:104D3000297821B12978491E297029787454297855
:104D40006A78914200D16C70BDE8704002494031F0
:104D500012F0FFBD70BD0000580100202DE9F041A8
:104D60005F4801785F481D395F4F806900245F4DBF
:104D70005F4E0C297ED2DFE801F0061B3045B0B053
:104D8000B0B05A6F869B40F6730116F0B1FD2978DA
:104D900021B12978491E297029787C5429783278E4
:104DA000914200D13470BDE8F0414F4912F0D1BDBD
:104DB00040F6740116F09CFD297821B12978491E2E
:104DC000297029787C5429783278914200D1347046
:104DD000BDE8F041444912F0BCBD40F6750116F043
:104DE00087FD297821B12978491E297029787C54BA
:104DF00029783278914200D13470BDE8F0413A49C7
:104E000012F0A7BD40F6760116F072FD297821B1A7
:104E10002978491E297029787C5429783278914262
:104E200000D13470BDE8F0412F4912F092BD40F638
:104E30007B0116F05DFD297821B12978491E297082
:104E400029787C5429783278914200D13470BDE8B9
:104E5000F041254912F07DBD40F67C0116F048FD79
:104E6000297821B12978491E297029787C5429781C
:104E7000327800E031E0914200D13470BDE8F04179
:104E8000194912F066BD40F67D0116F031FD297812
:104E900021B12978491E297029787C5429783278E3
:104EA000914200D13470BDE8F0410F4912F051BD7C
:104EB00040F67E0116F01CFD297821B12978491EA3
:104EC000297029787C5429783278914200D1347045
:104ED000BDE8F041044912F03CBDBDE8F08100009E
:104EE000A3010020B40100209801002058010020F7
:104EF000590100202DE9F041274801782748284F23
:104F000000244068274D284E182918D043292BD05B
:104F100056293ED140F62D1116F0EAFC297821B130
:104F20002978491E297029787C5429783278914251
:104F300000D13470BDE8F041194912F00ABD40F6C5
:104F40006E0116F0D5FC297821B12978491E297007
:104F500029787C5429783278914200D13470BDE8A8
:104F6000F0410F4912F0F5BC40F6111116F0C0FCEB
:104F7000297821B12978491E297029787C5429780B
:104F80003278914200D13470BDE8F041044912F00A
:104F9000E0BCBDE8F0810000A3010020A8010020D2
:104FA0009801002058010020590100202DE9F0410E
:104FB0007E4800787E4A7F4F00247F4D7F4E102828
:104FC0007ED008DCA0F10B0005287AD2DFE800F0E3
:104FD00021377D93A900512847D052285BD0532810
:104FE00070D054286DD140F63811506816F080FC0E
:104FF000297821B12978491E297029787C5429788B
:105000003278914200D13470BDE8F041694912F024
:10501000A0BC4FF40661506816F06AFC297821B1F3
:105020002978491E297029787C5429783278914250
:1050300000D13470BDE8F0415E4912F08ABC40F600
:105040006101506816F054FC297821B12978491E75
:10505000297029787C5429783278914200D13470B3
:10506000BDE8F041534912F074BC40F63511506868
:1050700016F03EFC297821B12978491E297029783B
:105080007C5429783278914200D13470BDE8F041E7
:10509000484912F05EBC40F63611506816F028FC04
:1050A000297821B12978491E297029787C542978DA
:1050B0003278914200D13470BDE8F0413D4902E0C0
:1050C00045E070E059E012F044BC40F662015068DF
:1050D00016F00EFC297821B12978491E297029780B
:1050E0007C5429783278914200D13470BDE8F04187
:1050F000304912F02EBC40F66301506816F0F8FB00
:10510000297821B12978491E297029787C54297879
:105110003278914200D13470BDE8F041254912F057
:1051200018BC40F66401506816F0E2FB297821B102
:105130002978491E297029787C542978327891423F
:1051400000D13470BDE8F0411A4912F002BC40F6BB
:105150006501506816F0CCFB297821B12978491EE9
:10516000297029787C5429783278914200D13470A2
:10517000BDE8F0410F4912F0ECBB40F63711506822
:1051800016F0B6FB297821B12978491E29702978B3
:105190007C5429783278914200D13470BDE8F041D6
:1051A000044912F0D6BBBDE8F0810000A301002045
:1051B000E40100209801002058010020590100203E
:1051C0002DE9F04128480078284A294F0024294D2C
:1051D000294E112819D012282DD0582841D140F637
:1051E0002E11506816F084FB297821B12978491EC8
:1051F000297029787C5429783278914200D1347012
:10520000BDE8F0411A4912F0A4BB40F666015068AF
:1052100016F06EFB297821B12978491E297029786A
:105220007C5429783278914200D13470BDE8F04145
:105230000F4912F08EBB40F66701506816F058FB1C
:10524000297821B12978491E297029787C54297838
:105250003278914200D13470BDE8F041044912F037
:1052600078BBBDE8F0810000A30100204C010020C4
:1052700098010020580100205901002001480068D1
:1052800070470000C003002010B50549054800F034
:105290000DF80548016841F00201016010BD0000F1
:1052A00020800010106402403C000020074A904219
:1052B00001D2074801E005481038064A8B0001EA90
:1052C000020101D5C16070478160704710640240DF
:1052D000006002407D0F7D0F002904D0016841F07D
:1052E000010101607047016821F001010160704710
:1052F0000B0609D522B1436943F08003436103E003
:10530000436923F080034361802905D001F01E0129
:105310001AB102680A430260704702688A43026059
:105320007047000030B50368124A1340CC680A6821
:105330002243D1E905452C432243CC6922430C6A20
:1053400022434C6A22438C6A22434C6B22438C6B6F
:1053500022431A430260426922F00703D1E90B2479
:1053600022431A4342610A6942604A68826089683E
:10537000C16030BD3F801CF0F8B50546006803F001
:105380001DFE0090448ED0F88860684603F060FEF1
:1053900006B1012604F00104286817F0CBF90EB11C
:1053A000002006E00CB1012003E008B1022000E07B
:1053B00003201B4951F82010686858B302280CD00C
:1053C000052802D0122828D103E0284618F0D2FD83
:1053D00023E028461AF0B1FE1FE06A69E8694FF041
:1053E000FF33801AA0F1080203EB6204421CAB6990
:1053F000001B4510A3EB6206C86905F0F7F906E04B
:105400003219311B284604F07BFB641E6D1C002CF6
:10541000F6DA02E0286816F051FE0020F8BD000020
:1054200000780408044A0349116004490A6B0863C0
:1054300010467047C40300207C070020800700202E
:1054400038B50D46002403F0B9FD0090C06B294625
:1054500003F096FE0546684603F0FAFD1DB12846A6
:1054600003F0ACFD0446204638BD704711B54FF43B
:105470007A7402E0204600F006F8BDF800104A1EDB
:105480000092F7D218BD01B582B00020019004212E
:1054900010E0009100BF00BF00BF00BF00BFBDF81B
:1054A0000000401E0004000C0090F3D1BDF8040081
:1054B000401C0190BDF80400BDF808209042E8D3DC
:1054C0000EBD000010B52DED028B20490A78204C4E
:1054D000B2EE048A022AE0681ED00978032918D1A6
:1054E0001C4991ED000A20EE080ABDEEC00A10EE3C
:1054F000101A09B202F0F2FE174890ED000A20EEF1
:10550000080ABDEEC00A10EE100A01B2206902F0CE
:10551000E5FEBDEC028B10BD104991ED000A20EEB6
:10552000080ABDEEC00A10EE101A09B202F0D6FE4B
:105530000B4890ED000A20EE080ABDEEC00A10EEFE
:10554000100A01B2206902F0C9FEE2E7A0010020C2
:10555000D00100202800002030000020240000207E
:105560002C0000201CB51048C07901281AD1FF205A
:1055700005F03CF9022005F071F9B4200021CDE9D5
:105580000010032306220C214FF4C37004F094F999
:1055900002B00C23BDE8104040F27F120421034802
:1055A00004F010BB1CBD00008000002094D1020854
:1055B00031B526F09DF8A02026F062F826F0C8F854
:1055C00070B99DF8000026F05BF826F0C1F838B9F4
:1055D00026F08EF8A12026F053F826F0B9F818B17D
:1055E00026F0A2F8002038BD26F01EF8034C2070EB
:1055F00026F002F826F098F8207838BD78000020D0
:1056000070B50120FFF7D4FFFE4C20600120FFF7AA
:10561000CFFF20602068000220600220FFF7C8FF53
:105620002168084420602068000220600320FFF702
:10563000BFFF216808442060206800022060042029
:10564000FFF7B6FF2168084420600520FFF7B0FF90
:10565000ED4D28602868000228600620FFF7A8FFAB
:105660002968084428602868000228600720FFF79E
:105670009FFF2968084428602868000228600820E5
:10568000FFF796FF296808442860C020FFF790FFC5
:105690006063606B00026063C120FFF789FF616B8C
:1056A00008446063606B00026063C220FFF780FF04
:1056B000616B08446063606B00026063C320FFF7A6
:1056C00077FF616B08446063C420FFF771FF686374
:1056D000686B00026863C520FFF76AFF696B0844C6
:1056E0006863686B00026863C620FFF761FF696B3F
:1056F00008446863686B00026863C720FFF758FFBF
:10570000696B08446863C820FFF752FFA063A06B71
:105710000002A063C920FFF74BFFA16B0844A06300
:10572000A06B0002A063CA20FFF742FFA16B0844F0
:10573000A063A06B0002A063CB20FFF739FFA16B31
:105740000844A063CC20FFF733FFA863A86B0002D6
:10575000A863CD20FFF72CFFA96B0844A863A86BB2
:105760000002A863CE20FFF723FFA96B0844A863BB
:10577000A86B0002A863CF20FFF71AFFA96B0844AB
:10578000A8630920FFF714FF606060680002606092
:105790000A20FFF70DFF616808446060606800023E
:1057A00060600B20FFF704FF616808446060606878
:1057B000000260600C20FFF7FBFE61680844606037
:1057C0000D20FFF7F5FE68606868000268600E2033
:1057D000FFF7EEFE69680844686068680002686068
:1057E0000F20FFF7E5FE69680844686068680002FA
:1057F00068601020FFF7DCFE6968084468601120CB
:10580000FFF7D6FEA060A0680002A0601220FFF79C
:10581000CFFEA1680844A060A0680002A060132029
:10582000FFF7C6FEA1680844A060A0680002A0605F
:105830001420FFF7BDFEA1680844A0601520FFF703
:10584000B7FEA860A8680002A8601620FFF7B0FEA7
:10585000A9680844A860A8680002A8601720FFF79C
:10586000A7FEA9680844A860A8680002A8601820DC
:10587000FFF79EFEA9680844A8601920FFF798FE6C
:10588000E060E0680002E0601A20FFF791FEE16846
:105890000844E060E0680002E0601B20FFF788FE3B
:1058A000E1680844E060E0680002E0601C20FFF767
:1058B0007FFEE1680844E0601D20FFF779FEE860A4
:1058C000E8680002E8601E20FFF772FEE9680844FD
:1058D000E860E8680002E8601F20FFF769FEE968F9
:1058E0000844E860E8680002E8602020FFF760FEF6
:1058F000E9680844E8602120FFF75AFE206120692A
:10590000000220612220FFF753FE21690844206134
:105910002069000220612320FFF74AFE2169084424
:1059200020612069000220612420FFF741FE2169E7
:10593000084420612520FFF73BFE2861286900020A
:1059400028612620FFF734FE296908442861286968
:10595000000228612720FFF72BFE296908442861EF
:105960002869000228612820FFF722FE29690844DF
:1059700028612920FFF71CFE6061606900026061F8
:105980002A20FFF715FE6169084460616069000222
:1059900060612B20FFF70CFE61690844606160695B
:1059A000000260612C20FFF703FE6169084460611A
:1059B0002D20FFF7FDFD68616869000268612E20F7
:1059C000FFF7F6FD6969084468616869000268616B
:1059D0002F20FFF7EDFD69690844686168690002DE
:1059E00068613020FFF7E4FD696908446861AB2015
:1059F000FFF7DEFDE062E06A0002E062AC20FFF744
:105A0000D7FD03E0080B00205C0B0020E16A08448E
:105A1000E062E06A0002E062AD20FFF7C9FDE16AE2
:105A20000844E062E06A0002E062AE20FFF7C0FDD9
:105A3000E16A0844E062AF20FFF7BAFDE862E86A75
:105A40000002E862B020FFF7B3FDE96A0844E862AB
:105A5000E86A0002E862B120FFF7AAFDE96A08449B
:105A6000E862E86A0002E862B220FFF7A1FDE96A95
:105A70000844E862B720FFF79BFD2063206B00021B
:105A80002063B820FFF794FD216B08442063206B4E
:105A900000022063B920FFF78BFD216B08442063CF
:105AA000206B00022063BA20FFF782FD216B0844BF
:105AB0002063BB20FFF77CFD2863286B000228636E
:105AC000BC20FFF775FD296B08442863286B000292
:105AD0002863BD20FFF76CFD296B08442863286B01
