:020000040802F0
:10000000E8900020950202085F1C030885BB0208E7
:100010005D1C0308752E020881D70308000000004C
:100020000000000000000000000000008B860308B4
:10003000C74F020800000000715803081599030813
:10004000AF020208AF020208AF020208AF020208C4
:10005000AF020208AF020208AF020208AF020208B4
:10006000AF020208AF020208AF020208AF020208A4
:10007000AF020208AF020208AF020208AF02020894
:10008000AF020208AF020208AF020208AF02020884
:10009000AF020208AF020208AF020208AF02020874
:1000A000AF020208AF020208AF020208AF02020864
:1000B000AF020208259E0308ADA20308AF020208A2
:1000C000AF020208AF020208AF020208AF02020844
:1000D000AF02020809D30308AF02020825D40308BF
:1000E000AF020208AF020208AF020208AF02020824
:1000F000AF020208AF020208AF020208AF02020814
:10010000AF020208AF020208FDA90308AF0202080D
:10011000AF020208AF020208DDAA0308AF0202081C
:10012000E54D0208AF020208AF020208AF02020862
:10013000AF020208AF020208AF020208AF020208D3
:10014000AF020208AF020208AF020208AF020208C3
:10015000AF020208AF020208AF020208AF020208B3
:10016000AF020208AF020208AF020208AF020208A3
:10017000AF020208AF020208AF020208AF02020893
:10018000AF020208AF02020800F002F800F072F8B5
:100190000AA090E8000C82448344AAF10107DA45E2
:1001A00001D100F067F8AFF2090EBAE80F0013F0C2
:1001B000010F18BFFB1A43F001031847880F050011
:1001C000A80F05000A444FF0000C10F8013B13F093
:1001D000070408BF10F8014B1D1108BF10F8015BA0
:1001E000641E05D010F8016B641E01F8016BF9D193
:1001F00013F0080F1EBF10F8014BAD1C0C1B09D1EA
:100200006D1E58BF01F801CBFAD505E014F8016B5B
:1002100001F8016B6D1EF9D59142D6D370470000ED
:100220000023002400250026103A28BF78C1FBD8FF
:10023000520728BF30C148BF0B607047662931F0B4
:100240008082642900F08280002070471FB531F061
:100250006EFA00F091FE04000020002130F070FCE6
:10026000401C60600020002130F054FCE0601FBDA5
:1002700010B510BD00F0F0FF1146FFF7E7FF2FF0BB
:10028000CBFE01F06FFA03B4FFF7F2FF03BC01F0FD
:100290009DFC00000948804709480047FEE7FEE74B
:1002A000FEE7FEE7FEE7FEE7FEE7FEE7FEE7FEE726
:1002B00004480549054A064B70470000DD990308CC
:1002C00089010208E88A0020E8900020E88C0020DC
:1002D000E88C00200FB41CB5074B06AA7B44694686
:1002E0000090059800F039FD0020694600F048FDB7
:1002F0001CBC5DF814FB0000A10A000070B50446A8
:1003000085690068C10601D5302600E02026C007B7
:1003100007D070BDD4E9012130469047206A401CC7
:1003200020626D1EF6D570BD70B5044685690078F3
:10033000C00707D170BDD4E9012120209047206A71
:10034000401C20626D1EF6D570BD00002DE9F04105
:100350000646002410687529314616A510D0AFF363
:100360000080002802DA404213A507E031688A07BE
:1003700001D512A502E0490704D511A5012401E029
:10038000AFF3008000210A2206F1240709E0B0FB48
:10039000F2FCB0FBF2F302FB1C003030785418463C
:1003A000491C0028F3D123462A463046BDE8F041D7
:1003B00000F067BA000000002D0000002B000000D4
:1003C000200000002DE9F05F894604464FF0000A46
:1003D000DFF824B1FB44C0F820A02046E16888473C
:1003E00000287DD0252806D0D4E901219047206A35
:1003F000401C2062F1E700255F462046E1688847FF
:100400002028064607DB312E05D2B81910F8200C3B
:1004100008B10543F1E7A80701D525F00405C4F8A4
:100420001CA00027C4F818A02A2E09D030462FF0AF
:1004300097FB38B304EB8708303EC8F8186019E022
:1004400059F8041B204604EB87029161E168884754
:10045000012F064618D1E069002820DA25F0200592
:100460001DE0D8F8180000EB800006EB40003038A3
:10047000C8F818002046E168884706462FF070FB50
:100480000028EED1012F0AD02E2E08D12046E16897
:1004900088477F1C0646022F45F02005C4DBA06973
:1004A000002803DA404245F00105A061E80701D0C9
:1004B00025F01005A6B1A6F14100192802D8203672
:1004C00045F400654A463146204625604D46FFF713
:1004D000B5FE60B1012807D0ED1D25F0070000E052
:1004E00007E000F1080978E705F1040975E73046EF
:1004F0007AE7206ABDE8F09F880C050070B50646D3
:1005000000F0B0F90468054630460A22002100F0E8
:100510008FFC2C6070BD40EA0103024630B59B079A
:1005200010D14FF0013400E008C208C91D1B9D43E3
:1005300015EAC41FF8D013F0FF0102F8011B0DD01B
:100540001B0AF8E711F8013B002B02F8013B05D02C
:1005500011F8013B002B02F8013BF3D130BD10B57F
:10056000431C02E010F8011B71B18107FAD14FF072
:10057000013202C88C1A8C4314EAC211F9D0C01A95
:100580000A0603D0C01E10BDC01A10BD0A0401D057
:10059000801E10BD0902FCD0401E10BD421E12F884
:1005A000013F002BFBD111F8013B002B02F8013B6E
:1005B000F9D17047032A40F2308010F0030C00F0AC
:1005C000158011F8013BBCF1020F624498BF11F88D
:1005D00001CB00F8013B38BF11F8013BA2F1040246
:1005E00098BF00F801CB38BF00F8013B11F00303BE
:1005F00000F06780083AC0F0088051F8043B083AE0
:1006000051F804CBA0E80810F5E7121D5CBF51F8C3
:10061000043B40F8043BAFF30080D20724BF11F83D
:10062000013B11F801CB48BF11F8012B24BF00F8A2
:10063000013B00F801CB48BF00F8012B7047431A7B
:1006400028BF9A427FF6B6AF032A1044114440F205
:10065000268010F0030F1EBF11F8013D521E00F856
:10066000013D10F0030F7FF4F6AF11F0030300F02B
:100670002A84083AC0F00B8051F8043D083A51F83A
:1006800004CD40F8043D40F804CDFFF7F3BF121D40
:100690005CBF51F8043D40F8043DAFF30080D20741
:1006A00024BF11F8013D11F801CD48BF11F8012C0C
:1006B00024BF00F8013D00F801CD48BF00F8012C2F
:1006C000704710B5203AC0F00B80B1E81850203ABE
:1006D000A0E81850B1E81850A0E81850BFF4F5AFE2
:1006E0005FEA027C24BFB1E81850A0E8185044BF6C
:1006F00018C918C0BDE810405FEA827C24BF51F8D9
:10070000043B40F8043B08BF7047D20728BF31F8CC
:10071000023B48BF11F8012B28BF20F8023B48BF1D
:1007200000F8012B704702F0FF0343EA032242EA7C
:10073000024200F0F4BB4FF0000200B513469446AD
:100740009646203922BFA0E80C50A0E80C50B1F129
:100750002001BFF4F7AF090728BFA0E80C5048BF3D
:100760000CC05DF804EB890028BF40F8042B08BFDB
:10077000704748BF20F8022B11F0804F18BF00F8D7
:10078000012B704710B5044610F0030F08BF11F09D
:10079000030F40F015804FF0013E121FC0F20E8093
:1007A00051F8043BA3EB0E0C2CEA030C1CEACE1C04
:1007B00008BF40F8043BF0D0A1F1040102F10402AB
:1007C000521E08DB11F8013B002B00F8013BF7D16A
:1007D000114600F0A2FB204610BD00004FF0013C86
:1007E00050F8042B51F8043B9A4221D1A2EB0C03A0
:1007F000934313EACC1317D150F8042B51F8043B60
:100800009A4215D1A2EB0C03934313EACC130BD1FC
:1008100050F8042B51F8043B9A4209D1A2EB0C0387
:10082000934313EACC13DBD04FF00000704700BFB6
:10083000D01A01BAB1FA81F101F0180122FA01F0DF
:10084000CB40C1F12001DBB2C0B2C01A2CFA01F3D7
:10085000D11A914311EAC311E6D17047704770472E
:100860007047000000487047848A002010B5FFF7E9
:10087000F9FF006810BD10B50446FFF7F3FF0460F0
:1008800010BD2DE9F0470D4699469246044600F109
:1008900024080168880604D5E06921F01001216070
:1008A00000E00120A84201DD471B00E00027A1690C
:1008B0007A1902EB0900081AA0612078C00602D458
:1008C0002046FFF71BFD002608E0D4E901211AF8B5
:1008D00006009047206A401C761C20624E45F4DBDF
:1008E0002078C0060AD52046FFF708FD06E0D4E9C7
:1008F000012130209047206A401C2062381EA7F159
:100900000107F4DC07E0D4E9012118F8050090475D
:10091000206A401C2062281EA5F10105F3DC204658
:10092000FFF702FD2078000602D50220BDE8F0871F
:100930000120FBE770472DE9FF4F0C461E464FF0A4
:10094000FF378BB0D2E90001DDF860800A908A465B
:10095000C1F30A5505B93D46002108464FF0000095
:10096000BAF1000F00F4400005DA00EB80004FF40C
:10097000400101EA50004FEA9059B9F1010F00DD42
:10098000B9460A9850EA4A000ED044F61050A5F233
:10099000FF3545432F14B8F1000F1ED07542291EB4
:1009A0001EDDC9F100021CE0B8F1010F4FF000009C
:1009B00001D0302103E0F24305E02154401CB04255
:1009C000FBDB30460022002121540B99C1F808803E
:1009D000C1E900200FB0BDE8F08FBD1B6D1CDEE744
:1009E0004A4600DA694206A800F0C8FB06AB93E865
:1009F000070003AB83E8070050460A9901F000F9AD
:100A00008DE80700A0F500501F3800900398002DD6
:100A100009DD42F21F014A46084403A903906846D3
:100A200001F089FB08E0A0F500504A461F3803A9F1
:100A30000390684601F0A7FB8DE807000004000C56
:100A400003D04FF0FF30410800E01046B8F1000F2E
:100A500003D00022009215461EE0751E05D400F05A
:100A60008FFA303262556D1EF9D5B3460122084324
:100A700002D000227F1C04E02078302801D100221F
:100A80007F1E002A099786D01DE0112D07DA00F09D
:100A900077FA303262556D1C50EA0102F5D10843F5
:100AA00002D00098C8B10EE00021681E05E0235C6A
:100AB000625C63542254401E491C8142F7DBAB4602
:100AC000A81B401E0990002004F80B000B98099AFF
:100AD000C0F80880C0E9002B7CE711264FF0000821
:100AE00059E72DE9F04F88460446D21D22F0070150
:100AF00091B0D1E90001CDE90A0127F013FA0246CD
:100B00000B98C00F01D02D2007E02068810701D588
:100B10002B2002E0202101EAC000032A099001D025
:100B2000072A05DB03464146204600F077FA0BE131
:100B30002078800601D5E06900E00620B8F1650F55
:100B4000814606D0B8F1660F18D0B8F1670F70D1A2
:100B500031E00020B9F1110F009001DB112301E019
:100B600009F101030AAA01A90CA8FFF7E4FEDDE9D7
:100B70000C70002609F10105834647E001204B4631
:100B800000904FF000470AAA01A90CA8FFF7D3FE76
:100B9000DDE90DB00C995D46002610B909F10100A0
:100BA0000D18B9EB050003D4C0F1FF3609F10105BA
:100BB000A5EB09002BE0B9F1010F01DA4FF00109B3
:100BC0000020B9F1110F0090484601DD112300E02B
:100BD00003460AAA01A90CA8FFF7ADFEDDE90C70D7
:100BE0004D4600268346207800070AD4AB4500DA3C
:100BF0005D4601A8012D04DD411911F8011C3029C1
:100C000007D04F4502DA17F1040F04DA01208246BB
:100C10000FE06D1EEEE7002F02DCED1B3E4403E00B
:100C2000781CA84200DD7D1CB81B00F1010A4FF0C2
:100C300000472078000703D4AA4501DB4FF0FF3AB4
:100C40000021B7F1004F0DF143088DF8431024D077
:100C500002202B23002F01DA7F422D230A21021EBE
:100C6000A0F1010000DC5FB197FBF1FC97FBF1F212
:100C700001FB1C7C17460CF1300C08F801CDEEE7A7
:100C8000A8F1010003702188090501D5452100E084
:100C90006521A0F1010800F8011C09980FA9A1EB3A
:100CA0000807FF1D00B10120411901EBEA70A1699D
:100CB0003844081A401EA0612078C00602D420469D
:100CC000FFF71CFB099828B1D4E901219047206A5D
:100CD000401C20622078C00622D52046FFF70EFB7C
:100CE0001EE0002E04DBB34502DD01A8805D00E0BC
:100CF0003020D4E901219047206A401C2062761CF4
:100D0000AAF101005FEA000A0AD100F035F9C068D3
:100D10000168405CD4E901219047206A401C2062B0
:100D2000281EA5F10105DCDC07E0D4E9012118F853
:100D3000010B9047206A401C2062381EA7F1010772
:100D4000F3DC2046FFF7F0FA032011B043E6000081
:100D500001694A1C02610878704700B58FB0CDE97F
:100D600001310021059105497944CDE9031011466F
:100D70006846FFF727FB0FB000BD0000E5FFFFFF4F
:100D80000A6802F8010B0A60704700000FB40023E4
:100D900000B589B00CA900910B99CB60214B7B4425
:100DA0000693214B7B44079304236FF00042CDE967
:100DB00001321E4A7A446B4608920246002030F007
:100DC00022FD09B05DF814FB70B506464FF0FF3008
:100DD00015460C46324686B00091CDE901016946C0
:100DE0000020049004A8FFF7D1FF024604982118C0
:100DF00025B108B1084600E0204628600498002884
:100E00000DD0002A02DD0098884208D03246081B27
:100E100069460094CDE9010404A8FFF7B7FF06B0C6
:100E200070BD0000FB02000013030000530200002D
:100E30002DE9F04791460F4680460446002614F8F7
:100E4000015B2DB100F090F80068405DC007F6D15D
:100E50002B2D02D02D2D18D0641E4A46394620462F
:100E600000F03CF927B13968A14201D1C7F80080F0
:100E70004FF0020471050BD54042002803DDFFF757
:100E8000F1FC0460A007BDE8F08746F48066E4E763
:100E90000028F8DAFFF7E6FC04606FF00040F2E7A4
:100EA000431A28BF9A427FF60CAC104410F0030F8F
:100EB00011441EBF11F8013D521E00F8013D10F013
:100EC000030F7FF4F6AF103AC0F00A8010B531E995
:100ED0001850103A20E91850BFF4F9AFBDE810409F
:100EE000530724BF31E9081020E9081044BF51F826
:100EF000043D40F8043D12F0030F08BF7047D207CD
:100F000028BF31F8023D48BF11F8012C28BF20F856
:100F1000023D48BF00F8012C70474FF00002042941
:100F2000C0F0128010F0030C3FF407ACCCF1040CBD
:100F3000BCF1020F18BF00F8012BA8BF20F8022B4C
:100F4000A1EB0C01FFF7F9BB5FEAC17C24BF00F8FD
:100F5000012B00F8012B48BF00F8012B704700005F
:100F600000487047848A002010B500F005F8001D85
:100F700010BD00BFCDFB020000487047A48A0020CE
:100F800030B5B0F10A024FEA900E71F100034EEA5B
:100F9000817EB0EB0E0061EB91014FEA101E4EEA2C
:100FA000017E10EB0E0041EB11114FEA102E4EEABC
:100FB000016E10EB0E0041EB11214FEA104E4EEA8C
:100FC000014E10EB0E0041EB1141401841F10001C0
:100FD0004FEAD00040EA41704FEAD10110EB8005A2
:100FE0004FEA810444EA907444EB01046D1944EB28
:100FF0000404521BA3414FF0000348BF0A3200D53E
:1010000030BD401C41F1000130BD10B50446FFF772
:10101000ABFF0068005D00F0010010BD2DE9F0415C
:101020001F46044603260168072A01F4006004DB1A
:1010300008B116A505E016A503E008B115A500E066
:1010400015A521F010002060A069C01EA0610FB19D
:10105000401EA0612046FFF751F94FB1D4E90121AC
:1010600038469047206A401C2062C01C206206E07F
:10107000206AFAE7D4E9012115F8010B9047761EA2
:10108000F8D22046FFF750F9BDE8F0814E414E00FE
:101090006E616E00494E4600696E6600426842B15C
:1010A000016811F8013B23B1521EC0E90012184635
:1010B00070470121C160881E704742685AB1C368F9
:1010C000016843B983688B4205D0491E521CC0E9B0
:1010D0000012002070474FF0FF3070472DE9F05F9D
:1010E000824615468B4600270AF10104B94600786E
:1010F000302801D09DB113E014F8010B01277828A6
:1011000003D0582801D045B10AE00DB1102D07D108
:10111000002714F8010B102502E0082500E00A253D
:101120000026B0460EE005FB080005FB06F101278E
:101130001FFA80F801EB1046B6F5803F00D3B946A0
:1011400014F8010B294600F0ACF80028EBDABBF1EB
:10115000000F05D00FB1641E00E05446CBF80040EC
:10116000B9F1000F06D0FFF77DFB02210160C81E18
:10117000BDE8F09F48EA0640FAE700002DE9F04795
:10118000814616468AB0334878440DC88DE80D0074
:1011900030487844801C03AC0DC884E80D0041F64B
:1011A0009B300844372190FBF1F290FBF1F5A5F15B
:1011B000800501FB12041B3C02D56442012000E0C3
:1011C0000020DFF890A080460027FA44AAF1BE0A6A
:1011D0000DE0E00709D03246684607EB47010AEB0D
:1011E000810100F0D0FF8DE8070064107F1C002C07
:1011F000EFD1184F7F44AC3F18E0E80714D007EB5D
:1012000004100DF1180A90E80E008AE80E00C0687C
:10121000F04201D198190890324606A903A800F0BF
:10122000B2FF03AB83E807006D10641C002DE4D10E
:1012300032466946B8F1000F03A802D000F07BFFE8
:1012400001E000F0A0FFC9E90001C9F808200AB0D8
:10125000BDE8F08764FF04007546FFF781FEAE46E7
:1012600005006946534620F00700854618B020B5B2
:10127000FFF71EF8BDE820404FF000064FF00007D2
:101280004FF000084FF0000B21F00701AC46ACE82E
:10129000C009ACE8C009ACE8C009ACE8C0098D469B
:1012A00070473A2800D2303820F02002412A01D37A
:1012B000A2F13700884201D34FF0FF3070470000A1
:1012C0002DE9FF4F064689B00878FF2806D0491C53
:1012D0002D2805D000244FF0000908E000200CE084
:1012E0000124F8E709EB8903491C00EB430908785E
:1012F000FF28F7D114B1C9F100008146107800250C
:101300002C46AA4629462D2801D02B2804D1521C50
:101310002D2813D0002082468B461078FF280FD04E
:101320004FF0000C0A21521CA5FB017804FB01813F
:1013300005FB0C11C5194BEB0104EEE70120EAE7B0
:10134000002108464FF00000BAF1000F02D000EB78
:1013500080004008C0F38158B8F1010F01DD4FF063
:10136000FF380C9809EB000755EA040009D04FF04C
:10137000020917F5FA7F0BDA4FEACA70C6E900B026
:1013800012E04FEACA70C6E900B00DB0BDE8F08FB8
:10139000B7F5FA7F0DDDF0487844D0E90010C6E9D2
:1013A000001040EACA707060FFF75CFAC0F8009065
:1013B000EBE7391E02DAC8F1000200E0424600DA2B
:1013C000794206A8FFF7DAFE06AB93E8070003AB05
:1013D00083E8070044F23E005BEA040100905846AF
:1013E00004D144F21E012C465D460091210C0904F3
:1013F000014306D10099240444EA15442D04103910
:10140000009104F07F41014306D10099240244EA8F
:1014100015642D020839009104F07041014306D192
:101420000099240144EA15742D01091F009104F06C
:101430004041014306D10099A40044EA9574AD00EF
:10144000891E009104F00041084304D100986D19F1
:101450006441401E009042466846002FCDE9014598
:1014600003A902DD00F0A3FE01E000F078FEBAF16E
:10147000000F04460D4601D084F0004440F2FF778F
:1014800024F00040284303D0C4F30A50B84212D1DC
:10149000FFF7E8F9C0F80090C4F30A50B8420AD147
:1014A000AE487844D0E90010C6E9001004F00041CD
:1014B0000843706069E7C6E9005466E72DE9FF4F0D
:1014C0001F464FF0000A4FF0FF38454691B0D7E96C
:1014D0000146CDF83CA0FFF74FFDC0680168405CB5
:1014E0001090B96912986D1C8847396A81468847FF
:1014F0000028F6D1B9F1FF3F0AD0002E24F4D064C1
:1015000011DDB9F12B0F08D0B9F12D0F0BD102E08D
:10151000404615B03AE744F48064B96912986D1CEE
:101520008847761E8146600504A901D52D2000E07C
:101530002B20002E01F1010B0DF130088DF8100069
:101540003FDDB9F1690F08D0B9F1490F05D0B9F104
:101550006E0F02D0B9F14E0F1CD13B4601A8009589
:1015600080E85002DDE912126FF0020030F04FF90E
:10157000C11CCED10EE0B96912986D1C8847814616
:101580001398761E44F4007405600F98401C002EDA
:101590000F9016DDB9F1300FEDD0B9F1780F02D010
:1015A000B9F1580F0DD10F9801280AD13B46CDE96A
:1015B0000054DDE91212001F029630F026F9C11C1A
:1015C000A7D1109989453ED144F0800406E01399D3
:1015D000681CAAF1010A44F400740860B9696D1C22
:1015E0001298761E884730288146F0D02BE010995B
:1015F000894505D1200603D4761E44F0800418E006
:1016000048462EF0ADFA08B3761E0DF123018B4546
:1016100044F4007408D2A9F130000BF8010B200645
:1016200007D5AAF1010003E0200602D40AF1010067
:101630008246A00502D51399681C0860B969129802
:101640006D1C88478146002ED1DC53E0002E51DD11
:10165000B9F1650F02D0B9F1450F4BD1A00549D5BD
:10166000B9696D1C1298761E24F440748847002EC8
:1016700081460CDD2B2804D0B9F12D0F07D144F49D
:101680008074B96912986D1C8847761E8146E00502
:1016900001D52D2100E02B2108F8011BCDF8008099
:1016A00021E0761E0DF13901884544F400740CD216
:1016B000A9F1300010F0FF0088F8000002D1009975
:1016C000884509D908F1010806E0E00501D524485C
:1016D00001E042F20F708246B96912986D1C88478A
:1016E000814613980560002E04DD48462EF038FA36
:1016F0000028D6D1F96912988847FF2053468BF805
:10170000000088F8000000200A900B9004AA0CA9A1
:101710000AA8FFF7D5FDA00502D46FF00100F8E696
:1017200014F0240F0AD0E00714D13868DDE90A125A
:10173000031D3B600068C0E900120BE00AA968467F
:1017400026F0C6FDE00705D13868009A011D396012
:10175000006802602846DCE6C8FD0400BEFC040008
:10176000F1D8FFFF10B50446AFF300802046BDE876
:101770001040FEF788BD00002DE9FF4F1F464FF0D7
:101780003C0987B04FF00042DDE9141001F1010877
:10179000DDF858A002EA40500390002005908346EF
:1017A000054604460490B969461E08988847AAF180
:1017B000010A0290BAF1000F3BDD02982E2815D0E5
:1017C0001021FFF76EFD00282EDB4FF0010B05996D
:1017D000014317D0B9F1000F0BDB4A46C11700F0E7
:1017E000FBF905430C43A9F1040905E0012004902D
:1017F0000BE008B145F0010501200590049820B9DF
:10180000361D02E0049800B1361FB969089808F146
:1018100001088847BBF1000FAAF1010A0290C9D064
:101820000999C1F80080C5E70298702808D05028AF
:1018300006D0F96908988847BBF1000F14D04FE033
:10184000002002900120BBF1000F049009D0B9697B
:10185000089808F101088847AAF10109B9F1000FB9
:1018600007DCF969089888476FF001000BB0BDE804
:10187000F08F2B2804D02D280CD14FF0FF3004908E
:10188000B969089808F101088847A9F10109B9F177
:10189000000FE6DD411CE4D00A21FFF702FD00281D
:1018A000DFDB029908F1010801EB810100EB410047
:1018B0000290B969089888470A21FFF7F2FC099A53
:1018C000A9F10109B9F1000FC2F8008001DD00287B
:1018D000E7DAF969089888470499029800FB0166DD
:1018E00055EA040004D004F04041090002D006E0AB
:1018F000039898E0A40044EA9574AD00B61E04F085
:101900000041080002D16D196441761E159810F04F
:10191000240F03D04FF00B095C4803E04FF0280977
:101920006FF07D008246564507DAAAEB060189442E
:10193000B9F1410F01DD4FF0410901200021A9F16A
:10194000010200F049F9024628400B4621400843B5
:1019500001D0012100E00021501E029143F1FF312E
:1019600028402140084301D0012000E000200299D6
:10197000834651EA0B014FD0002108464FF000008A
:10198000039900F4400039B100EB80004FF44001AE
:1019900000EBD07001EA60008015012802DD4FF0F5
:1019A000FF3000E013D0401C36D0029860B3BBF18A
:1019B000000F0CD14A460120002100F00DF928400B
:1019C0002140084301D0012000E00020E0B10120C7
:1019D0004A46002100F000F9034640190A466141D9
:1019E0002D1A8C4111D3B9F1400F09DD159810F073
:1019F000240F02D0AAF1340603E0AAF1170600E092
:101A0000761C00254FF0004406E05B1E42F1FF32D9
:101A100020EA030521EA0204CAF10100B04206DA15
:101A20001B49039808430190002000900EE0039AA0
:101A3000C4F3D321E80A0A43164940EA44500A4352
:101A40003146CDE90002684626F09EFC159810F05C
:101A5000240F0BD01598C00715D13868DDE90012A6
:101A6000031D3B600068C0E900120CE002A8694653
:101A700026F02EFC1598C00705D13868029A011D82
:101A80003960006802604046F0E6000002FCFFFF9B
:101A90000000F07F0000F03F2DE9FF4F92461D4609
:101AA00085B04FF00041DDE9124BDDE914727F1E75
:101AB00001EA4B50414940F0FF4940EA010800214A
:101AC00022F020004928049102D04E2828D04CE072
:101AD0003BA0012607C88DE80700A9690698641C89
:101AE00088477F1E014606D41DF8060018B121F074
:101AF000200181420BD0E96906988847032E34D033
:101B0000082E32D06FF0010009B0BDE8F08F761CCE
:101B1000032E01D0082EE0D1601CCAF80000DCE7DB
:101B2000A9690698641C88477F1E2AD420F02000EB
:101B3000412826D1A9690698641C88477F1E20D4B5
:101B400020F020004E281CD1A9690698641C884703
:101B50007F1E48F4002849F48009CAF8004001D4E7
:101B6000282806D0E969069888475FEACB7012D02A
:101B700022E0A9690698641C88477F1E01D40028CA
:101B800003DAE96906988847BCE72928F1D1641C83
:101B9000CAF80040E9E71BF0240F07D02868049931
:101BA000031D2B600068C0E9001805E02868021DCD
:101BB0002A600068C0F800902046A5E70000F07F8A
:101BC000494E46494E495459000000000149182029
:101BD000ABBEFEE726000200B2F120030AD5C2F137
:101BE000200301FA02F120FA03F300FA02F041EABD
:101BF0000301704700FA03F14FF00000704770478F
:101C00005FEA400C08BF91F0000F4FEA8C234FEAC7
:101C1000C12243EA51514FEA1C5018BF00F5F04071
:101C20004FEA300018BF41F000415FEA6C5C00F001
:101C30002980BCF1FF3F08BF40F080407047130C83
:101C400006BF12044FF0100C4FF0000C130E04BF2F
:101C500012020CF1080C130F04BF12010CF1040C5A
:101C6000930F04BF92000CF1020CD30F04BF52007B
:101C70000CF1010C11464FF00002A0F11F00A0EB87
:101C80000C00704711F0004F08BF704731F0004161
:101C90003FF4D5AF0B0C06BF09044FF0100C4FF00A
:101CA000000C0B0E04BF09020CF1080C0B0F04BF53
:101CB00009010CF1040C8B0F04BF89000CF1020C1C
:101CC000CB0F04BF49000CF1010CCCF12003A0EBB9
:101CD0000C0022FA03F302FA0CF241EA030100F1CC
:101CE0000100704720F07F4C80EA030023F07F471B
:101CF000ACEB070303F57C5300F0004003F1FF0356
:101D00002DE980494FEA154B09B44FEA144325EAFF
:101D10000B4E24EA03480FF2042606EB132749086A
:101D20003E785FEA320203FB0667C7F5000707FB50
:101D300006F64FEA54374FEAD64606F1020607FB8D
:101D4000066CCCF1005C4FEA1C472CEA074C07FB01
:101D500006F40CFB06F504EB15464FEA961634BF65
:101D600000204FF000404FEAD13706FB07FC4FEA56
:101D70001C4C0CFB0BF7D21B03FB0CF761EB0701B0
:101D80000CFB0EF7B0EB074072EB17420CFB08F7A9
:101D900034BFA2EB0742B2EB074261EB17414FEAB7
:101DA0000C444FEA910706FB07FC4FEA1C4C0CFB66
:101DB0000BF7B0EBC74072EB573203FB0CF734BFA5
:101DC000A2EBC742B2EBC74261EB57310CFB0EF7F7
:101DD000B0EBC70072EB57720CFB08F734BFA2EBF5
:101DE000C702B2EBC70261EB5771039F4FEA8161F3
:101DF00041EA921104EBCC044FEAD1374FEA8262F8
:101E000006FB07FC42EA90124FEA80604FEA1C4C46
:101E10000CFB0BF7D21B03FB0CF761EB07010CFB70
:101E20000EF7B0EB074072EB17420CFB08F734BF1C
:101E3000A2EB0742B2EB074261EB17414FEA8C5528
:101E40004FEA910704EB9C2406FB07FC4FEA1C4C6D
:101E50000CFB0BF7B0EBC74072EB573203FB0CF7F0
:101E600034BFA2EBC742B2EBC74261EB57310CFB68
:101E70000EF7B0EBC70072EB57720CFB08F734BFDC
:101E8000A2EBC702B2EBC70261EB577115EB4C2511
:101E90004FEA816141EA92114FEA82624FEAD137FB
:101EA00042EA901206FB07FC44F100044FEA80600E
:101EB0004FEA1C4C0CFB0BF7D21B03FB0CF761EB3E
:101EC00007010CFB0EF7B0EB074072EB17420CFB5F
:101ED00008F734BFA2EB0742B2EB074261EB1741B0
:101EE00015EB1C154FEA813141EA92414FEA8232EB
:101EF00042EA90424FEA80304FEA0C7644F1000407
:101F000048EA03434EEA0B484FF0000EB2EB080CD0
:101F100071EB030724BF624639464EEB0E0E4FF0BD
:101F2000000B0018524149414BEB0B0BB2EB080C74
:101F300071EB03077BF1000B24BF624639464EEB81
:101F40000E0E4FF0000B0018524149414BEB0B0BAA
:101F5000B2EB080C71EB03077BF1000B24BF624668
:101F600039464EEB0E0E51EA020718BF46F0010645
:101F700016EB0E7655F1000254F1000103D5BDE8D1
:101F80008901BDE80088BDE88901BDE80048B619AF
:101F9000524141EB0101A3F10103704780807F7E34
:101FA0007D7C7B7A797877767675747372717170CF
:101FB0006F6E6E6D6C6C6B6A6A6968686766666581
:101FC0006464636362616160605F5F5E5E5D5D5C0F
:101FD0005C5B5B5A5A595958585757565655555580
:101FE0005454535352525251515050504F4F4F4EE0
:101FF0004E4D4D4D4C4C4C4B4B4B4A4A4A4949492E
:10200000484848474747474646464545454444446F
:1020100044434343434242424241414146EA064629
:10202000A3F570534FEA164646EA42564FEAD222CB
:1020300042EA415210B54FEAD121A3F1010300F069
:1020400017F820F0004000F1010C00F0004701EB10
:1020500000501146BCF5006F40EA070000D210BDE9
:1020600002484FF0000140EA070010BD0000F07F79
:10207000002B26D4770021D01CB54FEA370703B4D4
:102080004FF010004FF010014FF000000FBCBDE802
:1020900010400BF1010BBBF1010F08BF5FEA1707FE
:1020A00022BF12F1010211F101014FF0004143F191
:1020B000000300F0004043EA00007047F9D35708DE
:1020C000DAE746EA064613F1400F4FEA16461FDDEF
:1020D00013F1200FDFBF16430A46002120335B4275
:1020E000C8D0C3F1200746EA064602FA07F74FEACE
:1020F000164646EA0706C3F1200722FA03F201FA60
:1021000007F721FA03F14FF0000342EA0702B1E7B3
:1021100046EA020646EA06464FEA164646EA01063F
:10212000BCBF46EA0646360C4FF000034FF00002F3
:102130004FF000019EE72DE9C048934630B491E886
:10214000380007C831EA400C48BF34EA430C03D5D5
:10215000FFF7C8FDFFF78CFFF0BCBDE800882DE954
:10216000C048934630B491E8380007C831EA400CC3
:1021700048BF34EA430C03D5FFF7B4FDFFF74EFF29
:10218000F0BCBDE800882DE9C048934630B491E822
:10219000380007C810F0804F08BF13F0804F03D1FC
:1021A00000F019F8FFF764FFF0BCBDE800882DE9E6
:1021B000C048934630B491E8380007C810F0804F0B
:1021C00008BF13F0804F03D100F005F8FFF726FF9A
:1021D000F0BCBDE8008820F07F4780EA030023F0D0
:1021E0007F4C07EB0C03A3F57C5300F00040A3F1F8
:1021F000FE0392F0000F00F0B38095F0000F00F0A6
:1022000077802DE901494FEA11404FEA144621EA4F
:10221000004800FB06FC24EA064708FB06F607FB1D
:1022200008F800FB07F718EB06484CEB164C4FEA92
:10223000124B18EB07484FEA15464CEB174022EAC1
:102240000B4E0BFB06FC25EA06470EFB06F607FBCA
:102250000EFE0BFB07F71EEB064E4CEB164C4FF039
:1022600000061EEB074E4CEB174B18EB0B0840F12A
:10227000000018EB0E0B58EB000840F100008F1A1D
:102280004FF000013CBFC943661B14BFB5EB040C03
:1022900000213CBFC943F61B4FEA17444EEA8E0E9D
:1022A00027EA04454FEA1C4704FB07622CEA074C67
:1022B00005FB07F70CFB05F604FB0CFC16EB0746C9
:1022C00042EB174216EB0C4642EB1C421BEB060698
:1022D00058EB0202414146EA9E0601D5BDE801895C
:1022E000B619524141EB0101A3F10103BDE8018997
:1022F0004FEA14454FEA114724EA054621EA074C04
:1023000005FB07F406FB07F70CFB06F105FB0CFCCD
:1023100011EB074144EB17444FEA124711EB0C4114
:1023200044EB1C4422EA074C05FB07F206FB07F7C7
:102330000CFB06F605FB0CFC16EB074642EB1742BE
:1023400016EB0C4642EB1C456A1854F1000148BFDD
:102350007047B619524141EB0101A3F101037047E7
:1023600095F0000F37D04FEA11424FEA144721EAA7
:10237000024624EA074C02FB07F106FB07F70CFBB9
:1023800006F402FB0CFC14EB074441EB17414FEA47
:10239000154714EB0C4441EB1C4125EA074C02FBAA
:1023A00007F506FB07F70CFB06F602FB0CFC16EB29
:1023B000074645EB174516EB0C4645EB1C42121938
:1023C00051F1000148BF7047B619524141EB01017C
:1023D000A3F1010370474FEA14454FEA114724EA7D
:1023E000054621EA074C05FB07F106FB07F70CFB46
:1023F00006F24FF0000605FB0CFC12EB074241EB26
:10240000174112EB0C4251EB1C4148BF7047921828
:1024100041EB0101A3F10103704708B54FF47A7055
:10242000009003E0BDF80000401E0090BDF80000E1
:102430000028F7D108BD00002DE9F04188B0012146
:10244000080313F08BFE02278DF81D7001268DF80E
:102450001C6000248DF81E4040200690DFF8A0800C
:1024600006A9404605F0D8FB382506958DF81C7066
:102470008DF81E4003208DF81D008DF81F6006A901
:10248000404605F0C9FB05220321404605F002FC49
:1024900005220421404605F0FDFB05221146404679
:1024A00005F0F8FB4021404605F00DFCFFF7B5FFB5
:1024B0004021404605F005FCADF804404FF4827021
:1024C000ADF80600F002ADF80800ADF80A40ADF82E
:1024D0000C408010ADF80E00ADF81050ADF8124071
:1024E0000720ADF81400074C01A9204616F0B1F8FA
:1024F0000121204616F096F808B0BDE8F0810000F2
:10250000000402400030014070B588B000250795F6
:102510006A4C16E09DF81C10012016F057F89DF843
:102520001C1024F81100A0880290E08804906089B3
:102530000390A0890190E08900909DF81C00401C48
:1025400007909DF81C000828E4D3BDF810305C4AC1
:102550001078411C117041005848103043521178D6
:102560003C2918D11570059506950AE09DF81810BC
:1025700030F81110059B194405919DF81810491C5D
:1025800006919DF818103C29F0D305983C21B0FB2A
:10259000F1F04C490860BDF80C305078411C517086
:1025A000410046488830435251781E231E2917D1D6
:1025B0005570059506950AE09DF8181030F8111031
:1025C000059C214405919DF81810491C06919DF821
:1025D00018101E29F0D305983B49B0FBF3F0088092
:1025E000BDF804401079411C117141003748445234
:1025F00011796424642917D11571059506950AE0AF
:102600009DF8181030F81110059E314405919DF881
:102610001810491C06919DF818106429F0D30598EC
:102620002B49B0FBF4F00880BDF808609078411C9D
:10263000917041002148EC3046529178642900D1D4
:102640009570059506950AE09DF8181030F8111060
:10265000059E314405919DF81810491C06919DF87E
:1026600018106429F0D305981A49B0FBF4F00860FB
:10267000BDF80040D078411CD170410013483C386F
:102680004452D1781E2917D1D570059506950AE0D8
:102690009DF8181030F81110059A114405919DF815
:1026A0001810491C06919DF818101E29F0D30598A2
:1026B0000949B0FBF3F0088008B070BDC80C0020D9
:1026C0004F0100206C0000206A000020B80E00209E
:1026D00070000020740000207800002011B581B047
:1026E0000C4C0221204615F0A9FF0028F9D0BDF8B6
:1026F0000410204615F0ABFF0121204615F09EFF87
:102700000028F9D0204615F0A0FF0090BDF8000089
:102710001CBD000000300140F0B59BB001210D024E
:10272000284613F01BFD0121880513F0EDFC402025
:10273000009003268DF8046000248DF80740694658
:102740002B4805F069FA02942A4803902A4804901D
:102750000594322006900794A80008904000099044
:1027600080000A900B9500010C900D9401250E95A8
:102770000F941094214F02A9384602F081FB0121E9
:10278000384602F057FB01221021384602F05EFB6A
:1027900001F0B6FF174F01214C3F384600F072F8A8
:1027A000119412941394149411A800F057F81594EE
:1027B0008DF858508DF85950189419948DF8686018
:1027C00015A9384600F076F8002301220621384684
:1027D00000F096F80121384600F034F8384600F051
:1027E000C9F80121384600F059F81BB0F0BD0000CF
:1027F000000002404C2001400C0A002010640240FE
:102800000CB50020009001900C490AE09DF80400EE
:1028100031F81000009A104400909DF80400401C0C
:1028200001909DF804003228F0D300984FF4FA711B
:10283000B0FBF1F0024908800CBD00000C0A00203A
:1028400068000020002904D0816841F00101816006
:102850007047816821F001018160704710B5074C15
:10286000226807490A40D0E900131943D0E9023031
:10287000034319431143216010BD000004230140AC
:10288000E030FCFF002904D0816841F48071816050
:102890007047816821F4807181607047002904D0FD
:1028A000816841F4007181607047816821F4007192
:1028B0008160704730B542680F4B1A400C790B6845
:1028C00042EA04221343436083680C4A1340D1E96F
:1028D000034222434D798C6844EA450422431A435B
:1028E0008260C26A22F47002097D491EC9B242EABE
:1028F0000151C16230BD0000FFFEFFFCFDF7FFC0CB
:1029000070B5072609290AD9C568A1F10A0404EBA4
:102910004404A640B543A3401D43C56007E00569D4
:1029200001EB4104A640B543A3401D4305611F23AD
:10293000072A09D2446B521E02EB820293409C4349
:1029400091400C43446370BD0D2A09D2046BD21F21
:1029500002EB820293409C4391400C43046370BDA0
:10296000C46A0D3A02EB820293409C4391400C43AF
:10297000C46270BD816841F0804181607047002869
:1029800000DC404270474178007841EA00207047FF
:1029900010B50C480078400612D40B4C2068410753
:1029A0000ED5020609484FF4007103D4BDE810406B
:1029B00005F089B905F085F9206820F00400206051
:1029C00010BD0000440000203C0000200008024030
:1029D0000549086840F00400044B00221A8020F0EA
:1029E00080000860704700003C000020820000204A
:1029F00038B545680446014628461AF0FFFE00280F
:102A00002AD02068304A0F2819D006DC0B2824D0A1
:102A10000C2810D00E2851D12FE0112802D02828E0
:102A20004CD145E09268002A16D02146284601B0D4
:102A3000BDE830401047214628465268F7E728464F
:102A400006F088F80090406E0468684606F0CCF8FE
:102A5000002C01D02846A04738BD284606F07AF859
:102A60000090683005F0DEFF009803216C3005F01F
:102A7000E1FF684606F0B8F820E0E16848680968B8
:102A80000D2902D0202913D105E0002810DD2846A9
:102A900022F060F806E0002804DD2846BDE8384052
:102AA00022F058B82846BDE83840022122F068B824
:102AB000E06818B90021284600F097F92046BDE8E3
:102AC00038401BF00FBB0000DC020020F0B50446CC
:102AD00085B08069B4F90850668A0027CDE902659F
:102AE000CDE900170490B4F90C00B4F91060C118D6
:102AF000B4F90A00B4F90E50104433462A4600F0E7
:102B000007F80546616800F079F905B02846F0BD80
:102B1000F0B585B00C46DDE90D514C31DFF850C001
:102B2000DDE90A67CDE902C12146CDE900671BF066
:102B300029FA040018D006F00DF810222946049056
:102B40001BF080F8049830220A493430FDF7B9FDB3
:102B5000084D04990C3D2868486604A806F044F81E
:102B6000286841682046884705B02046F0BD00002F
:102B7000F1290208E8020020F0B5044680688B497C
:102B800089B051F82050606800287DD0052804D015
:102B900006287AD0122879D1AEE0E86900284FD013
:102BA00095E80E008DE80F0004F110010FC908F040
:102BB00085FB002655F8260007F0E4FBA169E869CB
:102BC0000A1A216901446069304406F065FDA16973
:102BD000E8690A1A21690144E069801B06F05CFD7E
:102BE000E169E8690A1A616901442069304406F024
:102BF0000FFEE169E8690A1A61690144A069801B56
:102C000006F006FE761C022ED4DBA86807F0BAFB9D
:102C1000E069E9696669431A20694218521E314425
:102C2000801C06F05FFEE169E869A2690B1A616920
:102C30000144101A401C921E06F054FEEE6913E087
:102C40005FF0000655F8260007F09CFBE069831B47
:102C5000A069821B606981192069304406F09AFDE1
:102C6000761C022EEEDB0226D5E90301CDE9000138
:102C70006169E06908444310A069891C821B2069CE
:102C8000304406F0B1FC02E089E012E08AE0D5E9C8
:102C90000501CDE90001E36960690121184401EBF8
:102CA0006001A0699B1E821B2069304406F09CFCD9
:102CB00078E0206805F04EFF049020681CF042FA8E
:102CC00040B1A06808B1002008E00498006F28B166
:102CD000012003E00498406F00B10220049901EB49
:102CE0008000C56E04A805F07FFF00231A46284621
:102CF000216806F00BFA55E0206805F02BFF0490E0
:102D0000866EEEB3B0F95C70A168D1B3032942D0EE
:102D10005FF0000100EB8101406D0C6C07F03CFBA3
:102D2000204607F02FFB05A806F02CFEBDF8141076
:102D3000A88B0144ADF81410BDF81810081AADF8AE
:102D40001800BDF81600801CADF81600BDF81A007A
:102D5000801EADF81A0004985E30B0F90220B0F978
:102D6000001005A807F06CFA04A805F03DFF02204A
:102D700007F052FB304605F0EDFE3A4605A901E0AA
:102D80000BE006E0079006F0B9FA07A805F02CFF63
:102D900008E00121BEE70221BCE704A8F6E72068AD
:102DA0001BF094FE09B00020F0BD0000DCCD060849
:102DB000044A0349116004494A6A48621046704750
:102DC00018030020DC020020E802002038B50D4680
:102DD000040009D005F0BEFE00904565684605F088
:102DE00003FF20461BF075FC38BD4FF480720029AC
:102DF000114601D01AF08CBD1AF0DEBC2DE9FF415E
:102E00000E4605004FF001041CD005F0A3FE019012
:102E1000876E01A8009705F0E7FE3146684608F086
:102E20002DFD78B100980024B84208D0284605F05E
:102E300091FE01900099816601A805F0D5FE284613
:102E40001BF047FC04B02046BDE8F081F8B51546FC
:102E50000C4606000DD005F07DFE0090032C02D23A
:102E600000EB84000564684605F0BEFE30461BF0AA
:102E700030FCF8BDFEE700002DE9F05F884D2978B1
:102E8000884CDFF824B240F66F06A0696FF07047F7
:102E90006FF07F4840F6710940F6790A21297CD00D
:102EA0002ADC4FF4076A19294CD040F677061A2914
:102EB00064D040F6780A1B297FD01C291AD15146CC
:102EC0001BF01EFA06463946304616F04FFE4146C4
:102ED000304616F09DFE4946A0691BF011FA0446E3
:102EE0005946204616F042FE0021204616F090FE7C
:102EF00021202870BDE8F09F40F67209222978D081
:102F000040F6431A242975D05B29F3D151461BF0B2
:102F1000F7F981463946484616F028FE41464846AC
:102F200016F076FE3146A0691BF0EAF904465946D0
:102F3000204616F01BFE0021204616F069FE1920DF
:102F40002870D7E731461BF0DBF906463946304694
:102F500016F00CFE4146304616F05AFE5146A06966
:102F60001BF0CEF904465946204616F0FFFD00211D
:102F7000204616F04DFE1A202870BBE751461BF084
:102F8000BFF981463946484616F0F0FD41464846AD
:102F900016F03EFE3146A06901E02CE00DE01BF08A
:102FA000AFF904465946204616F0E0FD00212046C0
:102FB00016F02EFE1B2028709CE731461BF0A0F96E
:102FC00006463946304616F0D1FD4146304616F0E9
:102FD0001FFE5146A0691BF093F90446594620464E
:102FE00016F0C4FD0021204616F012FE1C202870A9
:102FF00080E71CE037E049461BF082F90646394677
:10300000304616F0B3FD4146304616F001FE5146FB
:10301000A0691BF075F904465946204616F0A6FD36
:103020000021204616F0F4FD2220287062E7514668
:103030001BF066F906463946304616F097FD4146C4
:10304000304616F0E5FD4946A0691BF059F90446E3
:103050005946204616F08AFD0021204616F0D8FD7C
:103060002420287046E749461BF04AF906463946AF
:10307000304616F07BFD4146304616F0C9FD5146FC
:10308000A0691BF03DF904465946204616F06EFD36
:103090000021204616F0BCFD5B2028702AE70000C6
:1030A000CB010020E4010020FFFFBF0008480078AA
:1030B0005B2808D10748C17A012905D0C17A0029C7
:1030C00001D10121C17270470021C1727047000017
:1030D000CB010020E4010020084800785B2808D1DB
:1030E0000748C17A012905D0C17A002901D10121FF
:1030F000C17270470021C17270470000CB010020EF
:10310000E40100202DE9F05F874D2978874C40F6D7
:103110007806DFF81CB2F71FA0696FF070486FF0F7
:103120007F4940F6431A21297ED02ADC40F66F07FA
:1031300019294BD04FF4076A1A2963D040F6770754
:103140001B297ED01C291AD131461BF0D9F806461E
:103150004146304616F00AFD4946304616F058FD05
:103160003946A0691BF0CCF804465946204616F0B3
:10317000FDFC0021204616F04BFD1B202870BDE809
:10318000F09F40F67906222977D0F71F242975D0C1
:103190005B29F4D151461BF0B3F806464146304650
:1031A00016F0E4FC4946304616F032FD3946A06977
:1031B0001BF0A6F804465946204616F0D7FC00211D
:1031C000204616F025FD24202870D8E739461BF04C
:1031D00097F806464146304616F0C8FC4946304648
:1031E00016F016FD5146A0691BF08AF804465946B0
:1031F000204616F0BBFC0021204616F009FD5B209E
:103200002870BCE751461BF07BF806464146304625
:1032100016F0ACFC4946304616F0FAFC3946A06977
:103220001BF06EF8044601E029E00AE0594620460A
:1032300016F09CFC0021204616F0EAFC19202870AC
:103240009DE739461BF05CF806464146304616F0CD
:103250008DFC4946304616F0DBFC5146A0691BF058
:103260004FF804465946204616F080FC00212046BF
:1032700016F0CEFC1A20287081E71CE037E03946B2
:103280001BF03EF807464146384616F06FFC4946AB
:10329000384616F0BDFC3146A0691BF031F80446F3
:1032A0005946204616F062FC0021204616F0B0FC7C
:1032B0001C20287063E731461BF022F80646414681
:1032C000304616F053FC4946304616F0A1FC39460C
:1032D000A0691BF015F804465946204616F046FC36
:1032E0000021204616F094FC2120287047E739463B
:1032F0001BF006F807464146384616F037FC4946AB
:10330000384616F085FC3146A0691AF0F9FF0446EC
:103310005946204616F02AFC0021204616F078FC7B
:10332000222028702BE70000CB010020E4010020C0
:10333000FFFFBF002DE9F04F2DED068B83B0FE4857
:10334000416E00EE101AB8EE400A9FEDFCAAC0EEE6
:103350000A9A816E00EE101AB8EE400ADFEDF80A04
:1033600080EE209AC16E006F00EE100AB8EE400A9F
:10337000DFEDF20AC0EE20AAF2480278F24D9FED8E
:10338000F38BF4480024F44E8069DFF8D09340F6C4
:10339000790840F67D0B40F6720A222A7ED010DCB6
:1033A000A2F11902DFF8B88340F6730B4FF06407FF
:1033B000092A74D2DFE802F07AF5F4F3B1F2F1F001
:1033C000EF0040F67A07272A6AD047DC232A68D024
:1033D000242A67D0E34F4FF6FF79252A7ED0262A8C
:1033E0005DD140F67C01DFF86C831AF089FF8246DC
:1033F0006FF07041504616F0B9FB6FF07F415046B8
:1034000016F006FC3078002869D0307898B1009426
:1034100001943278D449121D6846FDF7B3F9684625
:1034200024F09AFD53EC182B51EC100B2DF0E4FE18
:103430002DF04EFEF880F98842F21070814200D9DA
:10344000F88098F80D0000287ED098F80D0001282B
:103450007BD098F80D00022878D0C5E2282A76D0D3
:1034600040F6431840F644175B2A71D05C2A4FD1CE
:103470003946B84F1AF044FF83466FF07041584602
:1034800016F074FB6FF07F41584616F0C1FBF87AD6
:1034900042F20F7A00287CD0F87A04E0CCE237E0E0
:1034A000F8E25AE3F9E3012874D0F7E340F66F013C
:1034B000A84E1AF025FF07466FF07041384616F007
:1034C00055FB6FF07F41384616F0A2FB5946B069B4
:1034D0001AF016FF0646A549304601E0A5E15BE279
:1034E00016F044FB0021304616F092FB02949E49F0
:1034F00006E09DF808000C549DF80800401C02905E
:103500009DF808000628F4D38E491D2008702C7001
:1035100003B0BDEC068BBDE8F08F5946DFF834925E
:103520001AF0EEFE82466FF07041504616F01EFB18
:103530006FF07F41504616F06BFB307890B33078D7
:10354000E0B10094019404E031E23AE243E23EE368
:10355000F6E332788449D21C6846FDF713F96846D1
:1035600024F0FAFC9FED821B51EC100B53EC112B55
:103570002DF042FE2DF0ACFD6F49C8676E48C26F5A
:1035800041F638018A4200D9C167C16F4160416884
:1035900009E0FDE3FDE350E3FCE380E370E0CBE111
:1035A00013E13DE034E0B1FBF7F18268514341455E
:1035B00000D94460406800EE100AF8EE400A80EE40
:1035C0008A0A10EE100A2EF041F841EC100B6AA1A5
:1035D00053EC102B6846FCF77DFE6946504616F00A
:1035E000F2FA40F66F01D9F818001AF089FE074682
:1035F0005E49384616F0BAFA0021384616F008FB44
:103600005049192008702C7034701CF001F87FE7C5
:103610005548FCF773FF642148434749C867ADE745
:103620004FF407614B4D1AF06BFE06466FF0704188
:10363000304616F09BFA6FF07F41304616F0E8FAFC
:103640000294494906E09DF808000C549DF80800D2
:10365000401C02909DF808000628F4D340F674013F
:10366000A8691AF04DFE04464049204616F07EFA3D
:103670000021204616F0CCFA32491E20087047E798
:1036800040F67401DFF8CC901AF03AFE82466FF0F3
:103690007041504616F06AFA6FF07F41504616F0BE
:1036A000B7FA3078F0B33078A8B10094019432784A
:1036B0002D49121D6846FDF765F8684624F04CFC5C
:1036C00053EC182B51EC100B2DF096FD2DF000FD56
:1036D0001949C1F888001848D0F8882042F21071C2
:1036E0008A4201D9C0F88810D0F8881081604168FA
:1036F0008268B1FBF7F15143414500D9846080688D
:103700009FED0F1A00EE100AF8EE400A80EE810AD3
:1037100010EE100A2DF09AFF41EC100B18A153EC9B
:10372000102B00E047E06846FCF7D4FD69465046A0
:1037300016F049FA28E00000E00B00200000C84223
:1037400000007A44CB0100207C0100200000000032
:1037500000408F40E40100207D0100208C87002084
:1037600077D4030080870020C0010020FFFFBF0046
:103770000000000000005940252E326600000000C5
:10378000252E3366000000004FF40761D9F81800B9
:103790001AF0B6FD0746FA49384616F0E7F9002157
:1037A000384616F035FAF7491A2008702C70347034
:1037B0001BF02EFFACE6F448FCF7A0FE4FF47A7144
:1037C0004843F249C1F8880085E740F67701F04D9B
:1037D0001AF096FD06466FF07041304616F0C6F9B5
:1037E0006FF07F41304616F013FA0294E64906E086
:1037F0009DF808000C549DF80800401C02909DF8AC
:1038000008000628F4D340F67B01A8691AF078FD79
:103810000446DB49204616F0A9F90021204616F09F
:10382000F7F9D8492520087072E640F67B01DFF8E9
:1038300060831AF065FD82466FF07041504616F0C5
:1038400095F96FF07F41504616F0E2F9307848B3B1
:103850003078A8B1009401943278CB49D21C6846E4
:10386000FCF790FF684624F077FB1FED3F1B51ECFF
:10387000100B53EC112B2DF0BFFC2DF029FC3880E0
:10388000398841F63800814200D9388098F80C0018
:1038900098B198F80C00012817D098F80C0002286D
:1038A0001BD021E0B848FCF729FE00EBC00101EB7A
:1038B000001009EA80003880E2E7388800EE100A3C
:1038C000B8EE400AC0EE0A9A0EE0788800EE100AC0
:1038D000B8EE400AC0EE0A9A06E0B88800EE100A78
:1038E000B8EE400AC0EE0A9A19EE900A2DF0AEFE2C
:1038F00041EC100B53EC102BAFF284116846FCF72F
:10390000E9FC6946504616F05EF940F67701D8F8B2
:1039100018001AF0F5FC07469949384616F026F9C2
:103920000021384616F074F996491B2008702C7057
:1039300034701BF06DFEEBE540F67801944D1AF003
:10394000DFFC06466FF07041304616F00FF96FF05D
:103950007F41304616F05CF902948B4906E09DF8F1
:1039600008000C549DF80800401C02909DF80800C7
:103970000628F4D340F67C01A8691AF0C1FC04467D
:103980007F49204616F0F2F80021204616F040F953
:103990007C4926200870BBE57B48FCF7AFFD00EBB7
:1039A0004001C1EBC01009EAC000F88043E5F88887
:1039B00000EE100AB8EE400A5FED9F0A80EE209AF2
:1039C00012E0388900EE100AB8EE400A5FEDA40A52
:1039D00080EE209A08E0788900EE100AB8EE400ADE
:1039E0005FEDA90A80EE209A19EE100A2DF02EFE46
:1039F00041EC100B53EC102BAFF27C216846FCF726
:103A000069FC6946504616F0DEF840F67801D8F8B1
:103A100018001AF075FC07465949384616F0A6F802
:103A20000021384616F0F4F856491C2008702C7016
:103A300034701BF0EDFD6BE54146554D1AF060FC0E
:103A400006466FF07041304616F090F86FF07F41F7
:103A5000304616F0DDF802944B4906E09DF8080068
:103A60000C549DF80800401C02909DF808000628A0
:103A7000F4D35946A8691AF043FC0446404920464D
:103A800016F074F80021204616F0C2F83D492720B0
:103A900008703DE559463E4F1AF032FC81466FF002
:103AA0007041484616F062F86FF07F41484616F0C4
:103AB000AFF83078E8B33078A0B100940194327850
:103AC0003149121D6846FCF75DFE684624F044FA51
:103AD00053EC182B51EC100B2DF08EFB2DF0F8FA57
:103AE0002A49C8662948C06E00EE100AF8EE400A5E
:103AF0001FEDED1A80EE810A10EE100A2DF0A6FDE2
:103B000041EC100B53EC102BAFF28C316846FCF7F4
:103B1000E1FB6946484616F056F84146B8691AF086
:103B2000EFFB07461649384616F020F800213846C4
:103B300000E009E016F06CF81249222008702C70A1
:103B400034701BF065FDE3E40F48FCF7D7FC4FF43D
:103B50007A7148430D49C866C4E739460C4D1AF0DE
:103B6000CFFB06466FF07041304615F0FFFF6FF057
:103B70007F41304616F04CF80294034911E00000F2
:103B8000FFFFBF00CB010020C0010020E00B0020A0
:103B9000E40100209DF808000C549DF80800401C2A
:103BA00002909DF808000628F4D340F67E01A8692B
:103BB0001AF0A6FB0446FE49204615F0D7FF002167
:103BC000204616F025F8FB4928200870A0E440F6AE
:103BD0007E01DFF8E4831AF093FB81466FF07041B9
:103BE000484615F0C3FF6FF07F41484616F010F8C5
:103BF0001AEE900A2DF02AFD41EC100B53EC102B1D
:103C0000AFF28C416846FCF765FB6946484615F003
:103C1000DAFF3946D8F818001AF072FB0746E44973
:103C2000384615F0A3FF0021384615F0F1FFE149B1
:103C3000232008702C7034706AE440F67101DE4D68
:103C40001AF05EFB06466FF07041304615F08EFFAD
:103C50006FF07F41304615F0DBFF0294D74906E054
:103C60009DF808000C549DF80800401C02909DF837
:103C700008000628F4D340F67501A8691AF040FB45
:103C80000446CB49204615F071FF0021204615F06F
:103C9000BFFFC8491F2008703AE48BE083E140F67B
:103CA0007501C54F1AF02CFB80466FF070414046FD
:103CB00015F05CFF6FF07F41404615F0A9FF3078AA
:103CC000E8B33078A8B1009401943278BB49121D52
:103CD0006846FCF757FD684624F03EF953EC182B74
:103CE00051EC100B2DF088FA2DF0F2F9B449C1F81F
:103CF0009C00B348D0F89C1047F23052914213D840
:103D0000D0F89C1000EE101AF8EE400A9FEDAD1AA4
:103D1000AD49AE4A80EE810AD1ED000A20EE200ABC
:103D200010EE101A914201DDC0F89C40D0F89C10B2
:103D30000161006900EE100AF8EE400A01E02FE090
:103D4000BCE09FEDA01A80EE810A10EE100A2DF063
:103D50007DFC41EC100B53EC102BAFF2DC516846AC
:103D6000FCF7B8FA6946404615F02DFF40F67101A0
:103D7000B8691AF0C5FA07468D49384615F0F6FEBF
:103D80000021384615F044FF8A492120087002E0DE
:103D9000C2E0E8E03DE02C7034701BF039FC36E402
:103DA0008648FCF7ABFB4FF47A7148438449C1F86D
:103DB0009C009EE75146804D1AF0A2FA06466FF02D
:103DC0007041304615F0D2FE6FF07F41304615F05D
:103DD0001FFF0294794906E09DF808000C549DF8F5
:103DE0000800401C02909DF808000628F4D340F615
:103DF0007601A8691AF084FA04466D49204615F048
:103E0000B5FE0021204615F003FF6A492020087006
:103E100035E440F67601684F1AF072FA80466FF08A
:103E20007041404615F0A2FE6FF07F41404615F00C
:103E3000EFFE3078D8B3307878B1009401943278BE
:103E40005E496846FCF79EFC684624F085F851EC14
:103E5000100B2DF00DF9C9F8A000D9F8A0104FF4FF
:103E6000FA70814201DDC9F8A00059A16846D9F86D
:103E7000A020FCF72FFA6946404615F0A4FE5146F3
:103E8000B8691AF03DFA07464949384615F06EFE02
:103E90000021384615F0BCFE4649242008702C70DD
:103EA00034704C4A2B214C4802F079FD82E4FFE744
:103EB0004248FCF723FBC9F8A000CEE741463E4D3F
:103EC0001AF01EFA06466FF07041304615F04EFEAD
:103ED0006FF07F41304615F09BFE0294374906E0B3
:103EE0009DF808000C549DF80800401C02909DF8B5
:103EF00008000628F4D33946A8691AF001FA0446E6
:103F00002B49204615F032FE0021204615F080FE98
:103F100028495C2008704DE43078F0B1307878B1F1
:103F200000940194327825496846FCF72BFC6846DA
:103F300024F012F851EC100B2DF09AF8C9F8A400F7
:103F4000D9F8A400504501DDC9F8A4A020A1684615
:103F5000D9F8A420FCF7BEF925E01848FCF7CEFA02
:103F6000C9F8A400ECE73078C0B3307878B1009499
:103F70000194327811496846FCF704FC684623F046
:103F8000EBFF51EC100B2DF073F8C9F8A800D9F82D
:103F9000A800504501DDC9F8A8A00DA16846D9F8D0
:103FA000A820FCF797F96946584615F00CFE16E074
:103FB000FFFFBF00CB010020E4010020C001002072
:103FC000E00B002000007A44240000200000484359
:103FD000253564008C87002000000E0817E041465C
:103FE000B8691AF08DF907460C49384615F0BEFD40
:103FF0000021384615F00CFE09495B2008702C7032
:104000003470084A2B21084802F0C9FC0CE4074828
:10401000FCF774FAC9F8A800B9E70000FFFFBF0079
:10402000CB0100208C87002000000E08C00100207A
:1040300070B5174C61792046164D806940F699029B
:10404000012912D0A17B01291DD011461AF058F97F
:1040500006466FF07041304615F088FD294630461F
:1040600015F0D6FD2F20207070BD11461AF048F9CA
:1040700004462946204615F079FD2046BDE87040EB
:10408000002115F0C5BDBDE8704000F08BBA0000FE
:1040900024020020FFFFBF002DE9FF47044600680F
:1040A00010B11BF04FF868B10022314850F82210CF
:1040B00060680A2841D007DCF0B306280DD0072835
:1040C00054D106E00122F0E712280AD019284DD178
:1040D00037E020461CF03EFC48E020461DF0C8FDBD
:1040E00044E0206804F036FD0290B0F9548090F866
:1040F0005650476C466B02A804F076FD206800F02D
:1041000039F8814668461AF0D3F8BDF8001009EB7B
:1041100005000844ADF80000246A304606F03CF97A
:10412000022006F079F9384606F02CF94246694635
:10413000204605F0E3F819E007E020461EF084F879
:1041400014E0886904B0BDE8F08720681AF0BEFC6E
:10415000206804F0FFFC0390B0F90610B0F90220CB
:10416000891A491CC16703A804F03EFD0020E9E755
:10417000ECCD060838B504F0EDFC0090C46F68463D
:1041800004F032FD204638BD044A03491160044959
:10419000CA69C86110467047A40300206C0700205C
:1041A0007007002000B589B024216846FCF7C3FAE7
:1041B0001920019003480068806841686846884774
:1041C00009B000BD6C07002070B5FF22FF23084D29
:1041D00005F5807605E010F8014B54402A5D5A4001
:1041E000335D491E89B2F6D243EA022070BD000059
:1041F0004218050810B50A4A0A4C4FF4006100281D
:1042000007D0012804D1104603F05DFD0120207184
:1042100010BD104603F055FD0020207110BD0000B8
:1042200000000240580100207CB51B4C207801257D
:1042300000281DD01948C16F4160D0F888108160F6
:10424000D0F89C100161164805707021682016F0A6
:10425000A8FD2903134803F034FD08F0F1FDA9027D
:10426000114803F02EFD1148016841F08001016002
:1042700025700F49192008700E48002404701AF0A8
:1042800033F8034600940C4A2C210C48019404F0A6
:1042900059FE0B4988617CBD7E010020E00B0020A7
:1042A00089000020000C0240000802404800002065
:1042B000CB0100208800002025AD0408102405084B
:1042C000E40100201CB50E48002404700D48047061
:1042D0000D4804707021682016F063FD4FF4805182
:1042E0000A4803F0EEFC19F0FFFF03460094084A69
:1042F00009210848019404F025FE074908601CBD07
:104300007E0100208900002088000020000C02406F
:1043100075C80408E0280508000200207CB5134C8D
:104320005020A0710320A070114908700025E5718C
:104330002CF088F80020FFF75DFF0E480570E08A3A
:10434000DFED0D0A00EE100AB8EE400A80EE201AEA
:1043500084ED081A19F0C8FF03460095074A2B217F
:104360000748019504F0EEFD60627CBD7C010020F1
:10437000890000208800002000007A44418F040852
:10438000BC1C05081CB50F49052008700E48002408
:1043900004700E4804707021682016F002FD4FF47E
:1043A00080510B4803F08DFC19F09EFF03460094EA
:1043B000084A27210848019404F0C4FD07494860D1
:1043C0001CBD00007E010020CB01002088000020E1
:1043D000000C024095CD0408DC29050814020020D9
:1043E0001CB508490620087019F07EFF034600201E
:1043F00000900190044A0121044804F0A3FD0449FF
:1044000048601CBD7E010020ADDE0408202E05089A
:104410001C0200207CB5284D28780024002817D0E5
:104420002878022814D04FF40041244803F04BFCB4
:10443000234E0221304603F044FC4FF4FA7000F0A2
:10444000C3FD4FF40051304603F03DFC1D4804709D
:10445000022028701C4908701C49092008701C485B
:10446000D0F898104160D0F8A01081601948DFEDB5
:104470001A0A1A4D90ED050AB8EEC00A80EE201A0D
:1044800085ED021A16480470164903200870702141
:10449000682016F086FC4FF48051134803F011FC9D
:1044A00019F022FF03460094104A16211048019487
:1044B00004F048FD68607CBD7E01002000000240E1
:1044C000000802405801002089000020CB01002094
:1044D000E00B00208C87002000007A44700100204F
:1044E00088000020C8010020000C02402984040834
:1044F000541A05087CB51F4C2078002801D008F01C
:104500009FFC042020701C4908701C49172008706B
:104510001B48DFED1C0A1C4E90ED040AB8EEC00AE1
:1045200080EE201A86ED031A184CD4F8940020610E
:104530000020FFF75FFE1648002505701549022090
:104540000870D4F8A400E0607021682016F029FCFF
:104550004FF48051104803F0B4FB19F0C5FE034638
:1045600000950E4A18210E48019504F0EBFCB0604E
:104570007CBD00007E01002089000020CB010020CE
:104580008C87002000007A44D0010020E00B00203E
:1045900088000020C8010020000C0240EDED040856
:1045A000702105081CB519F09FFE002403460094F5
:1045B000064A07210648019404F0C4FC05494860F6
:1045C00005490C70054A082111701CBD0DE6040850
:1045D000001D06084C020020880000207E010020FB
:1045E0001CB519F081FE002403460094074A1221ED
:1045F0000748019404F0A6FC06498861064A147035
:10460000064B07221A702F220A701CBD2DDF0408EA
:10461000081B060824020020880000207E010020DC
:104620001CB502208DF8050001208DF80400002043
:104630008DF806001C2000906946024803F0ECFA51
:104640001CBD00000010024031B582B02B4D04218A
:10465000284603F036FB0821284603F034FB00BF50
:1046600000BF00BF00BF0421284603F02CFB00BFA1
:104670000821284603F027FB0421284603F021FBEC
:10468000002101914FF6FF7429E09DF804100729DD
:1046900012D9BDF80810080404D51021284603F0EB
:1046A00012FB03E01021284603F00BFBBDF80810B5
:1046B00004EA4100029003E01021284603F001FBC8
:1046C0000821284603F0FDFA00BF00BF00BF082103
:1046D000284603F0F8FA9DF80410491C01919DF852
:1046E00004001828D1D30421284603F0ECFA03B0C3
:1046F0002846BDE83040082103F0E5BA001002402A
:1047000008B538208DF8000003208DF801008DF8E1
:10471000020001208DF8030068460DF0A1FA08BDE3
:1047200070B5594DA97928460024406A05F1440620
:10473000462964D01BDC152935D0162949D04029DB
:104740007ED140F6051119F0DBFD297821B12978D9
:10475000491E29702978745429786A78914200D1C9
:104760006C70BDE870404849443115F02CBA4D29B1
:1047700059D04E2970D04F2962D140F6341119F02A
:10478000BFFD297821B12978491E297029787454F0
:1047900029786A78914200D16C70BDE870403A493E
:1047A000443115F010BA40F66B0119F0A9FD2978D3
:1047B00021B12978491E29702978745429786A789A
:1047C000914200D16C70BDE870402F49443115F022
:1047D000FAB940F66C0119F093FD297821B12978D6
:1047E000491E29702978745429786A78914200D139
:1047F0006C70BDE870402449443115F0E4B940F6CE
:104800000E1119F07DFD297821B12978491E2970F2
:104810002978745429786A78914200D16C701A49C9
:10482000443115F0D0F940F63211686A19F068FD8C
:10483000297821B12978491E29702978745400E01B
:1048400020E029786A78914200D16C70BDE8704010
:104850000D49443115F0B7B940F6331119F050FD48
:10486000297821B12978491E29702978745429782A
:104870006A78914200D16C70BDE8704002494431C1
:1048800015F0A1B970BD00007C0100202DE9F041B8
:104890006F4801786F48704F002480696F4D704EEB
:1048A000252979D01CDC1D2937D01E294AD01F2983
:1048B0005DD020297ED140F6760119F021FD2978BE
:1048C00021B12978491E297029787C5429783278B9
:1048D000914200D13470BDE8F0415F4915F073B9E1
:1048E000262973D0272967D0282966D05C2961D171
:1048F00040F6441119F004FD297821B12978491EA8
:10490000297029787C5429783278914200D134700A
:10491000BDE8F041504915F056B940F6730119F061
:10492000EFFC297821B12978491E297029787C5417
:1049300029783278914200D13470BDE8F04146497F
:1049400015F041B940F6740119F0DAFC297821B16B
:104950002978491E297029787C5429783278914227
:1049600000D13470BDE8F0413B4915F02CB940F658
:10497000750119F0C5FC297821B12978491E2970E3
:1049800029787C5429783278914200D13470BDE87E
:10499000F041314915F017B940F67B0119F0B0FC30
:1049A000297821B12978491E297029787C542978E1
:1049B000327803E049E009E01DE031E0914200D1A6
:1049C0003470BDE8F041244915F0FDB840F67C0193
:1049D00019F096FC297821B12978491E2970297887
:1049E0007C5429783278914200D13470BDE8F0418E
:1049F000194915F0E8B840F67D0119F081FC2978D5
:104A000021B12978491E297029787C542978327877
:104A1000914200D13470BDE8F0410F4915F0D3B890
:104A200040F67E0119F06CFC297821B12978491EE5
:104A3000297029787C5429783278914200D13470D9
:104A4000BDE8F041044915F0BEB8BDE8F0810000B2
:104A5000CB010020E4010020C00100207C010020E7
:104A60007D0100202DE9F041274801782748284F93
:104A700000248068274D284E182918D043292BD0B0
:104A800056293ED140F62D1119F03AFC297821B172
:104A90002978491E297029787C54297832789142E6
:104AA00000D13470BDE8F041194915F08CB840F6DA
:104AB0006E0119F025FC297821B12978491E297049
:104AC00029787C5429783278914200D13470BDE83D
:104AD000F0410F4915F077B840F6111119F010FCAC
:104AE000297821B12978491E297029787C542978A0
:104AF0003278914200D13470BDE8F041044915F09C
:104B000062B8BDE8F0810000CB010020D001002098
:104B1000C00100207C0100207D0100202DE9F04132
:104B20007948017879487A4F00244068794D7A4E67
:104B300010297DD008DCA1F10B01052979D2DFE82D
:104B400001F02035748DA200512944D0522957D04C
:104B500053296FD054296CD140F6381119F0D0FB8D
:104B6000297821B12978491E297029787C5429781F
:104B70003278914200D13470BDE8F041644915F0BB
:104B800022B84FF4066119F0BBFB297821B12978CE
:104B9000491E297029787C5429783278914200D1B5
:104BA0003470BDE8F0415A4915F00DB840F6610186
:104BB00019F0A6FB297821B12978491E2970297896
:104BC0007C5429783278914200D13470BDE8F041AC
:104BD0004F4914F0F8BF40F6351119F091FB2978D0
:104BE00021B12978491E297029787C542978327896
:104BF000914200D13470BDE8F041454914F0E3BF63
:104C000040F6361119F07CFB297821B12978491E2C
:104C1000297029787C5429783278914200D13470F7
:104C2000BDE8F0413A4914F0CEBF40F6620102E01F
:104C30003EE067E051E019F063FB297821B1297863
:104C4000491E297029787C5429783278914200D104
:104C50003470BDE8F0412E4914F0B5BF40F6630151
:104C600019F04EFB297821B12978491E297029783D
:104C70007C5429783278914200D13470BDE8F041FB
:104C8000234914F0A0BF40F6640119F039FB2978DC
:104C900021B12978491E297029787C5429783278E5
:104CA000914200D13470BDE8F041194914F08BBF36
:104CB00040F6650119F024FB297821B12978491EB5
:104CC000297029787C5429783278914200D1347047
:104CD000BDE8F0410E4914F076BF40F6371119F0E7
:104CE0000FFB297821B12978491E297029787C5435
:104CF00029783278914200D13470BDE8F0410449FE
:104D000014F061BFBDE8F081CB0100201402002047
:104D1000C00100207C0100207D0100202DE9F04130
:104D200028480078284A294F0024294D294E112867
:104D300019D012282DD0582841D140F62E11506894
:104D400019F0DEFA297821B12978491E29702978CD
:104D50007C5429783278914200D13470BDE8F0411A
:104D60001A4914F030BF40F66601506819F0C8FACD
:104D7000297821B12978491E297029787C5429780D
:104D80003278914200D13470BDE8F0410F4914F0FF
:104D90001ABF40F66701506819F0B2FA297821B1BC
:104DA0002978491E297029787C54297832789142D3
:104DB00000D13470BDE8F041044914F004BFBDE8EF
:104DC000F0810000CB01002070010020C001002014
:104DD0007C0100207D010020014800687047000030
:104DE000F003002010B50549054800F00DF805480E
:104DF000016841F00201016010BD00002080001038
:104E0000106402403C000020074A904201D207484B
:104E100001E005481038064A8B0001EA020101D57D
:104E2000C1607047816070471064024000600240BA
:104E30007D0F7D0F002904D0016841F00101016060
:104E40007047016821F00101016070470B0609D528
:104E500022B1436943F08003436103E0436923F0D7
:104E600080034361802905D001F01E011AB1026858
:104E70000A430260704702688A430260704700007C
:104E800030B50368124A1340CC680A682243D1E95E
:104E900005452C432243CC6922430C6A22434C6AC9
:104EA00022438C6A22434C6B22438C6B22431A436D
:104EB0000260426922F00703D1E90B2422431A431E
:104EC00042610A6942604A6882608968C16030BD97
:104ED0003F801CF0F8B50546006803F03BFE0090EB
:104EE000448ED0F88860684603F07EFE06B1012645
:104EF00004F0010428681AF025F90EB1002006E03C
:104F00000CB1012003E008B1022000E003201B499E
:104F100051F82010686858B302280CD0052802D038
:104F2000122828D103E028461BF040FD23E0284644
:104F30001DF01FFE1FE06A69E8694FF0FF33801A19
:104F4000A0F1080203EB6204421CAB69001B451090
:104F5000A3EB6206C86905F015FA06E03219311BA9
:104F6000284604F099FB641E6D1C002CF6DA02E062
:104F7000286819F0ABFD0020F8BD00004CCE0608F3
:104F8000044A0349116004490A6B086310467047DC
:104F9000F4030020AC070020B007002038B50D4610
:104FA000002403F0D7FD0090C06B294603F0B4FE47
:104FB0000546684603F018FE1DB1284603F0CAFDF9
:104FC0000446204638BD704711B54FF47A7402E0AC
:104FD000204600F006F8BDF800104A1E0092F7D2F5
:104FE00018BD01B582B000200190042110E00091AD
:104FF00000BF00BF00BF00BF00BFBDF80000401EE3
:105000000004000C0090F3D1BDF80400401C019096
:10501000BDF80400BDF808209042E8D30EBD0000A2
:1050200010B52DED028B20490A78204CB2EE048A8F
:10503000022AE0681ED00978032918D11C4991ED95
:10504000000A20EE080ABDEEC00A10EE101A09B2DE
:1050500002F010FF174890ED000A20EE080ABDEE9E
:10506000C00A10EE100A01B2206902F003FFBDEC85
:10507000028B10BD104991ED000A20EE080ABDEE2A
:10508000C00A10EE101A09B202F0F4FE0B4890EDBF
:10509000000A20EE080ABDEEC00A10EE100A01B2A6
:1050A000206902F0E7FEE2E7C801002000020020CC
:1050B0002800002030000020240000202C000020C8
:1050C0001CB51048C07901281AD1FF2005F05AF903
:1050D000022005F08FF9B4200021CDE90010032350
:1050E00006220C214FF4C37004F0B2F902B00C2375
:1050F000BDE8104040F27F120421034804F02EBBAB
:105100001CBD000088000020421A050831B52AF0B5
:105110009BFEA0202AF060FE2AF0C6FE70B99DF822
:1051200000002AF059FE2AF0BFFE38B92AF08CFEA2
:10513000A1202AF051FE2AF0B7FE18B12AF0A0FEF5
:10514000002038BD2AF01CFE034C20702AF000FE1F
:105150002AF096FE207838BD8000002070B501202E
:10516000FFF7D4FFFE4C20600120FFF7CFFF206047
:105170002068000220600220FFF7C8FF2168084471
:1051800020602068000220600320FFF7BFFF216835
:10519000084420602068000220600420FFF7B6FF6A
:1051A0002168084420600520FFF7B0FFED4D28601E
:1051B0002868000228600620FFF7A8FF2968084435
:1051C00028602868000228600720FFF79FFF2968F1
:1051D000084428602868000228600820FFF796FF2E
:1051E000296808442860C020FFF790FF6063606B67
:1051F00000026063C120FFF789FF616B08446063B0
:10520000606B00026063C220FFF780FF616B08449F
:105210006063606B00026063C320FFF777FF616B20
:1052200008446063C420FFF771FF6863686B000285
:105230006863C520FFF76AFF696B08446863686BA1
:1052400000026863C620FFF761FF696B084468636A
:10525000686B00026863C720FFF758FF696B08445A
:105260006863C820FFF752FFA063A06B0002A06331
:10527000C920FFF74BFFA16B0844A063A06B00029D
:10528000A063CA20FFF742FFA16B0844A063A06B94
:105290000002A063CB20FFF739FFA16B0844A06395
:1052A000CC20FFF733FFA863A86B0002A863CD20D2
:1052B000FFF72CFFA96B0844A863A86B0002A86342
:1052C000CE20FFF723FFA96B0844A863A86B000258
:1052D000A863CF20FFF71AFFA96B0844A863092031
:1052E000FFF714FF60606068000260600A20FFF74B
:1052F0000DFF6168084460606068000260600B2018
:10530000FFF704FF61680844606060680002606045
:105310000C20FFF7FBFE6168084460600D20FFF77A
:10532000F5FE68606868000268600E20FFF7EEFE18
:105330006968084468606868000268600F20FFF7C9
:10534000E5FE6968084468606868000268601020CB
:10535000FFF7DCFE6968084468601120FFF7D6FE9D
:10536000A060A0680002A0601220FFF7CFFEA16835
:105370000844A060A0680002A0601320FFF7C6FEEA
:10538000A1680844A060A0680002A0601420FFF794
:10539000BDFEA1680844A0601520FFF7B7FEA86015
:1053A000A8680002A8601620FFF7B0FEA9680844AC
:1053B000A860A8680002A8601720FFF7A7FEA968E8
:1053C0000844A860A8680002A8601820FFF79EFEA5
:1053D000A9680844A8601920FFF798FEE060E0681B
:1053E0000002E0601A20FFF791FEE1680844E060E7
:1053F000E0680002E0601B20FFF788FEE1680844D7
:10540000E060E0680002E0601C20FFF77FFEE168DA
:105410000844E0601D20FFF779FEE860E8680002BC
:10542000E8601E20FFF772FEE9680844E860E8685B
:105430000002E8601F20FFF769FEE9680844E860A1
:10544000E8680002E8602020FFF760FEE968084491
:10545000E8602120FFF75AFE2061206900022061E8
:105460002220FFF753FE21690844206120690002D1
:1054700020612320FFF74AFE21690844206120694A
:10548000000220612420FFF741FE216908442061C9
:105490002520FFF73BFE28612869000228612620AD
:1054A000FFF734FE29690844286128690002286151
:1054B0002720FFF72BFE296908442861286900028C
:1054C00028612820FFF722FE296908442861292045
:1054D000FFF71CFE60616069000260612A20FFF72F
:1054E00015FE6169084460616069000260612B20FB
:1054F000FFF70CFE61690844606160690002606149
:105500002C20FFF703FE6169084460612D20FFF73E
:10551000FDFD68616869000268612E20FFF7F6FDF5
:105520006969084468616869000268612F20FFF7B3
:10553000EDFD6969084468616869000268613020AE
:10554000FFF7E4FD696908446861AB20FFF7DEFD01
:10555000E062E06A0002E062AC20FFF7D7FD03E002
:10556000380B00208C0B0020E16A0844E062E06AFE
:105570000002E062AD20FFF7C9FDE16A0844E06285
:10558000E06A0002E062AE20FFF7C0FDE16A084475
:10559000E062AF20FFF7BAFDE862E86A0002E86265
:1055A000B020FFF7B3FDE96A0844E862E86A000248
:1055B000E862B120FFF7AAFDE96A0844E862E86AF8
:1055C0000002E862B220FFF7A1FDE96A0844E86240
:1055D000B720FFF79BFD2063206B00022063B820FB
:1055E000FFF794FD216B08442063206B00022063C9
:1055F000B920FFF78BFD216B08442063206B00026C
:105600002063BA20FFF782FD216B08442063BB2092
:10561000FFF77CFD2863286B00022863BC20FFF79E
:1056200075FD296B08442863286B00022863BD20A0
:10563000FFF76CFD296B08442863286B0002286380
:10564000BE20FFF763FD296B084428633120FFF774
:105650005DFDA061A0690002A0613220FFF756FD48
:10566000A1690844A061A0690002A0613320FFF78E
:105670004DFDA1690844A061A0690002A061342029
:10568000FFF744FDA1690844A0613520FFF73EFD06
:10569000A861A8690002A8613620FFF737FDA96953
:1056A0000844A861A8690002A8613720FFF72EFD11
:1056B000A9690844A861A8690002A8613820FFF719
:1056C00025FDA9690844A8613920FFF71FFDE061A5
:1056D000E0690002E0613A20FFF718FDE169084443
:1056E000E061E0690002E0613B20FFF70FFDE16946
:1056F0000844E061E0690002E0613C20FFF706FD3C
:10570000E1690844E0613D20FFF700FDE861E869D8
:105710000002E8613E20FFF7F9FCE9690844E8610E
:10572000E8690002E8613F20FFF7F0FCE9690844FE
:10573000E861E8690002E8614020FFF7E7FCE969F9
:105740000844E8614120FFF7E1FC2062206A000282
:1057500020624220FFF7DAFC216A08442062206AB6
:10576000000220624320FFF7D1FC216A0844206236
:10577000206A000220624420FFF7C8FC216A084426
:1057800020624520FFF7C2FC2862286A00022862D6
:105790004620FFF7BBFC296A08442862286A0002F9
:1057A00028624720FFF7B2FC296A08442862286A69
:1057B000000228624820FFF7A9FC296A08442862F1
:1057C000D020FFF7A3FCE063E06B0002E063D12090
:1057D000FFF79CFCE16B0844E063E06B0002E063D0
:1057E000D220FFF793FCE16B0844E063E06B00021A
:1057F000E063D320FFF78AFCE16B0844E063D42028
:10580000FFF784FCE863E86B0002E863D520FFF74C
:105810007DFCE96B0844E863E86B0002E863D6208E
:10582000FFF774FCE96B0844E863E86B0002E86387
:10583000D720FFF76BFCE96B0844E863D820FFF73B
:1058400065FC2064206C00022064D920FFF75EFC18
:10585000216C08442064206C00022064DA20FFF7E9
:1058600055FC216C08442064206C00022064DB207D
:10587000FFF74CFC216C08442064DC20FFF746FC59
:105880002864286C00022864DD20FFF73FFC296CA7
:1058900008442864286C00022864DE20FFF736FCE8
:1058A000296C08442864286C00022864DF20FFF774
:1058B0002DFC296C084428644920FFF727FC60620E
:1058C000606A000260624A20FFF720FC616A0844B7
:1058D0006062606A000260624B20FFF717FC616A39
:1058E00008446062606A000260624C20FFF70EFCB0
:1058F000616A084460624D20FFF708FC6862686ACC
:10590000000268624E20FFF701FC696A0844686281
:10591000686A000268624F20FFF7F8FB696A084472
:105920006862686A000268625020FFF7EFFB696AEC
:1059300008446862E020FFF7E9FBE064E06C0002E5
:10594000E064E120FFF7E2FBE16C0844E064E06C16
:105950000002E064E220FFF7D9FBE16C0844E06458
:10596000E06C0002E064E320FFF7D0FBE16C084448
:10597000E064E420FFF7CAFBE864E86C0002E86436
:10598000E520FFF7C3FBE96C0844E864E86C00021B
:10599000E864E620FFF7BAFBE96C0844E864E86CC9
:1059A0000002E864E720FFF7B1FBE96C0844E86413
:1059B000E820FFF7ABFB2065206D00022065E920A1
:1059C000FFF7A4FB216D08442065206D00022065CF
:1059D000EA20FFF79BFB216D08442065206D000243
:1059E0002065EB20FFF792FB216D08442065EC2039
:1059F000FFF78CFB2865286D00022865ED20FFF776
:105A000085FB296D08442865286D00022865EE2075
:105A1000FFF77CFB296D08442865286D0002286586
:105A2000EF20FFF773FB296D084428655120FFF72D
:105A30006DFBA062A06A0002A0625220FFF766FB25
:105A4000A16A0844A062A06A0002A0625320FFF786
:105A50005DFBA16A0844A062A06A0002A062542013
:105A6000FFF754FBA16A0844A0625520FFF74EFBE4
:105A7000A862A86A0002A8625620FFF747FBA96A3D
:105A80000844A862A86A0002A8625720FFF73EFBFC
:105A9000A96A0844A862A86A0002A8625820FFF711
:105AA00035FBA96A0844A8625920FFF72FFBFE4C7A
:105AB00020705A20FFF72AFB60705B20FFF726FB5F
:105AC000A0705C20FFF722FBE0705D20FFF71EFB5B
:105AD00020715E20FFF71AFB60716020FFF716FB54
