:020000040802F0
:10000000C890002095020208371F03082DC002087F
:10001000351F0308212F02085DD9030800000000E6
:100020000000000000000000000000002F8903080D
:100030006F54020800000000495B0308B99B0308E5
:10004000AF020208AF020208AF020208AF020208C4
:10005000AF020208AF020208AF020208AF020208B4
:10006000AF020208AF020208AF020208AF020208A4
:10007000AF020208AF020208AF020208AF02020894
:10008000AF020208AF020208AF020208AF02020884
:10009000AF020208AF020208AF020208AF02020874
:1000A000AF020208AF020208AF020208AF02020864
:1000B000AF020208C9A00308B9A40308AF020208EE
:1000C000AF020208AF020208AF020208AF02020844
:1000D000AF020208E5D40308AF02020801D6030804
:1000E000AF020208AF020208AF020208AF02020824
:1000F000AF020208AF020208AF020208AF02020814
:10010000AF020208AF02020809AC0308AF020208FE
:10011000AF020208AF020208E9AC0308AF0202080E
:100120008D520208AF020208AF020208AF020208B5
:10013000AF020208AF020208AF020208AF020208D3
:10014000AF020208AF020208AF020208AF020208C3
:10015000AF020208AF020208AF020208AF020208B3
:10016000AF020208AF020208AF020208AF020208A3
:10017000AF020208AF020208AF020208AF02020893
:10018000AF020208AF02020800F002F800F072F8B5
:100190000AA090E8000C82448344AAF10107DA45E2
:1001A00001D100F067F8AFF2090EBAE80F0013F0C2
:1001B000010F18BFFB1A43F001031847000D05009B
:1001C000200D05000A444FF0000C10F8013B13F01D
:1001D000070408BF10F8014B1D1108BF10F8015BA0
:1001E000641E05D010F8016B641E01F8016BF9D193
:1001F00013F0080F1EBF10F8014BAD1C0C1B09D1EA
:100200006D1E58BF01F801CBFAD505E014F8016B5B
:1002100001F8016B6D1EF9D59142D6D370470000ED
:100220000023002400250026103A28BF78C1FBD8FF
:10023000520728BF30C148BF0B607047662931F0B4
:10024000C781642900F08280002070471FB531F01B
:10025000B2F900F093FE04000020002130F0B4FB5E
:10026000401C60600020002130F098FBE0601FBD62
:1002700010B510BD00F0F6FF1146FFF7E7FF2FF0B5
:100280002FFE01F09FFA03B4FFF7F2FF03BC01F069
:10029000CDFC00000948804709480047FEE7FEE71B
:1002A000FEE7FEE7FEE7FEE7FEE7FEE7FEE7FEE726
:1002B00004480549054A064B70470000819C030825
:1002C00089010208C88A0020C8900020C88C00203C
:1002D000C88C00200FB41CB5074B06AA7B446946A6
:1002E0000090059800F03BFD0020694600F04AFDB3
:1002F0001CBC5DF814FB0000A50A000070B50446A4
:1003000085690068C10601D5302600E02026C007B7
:1003100007D070BDD4E9012130469047206A401CC7
:1003200020626D1EF6D570BD70B5044685690078F3
:10033000C00707D170BDD4E9012120209047206A71
:10034000401C20626D1EF6D570BD00002DE9F04105
:100350000646002410687529314616A510D0AFF363
:100360000080002802DA404213A507E031688A07BE
:1003700001D512A502E0490704D511A5012401E029
:10038000AFF3008000210A2206F1240709E0B0FB48
:10039000F2FCB0FBF2F302FB1C003030785418463C
:1003A000491C0028F3D123462A463046BDE8F041D7
:1003B00000F067BA000000002D0000002B000000D4
:1003C000200000002DE9F05F894604464FF0000A46
:1003D000DFF824B1FB44C0F820A02046E16888473C
:1003E00000287DD0252806D0D4E901219047206A35
:1003F000401C2062F1E700255F462046E1688847FF
:100400002028064607DB312E05D2B81910F8200C3B
:1004100008B10543F1E7A80701D525F00405C4F8A4
:100420001CA00027C4F818A02A2E09D030462FF0AF
:10043000F9FA38B304EB8708303EC8F8186019E0C1
:1004400059F8041B204604EB87029161E168884754
:10045000012F064618D1E069002820DA25F0200592
:100460001DE0D8F8180000EB800006EB40003038A3
:10047000C8F818002046E168884706462FF0D2FAEF
:100480000028EED1012F0AD02E2E08D12046E16897
:1004900088477F1C0646022F45F02005C4DBA06973
:1004A000002803DA404245F00105A061E80701D0C9
:1004B00025F01005A6B1A6F14100192802D8203672
:1004C00045F400654A463146204625604D46FFF713
:1004D000B5FE60B1012807D0ED1D25F0070000E052
:1004E00007E000F1080978E705F1040975E73046EF
:1004F0007AE7206ABDE8F09F000A050070B506465D
:1005000000F0B0F90468054630460A22002100F0E8
:1005100091FC2C6070BD40EA0103024630B59B0798
:1005200010D14FF0013400E008C208C91D1B9D43E3
:1005300015EAC41FF8D013F0FF0102F8011B0DD01B
:100540001B0AF8E711F8013B002B02F8013B05D02C
:1005500011F8013B002B02F8013BF3D130BD10B57F
:10056000431C02E010F8011B71B18107FAD14FF072
:10057000013202C88C1A8C4314EAC211F9D0C01A95
:100580000A0603D0C01E10BDC01A10BD0A0401D057
:10059000801E10BD0902FCD0401E10BD421E12F884
:1005A000013F002BFBD111F8013B002B02F8013B6E
:1005B000F9D17047032A40F2308010F0030C00F0AC
:1005C000158011F8013BBCF1020F624498BF11F88D
:1005D00001CB00F8013B38BF11F8013BA2F1040246
:1005E00098BF00F801CB38BF00F8013B11F00303BE
:1005F00000F06780083AC0F0088051F8043B083AE0
:1006000051F804CBA0E80810F5E7121D5CBF51F8C3
:10061000043B40F8043BAFF30080D20724BF11F83D
:10062000013B11F801CB48BF11F8012B24BF00F8A2
:10063000013B00F801CB48BF00F8012B7047431A7B
:1006400028BF9A427FF6B6AF032A1044114440F205
:10065000268010F0030F1EBF11F8013D521E00F856
:10066000013D10F0030F7FF4F6AF11F0030300F02B
:100670002C84083AC0F00B8051F8043D083A51F838
:1006800004CD40F8043D40F804CDFFF7F3BF121D40
:100690005CBF51F8043D40F8043DAFF30080D20741
:1006A00024BF11F8013D11F801CD48BF11F8012C0C
:1006B00024BF00F8013D00F801CD48BF00F8012C2F
:1006C000704710B5203AC0F00B80B1E81850203ABE
:1006D000A0E81850B1E81850A0E81850BFF4F5AFE2
:1006E0005FEA027C24BFB1E81850A0E8185044BF6C
:1006F00018C918C0BDE810405FEA827C24BF51F8D9
:10070000043B40F8043B08BF7047D20728BF31F8CC
:10071000023B48BF11F8012B28BF20F8023B48BF1D
:1007200000F8012B704702F0FF0343EA032242EA7C
:10073000024200F0F6BB4FF0000200B513469446AB
:100740009646203922BFA0E80C50A0E80C50B1F129
:100750002001BFF4F7AF090728BFA0E80C5048BF3D
:100760000CC05DF804EB890028BF40F8042B08BFDB
:10077000704748BF20F8022B11F0804F18BF00F8D7
:10078000012B704710B5044610F0030F08BF11F09D
:10079000030F40F015804FF0013E121FC0F20E8093
:1007A00051F8043BA3EB0E0C2CEA030C1CEACE1C04
:1007B00008BF40F8043BF0D0A1F1040102F10402AB
:1007C000521E08DB11F8013B002B00F8013BF7D16A
:1007D000114600F0A4FB204610BD00004FF0013C84
:1007E00050F8042B51F8043B9A4221D1A2EB0C03A0
:1007F000934313EACC1317D150F8042B51F8043B60
:100800009A4215D1A2EB0C03934313EACC130BD1FC
:1008100050F8042B51F8043B9A4209D1A2EB0C0387
:10082000934313EACC13DBD04FF00000704700BFB6
:10083000D01A01BAB1FA81F101F0180122FA01F0DF
:10084000CB40C1F12001DBB2C0B2C01A2CFA01F3D7
:10085000D11A914311EAC311E6D17047704770472E
:100860007047000000487047688A002010B5FFF705
:10087000F9FF006810BD10B50446FFF7F3FF0460F0
:1008800010BD2DE9F0470D4699469246044600F109
:1008900024080168880604D5E06921F01001216070
:1008A00000E00120A84201DD471B00E00027A1690C
:1008B0007A1902EB0900081AA0612078C00602D458
:1008C0002046FFF71BFD002608E0D4E901211AF8B5
:1008D00006009047206A401C761C20624E45F4DBDF
:1008E0002078C0060AD52046FFF708FD06E0D4E9C7
:1008F000012130209047206A401C2062381EA7F159
:100900000107F4DC07E0D4E9012118F8050090475D
:10091000206A401C2062281EA5F10105F3DC204658
:10092000FFF702FD2078000602D50220BDE8F0871F
:100930000120FBE770472DE9FF4F0C461E464FF0A4
:10094000FF378BB0D2E90001DDF860800A908A465B
:10095000C1F30A5505B93D46002108464FF0000095
:10096000BAF1000F00F4400005DA00EB80004FF40C
:10097000400101EA50004FEA9059B9F1010F00DD42
:10098000B9460A9850EA4A000ED044F61050A5F233
:10099000FF3545432F14B8F1000F1ED07542291EB4
:1009A0001EDDC9F100021CE0B8F1010F4FF000009C
:1009B00001D0302103E0F24305E02154401CB04255
:1009C000FBDB30460022002121540B99C1F808803E
:1009D000C1E900200FB0BDE8F08FBD1B6D1CDEE744
:1009E0004A4600DA694206A800F0CAFB06AB93E863
:1009F000070003AB83E8070050460A9901F030F97D
:100A00008DE80700A0F500501F3800900398002DD6
:100A10000ADD42F21F014A460844002303A903905D
:100A2000684601F0DBFB09E0A0F500504A461F389C
:100A3000002303A90390684601F0FAFB8DE8070044
:100A40000004000C03D04FF0FF30410800E01046D6
:100A5000B8F1000F03D00022009215461EE0751E6B
:100A600005D400F08FFA303262556D1EF9D5B346C9
:100A70000122084302D000227F1C04E020783028A5
:100A800001D100227F1E002A099784D01DE0112D7C
:100A900007DA00F077FA303262556D1C50EA010235
:100AA000F5D1084302D00098C8B10EE00021681EBD
:100AB00005E0235C625C63542254401E491C814261
:100AC000F7DBAB46A81B401E0990002004F80B0082
:100AD0000B98099AC0F80880C0E9002B7AE7112624
:100AE0004FF0000857E72DE9F04F88460446D21D25
:100AF00022F0070191B0D1E90001CDE90A0127F008
:100B0000FFFA02460B98C00F01D02D2007E02068A5
:100B1000810701D52B2002E0202101EAC000032A31
:100B2000099001D0072A05DB03464146204600F024
:100B300077FA0BE12078800601D5E06900E0062015
:100B4000B8F1650F814606D0B8F1660F18D0B8F13C
:100B5000670F70D131E00020B9F1110F009001DB77
:100B6000112301E009F101030AAA01A90CA8FFF76A
:100B7000E2FEDDE90C70002609F10105834647E03D
:100B800001204B4600904FF000470AAA01A90CA88B
:100B9000FFF7D1FEDDE90DB00C995D46002610B9D6
:100BA00009F101000D18B9EB050003D4C0F1FF36BF
:100BB00009F10105A5EB09002BE0B9F1010F01DAFC
:100BC0004FF001090020B9F1110F0090484601DDF6
:100BD000112300E003460AAA01A90CA8FFF7ABFE07
:100BE000DDE90C704D4600268346207800070AD4C4
:100BF000AB4500DA5D4601A8012D04DD411911F86D
:100C0000011C302907D04F4502DA17F1040F04DA2E
:100C1000012082460FE06D1EEEE7002F02DCED1B87
:100C20003E4403E0781CA84200DD7D1CB81B00F1A7
:100C3000010A4FF000472078000703D4AA4501DBE2
:100C40004FF0FF3A0021B7F1004F0DF143088DF846
:100C5000431024D002202B23002F01DA7F422D23C2
:100C60000A21021EA0F1010000DC5FB197FBF1FC3C
:100C700097FBF1F201FB1C7C17460CF1300C08F8D5
:100C800001CDEEE7A8F1010003702188090501D527
:100C9000452100E06521A0F1010800F8011C099838
:100CA0000FA9A1EB0807FF1D00B10120411901EBBD
:100CB000EA70A1693844081A401EA0612078C00675
:100CC00002D42046FFF71AFB099828B1D4E9012184
:100CD0009047206A401C20622078C00622D520461A
:100CE000FFF70CFB1EE0002E04DBB34502DD01A87C
:100CF000805D00E03020D4E901219047206A401C4B
:100D00002062761CAAF101005FEA000A0AD100F015
:100D100035F9C0680168405CD4E901219047206A38
:100D2000401C2062281EA5F10105DCDC07E0D4E9A7
:100D3000012118F8010B9047206A401C2062381EE0
:100D4000A7F10107F3DC2046FFF7EEFA032011B00C
:100D500041E6000001694A1C02610878704700B54D
:100D60008FB0CDE901310021059105497944CDE9E4
:100D7000031011466846FFF725FB0FB000BD0000C9
:100D8000E5FFFFFF0A6802F8010B0A6070470000E8
:100D90000FB4002300B589B00CA900910B99CB606A
:100DA000214B7B440693214B7B44079304236FF034
:100DB0000042CDE901321E4A7A446B46089202464F
:100DC000002030F067FC09B05DF814FB70B50646F2
:100DD0004FF0FF3015460C46324686B00091CDE903
:100DE000010169460020049004A8FFF7D1FF0246E4
:100DF0000498211825B108B1084600E02046286073
:100E0000049800280DD0002A02DD0098884208D0FE
:100E10003246081B69460094CDE9010404A8FFF797
:100E2000B7FF06B070BD0000FB0200001303000016
:100E3000530200002DE9F04791460F4680460446D4
:100E4000002614F8015B2DB100F090F80068405DB9
:100E5000C007F6D12B2D02D02D2D18D0641E4A4686
:100E60003946204600F03CF927B13968A14201D14A
:100E7000C7F800804FF0020471050BD540420028EE
:100E800003DDFFF7EFFC0460A007BDE8F08746F440
:100E90008066E4E70028F8DAFFF7E4FC04606FF00E
:100EA0000040F2E7431A28BF9A427FF60AAC10448A
:100EB00010F0030F11441EBF11F8013D521E00F83F
:100EC000013D10F0030F7FF4F6AF103AC0F00A8036
:100ED00010B531E91850103A20E91850BFF4F9AFB5
:100EE000BDE81040530724BF31E9081020E908107D
:100EF00044BF51F8043D40F8043D12F0030F08BF11
:100F00007047D20728BF31F8023D48BF11F8012CC5
:100F100028BF20F8023D48BF00F8012C70474FF071
:100F200000020429C0F0128010F0030C3FF405AC5D
:100F3000CCF1040CBCF1020F18BF00F8012BA8BFC4
:100F400020F8022BA1EB0C01FFF7F7BB5FEAC17C95
:100F500024BF00F8012B00F8012B48BF00F8012B3B
:100F60007047000000487047688A002010B500F004
:100F700005F8001D10BD00BF51FA0200004870477F
:100F8000888A002030B5B0F10A024FEA900E71F164
:100F900000034EEA817EB0EB0E0061EB91014FEA57
:100FA000101E4EEA017E10EB0E0041EB11114FEACC
:100FB000102E4EEA016E10EB0E0041EB11214FEAAC
:100FC000104E4EEA014E10EB0E0041EB114140185D
:100FD00041F100014FEAD00040EA41704FEAD101EF
:100FE00010EB80054FEA810444EA907444EB01045D
:100FF0006D1944EB0404521BA3414FF0000348BF9A
:101000000A3200D530BD401C41F1000130BD10B5A1
:101010000446FFF7ABFF0068005D00F0010010BD63
:101020002DE9F0411F46044603260168072A01F412
:10103000006004DB08B116A505E016A503E008B1C1
:1010400015A500E015A521F010002060A069C01EC4
:10105000A0610FB1401EA0612046FFF74FF94FB1CC
:10106000D4E9012138469047206A401C2062C01C08
:10107000206206E0206AFAE7D4E9012115F8010BA5
:101080009047761EF8D22046FFF74EF9BDE8F08172
:101090004E414E006E616E00494E4600696E66001C
:1010A000426842B1016811F8013B23B1521EC0E908
:1010B0000012184670470121C160881E70474268BF
:1010C0005AB1C368016843B983688B4205D0491E91
:1010D000521CC0E90012002070474FF0FF307047EB
:1010E0002DE9F05F824615468B4600270AF1010480
:1010F000B9460078302801D09DB113E014F8010BF7
:101100000127782803D0582801D045B10AE00DB155
:10111000102D07D1002714F8010B102502E0082537
:1011200000E00A250026B0460EE005FB080005FB9E
:1011300006F101271FFA80F801EB1046B6F5803F53
:1011400000D3B94614F8010B294600F0B0F8002886
:10115000EBDABBF1000F05D00FB1641E00E054467E
:10116000CBF80040B9F1000F06D0FFF77BFB02215E
:101170000160C81EBDE8F09F48EA0640FAE700009B
:101180002DE9F047814616468AB0354878440DC8A7
:101190008DE80D0032487844801C03AC0DC884E80B
:1011A0000D0041F69B300844372190FBF1F290FB93
:1011B000F1F5A5F1800501FB12041B3C02D5644248
:1011C000012000E00020DFF898A080460027FA44C4
:1011D000AAF1BE0A0EE0E0070AD03246684607EBE5
:1011E000470101230AEB810101F022F88DE8070095
:1011F00064107F1C002CEED1194F7F44AE3F19E0E4
:10120000E80715D007EB04100DF1180A90E80E005E
:101210008AE80E00C068F04201D198190890324661
:10122000012306A903A801F003F803AB83E8070034
:101230006D10641C002DE3D14FF001033246694666
:10124000B8F1000F03A802D000F0C8FF01E000F0E1
:10125000EFFFC9E90001C9F808200AB0BDE8F0872E
:10126000D8FC04007546FFF77DFEAE4605006946D2
:10127000534620F00700854618B020B5FFF718F850
:10128000BDE820404FF000064FF000074FF0000887
:101290004FF0000B21F00701AC46ACE8C009ACE808
:1012A000C009ACE8C009ACE8C0098D4670473A28CF
:1012B00000D2303820F02002412A01D3A2F13700B9
:1012C000884201D34FF0FF30704700002DE9FF4FF7
:1012D00006468BB00878FF2806D0491C2D2805D07B
:1012E00000244FF0000908E000200CE00124F8E79A
:1012F00009EB8903491C00EB43090878FF28F7D163
:1013000014B1C9F100008146107800252C46AA4688
:1013100029462D2801D02B2804D1521C2D2813D06A
:10132000002082468B461078FF280FD04FF0000C2B
:101330000A21521CA5FB017804FB018105FB0C115D
:10134000C5194BEB0104EEE70120EAE7002108464E
:101350004FF00000BAF1000F02D000EB800040080F
:10136000C0F38157012F01DD4FF0FF370E9955EA89
:10137000040009EB01080BD04FF0020918F5FA7FC1
:1013800016DA4FEACA70002F706008DD012007E00E
:101390004FEACA70C6E900B00FB0BDE8F08F002078
:1013A0003060FFF75FFAC0F800901821084616E099
:1013B000B8F5FA7F18DD002F02DAF748784401E02B
:1013C000F6487844D0E90010C6E9001040EACA7037
:1013D0007060FFF747FAC0F80090142108460FB07C
:1013E000BDE8F04F30F0F1B8002108464FF00000A2
:1013F000B8F10001099002DAC7F1000200E03A46B4
:1014000001DAC8F1000106A8FFF7BAFE06AB93E8BF
:10141000070003AB83E8070044F23E005BEA0401E7
:101420000090584604D144F21E012C465D460091BE
:10143000210C0904014306D10099240444EA15440F
:101440002D041039009104F07F41014306D1009929
:10145000240244EA15642D020839009104F0704119
:10146000014306D10099240144EA15742D01091F96
:10147000009104F04041014306D10099A40044EAE0
:101480009574AD00891E009104F00041084304D119
:1014900000986D196441401E00904FF001033A46D8
:1014A0006846B8F1000FCDE9014503A902DD00F05F
:1014B000D4FE01E000F0A7FEBAF1000F04460D468D
:1014C00001D084F00044002108464FF00000099943
:1014D00040F2FF77484010F00C0F07D124F0004095
:1014E000284303D0C4F30A50B84212D1FFF7BAF927
:1014F000C0F80090C4F30A50B8420AD1A848784412
:10150000D0E90010C6E9001004F000410843706003
:1015100042E7C6E900543FE72DE9FF4F1F464FF071
:10152000000A4FF0FF38454691B0D7E90146CDF8A3
:101530003CA0FFF723FDC0680168405C1090B969CA
:1015400012986D1C8847396A814688470028F6D171
:10155000B9F1FF3F0AD0002E24F4D06411DDB9F1B7
:101560002B0F08D0B9F12D0F0BD102E0404615B07A
:1015700013E744F48064B96912986D1C8847761E9D
:101580008146600504A901D52D2000E02B20002E06
:1015900001F1010B0DF130088DF810003FDDB9F1BC
:1015A000690F08D0B9F1490F05D0B9F16E0F02D01B
:1015B000B9F14E0F1CD13B4601A8009580E85002BE
:1015C000DDE912126FF0020030F068F8C11CCED1D4
:1015D0000EE0B96912986D1C884781461398761EF3
:1015E00044F4007405600F98401C002E0F9016DD27
:1015F000B9F1300FEDD0B9F1780F02D0B9F1580F31
:101600000DD10F9801280AD13B46CDE90054DDE900
:101610001212001F029630F03FF8C11CA7D110999A
:1016200089453ED144F0800406E01399681CAAF174
:10163000010A44F400740860B9696D1C1298761EA2
:10164000884730288146F0D02BE01099894505D194
:10165000200603D4761E44F0800418E048462EF09D
:10166000E1F908B3761E0DF123018B4544F40074B3
:1016700008D2A9F130000BF8010B200607D5AAF11A
:10168000010003E0200602D40AF101008246A00511
:1016900002D51399681C0860B96912986D1C8847B7
:1016A0008146002ED1DC53E0002E51DDB9F1650FEB
:1016B00002D0B9F1450F4BD1A00549D5B9696D1CD0
:1016C0001298761E24F440748847002E81460CDD63
:1016D0002B2804D0B9F12D0F07D144F48074B969D7
:1016E00012986D1C8847761E8146E00501D52D2194
:1016F00000E02B2108F8011BCDF8008021E0761EC8
:101700000DF13901884544F400740CD2A9F1300080
:1017100010F0FF0088F8000002D10099884509D92F
:1017200008F1010806E0E00501D51E4801E042F29B
:101730000F708246B96912986D1C884781461398CC
:101740000560002E04DD48462EF06CF90028D6D145
:10175000F96912988847FF2053468BF8000088F8F3
:10176000000000200A900B9004AA0CA90AA8FFF719
:10177000ADFDA00502D46FF00100F8E614F0240FCF
:1017800012D0E0071CD13868DDE90A12031D3B6066
:101790000068C0E9001213E024FB040016FB0400FB
:1017A000DAF90400F1D8FFFF0AA9684626F0F8FE2E
:1017B000E00705D13868009A011D396000680260B1
:1017C0002846D4E610B50446AFF300802046BDE8B5
:1017D0001040FEF758BD00002DE9FF4F1F464FF0A7
:1017E0003C0987B04FF00042DDE9141001F1010817
:1017F000DDF858A002EA405003900020059083468F
:10180000054604460490B969461E08988847AAF11F
:10181000010A0290BAF1000F3BDD02982E2815D084
:101820001021FFF744FD00282EDB4FF0010B059936
:10183000014317D0B9F1000F0BDB4A46C11700F086
:10184000FBF905430C43A9F1040905E001200490CC
:101850000BE008B145F0010501200590049820B97E
:10186000361D02E0049800B1361FB969089808F1E6
:1018700001088847BBF1000FAAF1010A0290C9D004
:101880000999C1F80080C5E70298702808D050284F
:1018900006D0F96908988847BBF1000F14D04FE0D3
:1018A000002002900120BBF1000F049009D0B9691B
:1018B000089808F101088847AAF10109B9F1000F59
:1018C00007DCF969089888476FF001000BB0BDE8A4
:1018D000F08F2B2804D02D280CD14FF0FF3004902E
:1018E000B969089808F101088847A9F10109B9F117
:1018F000000FE6DD411CE4D00A21FFF7D8FC0028E8
:10190000DFDB029908F1010801EB810100EB4100E6
:101910000290B969089888470A21FFF7C8FC099A1C
:10192000A9F10109B9F1000FC2F8008001DD00281A
:10193000E7DAF969089888470499029800FB01667C
:1019400055EA040004D004F04041090002D006E04A
:10195000039898E0A40044EA9574AD00B61E04F024
:101960000041080002D16D196441761E159810F0EF
:10197000240F03D04FF00B095C4803E04FF0280917
:101980006FF07D008246564507DAAAEB06018944CE
:10199000B9F1410F01DD4FF0410901200021A9F10A
:1019A000010200F049F9024628400B462140084355
:1019B00001D0012100E00021501E029143F1FF31CE
:1019C00028402140084301D0012000E00020029976
:1019D000834651EA0B014FD0002108464FF000002A
:1019E000039900F4400039B100EB80004FF440014E
:1019F00000EBD07001EA60008015012802DD4FF095
:101A0000FF3000E013D0401C36D0029860B3BBF129
:101A1000000F0CD14A460120002100F00DF92840AA
:101A20002140084301D0012000E00020E0B1012066
:101A30004A46002100F000F9034640190A46614178
:101A40002D1A8C4111D3B9F1400F09DD159810F012
:101A5000240F02D0AAF1340603E0AAF1170600E031
:101A6000761C00254FF0004406E05B1E42F1FF3279
:101A700020EA030521EA0204CAF10100B04206DAB5
:101A80001B49039808430190002000900EE0039A40
:101A9000C4F3D321E80A0A43164940EA44500A43F2
:101AA0003146CDE90002684626F083FD159810F016
:101AB000240F0BD01598C00715D13868DDE9001246
:101AC000031D3B600068C0E900120CE002A86946F3
:101AD00026F066FD1598C00705D13868029A011DE9
:101AE0003960006802604046F0E6000002FCFFFF3B
:101AF0000000F07F0000F03F2DE9FF4F92461D46A9
:101B000085B04FF00041DDE9124BDDE914727F1E14
:101B100001EA4B50414940F0FF4940EA01080021E9
:101B200022F020004928049102D04E2828D04CE011
:101B30003BA0012607C88DE80700A9690698641C28
:101B400088477F1E014606D41DF8060018B121F013
:101B5000200181420BD0E96906988847032E34D0D2
:101B6000082E32D06FF0010009B0BDE8F08F761C6E
:101B7000032E01D0082EE0D1601CCAF80000DCE77B
:101B8000A9690698641C88477F1E2AD420F020008B
:101B9000412826D1A9690698641C88477F1E20D455
:101BA00020F020004E281CD1A9690698641C8847A3
:101BB0007F1E48F4002849F48009CAF8004001D487
:101BC000282806D0E969069888475FEACB7012D0CA
:101BD00022E0A9690698641C88477F1E01D400286A
:101BE00003DAE96906988847BCE72928F1D1641C23
:101BF000CAF80040E9E71BF0240F07D028680499D1
:101C0000031D2B600068C0E9001805E02868021D6C
:101C10002A600068C0F800902046A5E70000F07F29
:101C2000494E46494E4954590000000001491820C8
:101C3000ABBEFEE726000200B2F120030AD5C2F1D6
:101C4000200301FA02F120FA03F300FA02F041EA5C
:101C50000301704700FA03F14FF00000704770472E
:101C60005FEA400C08BF91F0000F4FEA8C234FEA67
:101C7000C12243EA51514FEA1C5018BF00F5F04011
:101C80004FEA300018BF41F000415FEA6C5C00F0A1
:101C90002980BCF1FF3F08BF40F080407047130C23
:101CA00006BF12044FF0100C4FF0000C130E04BFCF
:101CB00012020CF1080C130F04BF12010CF1040CFA
:101CC000930F04BF92000CF1020CD30F04BF52001B
:101CD0000CF1010C11464FF00002A0F11F00A0EB27
:101CE0000C00704711F0004F08BF704731F0004101
:101CF0003FF4D5AF0B0C06BF09044FF0100C4FF0AA
:101D0000000C0B0E04BF09020CF1080C0B0F04BFF2
:101D100009010CF1040C8B0F04BF89000CF1020CBB
:101D2000CB0F04BF49000CF1010CCCF12003A0EB58
:101D30000C0022FA03F302FA0CF241EA030100F16B
:101D40000100704720F07F4C80EA030023F07F47BA
:101D5000ACEB070303F57C5300F0004003F1FF03F5
:101D60002DE980494FEA154B09B44FEA144325EA9F
:101D70000B4E24EA03480FF2042606EB132749080A
:101D80003E785FEA320203FB0667C7F5000707FBF0
:101D900006F64FEA54374FEAD64606F1020607FB2D
:101DA000066CCCF1005C4FEA1C472CEA074C07FBA1
:101DB00006F40CFB06F504EB15464FEA961634BF05
:101DC00000204FF000404FEAD13706FB07FC4FEAF6
:101DD0001C4C0CFB0BF7D21B03FB0CF761EB070150
:101DE0000CFB0EF7B0EB074072EB17420CFB08F749
:101DF00034BFA2EB0742B2EB074261EB17414FEA57
:101E00000C444FEA910706FB07FC4FEA1C4C0CFB05
:101E10000BF7B0EBC74072EB573203FB0CF734BF44
:101E2000A2EBC742B2EBC74261EB57310CFB0EF796
:101E3000B0EBC70072EB57720CFB08F734BFA2EB94
:101E4000C702B2EBC70261EB5771039F4FEA816192
:101E500041EA921104EBCC044FEAD1374FEA826297
:101E600006FB07FC42EA90124FEA80604FEA1C4CE6
:101E70000CFB0BF7D21B03FB0CF761EB07010CFB10
:101E80000EF7B0EB074072EB17420CFB08F734BFBC
:101E9000A2EB0742B2EB074261EB17414FEA8C55C8
:101EA0004FEA910704EB9C2406FB07FC4FEA1C4C0D
:101EB0000CFB0BF7B0EBC74072EB573203FB0CF790
:101EC00034BFA2EBC742B2EBC74261EB57310CFB08
:101ED0000EF7B0EBC70072EB57720CFB08F734BF7C
:101EE000A2EBC702B2EBC70261EB577115EB4C25B1
:101EF0004FEA816141EA92114FEA82624FEAD1379B
:101F000042EA901206FB07FC44F100044FEA8060AD
:101F10004FEA1C4C0CFB0BF7D21B03FB0CF761EBDD
:101F200007010CFB0EF7B0EB074072EB17420CFBFE
:101F300008F734BFA2EB0742B2EB074261EB17414F
:101F400015EB1C154FEA813141EA92414FEA82328A
:101F500042EA90424FEA80304FEA0C7644F10004A6
:101F600048EA03434EEA0B484FF0000EB2EB080C70
:101F700071EB030724BF624639464EEB0E0E4FF05D
:101F8000000B0018524149414BEB0B0BB2EB080C14
:101F900071EB03077BF1000B24BF624639464EEB21
:101FA0000E0E4FF0000B0018524149414BEB0B0B4A
:101FB000B2EB080C71EB03077BF1000B24BF624608
:101FC00039464EEB0E0E51EA020718BF46F00106E5
:101FD00016EB0E7655F1000254F1000103D5BDE871
:101FE0008901BDE80088BDE88901BDE80048B6194F
:101FF000524141EB0101A3F10103704780807F7ED4
:102000007D7C7B7A7978777676757473727171706E
:102010006F6E6E6D6C6C6B6A6A6968686766666520
:102020006464636362616160605F5F5E5E5D5D5CAE
:102030005C5B5B5A5A59595858575756565555551F
:102040005454535352525251515050504F4F4F4E7F
:102050004E4D4D4D4C4C4C4B4B4B4A4A4A494949CD
:10206000484848474747474646464545454444440F
:1020700044434343434242424241414146EA0646C9
:10208000A3F570534FEA164646EA42564FEAD2226B
:1020900042EA415210B54FEAD121A3F1010300F009
:1020A0002FF820F0004000F1020C00F0004701EB97
:1020B00000501146BCF5006F40EA070000D210BD89
:1020C000BAF1000F0AD01CB503B44FF004004FF072
:1020D00004014FF000000FBCBDE810404FF00001BC
:1020E000BBF1010FB9BF04484FF0FF310348002195
:1020F00040EA070010BD00BFFFFFEF7F0000F07F48
:10210000002B9C4630D477002BD01CB54FEA370704
:1021100003B44FF010004FF01001BAF1000F06D0D9
:10212000BCF1000FDCBF40F0080040F008014FF0A8
:1021300000000FBCBDE810400BF1010BBBF1010F1B
:1021400008BF5FEA170722BF12F1010211F1010176
:102150004FF0004143F1000300F0004043EA00006B
:102160007047F9D35708D0E746EA064613F1400F07
:102170004FEA16461FDD13F1200FDFBF16430A4654
:10218000002120335B42BED0C3F1200746EA064659
:1021900002FA07F74FEA164646EA0706C3F1200798
:1021A00022FA03F201FA07F721FA03F14FF00003D4
:1021B00042EA0702A7E746EA020646EA06464FEA6F
:1021C000164646EA0106BCBF46EA0646360C4FF004
:1021D00000034FF000024FF0000194E72DE9804C1E
:1021E0009A46934670B491E8380007C831EA400C2B
:1021F00048BF34EA430C03D5FFF7A4FDFFF780FF87
:10220000F0BCBDE8008C2DE9804C9A46934670B432
:1022100091E8380007C831EA400C48BF34EA430C63
:1022200003D5FFF78FFDFFF729FFF0BCBDE8008C59
:102230002DE9804C9A46934670B491E8380007C85F
:1022400010F0804F08BF13F0804F03D100F01AF850
:10225000FFF756FFF0BCBDE8008C2DE9804C9A4694
:10226000934670B491E8380007C810F0804F08BF5B
:1022700013F0804F03D100F005F8FFF7FFFEF0BC2C
:10228000BDE8008C20F07F4780EA030023F07F4CFC
:1022900007EB0C03A3F57C5300F00040A3F1FE0311
:1022A00092F0000F00F0B38095F0000F00F07780FF
:1022B0002DE901494FEA11404FEA144621EA00484E
:1022C00000FB06FC24EA064708FB06F607FB08F8B5
:1022D00000FB07F718EB06484CEB164C4FEA124B85
:1022E00018EB07484FEA15464CEB174022EA0B4E15
:1022F0000BFB06FC25EA06470EFB06F607FB0EFE67
:102300000BFB07F71EEB064E4CEB164C4FF000068E
:102310001EEB074E4CEB174B18EB0B0840F100007F
:1023200018EB0E0B58EB000840F100008F1A4FF02D
:1023300000013CBFC943661B14BFB5EB040C002170
:102340003CBFC943F61B4FEA17444EEA8E0E27EAFC
:1023500004454FEA1C4704FB07622CEA074C05FBC7
:1023600007F70CFB05F604FB0CFC16EB074642EBEB
:10237000174216EB0C4642EB1C421BEB060658EBD1
:102380000202414146EA9E0601D5BDE80189B6191F
:10239000524141EB0101A3F10103BDE801894FEA7C
:1023A00014454FEA114724EA054621EA074C05FB8C
:1023B00007F406FB07F70CFB06F105FB0CFC11EB21
:1023C000074144EB17444FEA124711EB0C4144EB31
:1023D0001C4422EA074C05FB07F206FB07F70CFB3F
:1023E00006F605FB0CFC16EB074642EB174216EB14
:1023F0000C4642EB1C456A1854F1000148BF704777
:10240000B619524141EB0101A3F10103704795F068
:10241000000F37D04FEA11424FEA144721EA024633
:1024200024EA074C02FB07F106FB07F70CFB06F456
:1024300002FB0CFC14EB074441EB17414FEA154734
:1024400014EB0C4441EB1C4125EA074C02FB07F559
:1024500006FB07F70CFB06F602FB0CFC16EB074627
:1024600045EB174516EB0C4645EB1C42121951F192
:10247000000148BF7047B619524141EB0101A3F179
:10248000010370474FEA14454FEA114724EA054615
:1024900021EA074C05FB07F106FB07F70CFB06F2E8
:1024A0004FF0000605FB0CFC12EB074241EB174115
:1024B00012EB0C4251EB1C4148BF7047921841EBA4
:1024C0000101A3F10103704708B54FF47A70009041
:1024D00003E0BDF80000401E0090BDF80000002899
:1024E000F7D108BD2DE9F04188B00121080313F0B0
:1024F00087FF02278DF81D7001268DF81C600024CF
:102500008DF81E4040200690DFF8A08006A94046C6
:1025100005F0D6FD382506958DF81C708DF81E4007
:1025200003208DF81D008DF81F6006A9404605F0B8
:10253000C7FD05220321404605F000FE05220421C7
:10254000404605F0FBFD05221146404605F0F6FD2C
:102550004021404605F00BFEFFF7B6FF4021404604
:1025600005F003FEADF804404FF48270ADF80600AC
:10257000F002ADF80800ADF80A40ADF80C4080104C
:10258000ADF80E00ADF81050ADF812400720ADF8D0
:102590001400074C01A9204616F0ADF90121204690
:1025A00016F092F908B0BDE8F08100000004024086
:1025B0000030014070B588B0002507956A4C16E0E0
:1025C0009DF81C10012016F053F99DF81C1024F8FA
:1025D0001100A0880290E088049060890390A0898F
:1025E0000190E08900909DF81C00401C07909DF828
:1025F0001C000828E4D3BDF810305C4A1078411C58
:102600001170410058481030435211783C2918D1BC
:102610001570059506950AE09DF8181030F8111010
:10262000059B194405919DF81810491C06919DF8C9
:1026300018103C29F0D305983C21B0FBF1F04C492F
:102640000860BDF80C305078411C5170410046487C
:102650008830435251781E231E2917D15570059595
:1026600006950AE09DF8181030F81110059C2144D9
:1026700005919DF81810491C06919DF818101E2907
:10268000F0D305983B49B0FBF3F00880BDF8044057
:102690001079411C1171410037484452117964246A
:1026A000642917D11571059506950AE09DF8181053
:1026B00030F81110059E314405919DF81810491C01
:1026C00006919DF818106429F0D305982B49B0FBAA
:1026D000F4F00880BDF808609078411C91704100CA
:1026E0002148EC3046529178642900D195700595C7
:1026F00006950AE09DF8181030F81110059E314437
:1027000005919DF81810491C06919DF81810642930
:10271000F0D305981A49B0FBF4F00860BDF800400A
:10272000D078411CD170410013483C384452D178D4
:102730001E2917D1D570059506950AE09DF8181049
:1027400030F81110059A114405919DF81810491C94
:1027500006919DF818101E29F0D305980949B0FB81
:10276000F3F0088008B070BDB80C002045010020CF
:102770006C0000206A000020A80E002070000020DD
:10278000740000207800002011B581B00C4C0221AB
:10279000204616F0A5F80028F9D0BDF80410204610
:1027A00016F0A7F80121204616F09AF80028F9D073
:1027B000204616F09CF80090BDF800001CBD0000FB
:1027C00000300140F0B59BB001210D02284613F006
:1027D00017FE0121880513F0E9FD40200090032633
:1027E0008DF8046000248DF8074069462B4805F0F9
:1027F00067FC02942A4803902A48049005943220EA
:1028000006900794A80008904000099080000A9064
:102810000B9500010C900D9401250E950F941094CA
:10282000214F02A9384602F07FFD0121384602F00F
:1028300055FD01221021384602F05CFD02F0CEF970
:10284000174F01214C3F384600F072F81194129452
:102850001394149411A800F057F815948DF858505B
:102860008DF85950189419948DF8686015A9384658
:1028700000F076F8002301220621384600F096F891
:102880000121384600F034F8384600F0C9F801213B
:10289000384600F059F81BB0F0BD000000000240BF
:1028A0004C200140FC090020106402400CB50020BF
:1028B000009001900C490AE09DF8040031F81000E6
:1028C000009A104400909DF80400401C01909DF86F
:1028D00004003228F0D300984FF4FA71B0FBF1F005
:1028E000024908800CBD0000FC090020680000209F
:1028F000002904D0816841F001018160704781683E
:1029000021F001018160704710B5074C226807492A
:102910000A40D0E900131943D0E9023003431943B8
:102920001143216010BD000004230140E030FCFF92
:10293000002904D0816841F480718160704781680A
:1029400021F4807181607047002904D0816841F4CE
:10295000007181607047816821F400718160704767
:1029600030B542680F4B1A400C790B6842EA0422DA
:102970001343436083680C4A1340D1E90342224366
:102980004D798C6844EA450422431A438260C26A46
:1029900022F47002097D491EC9B242EA0151C162A6
:1029A00030BD0000FFFEFFFCFDF7FFC070B507263D
:1029B00009290AD9C568A1F10A0404EB4404A64018
:1029C000B543A3401D43C56007E0056901EB410421
:1029D000A640B543A3401D4305611F23072A09D222
:1029E000446B521E02EB820293409C4391400C4385
:1029F000446370BD0D2A09D2046BD21F02EB820220
:102A000093409C4391400C43046370BDC46A0D3AEB
:102A100002EB820293409C4391400C43C46270BD20
:102A2000816841F0804181607047002800DC4042AD
:102A300070474178007841EA0020704710B50C4893
:102A40000078400612D40B4C206841070ED50206D0
:102A500009484FF4007103D4BDE8104005F087BB6E
:102A600005F083FB206820F00400206010BD00000A
:102A7000440000203C00002000080240054908688E
:102A800040F00400044B00221A8020F0800008600F
:102A9000704700003C0000208200002038B54568E7
:102AA0000446014628461AF097FF00282AD02068DD
:102AB000304A0F2819D006DC0B2824D00C2810D05F
:102AC0000E2851D12FE0112802D028284CD145E002
:102AD0009268002A16D02146284601B0BDE8304051
:102AE0001047214628465268F7E7284606F086FA3E
:102AF0000090406E0468684606F0CAFA002C01D0C7
:102B00002846A04738BD284606F078FA009068307D
:102B100006F0DCF9009803216C3006F0DFF9684616
:102B200006F0B6FA20E0E168486809680D2902D08D
:102B3000202913D105E0002810DD284622F0F8F8FE
:102B400006E0002804DD2846BDE8384022F0F0B851
:102B50002846BDE83840022122F000B9E06818B9E3
:102B60000021284600F097F92046BDE838401BF0C8
:102B7000A7BB0000CC020020F0B5044685B08069F8
:102B8000B4F90850668A0027CDE90265CDE900173F
:102B90000490B4F90C00B4F91060C118B4F90A003B
:102BA000B4F90E50104433462A4600F007F80546A3
:102BB000616800F079F905B02846F0BDF0B585B040
:102BC0000C46DDE90D514C31DFF850C0DDE90A67F4
:102BD000CDE902C12146CDE900671BF0C1FA04002E
:102BE00018D006F00BFA1022294604901BF018F9B1
:102BF000049830220A493430FDF763FD084D0499EA
:102C00000C3D2868486604A806F042FA2868416826
:102C10002046884705B02046F0BD00009D2A0208E6
:102C2000D8020020F0B5044680688B4989B051F87D
:102C30002050606800287DD0052804D006287AD06E
:102C4000122879D1AEE0E86900284FD095E80E004F
:102C50008DE80F0004F110010FC908F083FD002674
:102C600055F8260007F0E2FDA169E8690A1A216912
:102C700001446069304406F063FFA169E8690A1AFB
:102C800021690144E069801B06F05AFFE169E869A7
:102C90000A1A616901442069304407F00DF8E169BE
:102CA000E8690A1A61690144A069801B07F004F809
:102CB000761C022ED4DBA86807F0B8FDE069E9694C
:102CC0006669431A20694218521E3144801C07F07D
:102CD0005DF8E169E869A2690B1A61690144101A9B
:102CE000401C921E07F052F8EE6913E05FF00006F8
:102CF00055F8260007F09AFDE069831BA069821B46
:102D0000606981192069304406F098FF761C022E14
:102D1000EEDB0226D5E90301CDE900016169E06936
:102D200008444310A069891C821B2069304406F0C6
:102D3000AFFE02E089E012E08AE0D5E90501CDE9C5
:102D40000001E36960690121184401EB6001A06999
:102D50009B1E821B2069304406F09AFE78E02068B2
:102D600006F04CF9049020681CF0DAFA40B1A06833
:102D700008B1002008E00498006F28B1012003E0AA
:102D80000498406F00B10220049901EB8000C56EE9
:102D900004A806F07DF900231A462846216806F0AB
:102DA00009FC55E0206806F029F90490866EEEB320
:102DB000B0F95C70A168D1B3032942D05FF0000183
:102DC00000EB8101406D0C6C07F03AFD204607F0E6
:102DD0002DFD05A807F02AF8BDF81410A88B0144B2
:102DE000ADF81410BDF81810081AADF81800BDF8A9
:102DF0001600801CADF81600BDF81A00801EADF854
:102E00001A0004985E30B0F90220B0F9001005A84D
:102E100007F06AFC04A806F03BF9022007F050FD19
:102E2000304606F0EBF83A4605A901E00BE006E073
:102E3000079006F0B7FC07A806F02AF908E0012180
:102E4000BEE70221BCE704A8F6E720681BF02CFFD0
:102E500009B00020F0BD000054CB0608044A034925
:102E6000116004494A6A486210467047080300200E
:102E7000CC020020D802002038B50D46040009D04D
:102E800006F0BCF800904565684606F001F920465A
:102E90001BF00DFD38BD4FF480720029114601D0A2
:102EA0001AF024BE1AF076BD2DE9FF410E4605004A
:102EB0004FF001041CD006F0A1F80190876E01A824
:102EC000009706F0E5F83146684608F02BFF78B128
:102ED00000980024B84208D0284606F08FF80190E8
:102EE0000099816601A806F0D3F828461BF0DFFCA4
:102EF00004B02046BDE8F081F8B515460C46060042
:102F00000DD006F07BF80090032C02D200EB840079
:102F10000564684606F0BCF830461BF0C8FCF8BDF6
:102F2000FEE700002DE9F05F7B4C217840F66F054D
:102F300019397A486F1C6FF0704640F6770840F6F2
:102F4000780940F6790A40F6720B0C2925D2DFE8A1
:102F500001F0062645642424242484A424C329469D
:102F6000054680691BF0BAFA80463146404616F0A5
:102F70004FFF6FF07F41404616F09CFF3946A8692D
:102F80001BF0ACFA05466649284616F041FF0021C1
:102F9000284616F08FFF1A202070BDE8F09F0546E6
:102FA000394680691BF09AFA07463146384616F0D2
:102FB0002FFF6FF07F41384616F07CFF4146A8692D
:102FC0001BF08CFA05465649284616F021FF0021D1
:102FD000284616F06FFF1B202070DEE705464146AD
:102FE00080691BF07BFA07463146384616F010FF21
:102FF0006FF07F41384616F05DFF4946A8691BF027
:103000006DFA05464649284616F002FF002128467B
:1030100016F050FF1C202070BFE705464946806926
:103020001BF05CFA07463146384616F0F1FE6FF0A9
:103030007F41384616F03EFF40F67101A8691BF04B
:103040004DFA05463649284616F0E2FE002128468C
:1030500016F030FF212020709FE7054640F67101F1
:1030600080691BF03BFA07463146384616F0D0FE21
:103070006FF07F41384616F01DFF5146A8691BF0DE
:103080002DFA05462649284616F0C2FE002128469C
:1030900016F010FF222020707FE705465146806918
:1030A0001BF01CFA07463146384616F0B1FE6FF0A9
:1030B0007F41384616F0FEFE5946A8691BF00EFA0D
:1030C00005461749284616F0A3FE0021284616F0AB
:1030D000F1FE2420207060E70746594680691BF006
:1030E000FDF980463146404616F092FE6FF07F4172
:1030F000404616F0DFFE2946B8691BF0EFF9054699
:103100000749284616F084FE0021284616F0D2FE14
:103110001920207041E70000BF010020D4010020E9
:10312000FFFFBF00F0B52DED028B83B0B0480078F3
:103130000026B04A9FEDB00A0125B04C192838D0BE
:10314000DFEDAF0A1A287DD0AE4A1B287BD01C28A1
:103150002BD1207C40F678010F1D022874D0207CF2
:10316000012822D1D08800EE100AB8EE400A80EE85
:10317000208AA0691BF0B2F9A3A116F076FE3946A9
:10318000A0691BF0ABF9054618EE100A2EF0A2F963
:1031900041EC100BA0A153EC102B01A8FDF79AF8FD
:1031A00001A9284616F061FE267403B0BDEC028B1F
:1031B000F0BD607B40F66F010F1D012827D0607BBA
:1031C0000228F2D1D2F8800000EE900AF8EE600AF0
:1031D00080EE808AA0691BF081F991A116F045FE6E
:1031E0003946A0691BF07AF9064618EE100A2EF04F
:1031F00071F941EC100B8EA153EC102B01A8FDF7D7
:1032000069F801A9304616F030FE6573CDE7D06F3E
:1032100000EE900AF8EE600A80EE808AA0691BF04A
:103220005DF985A116F021FE3946A0691BF056F91B
:10323000054618EE100A2EF04DF941EC100B53EC38
:10324000102B02E00BE05DE0ADE079A101A8FDF7F5
:1032500041F801A9284616F008FE6673A5E7A07B91
:103260004FF407610F1D022827D0A07B01289CD1B5
:10327000D2F8880000EE100AB8EE400A80EE208AEC
:10328000A0691BF02BF970A116F0EFFD3946A0697B
:103290001BF024F9054618EE100A2EF01BF941EC3C
:1032A000100B5DA153EC102B01A8FDF713F801A939
:1032B000284616F0DAFDA67377E7D2F88C0000EE08
:1032C000100AB8EE400A80EE208AA0691BF006F9C9
:1032D00061A116F0CAFD3946A0691BF0FFF8064649
:1032E00018EE100A2EF0F6F841EC100B4AA153EC40
:1032F000102B01A8FCF7EEFF01A9304616F0B5FD32
:10330000A57352E7E07B40F677010F1D022826D017
:10331000E07B0128A2D1108800EE900AF8EE600A46
:1033200080EE808AA0691BF0D9F84FA116F09DFDB0
:103330003946A0691BF0D2F8054618EE100A2EF0A7
:10334000C9F841EC100B3AA153EC102B01A8FCF783
:10335000C1FF01A9284616F088FDE67325E75088CD
:1033600000EE900AF8EE600A80EE808AA0691BF0F9
:10337000B5F841A116F079FD3946A0691BF0AEF809
:10338000064618EE100A2EF0A5F841EC100B28A105
:1033900053EC102B01A8FCF79DFF01A9304616F055
:1033A00064FDE57301E7108900EE100AB8EE400AEB
:1033B00080EE208AA0691BF091F833A116F055FD2C
:1033C0003946A0691BF08AF8064618EE100A2EF05E
:1033D00081F841EC100B10A153EC102B01A8FCF765
:1033E00079FF01A9304616F040FD2574DDE60000A6
:1033F000BF010020D00B00200000C842D4010020F3
:1034000000007A4470870020E688AAE6ADA2E7941F
:10341000B5E6B58131000000252E336600000000BE
:10342000E8BE93E587BAE794B5E58E8B32000000DD
:10343000252E326600000000E8BE93E587BAE794C7
:10344000B5E58E8B31000000E99990E588B6E794E8
:10345000B5E6B58131000000E99990E588B6E794BA
:10346000B5E6B58132000000E688AAE6ADA2E79491
:10347000B5E58E8B31000000E688AAE6ADA2E794A0
:10348000B5E58E8B32000000E688AAE6ADA2E7948F
:10349000B5E6B58132000000F0B52DED028B83B0AA
:1034A000AF480078AF4A9FEDB00A01250226AF4C25
:1034B000192838D0DFEDAE0A1A287DD0AD4A1B2876
:1034C0007BD01C282BD1207C40F678010F1D0028D2
:1034D00074D0207C012822D1508900EE100AB8EE69
:1034E000400A80EE208AA0691AF0F8FFA2A116F027
:1034F000BCFC3946A0691AF0F1FF054618EE100A27
:103500002DF0E8FF41EC100B9FA153EC102B01A80C
:10351000FCF7E0FE01A9284616F0A7FC267403B0CC
:10352000BDEC028BF0BD607B40F66F010F1D38B320
:10353000607B0128F3D1D2F8840000EE900AF8EE07
:10354000600A80EE808AA0691AF0C8FF90A116F088
:103550008CFC3946A0691AF0C1FF054618EE100A26
:103560002DF0B8FF41EC100B8DA153EC102B01A8EE
:10357000FCF7B0FE01A9284616F077FC6673CEE78B
:10358000D2F8800000EE900AF8EE600A80EE808AA1
:10359000A0691AF0A3FF84A116F067FC3946A06960
:1035A0001AF09CFF064618EE100A2DF093FF41EC2E
:1035B000100B53EC102B02E00BE05CE0ABE078A1C9
:1035C00001A8FCF787FE01A9304616F04EFC657392
:1035D000A5E7A07B4FF407610F1D38B3A07B01283E
:1035E0009DD1D2F8900000EE100AB8EE400A80EEAD
:1035F000208AA0691AF072FF6FA116F036FC3946D6
:10360000A0691AF06BFF054618EE100A2DF062FF54
:1036100041EC100B5CA153EC102B01A8FCF75AFEF7
:1036200001A9284616F021FCA67378E7D2F88C0091
:1036300000EE100AB8EE400A80EE208AA0691AF067
:103640004DFF61A116F011FC3946A0691AF046FF42
:10365000064618EE100A2DF03DFF41EC100B4AA172
:1036600053EC102B01A8FCF735FE01A9304616F0EB
:10367000FCFBA57353E7E07B40F677010F1D30B3E9
:10368000E07B0128A4D1908800EE900AF8EE600A51
:1036900080EE808AA0691AF021FF4FA116F0E5FBA9
:1036A0003946A0691AF01AFF054618EE100A2DF0E7
:1036B00011FF41EC100B3AA153EC102B01A8FCF7C1
:1036C00009FE01A9284616F0D0FBE67327E75088CB
:1036D00000EE900AF8EE600A80EE808AA0691AF087
:1036E000FDFE41A116F0C1FB3946A0691AF0F6FEB5
:1036F000064618EE100A2DF0EDFE41EC100B28A145
:1037000053EC102B01A8FCF7E5FD01A9304616F09B
:10371000ACFBE57303E7108900EE100AB8EE400A2F
:1037200080EE208AA0691AF0D9FE33A116F09DFB25
:103730003946A0691AF0D2FE064618EE100A2DF09E
:10374000C9FE41EC100B10A153EC102B01A8FCF7A3
:10375000C1FD01A9304616F088FB2574DFE60000A4
:10376000BF010020D00B00200000C842D40100207F
:1037700000007A4470870020E688AAE6ADA2E794AC
:10378000B5E6B58133000000252E33660000000049
:10379000E8BE93E587BAE794B5E58E8B3300000069
:1037A000252E326600000000E8BE93E587BAE79454
:1037B000B5E58E8B32000000E99990E588B6E79474
:1037C000B5E6B58133000000E99990E588B6E79445
:1037D000B5E6B58132000000E688AAE6ADA2E7941E
:1037E000B5E58E8B33000000E688AAE6ADA2E7942B
:1037F000B5E58E8B32000000E688AAE6ADA2E7941C
:10380000B5E6B581320000002DE9F05F7A4C2178F1
:1038100040F66F056E1C19397848F71D6FF0704B34
:1038200040F6780840F6710940F6790A0C2926D24C
:10383000DFE801F0062746652525252584A325C256
:103840002946054680691AF049FE06465946304623
:1038500016F0DEFA6FF07F41304616F02BFB40F693
:103860007201A8691AF03AFE05466549284616F025
:10387000CFFA0021284616F01DFB24202070BDE859
:10388000F09F3146064680691AF028FE07465946E1
:10389000384616F0BDFA6FF07F41384616F00AFB45
:1038A0002946B0691AF01AFE05465549284616F011
:1038B000AFFA0021284616F0FDFA19202070DEE745
:1038C0000546394680691AF009FE074659463846CA
:1038D00016F09EFA6FF07F41384616F0EBFA31464B
:1038E000A8691AF0FBFD05464549284616F090FAEE
:1038F0000021284616F0DEFA1A202070BFE70546A0
:10390000414680691AF0EAFD06465946304616F0EF
:103910007FFA6FF07F41304616F0CCFA3946A8693D
:103920001AF0DCFD05463649284616F071FA0021EA
:10393000284616F0BFFA1B202070A0E7054649462E
:1039400080691AF0CBFD06465946304616F060FAFB
:103950006FF07F41304616F0ADFA4146A8691AF083
:10396000BDFD05462649284616F052FA0021284694
:1039700016F0A0FA1C20207081E7054651468069A8
:103980001AF0ACFD06465946304616F041FA6FF083
:103990007F41304616F08EFA4946A8691AF09EFD1E
:1039A00005461749284616F033FA0021284616F036
:1039B00081FA2120207062E7054640F67201806995
:1039C0001AF08CFD06465946304616F021FA6FF083
:1039D0007F41304616F06EFA5146A8691AF07EFD16
:1039E00005460749284616F013FA0021284616F026
:1039F00061FA2220207042E7BF010020D40100209C
:103A0000FFFFBF002DE9F04F2DED068B85B0FE487E
:103A1000416E00EE101AB8EE400ADFEDFC0AC0EE6F
:103A2000209A816E00EE101AB8EE400ADFEDF80A17
:103A300080EE209AC16E006F00EE100AB8EE400AC8
:103A4000DFEDF20A80EE20AAF2480178F24DDFF8AD
:103A5000CC9319396FF07F4B4FF064084FF4076A2D
:103A60009FEDEF8B0024F048F04E4FF6FF771029C2
:103A700039D2DFE801F008B1FEFD3DE0FCFBFAF9C8
:103A8000F8F7F6F5F4F3064640F66F0180691AF090
:103A900025FD07466FF07041384616F0B9F95946D2
:103AA000384616F007FA40F67301B0691AF016FDB1
:103AB0000646DF49304616F0ABF90021304616F0D5
:103AC000F9F90494DB4906E09DF810000C549DF8C8
:103AD0001000401C04909DF810000628F4D3CD4936
:103AE0001D2008702C7005B0BDEC068BBDE8F08F72
:103AF000074640F6730180691AF0F0FC82466FF0C9
:103B00007041504616F084F95946504616F0D2F9E5
:103B10003078002858D03078B0B1029403943278CD
:103B2000C449D21C02A8FCF72DFE02A824F07CFB9D
:103B30009FEDC11B51EC100B53EC112B2DF0A0FA93
:103B40002DF00AFAB049C867AF48C26F41F6380194
:103B50008A4200D9C167C16F416041688268B1FB88
:103B6000F8F15143494500D94460406800EE100A1D
:103B7000F8EE400A9FEDA51A80EE810A10EE100AB9
:103B80002DF0A8FC41EC100BADA153EC102B02A8BA
:103B9000FCF7A0FB02A9504616F067F940F66F014A
:103BA000B8691AF09BFC0746A149384616F030F96F
:103BB0000021384616F07EF99649192008702C70BD
:103BC00034701BF013FE8EE79A48FCF797FC6421D3
:103BD00048438D49C867B7E70546514680691AF0E2
:103BE0007DFC06466FF07041304616F011F95946DB
:103BF000304616F05FF904948E4A06E09DF81000F6
:103C000014549DF81010491C04919DF810000628CA
:103C1000F4D340F67401A8691AF060FC04468449A4
:103C2000204616F0F5F80021204616F043F97949B0
:103C30001E20087057E7074640F6740180691AF0A5
:103C40004DFC01906FF07041019816F0E1F8594673
:103C5000019816F02FF9307800280BE0D9E243E202
:103C600085E19CE0CCE3A4E20EE213E3F8E341E358
:103C70004DE164E059D03078A8B1029403943278D1
:103C80006C49121D02A8FCF77DFD02A824F0CCFAB5
:103C900053EC182B51EC100B2DF0F2F92DF05CF9D0
:103CA0005949C1F888005848D0F8882042F210716C
:103CB0008A4201D9C0F88810D0F888108160416824
:103CC0008268B1FBF8F15143494500D984608068AE
:103CD00000EE100AF8EE400A9FED4D1A80EE810AC0
:103CE00010EE100A2DF0F6FB41EC100B56A153EC30
:103CF000102B02A8FCF7EEFA02A9019816F0B5F80D
:103D00005146B8691AF0EAFB07464949384616F0A9
:103D10007FF80021384616F0CDF83E491A20087089
:103D20002C7034701BF062FDDDE64248FCF7E6FBC8
:103D30004FF47A7148433449C1F88800B3E7054627
:103D400040F6770180691AF0C9FB06466FF07041B2
:103D5000304616F05DF85946304616F0ABF804943C
:103D6000344A06E09DF8100014549DF81010491CC8
:103D700004919DF810000628F4D340F67B01A86951
:103D80001AF0ACFB04462A49204616F041F80021FF
:103D9000204616F08FF81F4925200870A3E68046BC
:103DA00040F67B0180691AF099FB81466FF0704103
:103DB000484616F02DF85946484616F07BF83078FC
:103DC00000B33078B0B10294039432781949D21C10
:103DD00002A8FCF7D7FC02A824F026FA9FED161BD8
:103DE00051EC100B53EC112B2DF04AF92DF0B4F8D7
:103DF000174908801648028841F638018A4200D9DE
:103E0000018027E032E00000D00B00200000C84213
:103E100000007A44BF0100207001002077D4030025
:103E20000000000000408F40D401002071010020FC
:103E3000FFFFBF00B4010020000000000000594057
:103E4000252E326600000000252E3366000000009B
:103E50007087002098F80F10A1B198F80F10012971
:103E60001AD098F80F10022920D028E0FE48FCF75D
:103E700045FB00EBC00101EB0010FC4907EA8000A4
:103E80000880B7E700885FED1F0A00EE100AB8EE61
:103E9000400AC0EE209A12E040885FED240A00EE4E
:103EA000100AB8EE400AC0EE209A08E080885FED64
:103EB000290A00EE100AB8EE400AC0EE209A19EE68
:103EC000900A2DF007FB41EC100B53EC102BAFF2D6
:103ED000900102A8FCF7FEF902A9484615F0C5FFBB
:103EE00040F67701D8F818001AF0F8FA0746E049CA
:103EF000384615F08DFF0021384615F0DBFFDD490F
:103F00001B2008702C7034701BF070FCEBE505462C
:103F100040F6780180691AF0E1FA06466FF07041C8
:103F2000304615F075FF5946304615F0C3FF04942E
:103F3000CD4A06E09DF8100014549DF81010491C5D
:103F400004919DF810000628F4D340F67C01A8697E
:103F50001AF0C4FA0446C649204615F059FF00215C
:103F6000204615F0A7FFC34926200870BBE5804610
:103F700040F67C0180691AF0B1FA81466FF0704119
:103F8000484615F045FF5946484615F093FF3078EE
:103F900048B33078A0B1029403943278B249121D2C
:103FA00002A8FCF7EFFB02A824F03EF953EC182B13
:103FB00051EC100B2DF064F82CF0CEFFAB49C8800B
:103FC000AA48C28842F210718A4200D9C18098F88A
:103FD0001010A1B198F8101001291AD098F81010FB
:103FE000022920D028E0A048FCF788FA00EB400125
:103FF000C1EBC0109D4907EAC000C880E0E7C08857
:1040000000EE100AB8EE400A5FED7F0A80EE209ABB
:1040100012E0008900EE100AB8EE400A5FED840A53
:1040200080EE209A08E0408900EE100AB8EE400ABF
:104030005FED890A80EE209A19EE100A2DF04AFAF7
:1040400041EC100B53EC102BAFF2042102A8FCF74B
:1040500041F902A9484615F008FF40F67801D8F862
:1040600018001AF03BFA07468149384615F0D0FE91
:104070000021384615F01EFF7E491C2008702C7068
:1040800034701BF0B3FB2EE5054640F679018069DC
:104090001AF024FA06466FF07041304615F0B8FE6B
:1040A0005946304615F006FF04946F4A06E09DF825
:1040B000100014549DF81010491C04919DF8100034
:1040C0000628F4D340F67D01A8691AF007FA0446E1
:1040D0006749204615F09CFE0021204615F0EAFEB7
:1040E000644927200870FEE4074640F67D01806998
:1040F0001AF0F4F980466FF07041404615F088FEE2
:104100005946404615F0D6FE3078E8B33078A0B175
:104110000294039432785449121D02A8FCF732FB32
:1041200002A824F081F853EC182B51EC100B2CF062
:10413000A7FF2CF011FF5049C8664F48C06E00EE33
:10414000100AF8EE400A1FEDCE1A80EE810A10EE3A
:10415000100A2DF0BFF941EC100B53EC102BAFF20D
:10416000183102A8FCF7B6F802A9404615F07DFE0A
:1041700040F67901B8691AF0B1F907463C4938466A
:1041800015F046FE002100E00AE0384615F092FEE8
:104190003849222008702C7034701BF027FBA2E4F1
:1041A0003148FCF7ABF94FF47A7148433249C8669D
:1041B000C3E7054640F67A0180691AF08FF9064692
:1041C0006FF07041304615F023FE5946304615F029
:1041D00071FE0494244A06E09DF8100014549DF8E2
:1041E0001010491C04919DF810000628F4D340F6E5
:1041F0007E01A8691AF072F904461D49204615F09F
:1042000007FE0021204615F055FE1A4928200870A7
:1042100069E4074640F67E0180691AF05FF980463E
:104220006FF07041404615F0F3FD5946404615F0D9
:1042300041FE1AEE100A2DF04DF941EC100B53EC33
:10424000102BAFF2044102A8FCF744F802A9404643
:1042500015F00BFE40F67A01B8691AF03FF90746EF
:10426000034938460AE00000B401002070870020AE
:10427000FFFFBF00BF010020D00B002015F0C8FDDC
:104280000021384615F016FE9A49232008702C703C
:10429000347028E4054640F6710180691AF01EF971
:1042A00006466FF07041304615F0B2FD5946304673
:1042B00015F000FE0494904A06E09DF81000145496
:1042C0009DF81010491C04919DF810000628F4D3A5
:1042D00040F67501A8691AF001F90446874920469D
:1042E00015F096FD0021204615F0E4FD81491F20C0
:1042F000087068E4074640F6750180691AF0EEF828
:1043000080466FF07041404615F082FD59464046A8
:1043100015F0D0FD3078E8B33078A8B1029403945A
:1043200032787549121D02A8FCF72CFA02A823F076
:104330007BFF53EC182B51EC100B2CF0A1FE2CF052
:104340000BFE6F49C1F89C006D48D0F89C1047F2F5
:104350003052914213D8D0F89C1000EE101AF8EEAB
:10436000400A9FED681A6849684A80EE810AD1EDDB
:10437000000A20EE200A10EE101A914201DDC0F86A
:104380009C40D0F89C100161006900EE100AF8EE24
:10439000400A00E02AE09FED5B1A80EE810A10EEF1
:1043A000100A2DF097F841EC100B53EC102BAFF2E4
:1043B000685102A8FBF78EFF02A9404615F055FD93
:1043C00040F67101B8691AF089F807464B4938463A
:1043D00015F01EFD0021384615F06CFD45492120E1
:1043E00008702C7034701BF001FA23E44248FCF78B
:1043F00085F84FF47A7148434149C1F89C00A3E71E
:10440000054640F6720180691AF068F806466FF0BA
:104410007041304615F0FCFC5946304615F04AFD17
:104420000494354A06E09DF8100014549DF81010CD
:10443000491C04919DF810000628F4D340F676013B
:10444000A8691AF04BF804462C49204615F0E0FC08
:104450000021204615F02EFD26492020087063E437
:10446000FFE7074640F6760180691AF037F8804684
:104470006FF07041404615F0CBFC5946404615F0B0
:1044800019FD307878B3307870B1029403943278A3
:10449000194902A8FCF776F902A823F0C5FE51ECF1
:1044A000100B2CF059FD38703A7819A102A8FBF7CF
:1044B00011FF02A9404615F0D8FC40F67201B86918
:1044C0001AF00CF807460D49384615F0A1FC0021FA
:1044D000384615F0EFFC0749242008702C70347022
:1044E0001BF084F920E4FFE70348FCF707F8387075
:1044F000DAE70000BF010020B4010020FFFFBF0089
:10450000D00B002000007A44240000200000484323
:104510002533640070B5174C61792046164D8069CB
:1045200040F69902012912D0A17B01291DD0114624
:1045300019F0D4FF06466FF07041304615F068FC64
:104540002946304615F0B6FC2F20207070BD11466C
:1045500019F0C4FF04462946204615F059FC2046B0
:10456000BDE87040002115F0A5BCBDE8704000F02A
:1045700087BA000014020020FFFFBF002DE9FF47AB
:104580000446006810B11AF0CBFE68B10022314831
:1045900050F8221060680A2841D007DCF0B30628E2
:1045A0000DD0072854D106E00122F0E712280AD0E6
:1045B00019284DD137E020461CF0BAFA48E02046D1
:1045C0001DF044FC44E0206804F018FD0290B0F9AE
:1045D000548090F85650476C466B02A804F058FD82
:1045E000206800F039F88146684619F04FFFBDF8A1
:1045F000001009EB05000844ADF80000246A3046BD
:1046000006F01EF9022006F05BF9384606F00EF9B6
:1046100042466946204605F0C5F819E007E0204605
:104620001DF000FF14E0886904B0BDE8F087206841
:104630001AF03AFB206804F0E1FC0390B0F9061090
:10464000B0F90220891A491CC16703A804F020FDB3
:104650000020E9E764CB060838B504F0CFFC0090F1
:10466000C46F684604F014FD204638BD044A03496F
:1046700011600449CA69C86110467047940300205C
:104680005C0700206007002000B589B0242168463F
:10469000FCF751F8192001900348006880684168D0
:1046A0006846884709B000BD5C07002070B5FF224E
:1046B000FF23084D05F5807605E010F8014B5440C6
:1046C0002A5D5A40335D491E89B2F6D243EA022080
:1046D00070BD0000D016050810B50A4A0A4C4FF408
:1046E0000061002807D0012804D1104603F03FFDE7
:1046F0000120E07010BD104603F037FD0020E0708F
:1047000010BD000000000240500100207CB51B4C91
:104710002078012500281DD01948C16F4160D0F8CC
:1047200088108160D0F89C100161164805707021D6
:10473000682016F024FC2903134803F016FD08F046
:1047400095FDA902114803F010FD1148016841F0E0
:104750008001016025700F49192008700E4800245F
:10476000047019F0AFFE034600940C4A2A210C484D
:10477000019404F03BFE0B4988617CBD720100206E
:10478000D00B002089000020000C024000080240ED
:1047900048000020BF010020880000203DAF040831
:1047A0009C220508D40100201CB50E48002404708A
:1047B0000D4804700D4804707021682016F0DFFB6E
:1047C0004FF480510A4803F0D0FC19F07BFE0346F9
:1047D0000094084A09210848019404F007FE07499B
:1047E00008601CBD720100208900002088000020A4
:1047F000000C024039C7040834270508F0010020E6
:104800007CB5134C5020A0710320A0701149087092
:104810000025E5712BF05EFD0020FFF75DFF0E48DF
:104820000570E08ADFED0D0A00EE100AB8EE400ACE
:1048300080EE201A84ED081A19F044FE0346009514
:10484000074A2B210748019504F0D0FD60627CBD2A
:1048500070010020890000208800002000007A44B8
:1048600061910408481B05081CB50F490520087014
:104870000E48002404700E4804707021682016F061
:104880007EFB4FF480510B4803F06FFC19F01AFEC9
:1048900003460094084A27210848019404F0A6FD25
:1048A000074948601CBD000072010020BF010020C4
:1048B00088000020000C024059CC0408302805086C
:1048C000040200201CB508490620087019F0FAFD02
:1048D0000346002000900190044A0121044804F09E
:1048E00085FD044948601CBD7201002071DD04088B
:1048F000742C05080C0200207CB5274C2078002879
:1049000015D02078022812D04FF40041234803F03C
:104910002EFC234D0221284603F027FC4FF4FA70A9
:1049200000F0A6FD4FF40051284603F020FC0220C1
:1049300020701C4908701C49092008701B48D0F8D9
:1049400098104160D0F8A01081601948DFED190A75
:10495000194D90ED050AB8EEC00A80EE201A85EDDB
:10496000021A1648002404701549032008707021AB
:10497000682016F004FB4FF48051124803F0F5FB59
:1049800019F0A0FD034600940F4A16210F48019428
:1049900004F02CFD68607CBD720100200000024024
:1049A0000008024089000020BF010020D00B002039
:1049B0007C87002000007A446401002088000020E9
:1049C000BC010020000C024055860408E0180508D0
:1049D0007CB51F4C2078002801D008F047FC04204B
:1049E00020701C4908701C49172008701B48DFED17
:1049F0001C0A1C4E90ED040AB8EEC00A80EE201A84
:104A000086ED031A184CD4F8940020610020FFF7BB
:104A100063FE164800250570154902200870D4F879
:104A2000A400E0607021682016F0A9FA4FF48051CC
:104A3000104803F09AFB19F045FD034600950E4A15
:104A400018210E48019504F0D1FCB0607CBD000037
:104A50007201002089000020BF0100207C87002017
:104A600000007A44C4010020D00B00208800002000
:104A7000BC010020000C0240B1EC0408FC1F05083A
:104A80001CB519F01FFD002403460094064A0721B7
:104A90000648019404F0AAFC0549486005490C70D9
:104AA000054A082111701CBDD1E40408541B0608F6
:104AB0003C02002088000020720100201CB519F083
:104AC00001FD002403460094074A1221074801947F
:104AD00004F08CFC06498861064A1470064B0722D4
:104AE0001A702F220A701CBDF1DD04085C1906083B
:104AF0001402002088000020720100201CB5022052
:104B00008DF8050001208DF8040000208DF80600C6
:104B10001C2000906946024803F0D2FA1CBD000038
:104B20000010024031B582B02B4D0421284603F01D
:104B30001CFB0821284603F01AFB00BF00BF00BF82
:104B400000BF0421284603F012FB00BF08212846BD
:104B500003F00DFB0421284603F007FB002101911F
:104B60004FF6FF7429E09DF80410072912D9BDF80B
:104B70000810080404D51021284603F0F8FA03E0D1
:104B80001021284603F0F1FABDF8081004EA4100AC
:104B9000029003E01021284603F0E7FA0821284696
:104BA00003F0E3FA00BF00BF00BF0821284603F06E
:104BB000DEFA9DF80410491C01919DF804001828A4
:104BC000D1D30421284603F0D2FA03B02846BDE829
:104BD0003040082103F0CBBA0010024008B538205D
:104BE0008DF8000003208DF801008DF802000120EF
:104BF0008DF8030068460DF09FF908BD70B5594D5A
:104C0000A97928460024406A05F14406462964D063
:104C10001BDC152935D0162949D040297ED140F614
:104C2000051119F05BFC297821B12978491E2970FA
:104C30002978745429786A78914200D16C70BDE863
:104C400070404849443115F010B94D2959D04E29CA
:104C500070D04F2962D140F6341119F03FFC297809
:104C600021B12978491E29702978745429786A78E5
:104C7000914200D16C70BDE870403A49443115F062
:104C8000F4B840F66B0119F029FC297821B1297894
:104C9000491E29702978745429786A78914200D184
:104CA0006C70BDE870402F49443115F0DEB840F615
:104CB0006C0119F013FC297821B12978491E29705B
:104CC0002978745429786A78914200D16C70BDE8D3
:104CD00070402449443115F0C8B840F60E1119F05F
:104CE000FDFB297821B12978491E2970297874544F
:104CF00029786A78914200D16C701A49443115F0D4
:104D0000B4F840F63211686A19F0E8FB297821B14D
:104D10002978491E29702978745400E020E0297808
:104D20006A78914200D16C70BDE870400D49443101
:104D300015F09BB840F6331119F0D0FB297821B15A
:104D40002978491E29702978745429786A78914203
:104D500000D16C70BDE870400249443115F085B84F
:104D600070BD0000700100202DE9F041624801781B
:104D700062481D39624F0024624D634E0C297DD27A
:104D8000DFE801F0061C3248B8B8B8B85E748CA2EF
:104D900040F67301806919F0A1FB297821B12978C7
:104DA000491E297029787C5429783278914200D1A3
:104DB0003470BDE8F041524915F057B840F674011F
:104DC000806919F08BFB297821B12978491E297057
:104DD00029787C5429783278914200D13470BDE82A
:104DE000F041474915F041B840F67501806919F066
:104DF00075FB297821B12978491E297029787C54BE
:104E000029783278914200D13470BDE8F0413C49B4
:104E100015F02BB840F67601806919F05FFB297810
:104E200021B12978491E297029787C542978327853
:104E3000914200D13470BDE8F041314915F015B808
:104E400040F67B01806919F049FB297821B1297866
:104E5000491E297029787C5429783278914200D1F2
:104E60003470BDE8F041264914F0FFBF40F67C01E4
:104E7000806919F033FB297831B100E03AE02978F4
:104E8000491E297029787C5429783278914200D1C2
:104E90003470BDE8F0411A4914F0E7BF40F67D01D7
:104EA000806919F01BFB297821B12978491E2970E6
:104EB00029787C5429783278914200D13470BDE849
:104EC000F0410F4914F0D1BF40F67E01806919F01E
:104ED00005FB297821B12978491E297029787C544D
:104EE00029783278914200D13470BDE8F04104490C
:104EF00014F0BBBFBDE8F081BF010020D401002049
:104F0000B401002070010020710100202DE9F04162
:104F1000274801782748284F00248068274D284ECD
:104F2000182918D043292BD056293ED140F62D11EF
:104F300019F0D4FA297821B12978491E29702978E5
:104F40007C5429783278914200D13470BDE8F04128
:104F5000194914F08ABF40F66E0119F0BFFA29789A
:104F600021B12978491E297029787C542978327812
:104F7000914200D13470BDE8F0410F4914F075BF83
:104F800040F6111119F0AAFA297821B12978491EA1
:104F9000297029787C5429783278914200D1347074
:104FA000BDE8F041044914F060BFBDE8F0810000A5
:104FB000BF010020C4010020B401002070010020C6
:104FC000710100202DE9F0417948017879487A4F44
:104FD00000244068794D7A4E10297DD008DCA1F17B
:104FE0000B01052979D2DFE801F02035748DA2008C
:104FF000512944D0522957D053296FD054296CD10C
:1050000040F6381119F06AFA297821B12978491E39
:10501000297029787C5429783278914200D13470F3
:10502000BDE8F041644914F020BF4FF4066119F067
:1050300055FA297821B12978491E297029787C549C
:1050400029783278914200D13470BDE8F0415A4954
:1050500014F00BBF40F6610119F040FA297821B134
:105060002978491E297029787C5429783278914210
:1050700000D13470BDE8F0414F4914F0F6BE40F65F
:10508000351119F02BFA297821B12978491E297098
:1050900029787C5429783278914200D13470BDE867
:1050A000F041454914F0E1BE40F6361119F016FA08
:1050B000297821B12978491E297029787C542978CA
:1050C0003278914200D13470BDE8F0413A4914F091
:1050D000CCBE40F6620102E03EE067E051E019F02C
:1050E000FDF9297821B12978491E297029787C5445
:1050F00029783278914200D13470BDE8F0412E49D0
:1051000014F0B3BE40F6630119F0E8F9297821B133
:105110002978491E297029787C542978327891425F
:1051200000D13470BDE8F041234914F09EBE40F632
:10513000640119F0D3F9297821B12978491E297021
:1051400029787C5429783278914200D13470BDE8B6
:10515000F041194914F089BE40F6650119F0BEF915
:10516000297821B12978491E297029787C54297819
:105170003278914200D13470BDE8F0410E4914F00C
:1051800074BE40F6371119F0A9F9297821B12978B0
:10519000491E297029787C5429783278914200D1AF
:1051A0003470BDE8F041044914F05FBEBDE8F08101
:1051B000BF01002004020020B40100207001002083
:1051C000710100202DE9F04128480078284A294F34
:1051D0000024294D294E112819D012282DD05828E5
:1051E00041D140F62E11506819F078F9297821B193
:1051F0002978491E297029787C542978327891427F
:1052000000D13470BDE8F0411A4914F02EBE40F6CA
:105210006601506819F062F9297821B12978491E90
:10522000297029787C5429783278914200D13470E1
:10523000BDE8F0410F4914F018BE40F66701506810
:1052400019F04CF9297821B12978491E297029785B
:105250007C5429783278914200D13470BDE8F04115
:10526000044914F002BEBDE8F0810000BF01002037
:1052700064010020B40100207001002071010020B1
:105280000148006870470000E003002010B50549A0
:10529000054800F00DF80548016841F00201016081
:1052A00010BD000020800010106402403C0000206F
:1052B000074A904201D2074801E005481038064AE3
:1052C0008B0001EA020101D5C1607047816070471F
:1052D00010640240006002407D0F7D0F002904D061
:1052E000016841F0010101607047016821F001018E
:1052F000016070470B0609D522B1436943F0800372
:10530000436103E0436923F080034361802905D0B2
:1053100001F01E011AB102680A4302607047026878
:105320008A4302607047000030B50368124A134098
:10533000CC680A682243D1E905452C432243CC6955
:1053400022430C6A22434C6A22438C6A22434C6BF0
:1053500022438C6B22431A430260426922F0070306
:10536000D1E90B2422431A4342610A6942604A6828
:1053700082608968C16030BD3F801CF0F8B5054689
:10538000006803F03BFE0090448ED0F888606846C9
:1053900003F07EFE06B1012604F00104286819F02E
:1053A000BFFF0EB1002006E00CB1012003E008B100
:1053B000022000E003201B4951F82010686858B310
:1053C00002280CD0052802D0122828D103E0284654
:1053D0001BF0DAFB23E028461DF0B9FC1FE06A69E8
:1053E000E8694FF0FF33801AA0F1080203EB620472
:1053F000421CAB69001B4510A3EB6206C86905F0AF
:1054000015FA06E03219311B284604F099FB641E98
:105410006D1C002CF6DA02E0286819F045FC00202B
:10542000F8BD0000C4CB0608044A034911600449D2
:105430000A6B086310467047E40300209C070020B5
:10544000A007002038B50D46002403F0D7FD0090DA
:10545000C06B294603F0B4FE0546684603F018FE0B
:105460001DB1284603F0CAFD0446204638BD7047EA
:1054700011B54FF47A7402E0204600F006F8BDF84A
:1054800000104A1E0092F7D218BD01B582B000206C
:105490000190042110E0009100BF00BF00BF00BFD9
:1054A00000BFBDF80000401E0004000C0090F3D1C6
:1054B000BDF80400401C0190BDF80400BDF80820B0
:1054C0009042E8D30EBD000010B52DED028B2049AF
:1054D0000A78204CB2EE048A022AE0681ED00978CD
:1054E000032918D11C4991ED000A20EE080ABDEEEF
:1054F000C00A10EE101A09B202F010FF174890ED22
:10550000000A20EE080ABDEEC00A10EE100A01B231
:10551000206902F003FFBDEC028B10BD104991ED34
:10552000000A20EE080ABDEEC00A10EE101A09B2F9
:1055300002F0F4FE0B4890ED000A20EE080ABDEEE2
:10554000C00A10EE100A01B2206902F0E7FEE2E79D
:10555000BC010020F00100202800002030000020C5
:10556000240000202C0000201CB51048C079012820
:105570001AD1FF2005F05AF9022005F08FF9B42066
:105580000021CDE90010032306220C214FF4C37043
:1055900004F0B2F902B00C23BDE8104040F27F12D3
:1055A0000421034804F02EBB1CBD0000880000202D
:1055B000D018050831B52AF0ABFBA0202AF070FB0B
:1055C0002AF0D6FB70B99DF800002AF069FB2AF09A
:1055D000CFFB38B92AF09CFBA1202AF061FB2AF00E
:1055E000C7FB18B12AF0B0FB002038BD2AF02CFB15
:1055F000034C20702AF010FB2AF0A6FB207838BD5F
:105600008000002070B50120FFF7D4FFFE4C206021
:105610000120FFF7CFFF20602068000220600220F9
:10562000FFF7C8FF2168084420602068000220605E
:105630000320FFF7BFFF21680844206020680002B4
:1056400020600420FFF7B6FF216808442060052091
:10565000FFF7B0FFED4D28602868000228600620A3
:10566000FFF7A8FF2968084428602868000228601E
:105670000720FFF79FFF2968084428602868000278
:1056800028600820FFF796FF296808442860C0209A
:10569000FFF790FF6063606B00026063C120FFF75B
:1056A00089FF616B08446063606B00026063C22025
:1056B000FFF780FF616B08446063606B000260630A
:1056C000C320FFF777FF616B08446063C420FFF7D6
:1056D00071FF6863686B00026863C520FFF76AFFAB
:1056E000696B08446863686B00026863C620FFF753
:1056F00061FF696B08446863686B00026863C720D8
:10570000FFF758FF696B08446863C820FFF752FF32
:10571000A063A06B0002A063C920FFF74BFFA16B41
:105720000844A063A06B0002A063CA20FFF742FFF9
:10573000A16B0844A063A06B0002A063CB20FFF71D
:1057400039FFA16B0844A063CC20FFF733FFA863A7
:10575000A86B0002A863CD20FFF72CFFA96B0844BB
:10576000A863A86B0002A863CE20FFF723FFA96BF4
:105770000844A863A86B0002A863CF20FFF71AFFB4
:10578000A96B0844A8630920FFF714FF60606068F4
:10579000000260600A20FFF70DFF61680844606046
:1057A0006068000260600B20FFF704FF6168084436
:1057B00060606068000260600C20FFF7FBFE6168BB
:1057C000084460600D20FFF7F5FE6860686800021D
:1057D00068600E20FFF7EEFE69680844686068683C
:1057E000000268600F20FFF7E5FE69680844686002
:1057F0006868000268601020FFF7DCFE69680844F2
:1058000068601120FFF7D6FEA060A0680002A060CB
:105810001220FFF7CFFEA1680844A060A068000234
:10582000A0601320FFF7C6FEA1680844A060A0682E
:105830000002A0601420FFF7BDFEA1680844A0602C
:105840001520FFF7B7FEA860A8680002A860162020
:10585000FFF7B0FEA9680844A860A8680002A86025
:105860001720FFF7A7FEA9680844A860A8680002EF
:10587000A8601820FFF79EFEA9680844A8601920B8
:10588000FFF798FEE060E0680002E0601A20FFF792
:1058900091FEE1680844E060E0680002E0601B20DF
:1058A000FFF788FEE1680844E060E0680002E0601D
:1058B0001C20FFF77FFEE1680844E0601D20FFF731
:1058C00079FEE860E8680002E8601E20FFF772FEDB
:1058D000E9680844E860E8680002E8601F20FFF714
:1058E00069FEE9680844E860E8680002E860202092
:1058F000FFF760FEE9680844E8602120FFF75AFEE0
:1059000020612069000220612220FFF753FE2169F7
:10591000084420612069000220612320FFF74AFE2D
:105920002169084420612069000220612420FFF7DA
:1059300041FE2169084420612520FFF73BFE2861D4
:105940002869000228612620FFF734FE29690844EF
:1059500028612869000228612720FFF72BFE2969AA
:10596000084428612869000228612820FFF722FEE8
:105970002969084428612920FFF71CFE60616069DD
:10598000000260612A20FFF715FE6169084460612A
:105990006069000260612B20FFF70CFE616908441A
:1059A00060616069000260612C20FFF703FE61699D
:1059B000084460612D20FFF7FDFD68616869000201
:1059C00068612E20FFF7F6FD69690844686168691F
:1059D000000268612F20FFF7EDFD696908446861E6
:1059E0006869000268613020FFF7E4FD69690844D6
:1059F0006861AB20FFF7DEFDE062E06A0002E06272
:105A0000AC20FFF7D7FD03E0280B00207C0B002023
:105A1000E16A0844E062E06A0002E062AD20FFF75C
:105A2000C9FDE16A0844E062E06A0002E062AE207B
:105A3000FFF7C0FDE16A0844E062AF20FFF7BAFD5E
:105A4000E862E86A0002E862B020FFF7B3FDE96AA5
:105A50000844E862E86A0002E862B120FFF7AAFDA4
:105A6000E96A0844E862E86A0002E862B220FFF7E7
:105A7000A1FDE96A0844E862B720FFF79BFD2063B7
:105A8000206B00022063B820FFF794FD216B0844CF
:105A90002063206B00022063B920FFF78BFD216B90
:105AA00008442063206B00022063BA20FFF782FDC8
:105AB000216B08442063BB20FFF77CFD2863286B23
:105AC00000022863BC20FFF775FD296B084428639A
:105AD000286B00022863BD20FFF76CFD296B08448A
