:020000040800F2
:1000000060900020950200087B070108F5BE0008FB
:1000100079070108F52E000839AA01080000000040
:1000200000000000000000000000000097620108CE
:10003000DB54000800000000913701087D730108BF
:10004000AF020008AF020008AF020008AF020008CC
:10005000AF020008AF020008AF020008AF020008BC
:10006000AF020008AF020008AF020008AF020008AC
:10007000AF020008AF020008AF020008AF0200089C
:10008000AF020008AF020008AF020008AF0200088C
:10009000AF020008AF020008AF020008AF0200087C
:1000A000AF020008AF020008AF020008AF0200086C
:1000B000AF0200088D780108997B0108AF020008A3
:1000C000AF020008AF020008AF020008AF0200084C
:1000D000AF020008EDA50108AF020008F5A601086F
:1000E000AF020008AF020008AF020008AF0200082C
:1000F000AF020008AF020008AF020008AF0200081C
:10010000AF020008AF02000889820108AF020008B0
:10011000AF020008AF02000869830108AF020008BF
:10012000F9520008AF020008AF020008AF02000851
:10013000AF020008AF020008AF020008AF020008DB
:10014000AF020008AF020008AF020008AF020008CB
:10015000AF020008AF020008AF020008AF020008BB
:10016000AF020008AF020008AF020008AF020008AB
:10017000AF020008AF020008AF020008AF0200089B
:10018000AF020008AF02000800F002F800F072F8B9
:100190000AA090E8000C82448344AAF10107DA45E2
:1001A00001D100F067F8AFF2090EBAE80F0013F0C2
:1001B000010F18BFFB1A43F001031847A0C4030046
:1001C000C0C403000A444FF0000C10F8013B13F0C8
:1001D000070408BF10F8014B1D1108BF10F8015BA0
:1001E000641E05D010F8016B641E01F8016BF9D193
:1001F00013F0080F1EBF10F8014BAD1C0C1B09D1EA
:100200006D1E58BF01F801CBFAD505E014F8016B5B
:1002100001F8016B6D1EF9D59142D6D370470000ED
:100220000023002400250026103A28BF78C1FBD8FF
:10023000520728BF30C148BF0B60704766292CF0B9
:10024000B582642900F08280002070471FB52CF031
:10025000A0FA00F093FE0400002000212BF0A2FC85
:10026000401C6060002000212BF086FCE0601FBD78
:1002700010B510BD00F0F6FF1146FFF7E7FF2AF0BA
:10028000BBFF01F09FFA03B4FFF7F2FF03BC01F0DC
:10029000CDFC00000948804709480047FEE7FEE71B
:1002A000FEE7FEE7FEE7FEE7FEE7FEE7FEE7FEE726
:1002B00004480549054A064B70470000457401088B
:1002C00089010008608A002060900020608C002076
:1002D000608C00200FB41CB5074B06AA7B4469460E
:1002E0000090059800F03BFD0020694600F04AFDB3
:1002F0001CBC5DF814FB0000A50A000070B50446A4
:1003000085690068C10601D5302600E02026C007B7
:1003100007D070BDD4E9012130469047206A401CC7
:1003200020626D1EF6D570BD70B5044685690078F3
:10033000C00707D170BDD4E9012120209047206A71
:10034000401C20626D1EF6D570BD00002DE9F04105
:100350000646002410687529314616A510D0AFF363
:100360000080002802DA404213A507E031688A07BE
:1003700001D512A502E0490704D511A5012401E029
:10038000AFF3008000210A2206F1240709E0B0FB48
:10039000F2FCB0FBF2F302FB1C003030785418463C
:1003A000491C0028F3D123462A463046BDE8F041D7
:1003B00000F067BA000000002D0000002B000000D4
:1003C000200000002DE9F05F894604464FF0000A46
:1003D000DFF824B1FB44C0F820A02046E16888473C
:1003E00000287DD0252806D0D4E901219047206A35
:1003F000401C2062F1E700255F462046E1688847FF
:100400002028064607DB312E05D2B81910F8200C3B
:1004100008B10543F1E7A80701D525F00405C4F8A4
:100420001CA00027C4F818A02A2E09D030462AF0B4
:1004300085FC38B304EB8708303EC8F8186019E033
:1004400059F8041B204604EB87029161E168884754
:10045000012F064618D1E069002820DA25F0200592
:100460001DE0D8F8180000EB800006EB40003038A3
:10047000C8F818002046E168884706462AF05EFC66
:100480000028EED1012F0AD02E2E08D12046E16897
:1004900088477F1C0646022F45F02005C4DBA06973
:1004A000002803DA404245F00105A061E80701D0C9
:1004B00025F01005A6B1A6F14100192802D8203672
:1004C00045F400654A463146204625604D46FFF713
:1004D000B5FE60B1012807D0ED1D25F0070000E052
:1004E00007E000F1080978E705F1040975E73046EF
:1004F0007AE7206ABDE8F09FA0C1030070B5064608
:1005000000F0B0F90468054630460A22002100F0E8
:1005100091FC2C6070BD40EA0103024630B59B0798
:1005200010D14FF0013400E008C208C91D1B9D43E3
:1005300015EAC41FF8D013F0FF0102F8011B0DD01B
:100540001B0AF8E711F8013B002B02F8013B05D02C
:1005500011F8013B002B02F8013BF3D130BD10B57F
:10056000431C02E010F8011B71B18107FAD14FF072
:10057000013202C88C1A8C4314EAC211F9D0C01A95
:100580000A0603D0C01E10BDC01A10BD0A0401D057
:10059000801E10BD0902FCD0401E10BD421E12F884
:1005A000013F002BFBD111F8013B002B02F8013B6E
:1005B000F9D17047032A40F2308010F0030C00F0AC
:1005C000158011F8013BBCF1020F624498BF11F88D
:1005D00001CB00F8013B38BF11F8013BA2F1040246
:1005E00098BF00F801CB38BF00F8013B11F00303BE
:1005F00000F06780083AC0F0088051F8043B083AE0
:1006000051F804CBA0E80810F5E7121D5CBF51F8C3
:10061000043B40F8043BAFF30080D20724BF11F83D
:10062000013B11F801CB48BF11F8012B24BF00F8A2
:10063000013B00F801CB48BF00F8012B7047431A7B
:1006400028BF9A427FF6B6AF032A1044114440F205
:10065000268010F0030F1EBF11F8013D521E00F856
:10066000013D10F0030F7FF4F6AF11F0030300F02B
:100670002C84083AC0F00B8051F8043D083A51F838
:1006800004CD40F8043D40F804CDFFF7F3BF121D40
:100690005CBF51F8043D40F8043DAFF30080D20741
:1006A00024BF11F8013D11F801CD48BF11F8012C0C
:1006B00024BF00F8013D00F801CD48BF00F8012C2F
:1006C000704710B5203AC0F00B80B1E81850203ABE
:1006D000A0E81850B1E81850A0E81850BFF4F5AFE2
:1006E0005FEA027C24BFB1E81850A0E8185044BF6C
:1006F00018C918C0BDE810405FEA827C24BF51F8D9
:10070000043B40F8043B08BF7047D20728BF31F8CC
:10071000023B48BF11F8012B28BF20F8023B48BF1D
:1007200000F8012B704702F0FF0343EA032242EA7C
:10073000024200F0F6BB4FF0000200B513469446AB
:100740009646203922BFA0E80C50A0E80C50B1F129
:100750002001BFF4F7AF090728BFA0E80C5048BF3D
:100760000CC05DF804EB890028BF40F8042B08BFDB
:10077000704748BF20F8022B11F0804F18BF00F8D7
:10078000012B704710B5044610F0030F08BF11F09D
:10079000030F40F015804FF0013E121FC0F20E8093
:1007A00051F8043BA3EB0E0C2CEA030C1CEACE1C04
:1007B00008BF40F8043BF0D0A1F1040102F10402AB
:1007C000521E08DB11F8013B002B00F8013BF7D16A
:1007D000114600F0A4FB204610BD00004FF0013C84
:1007E00050F8042B51F8043B9A4221D1A2EB0C03A0
:1007F000934313EACC1317D150F8042B51F8043B60
:100800009A4215D1A2EB0C03934313EACC130BD1FC
:1008100050F8042B51F8043B9A4209D1A2EB0C0387
:10082000934313EACC13DBD04FF00000704700BFB6
:10083000D01A01BAB1FA81F101F0180122FA01F0DF
:10084000CB40C1F12001DBB2C0B2C01A2CFA01F3D7
:10085000D11A914311EAC311E6D17047704770472E
:100860007047000000487047008A002010B5FFF76D
:10087000F9FF006810BD10B50446FFF7F3FF0460F0
:1008800010BD2DE9F0470D4699469246044600F109
:1008900024080168880604D5E06921F01001216070
:1008A00000E00120A84201DD471B00E00027A1690C
:1008B0007A1902EB0900081AA0612078C00602D458
:1008C0002046FFF71BFD002608E0D4E901211AF8B5
:1008D00006009047206A401C761C20624E45F4DBDF
:1008E0002078C0060AD52046FFF708FD06E0D4E9C7
:1008F000012130209047206A401C2062381EA7F159
:100900000107F4DC07E0D4E9012118F8050090475D
:10091000206A401C2062281EA5F10105F3DC204658
:10092000FFF702FD2078000602D50220BDE8F0871F
:100930000120FBE770472DE9FF4F0C461E464FF0A4
:10094000FF378BB0D2E90001DDF860800A908A465B
:10095000C1F30A5505B93D46002108464FF0000095
:10096000BAF1000F00F4400005DA00EB80004FF40C
:10097000400101EA50004FEA9059B9F1010F00DD42
:10098000B9460A9850EA4A000ED044F61050A5F233
:10099000FF3545432F14B8F1000F1ED07542291EB4
:1009A0001EDDC9F100021CE0B8F1010F4FF000009C
:1009B00001D0302103E0F24305E02154401CB04255
:1009C000FBDB30460022002121540B99C1F808803E
:1009D000C1E900200FB0BDE8F08FBD1B6D1CDEE744
:1009E0004A4600DA694206A800F0CAFB06AB93E863
:1009F000070003AB83E8070050460A9901F030F97D
:100A00008DE80700A0F500501F3800900398002DD6
:100A10000ADD42F21F014A460844002303A903905D
:100A2000684601F0DBFB09E0A0F500504A461F389C
:100A3000002303A90390684601F0FAFB8DE8070044
:100A40000004000C03D04FF0FF30410800E01046D6
:100A5000B8F1000F03D00022009215461EE0751E6B
:100A600005D400F08FFA303262556D1EF9D5B346C9
:100A70000122084302D000227F1C04E020783028A5
:100A800001D100227F1E002A099784D01DE0112D7C
:100A900007DA00F077FA303262556D1C50EA010235
:100AA000F5D1084302D00098C8B10EE00021681EBD
:100AB00005E0235C625C63542254401E491C814261
:100AC000F7DBAB46A81B401E0990002004F80B0082
:100AD0000B98099AC0F80880C0E9002B7AE7112624
:100AE0004FF0000857E72DE9F04F88460446D21D25
:100AF00022F0070191B0D1E90001CDE90A0124F00B
:100B00003DFA02460B98C00F01D02D2007E0206867
:100B1000810701D52B2002E0202101EAC000032A31
:100B2000099001D0072A05DB03464146204600F024
:100B300077FA0BE12078800601D5E06900E0062015
:100B4000B8F1650F814606D0B8F1660F18D0B8F13C
:100B5000670F70D131E00020B9F1110F009001DB77
:100B6000112301E009F101030AAA01A90CA8FFF76A
:100B7000E2FEDDE90C70002609F10105834647E03D
:100B800001204B4600904FF000470AAA01A90CA88B
:100B9000FFF7D1FEDDE90DB00C995D46002610B9D6
:100BA00009F101000D18B9EB050003D4C0F1FF36BF
:100BB00009F10105A5EB09002BE0B9F1010F01DAFC
:100BC0004FF001090020B9F1110F0090484601DDF6
:100BD000112300E003460AAA01A90CA8FFF7ABFE07
:100BE000DDE90C704D4600268346207800070AD4C4
:100BF000AB4500DA5D4601A8012D04DD411911F86D
:100C0000011C302907D04F4502DA17F1040F04DA2E
:100C1000012082460FE06D1EEEE7002F02DCED1B87
:100C20003E4403E0781CA84200DD7D1CB81B00F1A7
:100C3000010A4FF000472078000703D4AA4501DBE2
:100C40004FF0FF3A0021B7F1004F0DF143088DF846
:100C5000431024D002202B23002F01DA7F422D23C2
:100C60000A21021EA0F1010000DC5FB197FBF1FC3C
:100C700097FBF1F201FB1C7C17460CF1300C08F8D5
:100C800001CDEEE7A8F1010003702188090501D527
:100C9000452100E06521A0F1010800F8011C099838
:100CA0000FA9A1EB0807FF1D00B10120411901EBBD
:100CB000EA70A1693844081A401EA0612078C00675
:100CC00002D42046FFF71AFB099828B1D4E9012184
:100CD0009047206A401C20622078C00622D520461A
:100CE000FFF70CFB1EE0002E04DBB34502DD01A87C
:100CF000805D00E03020D4E901219047206A401C4B
:100D00002062761CAAF101005FEA000A0AD100F015
:100D100035F9C0680168405CD4E901219047206A38
:100D2000401C2062281EA5F10105DCDC07E0D4E9A7
:100D3000012118F8010B9047206A401C2062381EE0
:100D4000A7F10107F3DC2046FFF7EEFA032011B00C
:100D500041E6000001694A1C02610878704700B54D
:100D60008FB0CDE901310021059105497944CDE9E4
:100D7000031011466846FFF725FB0FB000BD0000C9
:100D8000E5FFFFFF0A6802F8010B0A6070470000E8
:100D90000FB4002300B589B00CA900910B99CB606A
:100DA000214B7B440693214B7B44079304236FF034
:100DB0000042CDE901321E4A7A446B46089202464F
:100DC00000202BF055FD09B05DF814FB70B5064608
:100DD0004FF0FF3015460C46324686B00091CDE903
:100DE000010169460020049004A8FFF7D1FF0246E4
:100DF0000498211825B108B1084600E02046286073
:100E0000049800280DD0002A02DD0098884208D0FE
:100E10003246081B69460094CDE9010404A8FFF797
:100E2000B7FF06B070BD0000FB0200001303000016
:100E3000530200002DE9F04791460F4680460446D4
:100E4000002614F8015B2DB100F090F80068405DB9
:100E5000C007F6D12B2D02D02D2D18D0641E4A4686
:100E60003946204600F03CF927B13968A14201D14A
:100E7000C7F800804FF0020471050BD540420028EE
:100E800003DDFFF7EFFC0460A007BDE8F08746F440
:100E90008066E4E70028F8DAFFF7E4FC04606FF00E
:100EA0000040F2E7431A28BF9A427FF60AAC10448A
:100EB00010F0030F11441EBF11F8013D521E00F83F
:100EC000013D10F0030F7FF4F6AF103AC0F00A8036
:100ED00010B531E91850103A20E91850BFF4F9AFB5
:100EE000BDE81040530724BF31E9081020E908107D
:100EF00044BF51F8043D40F8043D12F0030F08BF11
:100F00007047D20728BF31F8023D48BF11F8012CC5
:100F100028BF20F8023D48BF00F8012C70474FF071
:100F200000020429C0F0128010F0030C3FF405AC5D
:100F3000CCF1040CBCF1020F18BF00F8012BA8BFC4
:100F400020F8022BA1EB0C01FFF7F7BB5FEAC17C95
:100F500024BF00F8012B00F8012B48BF00F8012B3B
:100F60007047000000487047008A002010B500F06C
:100F700005F8001D10BD00BF2DAC020000487047F1
:100F8000208A002030B5B0F10A024FEA900E71F1CC
:100F900000034EEA817EB0EB0E0061EB91014FEA57
:100FA000101E4EEA017E10EB0E0041EB11114FEACC
:100FB000102E4EEA016E10EB0E0041EB11214FEAAC
:100FC000104E4EEA014E10EB0E0041EB114140185D
:100FD00041F100014FEAD00040EA41704FEAD101EF
:100FE00010EB80054FEA810444EA907444EB01045D
:100FF0006D1944EB0404521BA3414FF0000348BF9A
:101000000A3200D530BD401C41F1000130BD10B5A1
:101010000446FFF7ABFF0068005D00F0010010BD63
:101020002DE9F0411F46044603260168072A01F412
:10103000006004DB08B116A505E016A503E008B1C1
:1010400015A500E015A521F010002060A069C01EC4
:10105000A0610FB1401EA0612046FFF74FF94FB1CC
:10106000D4E9012138469047206A401C2062C01C08
:10107000206206E0206AFAE7D4E9012115F8010BA5
:101080009047761EF8D22046FFF74EF9BDE8F08172
:101090004E414E006E616E00494E4600696E66001C
:1010A000426842B1016811F8013B23B1521EC0E908
:1010B0000012184670470121C160881E70474268BF
:1010C0005AB1C368016843B983688B4205D0491E91
:1010D000521CC0E90012002070474FF0FF307047EB
:1010E0002DE9F05F824615468B4600270AF1010480
:1010F000B9460078302801D09DB113E014F8010BF7
:101100000127782803D0582801D045B10AE00DB155
:10111000102D07D1002714F8010B102502E0082537
:1011200000E00A250026B0460EE005FB080005FB9E
:1011300006F101271FFA80F801EB1046B6F5803F53
:1011400000D3B94614F8010B294600F0B0F8002886
:10115000EBDABBF1000F05D00FB1641E00E054467E
:10116000CBF80040B9F1000F06D0FFF77BFB02215E
:101170000160C81EBDE8F09F48EA0640FAE700009B
:101180002DE9F047814616468AB0354878440DC8A7
:101190008DE80D0032487844801C03AC0DC884E80B
:1011A0000D0041F69B300844372190FBF1F290FB93
:1011B000F1F5A5F1800501FB12041B3C02D5644248
:1011C000012000E00020DFF898A080460027FA44C4
:1011D000AAF1BE0A0EE0E0070AD03246684607EBE5
:1011E000470101230AEB810101F022F88DE8070095
:1011F00064107F1C002CEED1194F7F44AE3F19E0E4
:10120000E80715D007EB04100DF1180A90E80E005E
:101210008AE80E00C068F04201D198190890324661
:10122000012306A903A801F003F803AB83E8070034
:101230006D10641C002DE3D14FF001033246694666
:10124000B8F1000F03A802D000F0C8FF01E000F0E1
:10125000EFFFC9E90001C9F808200AB0BDE8F0872E
:1012600078B403007546FFF77DFEAE46050069467B
:10127000534620F00700854618B020B5FFF718F850
:10128000BDE820404FF000064FF000074FF0000887
:101290004FF0000B21F00701AC46ACE8C009ACE808
:1012A000C009ACE8C009ACE8C0098D4670473A28CF
:1012B00000D2303820F02002412A01D3A2F13700B9
:1012C000884201D34FF0FF30704700002DE9FF4FF7
:1012D00006468BB00878FF2806D0491C2D2805D07B
:1012E00000244FF0000908E000200CE00124F8E79A
:1012F00009EB8903491C00EB43090878FF28F7D163
:1013000014B1C9F100008146107800252C46AA4688
:1013100029462D2801D02B2804D1521C2D2813D06A
:10132000002082468B461078FF280FD04FF0000C2B
:101330000A21521CA5FB017804FB018105FB0C115D
:10134000C5194BEB0104EEE70120EAE7002108464E
:101350004FF00000BAF1000F02D000EB800040080F
:10136000C0F38157012F01DD4FF0FF370E9955EA89
:10137000040009EB01080BD04FF0020918F5FA7FC1
:1013800016DA4FEACA70002F706008DD012007E00E
:101390004FEACA70C6E900B00FB0BDE8F08F002078
:1013A0003060FFF75FFAC0F800901821084616E099
:1013B000B8F5FA7F18DD002F02DAF748784401E02B
:1013C000F6487844D0E90010C6E9001040EACA7037
:1013D0007060FFF747FAC0F80090142108460FB07C
:1013E000BDE8F04F2BF0DFB9002108464FF00000B8
:1013F000B8F10001099002DAC7F1000200E03A46B4
:1014000001DAC8F1000106A8FFF7BAFE06AB93E8BF
:10141000070003AB83E8070044F23E005BEA0401E7
:101420000090584604D144F21E012C465D460091BE
:10143000210C0904014306D10099240444EA15440F
:101440002D041039009104F07F41014306D1009929
:10145000240244EA15642D020839009104F0704119
:10146000014306D10099240144EA15742D01091F96
:10147000009104F04041014306D10099A40044EAE0
:101480009574AD00891E009104F00041084304D119
:1014900000986D196441401E00904FF001033A46D8
:1014A0006846B8F1000FCDE9014503A902DD00F05F
:1014B000D4FE01E000F0A7FEBAF1000F04460D468D
:1014C00001D084F00044002108464FF00000099943
:1014D00040F2FF77484010F00C0F07D124F0004095
:1014E000284303D0C4F30A50B84212D1FFF7BAF927
:1014F000C0F80090C4F30A50B8420AD1A848784412
:10150000D0E90010C6E9001004F000410843706003
:1015100042E7C6E900543FE72DE9FF4F1F464FF071
:10152000000A4FF0FF38454691B0D7E90146CDF8A3
:101530003CA0FFF723FDC0680168405C1090B969CA
:1015400012986D1C8847396A814688470028F6D171
:10155000B9F1FF3F0AD0002E24F4D06411DDB9F1B7
:101560002B0F08D0B9F12D0F0BD102E0404615B07A
:1015700013E744F48064B96912986D1C8847761E9D
:101580008146600504A901D52D2000E02B20002E06
:1015900001F1010B0DF130088DF810003FDDB9F1BC
:1015A000690F08D0B9F1490F05D0B9F16E0F02D01B
:1015B000B9F14E0F1CD13B4601A8009580E85002BE
:1015C000DDE912126FF002002BF056F9C11CCED1EA
:1015D0000EE0B96912986D1C884781461398761EF3
:1015E00044F4007405600F98401C002E0F9016DD27
:1015F000B9F1300FEDD0B9F1780F02D0B9F1580F31
:101600000DD10F9801280AD13B46CDE90054DDE900
:101610001212001F02962BF02DF9C11CA7D11099B0
:1016200089453ED144F0800406E01399681CAAF174
:10163000010A44F400740860B9696D1C1298761EA2
:10164000884730288146F0D02BE01099894505D194
:10165000200603D4761E44F0800418E0484629F0A2
:101660006DFB08B3761E0DF123018B4544F4007425
:1016700008D2A9F130000BF8010B200607D5AAF11A
:10168000010003E0200602D40AF101008246A00511
:1016900002D51399681C0860B96912986D1C8847B7
:1016A0008146002ED1DC53E0002E51DDB9F1650FEB
:1016B00002D0B9F1450F4BD1A00549D5B9696D1CD0
:1016C0001298761E24F440748847002E81460CDD63
:1016D0002B2804D0B9F12D0F07D144F48074B969D7
:1016E00012986D1C8847761E8146E00501D52D2194
:1016F00000E02B2108F8011BCDF8008021E0761EC8
:101700000DF13901884544F400740CD2A9F1300080
:1017100010F0FF0088F8000002D10099884509D92F
:1017200008F1010806E0E00501D51E4801E042F29B
:101730000F708246B96912986D1C884781461398CC
:101740000560002E04DD484629F0F8FA0028D6D1BD
:10175000F96912988847FF2053468BF8000088F8F3
:10176000000000200A900B9004AA0CA90AA8FFF719
:10177000ADFDA00502D46FF00100F8E614F0240FCF
:1017800012D0E0071CD13868DDE90A12031D3B6066
:101790000068C0E9001213E0C4B20300B6B203004F
:1017A0007AB10300F1D8FFFF0AA9684623F038FE9A
:1017B000E00705D13868009A011D396000680260B1
:1017C0002846D4E610B50446AFF300802046BDE8B5
:1017D0001040FEF758BD00002DE9FF4F1F464FF0A7
:1017E0003C0987B04FF00042DDE9141001F1010817
:1017F000DDF858A002EA405003900020059083468F
:10180000054604460490B969461E08988847AAF11F
:10181000010A0290BAF1000F3BDD02982E2815D084
:101820001021FFF744FD00282EDB4FF0010B059936
:10183000014317D0B9F1000F0BDB4A46C11700F086
:10184000FBF905430C43A9F1040905E001200490CC
:101850000BE008B145F0010501200590049820B97E
:10186000361D02E0049800B1361FB969089808F1E6
:1018700001088847BBF1000FAAF1010A0290C9D004
:101880000999C1F80080C5E70298702808D050284F
:1018900006D0F96908988847BBF1000F14D04FE0D3
:1018A000002002900120BBF1000F049009D0B9691B
:1018B000089808F101088847AAF10109B9F1000F59
:1018C00007DCF969089888476FF001000BB0BDE8A4
:1018D000F08F2B2804D02D280CD14FF0FF3004902E
:1018E000B969089808F101088847A9F10109B9F117
:1018F000000FE6DD411CE4D00A21FFF7D8FC0028E8
:10190000DFDB029908F1010801EB810100EB4100E6
:101910000290B969089888470A21FFF7C8FC099A1C
:10192000A9F10109B9F1000FC2F8008001DD00281A
:10193000E7DAF969089888470499029800FB01667C
:1019400055EA040004D004F04041090002D006E04A
:10195000039898E0A40044EA9574AD00B61E04F024
:101960000041080002D16D196441761E159810F0EF
:10197000240F03D04FF00B095C4803E04FF0280917
:101980006FF07D008246564507DAAAEB06018944CE
:10199000B9F1410F01DD4FF0410901200021A9F10A
:1019A000010200F049F9024628400B462140084355
:1019B00001D0012100E00021501E029143F1FF31CE
:1019C00028402140084301D0012000E00020029976
:1019D000834651EA0B014FD0002108464FF000002A
:1019E000039900F4400039B100EB80004FF440014E
:1019F00000EBD07001EA60008015012802DD4FF095
:101A0000FF3000E013D0401C36D0029860B3BBF129
:101A1000000F0CD14A460120002100F00DF92840AA
:101A20002140084301D0012000E00020E0B1012066
:101A30004A46002100F000F9034640190A46614178
:101A40002D1A8C4111D3B9F1400F09DD159810F012
:101A5000240F02D0AAF1340603E0AAF1170600E031
:101A6000761C00254FF0004406E05B1E42F1FF3279
:101A700020EA030521EA0204CAF10100B04206DAB5
:101A80001B49039808430190002000900EE0039A40
:101A9000C4F3D321E80A0A43164940EA44500A43F2
:101AA0003146CDE90002684623F0C3FC159810F0DA
:101AB000240F0BD01598C00715D13868DDE9001246
:101AC000031D3B600068C0E900120CE002A86946F3
:101AD00023F0A6FC1598C00705D13868029A011DAD
:101AE0003960006802604046F0E6000002FCFFFF3B
:101AF0000000F07F0000F03F2DE9FF4F92461D46A9
:101B000085B04FF00041DDE9124BDDE914727F1E14
:101B100001EA4B50414940F0FF4940EA01080021E9
:101B200022F020004928049102D04E2828D04CE011
:101B30003BA0012607C88DE80700A9690698641C28
:101B400088477F1E014606D41DF8060018B121F013
:101B5000200181420BD0E96906988847032E34D0D2
:101B6000082E32D06FF0010009B0BDE8F08F761C6E
:101B7000032E01D0082EE0D1601CCAF80000DCE77B
:101B8000A9690698641C88477F1E2AD420F020008B
:101B9000412826D1A9690698641C88477F1E20D455
:101BA00020F020004E281CD1A9690698641C8847A3
:101BB0007F1E48F4002849F48009CAF8004001D487
:101BC000282806D0E969069888475FEACB7012D0CA
:101BD00022E0A9690698641C88477F1E01D400286A
:101BE00003DAE96906988847BCE72928F1D1641C23
:101BF000CAF80040E9E71BF0240F07D028680499D1
:101C0000031D2B600068C0E9001805E02868021D6C
:101C10002A600068C0F800902046A5E70000F07F29
:101C2000494E46494E4954590000000001491820C8
:101C3000ABBEFEE726000200B2F120030AD5C2F1D6
:101C4000200301FA02F120FA03F300FA02F041EA5C
:101C50000301704700FA03F14FF00000704770472E
:101C60005FEA400C08BF91F0000F4FEA8C234FEA67
:101C7000C12243EA51514FEA1C5018BF00F5F04011
:101C80004FEA300018BF41F000415FEA6C5C00F0A1
:101C90002980BCF1FF3F08BF40F080407047130C23
:101CA00006BF12044FF0100C4FF0000C130E04BFCF
:101CB00012020CF1080C130F04BF12010CF1040CFA
:101CC000930F04BF92000CF1020CD30F04BF52001B
:101CD0000CF1010C11464FF00002A0F11F00A0EB27
:101CE0000C00704711F0004F08BF704731F0004101
:101CF0003FF4D5AF0B0C06BF09044FF0100C4FF0AA
:101D0000000C0B0E04BF09020CF1080C0B0F04BFF2
:101D100009010CF1040C8B0F04BF89000CF1020CBB
:101D2000CB0F04BF49000CF1010CCCF12003A0EB58
:101D30000C0022FA03F302FA0CF241EA030100F16B
:101D40000100704720F07F4C80EA030023F07F47BA
:101D5000ACEB070303F57C5300F0004003F1FF03F5
:101D60002DE980494FEA154B09B44FEA144325EA9F
:101D70000B4E24EA03480FF2042606EB132749080A
:101D80003E785FEA320203FB0667C7F5000707FBF0
:101D900006F64FEA54374FEAD64606F1020607FB2D
:101DA000066CCCF1005C4FEA1C472CEA074C07FBA1
:101DB00006F40CFB06F504EB15464FEA961634BF05
:101DC00000204FF000404FEAD13706FB07FC4FEAF6
:101DD0001C4C0CFB0BF7D21B03FB0CF761EB070150
:101DE0000CFB0EF7B0EB074072EB17420CFB08F749
:101DF00034BFA2EB0742B2EB074261EB17414FEA57
:101E00000C444FEA910706FB07FC4FEA1C4C0CFB05
:101E10000BF7B0EBC74072EB573203FB0CF734BF44
:101E2000A2EBC742B2EBC74261EB57310CFB0EF796
:101E3000B0EBC70072EB57720CFB08F734BFA2EB94
:101E4000C702B2EBC70261EB5771039F4FEA816192
:101E500041EA921104EBCC044FEAD1374FEA826297
:101E600006FB07FC42EA90124FEA80604FEA1C4CE6
:101E70000CFB0BF7D21B03FB0CF761EB07010CFB10
:101E80000EF7B0EB074072EB17420CFB08F734BFBC
:101E9000A2EB0742B2EB074261EB17414FEA8C55C8
:101EA0004FEA910704EB9C2406FB07FC4FEA1C4C0D
:101EB0000CFB0BF7B0EBC74072EB573203FB0CF790
:101EC00034BFA2EBC742B2EBC74261EB57310CFB08
:101ED0000EF7B0EBC70072EB57720CFB08F734BF7C
:101EE000A2EBC702B2EBC70261EB577115EB4C25B1
:101EF0004FEA816141EA92114FEA82624FEAD1379B
:101F000042EA901206FB07FC44F100044FEA8060AD
:101F10004FEA1C4C0CFB0BF7D21B03FB0CF761EBDD
:101F200007010CFB0EF7B0EB074072EB17420CFBFE
:101F300008F734BFA2EB0742B2EB074261EB17414F
:101F400015EB1C154FEA813141EA92414FEA82328A
:101F500042EA90424FEA80304FEA0C7644F10004A6
:101F600048EA03434EEA0B484FF0000EB2EB080C70
:101F700071EB030724BF624639464EEB0E0E4FF05D
:101F8000000B0018524149414BEB0B0BB2EB080C14
:101F900071EB03077BF1000B24BF624639464EEB21
:101FA0000E0E4FF0000B0018524149414BEB0B0B4A
:101FB000B2EB080C71EB03077BF1000B24BF624608
:101FC00039464EEB0E0E51EA020718BF46F00106E5
:101FD00016EB0E7655F1000254F1000103D5BDE871
:101FE0008901BDE80088BDE88901BDE80048B6194F
:101FF000524141EB0101A3F10103704780807F7ED4
:102000007D7C7B7A7978777676757473727171706E
:102010006F6E6E6D6C6C6B6A6A6968686766666520
:102020006464636362616160605F5F5E5E5D5D5CAE
:102030005C5B5B5A5A59595858575756565555551F
:102040005454535352525251515050504F4F4F4E7F
:102050004E4D4D4D4C4C4C4B4B4B4A4A4A494949CD
:10206000484848474747474646464545454444440F
:1020700044434343434242424241414146EA0646C9
:10208000A3F570534FEA164646EA42564FEAD2226B
:1020900042EA415210B54FEAD121A3F1010300F009
:1020A0002FF820F0004000F1020C00F0004701EB97
:1020B00000501146BCF5006F40EA070000D210BD89
:1020C000BAF1000F0AD01CB503B44FF004004FF072
:1020D00004014FF000000FBCBDE810404FF00001BC
:1020E000BBF1010FB9BF04484FF0FF310348002195
:1020F00040EA070010BD00BFFFFFEF7F0000F07F48
:10210000002B9C4630D477002BD01CB54FEA370704
:1021100003B44FF010004FF01001BAF1000F06D0D9
:10212000BCF1000FDCBF40F0080040F008014FF0A8
:1021300000000FBCBDE810400BF1010BBBF1010F1B
:1021400008BF5FEA170722BF12F1010211F1010176
:102150004FF0004143F1000300F0004043EA00006B
:102160007047F9D35708D0E746EA064613F1400F07
:102170004FEA16461FDD13F1200FDFBF16430A4654
:10218000002120335B42BED0C3F1200746EA064659
:1021900002FA07F74FEA164646EA0706C3F1200798
:1021A00022FA03F201FA07F721FA03F14FF00003D4
:1021B00042EA0702A7E746EA020646EA06464FEA6F
:1021C000164646EA0106BCBF46EA0646360C4FF004
:1021D00000034FF000024FF0000194E72DE9804C1E
:1021E0009A46934670B491E8380007C831EA400C2B
:1021F00048BF34EA430C03D5FFF7A4FDFFF780FF87
:10220000F0BCBDE8008C2DE9804C9A46934670B432
:1022100091E8380007C831EA400C48BF34EA430C63
:1022200003D5FFF78FFDFFF729FFF0BCBDE8008C59
:102230002DE9804C9A46934670B491E8380007C85F
:1022400010F0804F08BF13F0804F03D100F01AF850
:10225000FFF756FFF0BCBDE8008C2DE9804C9A4694
:10226000934670B491E8380007C810F0804F08BF5B
:1022700013F0804F03D100F005F8FFF7FFFEF0BC2C
:10228000BDE8008C20F07F4780EA030023F07F4CFC
:1022900007EB0C03A3F57C5300F00040A3F1FE0311
:1022A00092F0000F00F0B38095F0000F00F07780FF
:1022B0002DE901494FEA11404FEA144621EA00484E
:1022C00000FB06FC24EA064708FB06F607FB08F8B5
:1022D00000FB07F718EB06484CEB164C4FEA124B85
:1022E00018EB07484FEA15464CEB174022EA0B4E15
:1022F0000BFB06FC25EA06470EFB06F607FB0EFE67
:102300000BFB07F71EEB064E4CEB164C4FF000068E
:102310001EEB074E4CEB174B18EB0B0840F100007F
:1023200018EB0E0B58EB000840F100008F1A4FF02D
:1023300000013CBFC943661B14BFB5EB040C002170
:102340003CBFC943F61B4FEA17444EEA8E0E27EAFC
:1023500004454FEA1C4704FB07622CEA074C05FBC7
:1023600007F70CFB05F604FB0CFC16EB074642EBEB
:10237000174216EB0C4642EB1C421BEB060658EBD1
:102380000202414146EA9E0601D5BDE80189B6191F
:10239000524141EB0101A3F10103BDE801894FEA7C
:1023A00014454FEA114724EA054621EA074C05FB8C
:1023B00007F406FB07F70CFB06F105FB0CFC11EB21
:1023C000074144EB17444FEA124711EB0C4144EB31
:1023D0001C4422EA074C05FB07F206FB07F70CFB3F
:1023E00006F605FB0CFC16EB074642EB174216EB14
:1023F0000C4642EB1C456A1854F1000148BF704777
:10240000B619524141EB0101A3F10103704795F068
:10241000000F37D04FEA11424FEA144721EA024633
:1024200024EA074C02FB07F106FB07F70CFB06F456
:1024300002FB0CFC14EB074441EB17414FEA154734
:1024400014EB0C4441EB1C4125EA074C02FB07F559
:1024500006FB07F70CFB06F602FB0CFC16EB074627
:1024600045EB174516EB0C4645EB1C42121951F192
:10247000000148BF7047B619524141EB0101A3F179
:10248000010370474FEA14454FEA114724EA054615
:1024900021EA074C05FB07F106FB07F70CFB06F2E8
:1024A0004FF0000605FB0CFC12EB074241EB174115
:1024B00012EB0C4251EB1C4148BF7047921841EBA4
:1024C0000101A3F10103704708B54FF47A70009041
:1024D00003E0BDF80000401E0090BDF80000002899
:1024E000F7D108BD2DE9F04188B00121080311F0B2
:1024F00089FC02278DF81D7001268DF81C600024D0
:102500008DF81E4040200690DFF8A08006A94046C6
:1025100005F014FE382506958DF81C708DF81E40C8
:1025200003208DF81D008DF81F6006A9404605F0B8
:1025300005FE05220321404605F03EFE052204214A
:10254000404605F039FE05221146404605F034FEAE
:102550004021404605F049FEFFF7B6FF40214046C6
:1025600005F041FEADF804404FF48270ADF806006E
:10257000F002ADF80800ADF80A40ADF80C4080104C
:10258000ADF80E00ADF81050ADF812400720ADF8D0
:102590001400074C01A9204613F061FE01212046DA
:1025A00013F046FE08B0BDE8F081000000040240D0
:1025B0000030014070B588B0002507956A4C16E0E0
:1025C0009DF81C10012013F007FE9DF81C1024F844
:1025D0001100A0880290E088049060890390A0898F
:1025E0000190E08900909DF81C00401C07909DF828
:1025F0001C000828E4D3BDF810305C4A1078411C58
:102600001170410058481030435211783C2918D1BC
:102610001570059506950AE09DF8181030F8111010
:10262000059B194405919DF81810491C06919DF8C9
:1026300018103C29F0D305983C21B0FBF1F04C492F
:102640000860BDF80C305078411C5170410046487C
:102650008830435251781E231E2917D15570059595
:1026600006950AE09DF8181030F81110059C2144D9
:1026700005919DF81810491C06919DF818101E2907
:10268000F0D305983B49B0FBF3F00880BDF8044057
:102690001079411C1171410037484452117964246A
:1026A000642917D11571059506950AE09DF8181053
:1026B00030F81110059E314405919DF81810491C01
:1026C00006919DF818106429F0D305982B49B0FBAA
:1026D000F4F00880BDF808609078411C91704100CA
:1026E0002148EC3046529178642900D195700595C7
:1026F00006950AE09DF8181030F81110059E314437
:1027000005919DF81810491C06919DF81810642930
:10271000F0D305981A49B0FBF4F00860BDF800400A
:10272000D078411CD170410013483C384452D178D4
:102730001E2917D1D570059506950AE09DF8181049
:1027400030F81110059A114405919DF81810491C94
:1027500006919DF818101E29F0D305980949B0FB81
:10276000F3F0088008B070BD800C0020310100201B
:102770006400002062000020700E0020680000202D
:102780006C0000207000002011B581B00C4C0221BB
:10279000204613F059FD0028F9D0BDF8041020465A
:1027A00013F05BFD0121204613F04EFD0028F9D007
:1027B000204613F050FD0090BDF800001CBD000045
:1027C00000300140F0B59BB001210D02284611F008
:1027D00019FB0121880511F0EBFA40200090032637
:1027E0008DF8046000248DF8074069462B4805F0F9
:1027F000A5FC02942A4803902A48049005943220AC
:1028000006900794A80008904000099080000A9064
:102810000B9500010C900D9401250E950F941094CA
:10282000214F02A9384602F0B5FD0121384602F0D9
:102830008BFD01221021384602F092FD02F0B0F922
:10284000174F01214C3F384600F070F81194129454
:102850001394149411A800F055F815948DF858505D
:102860008DF85950189419948DF8686015A9384658
:1028700000F074F8002301220621384600F094F895
:102880000121384600F032F8384600F0C7F801213F
:10289000384600F057F81BB0F0BD000000000240C1
:1028A0004C200140C4090020106402400CB50020F7
:1028B000009001900B490AE09DF8040031F81000E7
:1028C000009A104400909DF80400401C01909DF86F
:1028D00004003228F0D300983221B0FBF1F0024915
:1028E00008800CBDC409002060000020002904D02D
:1028F000816841F0010181607047816821F0010128
:102900008160704710B5074C226807490A40D0E93A
:1029100000131943D0E902300343194311432160E6
:1029200010BD000004230140E030FCFF002904D06A
:10293000816841F4807181607047816821F4807101
:1029400081607047002904D0816841F40071816082
:102950007047816821F400718160704730B542682A
:102960000F4B1A400C790B6842EA04221343436070
:1029700083680C4A1340D1E9034222434D798C68A5
:1029800044EA450422431A438260C26A22F4700278
:10299000097D491EC9B242EA0151C16230BD000041
:1029A000FFFEFFFCFDF7FFC070B5072609290AD915
:1029B000C568A1F10A0404EB4404A640B543A34052
:1029C0001D43C56007E0056901EB4104A640B5431E
:1029D000A3401D4305611F23072A09D2446B521EE1
:1029E00002EB820293409C4391400C43446370BDD0
:1029F0000D2A09D2046BD21F02EB820293409C4342
:102A000091400C43046370BDC46A0D3A02EB82022C
:102A100093409C4391400C43C46270BD816841F077
:102A2000804181607047002800DC40427047417857
:102A3000007841EA0020704710B50C480078400645
:102A400012D40B4C206841070ED5020609484FF4FA
:102A5000007103D4BDE8104005F0C7BB05F0C3FB0F
:102A6000206820F00400206010BD00004400002019
:102A70003C000020000802400549086840F00400BE
:102A8000044B00221A8020F080000860704700008C
:102A90003C0000207A00002038B545680446014615
:102AA000284618F007F800282AD02068304A0F2856
:102AB00019D006DC0B2824D00C2810D00E2851D1B8
:102AC0002FE0112802D028284CD145E09268002A36
:102AD00016D02146284601B0BDE8304010472146B7
:102AE00028465268F7E7284606F0C6FA0090406E7E
:102AF0000468684606F00AFB002C01D02846A0476F
:102B000038BD284606F0B8FA0090683006F01CFA86
:102B1000009803216C3006F01FFA684606F0F6FABA
:102B200020E0E168486809680D2902D0202913D106
:102B300005E0002810DD28461FF038F806E00028E0
:102B400004DD2846BDE838401FF030B82846BDE80F
:102B5000384002211FF040B8E06818B9002128462B
:102B600000F097F92046BDE8384018F017BC000087
:102B7000A4020020F0B5044685B08069B4F908507D
:102B8000668A0027CDE90265CDE900170490B4F903
:102B90000C00B4F91060C118B4F90A00B4F90E5071
:102BA000104433462A4600F007F80546616800F0F5
:102BB00079F905B02846F0BDF0B585B00C46DDE9E1
:102BC0000D514C31DFF850C0DDE90A67CDE902C193
:102BD0002146CDE9006718F031FB040018D006F05B
:102BE0004BFA10222946049018F088F904983022F4
:102BF0000A493430FDF765FD084D04990C3D2868FD
:102C0000486604A806F082FA28684168204688478A
:102C100005B02046F0BD0000992A0008B00200204F
:102C2000F0B5044680688B4989B051F8205060683F
:102C300000287DD0052804D006287AD0122879D122
:102C4000AEE0E86900284FD095E80E008DE80F004F
:102C500004F110010FC908F0E9FC002655F8260020
:102C600007F022FEA169E8690A1A21690144606936
:102C7000304406F0A3FFA169E8690A1A21690144FA
:102C8000E069801B06F09AFFE169E8690A1A616948
:102C900001442069304407F04DF8E169E8690A1AF7
:102CA00061690144A069801B07F044F8761C022E7C
:102CB000D4DBA86807F0F8FDE069E9696669431AA2
:102CC00020694218521E3144801C07F09DF8E169CA
:102CD000E869A2690B1A61690144101A401C921E2E
:102CE00007F092F8EE6913E05FF0000655F8260051
:102CF00007F0DAFDE069831BA069821B6069811916
:102D00002069304406F0D8FF761C022EEEDB022646
:102D1000D5E90301CDE900016169E0690844431088
:102D2000A069891C821B2069304406F0EFFE02E096
:102D300089E012E08AE0D5E90501CDE90001E36907
:102D400060690121184401EB6001A0699B1E821B90
:102D50002069304406F0DAFE78E0206806F08CF94D
:102D60000490206819F04AFB40B1A06808B1002027
:102D700008E00498006F28B1012003E00498406F38
:102D800000B10220049901EB8000C56E04A806F092
:102D9000BDF900231A462846216806F049FC55E093
:102DA000206806F069F90490866EEEB3B0F95C70A5
:102DB000A168D1B3032942D05FF0000100EB81018B
:102DC000406D0C6C07F07AFD204607F06DFD05A8FC
:102DD00007F06AF8BDF81410A88B0144ADF8141080
:102DE000BDF81810081AADF81800BDF81600801CC0
:102DF000ADF81600BDF81A00801EADF81A00049850
:102E00005E30B0F90220B0F9001005A807F0AAFC66
:102E100004A806F07BF9022007F090FD304606F08A
:102E20002BF93A4605A901E00BE006E0079006F011
:102E3000F7FC07A806F06AF908E00121BEE70221C5
:102E4000BCE704A8F6E7206818F09CFF09B0002052
:102E5000F0BD0000F4820308044A034911600449EC
:102E60004A6A486210467047E0020020A40200202F
:102E7000B002002038B50D46040009D006F0FCF879
:102E800000904565684606F041F9204618F07DFD42
:102E900038BD4FF480720029114601D017F094BE5E
:102EA00017F0E6BD2DE9FF410E4605004FF0010485
:102EB0001CD006F0E1F80190876E01A8009706F09B
:102EC00025F93146684608F091FE78B10098002453
:102ED000B84208D0284606F0CFF8019000998166E4
:102EE00001A806F013F9284618F04FFD04B020465B
:102EF000BDE8F081FEE700002DE9F05F7B4C217812
:102F00007B4840F66F0519396F1C82696FF0704677
:102F100040F6770840F6780940F6710A40F6790BDA
:102F20000C2925D2DFE801F0062645642424242458
:102F300083A224C229460546104618F03DFB804670
:102F40003146404614F046FB6FF07F41404614F096
:102F500093FB3946A86918F02FFB054665492846BA
:102F600014F038FB0021284614F086FB1A2020704C
:102F7000BDE8F09F05463946104618F01DFB074690
:102F80003146384614F026FB6FF07F41384614F086
:102F900073FB4146A86918F00FFB054655492846C2
:102FA00014F018FB0021284614F066FB1B2020704B
:102FB000DEE705464146104618F0FEFA0746314660
:102FC000384614F007FB6FF07F41384614F054FB8D
:102FD0004946A86918F0F0FA05464649284614F013
:102FE000F9FA0021284614F047FB1C202070BFE7A7
:102FF00005464946104618F0DFFA0746314638467E
:1030000014F0E8FA6FF07F41384614F035FB514672
:10301000A86918F0D1FA05463649284614F0DAFABC
:103020000021284614F028FB21202070A0E7054647
:103030005146104618F0C0FA07463146384614F09B
:10304000C9FA6FF07F41384614F016FB5946A8695B
:1030500018F0B2FA05462749284614F0BBFA0021B9
:10306000284614F009FB2220207081E705465946C6
:10307000104618F0A1FA07463146384614F0AAFA6D
:103080006FF07F41384614F0F7FA40F67201A869F4
:1030900018F092FA05461749284614F09BFA0021C9
:1030A000284614F0E9FA2420207061E7074640F62C
:1030B0007201104618F080FA80463146404614F0FE
:1030C00089FA6FF07F41404614F0D6FA2946B86974
:1030D00018F072FA05460749284614F07BFA0021D9
:1030E000284614F0C9FA1920207041E7A6010020F3
:1030F000B4010020FFFFBF00F0B52DED028B83B0BF
:10310000B0480178B04A00269FEDB00AB04C0125C6
:103110001929A06938D0DFEDAF0A1A297ED0AE4A4E
:103120001B297CD01C292BD1217C40F678031F1D44
:10313000022975D0217C012922D1D18800EE101AF4
:10314000B8EE400A80EE208A194618F035FAA3A19D
:1031500014F06DFA3946A06918F02EFA054618EEFB
:10316000100A29F0A5FA41EC100BA0A153EC102B8A
:1031700001A8FDF7AFF801A9284614F058FA267403
:1031800003B0BDEC028BF0BD617B40F66F031F1DE9
:10319000012927D0617B0229F2D1D2F8801000EEFC
:1031A000901AF8EE600A80EE808A194618F004FA48
:1031B00090A114F03CFA3946A06918F0FDF90646D2
:1031C00018EE100A29F074FA41EC100B8DA153ECA3
:1031D000102B01A8FDF77EF801A9304614F027FA5C
:1031E0006573CDE7D16F00EE901AF8EE600A80EEBD
:1031F000808A194618F0E0F984A114F018FA3946CB
:10320000A06918F0D9F9054618EE100A29F050FA0D
:1032100041EC100B7BA153EC102B02E00AE05CE0C8
:10322000ACE001A8FDF756F801A9284614F0FFF913
:103230006673A5E7A17B4FF407631F1D022927D002
:10324000A17B01299CD1D2F8881000EE101AB8EEAB
:10325000400A80EE208A194618F0AEF96FA114F0EA
:10326000E6F93946A06918F0A7F9054618EE100AE4
:1032700029F01EFA41EC100B5CA153EC102B01A8B5
:10328000FDF728F801A9284614F0D1F9A67377E7CD
:10329000D2F88C1000EE101AB8EE400A80EE208AA8
:1032A000194618F089F961A114F0C1F93946A069ED
:1032B00018F082F9064618EE100A29F0F9F941ECE7
:1032C000100B4AA153EC102B01A8FDF703F801A93C
:1032D000304614F0ACF9A57352E7E17B40F6770372
:1032E0001F1D022926D0E17B0129A2D1118800EE01
:1032F000901AF8EE600A80EE808A194618F05CF9A0
:103300004EA114F094F93946A06918F055F9054614
:1033100018EE100A29F0CCF941EC100B39A153EC4E
:10332000102B01A8FCF7D6FF01A9284614F07FF95D
:10333000E67325E7518800EE901AF8EE600A80EEF9
:10334000808A194618F038F940A114F070F939460E
:10335000A06918F031F9064618EE100A29F0A8F90C
:1033600041EC100B27A153EC102B01A8FCF7B2FF86
:1033700001A9304614F05BF9E57301E7118900EE0D
:10338000101AB8EE400A80EE208A194618F014F997
:1033900032A114F04CF93946A06918F00DF906462F
:1033A00018EE100A29F084F941EC100B0FA153EC30
:1033B000102B01A8FCF78EFF01A9304614F037F955
:1033C0002574DDE6A6010020980B00200000C8420D
:1033D000B401002000007A4438870020E688AAE67D
:1033E000ADA2E794B5E6B58131000000252E336625
:1033F00000000000E8BE93E587BAE794B5E58E8B40
:1034000032000000252E326600000000E8BE93E581
:1034100087BAE794B5E58E8B31000000E99990E515
:1034200088B6E794B5E6B58131000000E99990E5EA
:1034300088B6E794B5E6B58132000000E688AAE6D2
:10344000ADA2E794B5E58E8B31000000E688AAE6D0
:10345000ADA2E794B5E58E8B32000000E688AAE6BF
:10346000ADA2E794B5E6B58132000000F0B52DEDD0
:10347000028B83B0AF480178AF4A9FEDB00AB04CE1
:1034800001250226A069192938D0DFEDAE0A1A29D4
:103490007ED0AD4A1B297CD01C292BD1217C40F643
:1034A00078031F1D002975D0217C012922D1518963
:1034B00000EE101AB8EE400A80EE208A194618F085
:1034C0007BF8A2A114F0B3F83946A06918F074F89B
:1034D000054618EE100A29F0EBF841EC100B9FA1FD
:1034E00053EC102B01A8FCF7F5FE01A9284614F0B7
:1034F0009EF8267403B0BDEC028BF0BD617B40F6F4
:103500006F031F1D39B3617B0129F3D1D2F88410F9
:1035100000EE901AF8EE600A80EE808A194618F0E4
:103520004BF890A114F083F83946A06918F044F8DC
:10353000054618EE100A29F0BBF841EC100B8DA1DE
:1035400053EC102B01A8FCF7C5FE01A9284614F086
:103550006EF86673CEE7D2F8801000EE901AF8EE9F
:10356000600A80EE808A194618F026F883A114F0CC
:103570005EF83946A06918F01FF8064618EE100AE2
:1035800029F096F841EC100B7AA153EC102B02E0D5
:103590000AE05BE0AAE001A8FCF79CFE01A9304626
:1035A00014F045F86573A5E7A17B4FF407631F1D71
:1035B00039B3A17B01299DD1D2F8901000EE101AE9
:1035C000B8EE400A80EE208A194617F0F5FF6FA189
:1035D00014F02DF83946A06917F0EEFF054618EEF5
:1035E000100A29F065F841EC100B5CA153EC102B8C
:1035F00001A8FCF76FFE01A9284614F018F8A6737D
:1036000078E7D2F88C1000EE101AB8EE400A80EE7F
:10361000208A194617F0D0FF60A114F008F8394647
:10362000A06917F0C9FF064618EE100A29F040F805
:1036300041EC100B49A153EC102B01A8FCF74AFEFA
:1036400001A9304613F0F3FFA57353E7E17B40F681
:1036500077031F1D31B3E17B0129A4D1918800EECE
:10366000901AF8EE600A80EE808A194617F0A4FFDF
:103670004EA113F0DCFF3946A06917F09DFF054607
:1036800018EE100A29F014F841EC100B39A153EC94
:10369000102B01A8FCF71EFE01A9284613F0C7FF56
:1036A000E67327E7518800EE901AF8EE600A80EE84
:1036B000808A194617F080FF40A113F0B8FF394601
:1036C000A06917F079FF064618EE100A28F0F0FFFF
:1036D00041EC100B27A153EC102B01A8FCF7FAFDCD
:1036E00001A9304613F0A3FFE57303E7118900EE4B
:1036F000101AB8EE400A80EE208A194617F05CFFD7
:1037000032A113F094FF3946A06917F055FF064621
:1037100018EE100A28F0CCFF41EC100B0FA153EC6F
:10372000102B01A8FCF7D6FD01A9304613F07FFF4E
:103730002574DFE6A6010020980B00200000C84297
:10374000B401002000007A4438870020E688AAE609
:10375000ADA2E794B5E6B58133000000252E3366AF
:1037600000000000E8BE93E587BAE794B5E58E8BCC
:1037700033000000252E326600000000E8BE93E50D
:1037800087BAE794B5E58E8B32000000E99990E5A1
:1037900088B6E794B5E6B58133000000E99990E575
:1037A00088B6E794B5E6B58132000000E688AAE65F
:1037B000ADA2E794B5E58E8B33000000E688AAE65B
:1037C000ADA2E794B5E58E8B32000000E688AAE64C
:1037D000ADA2E794B5E6B581320000002DE9F05FB7
:1037E0007B4C21787B4840F66F056E1C1939F71D1C
:1037F00082696FF0704B40F6780840F6710940F628
:10380000790A0C2926D2DFE801F00627466525252E
:10381000252584A325C229460546104617F0CCFE6F
:1038200006465946304613F0D5FE6FF07F413046CC
:1038300013F022FF40F67201A86917F0BDFE05469D
:103840006549284613F0C6FE0021284613F014FFF0
:1038500024202070BDE8F09F31460646104617F040
:10386000ABFE07465946384613F0B4FE6FF07F4171
:10387000384613F001FF2946B06917F09DFE054652
:103880005549284613F0A6FE0021284613F0F4FE01
:1038900019202070DEE705463946104617F08CFEE9
:1038A00007465946384613F095FE6FF07F4138467B
:1038B00013F0E2FE3146A86917F07EFE0546464940
:1038C000284613F087FE0021284613F0D5FE1A2063
:1038D0002070BFE705464146104617F06DFE0646CC
:1038E0005946304613F076FE6FF07F41304613F0B4
:1038F000C3FE3946A86917F05FFE054636492846DB
:1039000013F068FE0021284613F0B6FE1B2020703D
:10391000A0E705464946104617F04EFE06465946B2
:10392000304613F057FE6FF07F41304613F0A4FE8F
:103930004146A86917F040FE05462749284613F07E
:1039400049FE0021284613F097FE1C20207081E7D5
:1039500005465146104617F02FFE0646594630469A
:1039600013F038FE6FF07F41304613F085FE494674
:10397000A86917F021FE05461749284613F02AFECC
:103980000021284613F078FE2120207062E70546CA
:1039900040F67201104617F00FFE064659463046B3
:1039A00013F018FE6FF07F41304613F065FE51466C
:1039B000A86917F001FE05460749284613F00AFEDC
:1039C0000021284613F058FE2220207042E7000014
:1039D000A6010020B4010020FFFFBF002DE9F04F39
:1039E0002DED068B85B0FE48416E00EE101AB8EE44
:1039F000400ADFEDFC0AC0EE209A816E00EE101A3C
:103A0000B8EE400ADFEDF80A80EE209AC16E006F32
:103A100000EE100AB8EE400ADFEDF20A80EE20AAAE
:103A2000F2480178F24E1939DFF8C89301254FF0BA
:103A300064084FF4076B9FEDF08BF14A0024F14FBF
:103A400090694FF6FF7A102939D2DFE801F008B209
:103A5000FEFD3DE1FCFBFAF9F8F7F6F5F4F340F66C
:103A60006F01174617F0A8FD80466FF07041404681
:103A700013F0B0FD6FF07F41404613F0FDFD40F6BE
:103A80007301B86917F098FD0746DF49384613F00F
:103A9000A1FD0021384613F0EFFD0494DB4906E058
:103AA0009DF810000C549DF81000401C04909DF8E7
:103AB00010000628F4D3CD491D200870357005B0DC
:103AC000BDEC068BBDE8F08F40F67301924617F00F
:103AD00073FD83466FF07041584613F07BFD6FF025
:103AE0007F41584613F0C8FD3878002859D03878FF
:103AF000B0B1029403943A78C449921C02A8FCF72E
:103B000041FE02A821F0D0FA9FEDC11B51EC100B31
:103B100053EC112B28F0A2FB28F00CFBB049C8672E
:103B2000AF48C26F41F638018A4200D9C167C16F00
:103B3000416041688268B1FBF8F15143494500D9C1
:103B40004460406800EE100AF8EE400A9FEDA51AA6
:103B500080EE810A10EE100A28F0AAFD41EC100B4D
:103B6000ADA153EC102B02A8FCF7B4FB02A95846F8
:103B700013F05DFD40F66F01DAF8180017F01CFD38
:103B80008046A149404613F025FD0021404613F030
:103B900073FD96491920087035703C7018F094FE3A
:103BA0008DE79A48FCF7AAFC642148438C49C86712
:103BB000B6E75946154617F0FFFC06466FF0704110
:103BC000304613F007FD6FF07F41304613F054FD8F
:103BD00004948E4906E09DF810000C549DF81000E6
:103BE000401C04909DF810000628F4D340F67401A0
:103BF000A86917F0E1FC04468349204613F0EAFC6B
:103C00000021204613F038FD78491E20087056E741
:103C100040F67401924617F0CFFC01906FF07041AE
:103C2000019813F0D7FC6FF07F41019813F024FD49
:103C300038780BE0DCE245E287E19EE0D0E3A7E2E2
:103C400010E216E3FCE344E34FE166E000285AD0BB
:103C50003878A8B1029403943A786C49D21C02A82F
:103C6000FCF790FD02A821F01FFA53EC182B51EC41
:103C7000100B28F0F3FA28F05DFA5949C1F88800D2
:103C80005748D0F8882042F210718A4201D9C0F812
:103C90008810D0F88810816041688268B1FBF8F123
:103CA0005143494500D98460806800EE100AF8EE5F
:103CB000400A9FED4D1A80EE810A10EE100A28F09E
:103CC000F7FC41EC100B56A153EC102B02A8FCF7AB
:103CD00001FB02A9019813F0AAFC5946DAF8180072
:103CE00017F06AFC80464849404613F073FC0021F7
:103CF000404613F0C1FC3D491A20087035703C70F5
:103D000018F0E2FDDBE64148FCF7F8FB4FF47A716E
:103D100048433349C1F88800B2E740F677011546B9
:103D200017F04AFC06466FF07041304613F052FC23
:103D30006FF07F41304613F09FFC0494334906E056
:103D40009DF810000C549DF81000401C04909DF844
:103D500010000628F4D340F67B01A86917F02CFC6C
:103D600004462949204613F035FC0021204613F073
:103D700083FC1E4925200870A1E640F67B01904691
:103D800017F01AFC81466FF07041484613F022FC90
:103D90006FF07F41484613F06FFC3878F0B1387807
:103DA000B0B1029403943A781849921C02A8FCF727
:103DB000E9FC02A821F078F99FED151B51EC100BDE
:103DC00053EC112B28F04AFA28F0B4F91649088070
:103DD0001548028841F638018A4227E034E00000A5
:103DE000980B00200000C84200007A44A601002081
:103DF0005801002077D403000000000000408F40ED
:103E0000B401002059010020FFFFBF009C010020E9
:103E10000000000000005940252E3266000000001E
:103E2000252E3366000000003887002000D901806D
:103E300098F80F10A1B198F80F1001291AD098F82E
:103E40000F10022920D028E0FE48FCF757FB00EBBA
:103E5000C00101EB00100AEA8001FB480180B7E7CE
:103E600000885FED200A00EE100AB8EE400AC0EEAE
:103E7000209A12E040885FED250A00EE100AB8EEA5
:103E8000400AC0EE209A08E080885FED2A0A00EE22
:103E9000100AB8EE400AC0EE209A19EE900A28F0F7
:103EA00007FC41EC100B53EC102BAFF2940102A86D
:103EB000FCF710FA02A9484613F0B9FB40F6770167
:103EC000D8F8180017F078FB8046E049404613F018
:103ED00081FB0021404613F0CFFBDD491B20087019
:103EE00035703C7018F0F0FCE9E540F678011546B5
:103EF00017F062FB06466FF07041304613F06AFB24
:103F00006FF07F41304613F0B7FB0494CD4906E0D3
:103F10009DF810000C549DF81000401C04909DF872
:103F200010000628F4D340F67C01A86917F044FB82
:103F30000446C649204613F04DFB0021204613F0ED
:103F40009BFBC34926200870B9E540F67C019046EA
:103F500017F032FB81466FF07041484613F03AFB90
:103F60006FF07F41484613F087FB387848B33878C4
:103F7000A0B1029403943A78B249D21C02A8FCF78B
:103F800001FC02A821F090F853EC182B51EC100B17
:103F900028F064F928F0CEF8AB49C880AA48C28856
:103FA00042F210718A4200D9C18098F81010A1B174
:103FB00098F8101001291AD098F81010022920D072
:103FC00028E0A048FCF79AFA00EB4001C1EBC010D2
:103FD0009D490AEAC000C880E0E7C08800EE100AE8
:103FE000B8EE400A5FED800A80EE209A12E0008968
:103FF00000EE100AB8EE400A5FED850A80EE209AC6
:1040000008E0408900EE100AB8EE400A5FED8A0A27
:1040100080EE209A19EE100A28F04AFB41EC100BB2
:1040200053EC102BAFF2082102A8FCF753F902A9B8
:10403000484613F0FCFA40F67801D8F8180017F05B
:10404000BBFA80468149404613F0C4FA002140463D
:1040500013F012FB7E491C20087035703C7018F07C
:1040600033FC2CE540F67901154617F0A5FA064613
:104070006FF07041304613F0ADFA6FF07F4130467B
:1040800013F0FAFA04946F4906E09DF810000C54FE
:104090009DF81000401C04909DF810000628F4D3F1
:1040A00040F67D01A86917F087FA04466749204663
:1040B00013F090FA0021204613F0DEFA644927201D
:1040C0000870FCE440F67D01924617F075FA8046D0
:1040D0006FF07041404613F07DFA6FF07F4140462B
:1040E00013F0CAFA3878E8B33878A0B10294039490
:1040F0003A785449D21C02A8FCF744FB02A820F0ED
:10410000D3FF53EC182B51EC100B28F0A7F828F034
:1041100011F85049C8664F48C06E00EE100AF8EE1C
:10412000400A1FEDCF1A80EE810A10EE100A28F027
:10413000BFFA41EC100B53EC102BAFF21C3102A86C
:10414000FCF7C8F802A9404613F071FA40F679016D
:10415000DAF8180017F030FA80463C49404613F070
:1041600039FA00E00BE00021404613F085FA3849A7
:104170002220087035703C7018F0A6FB9FE431488F
:10418000FCF7BCF94FF47A7148433249C866C2E77C
:1041900040F67A01154617F00FFA06466FF07041A7
:1041A000304613F017FA6FF07F41304613F064FA8F
:1041B0000494244906E09DF810000C549DF810006A
:1041C000401C04909DF810000628F4D340F67E01B0
:1041D000A86917F0F1F904461C49204613F0FAF9D2
:1041E0000021204613F048FA19492820087066E497
:1041F00040F67E01904617F0DFF981466FF070417E
:10420000484613F0E7F96FF07F41484613F034FA5F
:104210001AEE100A28F04CFA41EC100B53EC102B5C
:10422000AFF20C4102A8FCF755F802A9484613F07A
:10423000FEF940F67A01D8F8180017F0BDF980466B
:10424000024909E09C01002038870020FFFFBF00E1
:10425000A6010020980B0020404613F0BBF9002176
:10426000404613F009FA9D492320087035703C70D0
:1042700025E440F67101154617F09EF906466FF0E9
:104280007041304613F0A6F96FF07F41304613F0CD
:10429000F3F90494924906E09DF810000C549DF83F
:1042A0001000401C04909DF810000628F4D340F63E
:1042B0007501A86917F080F904468A49204613F071
:1042C00089F90021204613F0D7F984491F2008708E
:1042D00066E440F67501924617F06EF980466FF07D
:1042E0007041404613F076F96FF07F41404613F07D
:1042F000C3F93878E8B33878A8B1029403943A78CF
:104300007749D21C02A8FCF73DFA02A820F0CCFEA7
:1043100053EC182B51EC100B27F0A0FF27F00AFFED
:104320007149C1F89C007048D0F89C1047F2305297
:10433000914213D8D0F89C1000EE101AF8EE400A03
:104340009FED6A1A6A496B4A80EE810AD1ED000A34
:1043500020EE200A10EE101A914201DDC0F89C40B8
:10436000D0F89C100161006900EE100AF8EE400AD6
:1043700000E02BE09FED5D1A80EE810A10EE100A3E
:1043800028F096F941EC100B53EC102BAFF2705162
:1043900002A8FBF79FFF02A9404613F048F940F638
:1043A0007101DAF8180017F007F980464D494046C8
:1043B00013F010F90021404613F05EF9474921201F
:1043C000087035703C7018F07FFA20E44448FCF720
:1043D00095F84FF47A7148434349C1F89C00A2E72D
:1043E00040F67201154617F0E7F806466FF0704187
:1043F000304613F0EFF86FF07F41304613F03CF990
:104400000494374906E09DF810000C549DF8100004
:10441000401C04909DF810000628F4D340F6760165
:10442000A86917F0C9F804462E49204613F0D2F8BF
:104430000021204613F020F928492020087061E46B
:10444000FFE740F67601904617F0B6F881466FF028
:104450007041484613F0BEF86FF07F41484613F0B4
:104460000BF9387890B3387878B1029403943A789D
:104470001B4902A8FCF786F902A820F015FE51ECB2
:10448000100B27F057FE88F8000098F800201AA1BA
:1044900002A8FBF71FFF02A9484613F0C8F840F630
:1044A0007201D8F8180017F087F880460D49404689
:1044B00013F090F80021404613F0DEF8074924205D
:1044C000087035703C7018F0FFF91BE4FFE70448F2
:1044D000FCF714F888F80000D7E70000A6010020D8
:1044E0009C010020FFFFBF00980B002000007A44D1
:1044F00024000020000048432533640070B5174CA9
:1045000061792046164D806940F69902012912D042
:10451000A17B01291DD0114617F04EF806466FF019
:104520007041304613F056F82946304613F0A4F88F
:104530002F20207070BD114617F03EF80446294622
:10454000204613F047F82046BDE87040002113F0E4
:1045500093B8BDE8704000F075BA0000EC0100208F
:10456000FFFFBF002DE9FF470446006810B117F0B8
:1045700045FF68B10022314850F8221060680A28CF
:1045800041D007DCF0B306280DD0072854D106E04F
:104590000122F0E712280AD019284DD137E0204631
:1045A00019F020FB48E020461AF09AFC44E020680D
:1045B00004F062FD0290B0F9548090F85650476CB8
:1045C000466B02A804F0A2FD206800F039F881468D
:1045D000684616F0C9FFBDF8001009EB0500084455
:1045E000ADF80000246A304606F068F9022006F0B3
:1045F000A5F9384606F058F942466946204605F0C6
:104600000FF919E007E020461AF056FF14E0886918
:1046100004B0BDE8F087206817F0B4FB206804F010
:104620002BFD0390B0F90610B0F90220891A491C3D
:10463000C16703A804F06AFD0020E9E704830308CA
:1046400038B504F019FD0090C46F684604F05EFDB3
:10465000204638BD044A034911600449CA69C8614B
:10466000104670476C0300203407002038070020F4
:1046700000B589B024216846FCF75DF81920019047
:1046800003480068806841686846884709B000BDF3
:104690003407002070B5FF22FF23084D05F5807612
:1046A00005E010F8014B54402A5D5A40335D491E25
:1046B00089B2F6D243EA022070BD0000ACC80208FD
:1046C00010B50A4A0A4C4FF40061002807D00128AF
:1046D00004D1104603F089FD0120A07010BD1046E2
:1046E00003F081FD0020A07010BD0000000002401A
:1046F0003C0100207CB51B4C2078012500281DD0F2
:104700001948C16F4160D0F888108160D0F89C10C2
:104710000161164805707021682013F070FF2903AD
:10472000134803F060FD08F0E3FBA902114803F011
:104730005AFD1148016841F08001016025700F4960
:10474000192008700E480024047016F029FF034653
:1047500000940C4A29210C48019404F085FE0B4971
:1047600088617CBD5A010020980B00208100002048
:10477000000C02400008024048000020A601002072
:10478000800000204D73020808D40208B401002004
:104790001CB50E48002404700D4804700D480470C8
:1047A0007021682013F02BFF4FF480510A4803F06A
:1047B0001AFD16F0F5FE03460094084A0821084841
:1047C000019404F051FE074908601CBD5A01002005
:1047D0008100002080000020000C02403586020885
:1047E00084D80208D00100207CB5134C5020A07161
:1047F0000320A070114908700025E57126F0CEFE57
:104800000120FFF75DFF0E480570208BDFED0D0ADC
:1048100000EE100AB8EE400A80EE201A84ED081A65
:1048200016F0BEFE03460095074A29210748019568
:1048300004F01AFE60627CBD580100208100002057
:104840008000002000007A44E95C020808CD0208DC
:104850001CB50F49052008700E48002404700E484E
:1048600004707021682013F0CAFE4FF480510B4889
:1048700003F0B9FC16F094FE03460094084A252183
:104880000848019404F0F0FD074948601CBD000091
:104890005A010020A601002080000020000C0240E8
:1048A000C589020864D90208E40100207CB5274CC0
:1048B0002078002815D02078022812D04FF400412B
:1048C000234803F092FC234D0221284603F08BFC81
:1048D0004FF4FA7000F002FE4FF40051284603F046
:1048E00084FC022020701C4908701C4909200870B3
:1048F0001B48D0F898104160D0F8A010816019488A
:10490000DFED190A194D90ED050AB8EEC00A80EEE8
:10491000201A85ED021A1648002404701549032058
:1049200008707021682013F06AFE4FF4805112481D
:1049300003F059FC16F034FE034600940F4A15218B
:104940000F48019404F090FD68607CBD5A0100207E
:10495000000002400008024081000020A601002063
:10496000980B00204487002000007A444C0100206E
:1049700080000020A3010020000C0240D554020852
:10498000BCCA02087CB5234C2078002801D008F06E
:10499000AFFA0420207020490870204917200870C1
:1049A0001F48DFED200A204E90ED040AB8EEC00A41
:1049B00080EE201A86ED021A1C4CD4F89400206177
:1049C000206940F6C411884203D90120FFF778FE20
:1049D00002E00020FFF774FE154800250570154918
:1049E00002200870D4F8A400E0607021682013F061
:1049F00006FE4FF48051104803F0F5FB16F0D0FD91
:104A0000034600950D4A17210D48019504F02CFD31
:104A100070607CBD5A01002081000020A6010020AA
:104A20004487002000007A44A8010020980B002051
:104A300080000020A3010020000C024039A30208DE
:104A400084D102081CB516F0ABFD00240346009487
:104A5000064A07210648019404F006FD054948600E
:104A600005490C70054A082111701CBD859B020880
:104A700068DF020814020020800000205A01002094
:104A80001CB516F08DFD002403460094074A122140
:104A90000748019404F0E8FC06498861064A14704E
:104AA000064B07221A702F220A701CBD8995020836
:104AB00070DD0208EC010020800000205A01002077
:104AC0001CB502208DF8050001208DF8040000209F
:104AD0008DF806001C2000906946024803F02EFB6A
:104AE0001CBD00000010024031B582B02B4D0421E6
:104AF000284603F078FB0821284603F076FB00BF28
:104B000000BF00BF00BF0421284603F06EFB00BFBA
:104B10000821284603F069FB0421284603F063FBC3
:104B2000002101914FF6FF7429E09DF80410072938
:104B300012D9BDF80810080404D51021284603F046
:104B400054FB03E01021284603F04DFBBDF808108C
:104B500004EA4100029003E01021284603F043FBE1
:104B60000821284603F03FFB00BF00BF00BF08211B
:104B7000284603F03AFB9DF80410491C01919DF86A
:104B800004001828D1D30421284603F02EFB03B0DB
:104B90002846BDE83040082103F027BB0010024042
:104BA00008B538208DF8000003208DF801008DF83D
:104BB000020001208DF8030068460BF0DFFD08BD00
:104BC00070B5644DA97928460024406A05F1440671
:104BD000462970D01EDC15293BD0162952D0402919
:104BE0007ED140F6051116F0E7FC2978012906D997
:104BF0002978491E29702978314401F8014C297817
:104C00006A78914200D16C70BDE8704051494431DE
:104C100012F00DBD4D2967D04E297CD04F295FD1B0
:104C200040F6341116F0C8FC2978012906D92978F4
:104C3000491E29702978314401F8014C29786A7895
:104C4000914200D16C70BDE870404249443112F08D
:104C5000EEBC40F66B0116F0AFFC2978012906D9AD
:104C60002978491E29702978314401F8014C2978A6
:104C70006A78914200D16C70BDE87040354944318A
:104C800012F0D5BC40F66C0116F096FC297801298B
:104C900006D92978491E29702978314401F8014C38
:104CA00029786A78914200D16C70BDE8704029493A
:104CB000443112F0BCBC40F60E1116F07DFC297890
:104CC000012906D92978491E29702978314401F82B
:104CD000014C29786A78914200D16C701D4900E03E
:104CE00037E0443112F0A3FC40F63211686A16F046
:104CF00063FC2978012906D92978491E2970297869
:104D0000314401F8014C29786A78914200D16C70E5
:104D10001049443100E003E0BDE8704012F087BC68
:104D200040F6331116F048FC2978012906D9297874
:104D3000491E29702978314401F8014C29786A7894
:104D4000914200D16C70BDE870400249443112F0CC
:104D50006EBC70BD580100202DE9F0416B48017810
:104D60006B481D396B4F806900246B4D6B4E0C29CD
:104D70007ED2DFE801F0061E364EC8C8C8C866807D
:104D800098B040F6730116F017FC2978012906D96E
:104D90002978491E29702978394401F8014C29786D
:104DA0003278914200D13470BDE8F041594912F097
:104DB0003EBC40F6740116F0FFFB2978012906D9A4
:104DC0002978491E29702978394401F8014C29783D
:104DD0003278914200D13470BDE8F0414D4912F073
:104DE00026BC40F6750116F0E7FB2978012906D9A3
:104DF0002978491E29702978394401F8014C29780D
:104E00003278914200D13470BDE8F041414912F04E
:104E10000EBC40F6760116F0CFFB2978012906D9A1
:104E20002978491E29702978394401F8014C2978DC
:104E30003278914200D13470BDE8F041354912F02A
:104E4000F6BB40F67B0116F0B7FB2978012906D99D
:104E50002978491E29702978394401F8014C2978AC
:104E60003278914200D13470BDE8F041294900E028
:104E700049E012F0DCBB40F67C0116F09DFB29787E
:104E8000012906D92978491E29702978394401F861
:104E9000014C29783278914200D13470BDE8F0415C
:104EA0001C4912F0C4BB40F67D0116F085FB297841
:104EB000012906D92978491E29702978394401F831
:104EC000014C29783278914200D13470BDE8F0412C
:104ED000104912F0ACBB40F67E0116F06DFB29784C
:104EE000012906D92978491E29702978394401F801
:104EF000014C29783278914200D13470BDE8F041FC
:104F0000044912F094BBBDE8F0810000A601002026
:104F1000B40100209C01002058010020590100200C
:104F20002DE9F0412B4801782B482C4F0024406894
:104F30002B4D2C4E18291BD0432931D0562947D14F
:104F400040F62D1116F038FB2978012906D9297869
:104F5000491E29702978394401F8014C29783278A2
:104F6000914200D13470BDE8F0411C4912F05FBBA2
:104F700040F66E0116F020FB2978012906D9297820
:104F8000491E29702978394401F8014C2978327872
:104F9000914200D13470BDE8F041104912F047BB96
:104FA00040F6111116F008FB2978012906D9297855
:104FB000491E29702978394401F8014C2978327842
:104FC000914200D13470BDE8F041044912F02FBB8A
:104FD000BDE8F081A6010020A80100209C0100206E
:104FE00058010020590100202DE9F041884801783E
:104FF0008848894F00244068884D894E10297DD00B
:1050000008DCA1F10B01052979D2DFE801F0233B8F
:10501000879FB70051294DD0522963D053296FD0B3
:1050200054296CD140F6381116F0C6FA29780129B6
:1050300006D92978491E29702978394401F8014C8C
:1050400029783278914200D13470BDE8F04172493C
:1050500012F0EDBA4FF4066116F0AEFA2978012984
:1050600006D92978491E29702978394401F8014C5C
:1050700029783278914200D13470BDE8F041664918
:1050800012F0D5BA40F6610116F096FA2978012996
:1050900006D92978491E29702978394401F8014C2C
:1050A00029783278914200D13470BDE8F0415A49F4
:1050B00012F0BDBA40F6351116F07EFA29780129B2
:1050C00006D92978491E29702978394401F8014CFC
:1050D00029783278914200D13470BDE8F0414E49D0
:1050E00012F0A5BA40F6361116F066FA29780129B1
:1050F0000AD92978491E2970297802E056E085E00E
:105100006CE0394401F8014C29783278914200D1A1
:105110003470BDE8F041404912F089BA40F66201AE
:1051200016F04AFA2978012906D92978491E2970EA
:105130002978394401F8014C29783278914200D11C
:105140003470BDE8F041344912F071BA40F66301A1
:1051500016F032FA2978012906D92978491E2970D2
:105160002978394401F8014C29783278914200D1EC
:105170003470BDE8F041284912F059BA40F6640194
:1051800016F01AFA2978012906D92978491E2970BA
:105190002978394401F8014C29783278914200D1BC
:1051A0003470BDE8F0411C4912F041BA40F6650187
:1051B00016F002FA2978012906D92978491E2970A2
:1051C0002978394401F8014C29783278914200D18C
:1051D0003470BDE8F041104912F029BA40F6371199
:1051E00016F0EAF92978012906D92978491E29708B
:1051F0002978394401F8014C29783278914200D15C
:105200003470BDE8F041044912F011BABDE8F081F4
:10521000A6010020E40100209C010020580100208C
:10522000590100202DE9F0412B4801782B482C4FE3
:10523000002440682B4D2C4E11291BD0122931D04F
:10524000582947D140F62E1116F0B6F929780129D0
:1052500006D92978491E29702978394401F8014C6A
:1052600029783278914200D13470BDE8F0411C4970
:1052700012F0DDB940F6660116F09EF92978012991
:1052800006D92978491E29702978394401F8014C3A
:1052900029783278914200D13470BDE8F04110494C
:1052A00012F0C5B940F6670116F086F92978012990
:1052B00006D92978491E29702978394401F8014C0A
:1052C00029783278914200D13470BDE8F041044928
:1052D00012F0ADB9BDE8F081A60100204C0100201C
:1052E0009C0100205801002059010020014800685D
:1052F00070470000B803002010B50549054800F0CC
:105300000DF80548016841F00201016010BD000080
:1053100020800010106402403C000020074A9042A8
:1053200001D2074801E005481038064A8B0001EA1F
:10533000020101D5C160704781607047106402406E
:10534000006002407D0F7D0F002904D0016841F00C
:10535000010101607047016821F00101016070479F
:105360000B0609D522B1436943F08003436103E092
:10537000436923F080034361802905D001F01E01B9
:105380001AB102680A430260704702688A430260E9
:105390007047000030B50368124A1340CC680A68B1
:1053A0002243D1E905452C432243CC6922430C6AB0
:1053B00022434C6A22438C6A22434C6B22438C6BFF
:1053C00022431A430260426922F00703D1E90B2409
:1053D00022431A4342610A6942604A6882608968CE
:1053E000C16030BD3F801CF0F8B50546006803F091
:1053F00043FE0090448ED0F88860684603F086FE35
:1054000006B1012604F00104286816F0F7FF0EB17A
:10541000002006E00CB1012003E008B1022000E00A
:1054200003201B4951F82010686858B302280CD09B
:10543000052802D0122828D103E0284618F0FEFBE8
:1054400023E028461AF0CDFC1FE06A69E8694FF0B6
:10545000FF33801AA0F1080203EB6204421CAB691F
:10546000001B4510A3EB6206C86905F01DFA06E0B3
:105470003219311B284604F0A1FB641E6D1C002C60
:10548000F6DA02E0286816F07DFC0020F8BD000086
:1054900064830308044A0349116004490A6B0863E2
:1054A00010467047BC0300207407002078070020D6
:1054B00038B50D46002403F0DFFD0090C06B29468F
:1054C00003F0BCFE0546684603F020FE1DB12846E9
:1054D00003F0D2FD0446204638BD704711B54FF4A5
:1054E0007A7402E0204600F006F8BDF800104A1E6B
:1054F0000092F7D218BD01B582B0002001900421BE
:1055000010E0009100BF00BF00BF00BF00BFBDF8AA
:105510000000401E0004000C0090F3D1BDF8040010
:10552000401C0190BDF80400BDF808209042E8D36B
:105530000EBD000010B52DED028B20490A78204CDD
:10554000B2EE048A022AE0681ED00978032918D135
:105550001C4991ED000A20EE080ABDEEC00A10EECB
:10556000101A09B202F018FF174890ED000A20EE59
:10557000080ABDEEC00A10EE100A01B2206902F05E
:105580000BFFBDEC028B10BD104991ED000A20EE1F
:10559000080ABDEEC00A10EE101A09B202F0FCFEB5
:1055A0000B4890ED000A20EE080ABDEEC00A10EE8E
:1055B000100A01B2206902F0EFFEE2E7A301002029
:1055C000D00100202800002030000020240000200E
:1055D0002C0000201CB51048C07901281AD1FF20EA
:1055E00005F062F9022005F097F9B4200021CDE919
:1055F0000010032306220C214FF4C37004F0BAF903
:1056000002B00C23BDE8104040F27F120421034891
:1056100004F036BB1CBD000080000020ACCA0208AC
:105620001CB51048C07901281AD1FF2005F03CF9BB
:10563000022005F071F9B4200021CDE90010032308
:1056400006220C2140F2D11004F094F902B00C2390
:10565000BDE810404FF4E5720421034804F010BB8C
:105660001CBD000080000020ACCA020831B525F046
:10567000DBFCA02025F0A0FC25F006FD70B99DF80C
:10568000000025F099FC25F0FFFC38B925F0CCFC92
:10569000A12025F091FC25F0F7FC18B125F0E0FCE5
:1056A000002038BD25F05CFC034C207025F040FC48
:1056B00025F0D6FC207838BD7800002070B5012098
:1056C000FFF7D4FFFE4C20600120FFF7CFFF2060E2
:1056D0002068000220600220FFF7C8FF216808440C
:1056E00020602068000220600320FFF7BFFF2168D0
:1056F000084420602068000220600420FFF7B6FF05
:105700002168084420600520FFF7B0FFED4D2860B8
:105710002868000228600620FFF7A8FF29680844CF
:1057200028602868000228600720FFF79FFF29688B
:10573000084428602868000228600820FFF796FFC8
:10574000296808442860C020FFF790FF6063606B01
:1057500000026063C120FFF789FF616B084460634A
:10576000606B00026063C220FFF780FF616B08443A
:105770006063606B00026063C320FFF777FF616BBB
:1057800008446063C420FFF771FF6863686B000220
:105790006863C520FFF76AFF696B08446863686B3C
:1057A00000026863C620FFF761FF696B0844686305
:1057B000686B00026863C720FFF758FF696B0844F5
:1057C0006863C820FFF752FFA063A06B0002A063CC
:1057D000C920FFF74BFFA16B0844A063A06B000238
:1057E000A063CA20FFF742FFA16B0844A063A06B2F
:1057F0000002A063CB20FFF739FFA16B0844A06330
:10580000CC20FFF733FFA863A86B0002A863CD206C
:10581000FFF72CFFA96B0844A863A86B0002A863DC
:10582000CE20FFF723FFA96B0844A863A86B0002F2
:10583000A863CF20FFF71AFFA96B0844A8630920CB
:10584000FFF714FF60606068000260600A20FFF7E5
:105850000DFF6168084460606068000260600B20B2
:10586000FFF704FF616808446060606800026060E0
:105870000C20FFF7FBFE6168084460600D20FFF715
:10588000F5FE68606868000268600E20FFF7EEFEB3
:105890006968084468606868000268600F20FFF764
:1058A000E5FE696808446860686800026860102066
:1058B000FFF7DCFE6968084468601120FFF7D6FE38
:1058C000A060A0680002A0601220FFF7CFFEA168D0
:1058D0000844A060A0680002A0601320FFF7C6FE85
:1058E000A1680844A060A0680002A0601420FFF72F
:1058F000BDFEA1680844A0601520FFF7B7FEA860B0
:10590000A8680002A8601620FFF7B0FEA968084446
:10591000A860A8680002A8601720FFF7A7FEA96882
:105920000844A860A8680002A8601820FFF79EFE3F
:10593000A9680844A8601920FFF798FEE060E068B5
:105940000002E0601A20FFF791FEE1680844E06081
:10595000E0680002E0601B20FFF788FEE168084471
:10596000E060E0680002E0601C20FFF77FFEE16875
:105970000844E0601D20FFF779FEE860E868000257
:10598000E8601E20FFF772FEE9680844E860E868F6
:105990000002E8601F20FFF769FEE9680844E8603C
:1059A000E8680002E8602020FFF760FEE96808442C
:1059B000E8602120FFF75AFE206120690002206183
:1059C0002220FFF753FE216908442061206900026C
:1059D00020612320FFF74AFE2169084420612069E5
:1059E000000220612420FFF741FE21690844206164
:1059F0002520FFF73BFE2861286900022861262048
:105A0000FFF734FE296908442861286900022861EB
:105A10002720FFF72BFE2969084428612869000226
:105A200028612820FFF722FE2969084428612920DF
:105A3000FFF71CFE60616069000260612A20FFF7C9
:105A400015FE6169084460616069000260612B2095
:105A5000FFF70CFE616908446061606900026061E3
:105A60002C20FFF703FE6169084460612D20FFF7D9
:105A7000FDFD68616869000268612E20FFF7F6FD90
:105A80006969084468616869000268612F20FFF74E
:105A9000EDFD696908446861686900026861302049
:105AA000FFF7E4FD696908446861AB20FFF7DEFD9C
:105AB000E062E06A0002E062AC20FFF7D7FD03E09D
:105AC000F00A0020440B0020E16A0844E062E06A2A
:105AD0000002E062AD20FFF7C9FDE16A0844E06220
