:020000040800F2
:10000000D08D00209502000817080108C1BF000824
:1000100015080108252E000841A001080000000075
:100020000000000000000000000000004B63010819
:10003000F35300080000000035380108317401084E
:10004000AF020008AF020008AF020008AF020008CC
:10005000AF020008AF020008AF020008AF020008BC
:10006000AF020008AF020008AF020008AF020008AC
:10007000AF020008AF020008AF020008AF0200089C
:10008000AF020008AF020008AF020008AF0200088C
:10009000AF020008AF020008AF020008AF0200087C
:1000A000AF020008AF020008AF020008AF0200086C
:1000B000AF020008417901084D7C0108AF02000839
:1000C000AF020008AF020008AF020008AF0200084C
:1000D000AF020008F59B0108AF020008FD9C010873
:1000E000AF020008AF020008AF020008AF0200082C
:1000F000AF020008AF020008AF020008AF0200081C
:10010000AF020008AF02000819830108AF0200081F
:10011000AF020008AF020008F9830108AF0200082F
:1001200011520008AF020008AF020008AF02000839
:10013000AF020008AF020008AF020008AF020008DB
:10014000AF020008AF020008AF020008AF020008CB
:10015000AF020008AF020008AF020008AF020008BB
:10016000AF020008AF020008AF020008AF020008AB
:10017000AF020008AF020008AF020008AF0200089B
:10018000AF020008AF02000800F002F800F072F8B9
:100190000AA090E8000C82448344AAF10107DA45E2
:1001A00001D100F067F8AFF2090EBAE80F0013F0C2
:1001B000010F18BFFB1A43F00103184764AA04009B
:1001C00084AA04000A444FF0000C10F8013B13F01D
:1001D000070408BF10F8014B1D1108BF10F8015BA0
:1001E000641E05D010F8016B641E01F8016BF9D193
:1001F00013F0080F1EBF10F8014BAD1C0C1B09D1EA
:100200006D1E58BF01F801CBFAD505E014F8016B5B
:1002100001F8016B6D1EF9D59142D6D370470000ED
:100220000023002400250026103A28BF78C1FBD8FF
:10023000520728BF30C148BF0B60704766292BF0BA
:100240001D87642900F08280002070471FB52BF0C5
:1002500008FF00F093FE0400002000212BF00AF9B3
:10026000401C6060002000212BF0EEF8E0601FBD14
:1002700010B510BD00F0F6FF1146FFF7E7FF2AF0BA
:1002800007FC01F09FFA03B4FFF7F2FF03BC01F093
:10029000CDFC00000948804709480047FEE7FEE71B
:1002A000FEE7FEE7FEE7FEE7FEE7FEE7FEE7FEE726
:1002B00004480549054A064B70470000F9740108D7
:1002C00089010008D0870020D08D0020D08900202F
:1002D000D08900200FB41CB5074B06AA7B446946A1
:1002E0000090059800F03BFD0020694600F04AFDB3
:1002F0001CBC5DF814FB0000A50A000070B50446A4
:1003000085690068C10601D5302600E02026C007B7
:1003100007D070BDD4E9012130469047206A401CC7
:1003200020626D1EF6D570BD70B5044685690078F3
:10033000C00707D170BDD4E9012120209047206A71
:10034000401C20626D1EF6D570BD00002DE9F04105
:100350000646002410687529314616A510D0AFF363
:100360000080002802DA404213A507E031688A07BE
:1003700001D512A502E0490704D511A5012401E029
:10038000AFF3008000210A2206F1240709E0B0FB48
:10039000F2FCB0FBF2F302FB1C003030785418463C
:1003A000491C0028F3D123462A463046BDE8F041D7
:1003B00000F067BA000000002D0000002B000000D4
:1003C000200000002DE9F05F894604464FF0000A46
:1003D000DFF824B1FB44C0F820A02046E16888473C
:1003E00000287DD0252806D0D4E901219047206A35
:1003F000401C2062F1E700255F462046E1688847FF
:100400002028064607DB312E05D2B81910F8200C3B
:1004100008B10543F1E7A80701D525F00405C4F8A4
:100420001CA00027C4F818A02A2E09D030462AF0B4
:10043000D3F838B304EB8708303EC8F8186019E0E9
:1004400059F8041B204604EB87029161E168884754
:10045000012F064618D1E069002820DA25F0200592
:100460001DE0D8F8180000EB800006EB40003038A3
:10047000C8F818002046E168884706462AF0ACF81C
:100480000028EED1012F0AD02E2E08D12046E16897
:1004900088477F1C0646022F45F02005C4DBA06973
:1004A000002803DA404245F00105A061E80701D0C9
:1004B00025F01005A6B1A6F14100192802D8203672
:1004C00045F400654A463146204625604D46FFF713
:1004D000B5FE60B1012807D0ED1D25F0070000E052
:1004E00007E000F1080978E705F1040975E73046EF
:1004F0007AE7206ABDE8F09F64A7040070B506465D
:1005000000F0B0F90468054630460A22002100F0E8
:1005100091FC2C6070BD40EA0103024630B59B0798
:1005200010D14FF0013400E008C208C91D1B9D43E3
:1005300015EAC41FF8D013F0FF0102F8011B0DD01B
:100540001B0AF8E711F8013B002B02F8013B05D02C
:1005500011F8013B002B02F8013BF3D130BD10B57F
:10056000431C02E010F8011B71B18107FAD14FF072
:10057000013202C88C1A8C4314EAC211F9D0C01A95
:100580000A0603D0C01E10BDC01A10BD0A0401D057
:10059000801E10BD0902FCD0401E10BD421E12F884
:1005A000013F002BFBD111F8013B002B02F8013B6E
:1005B000F9D17047032A40F2308010F0030C00F0AC
:1005C000158011F8013BBCF1020F624498BF11F88D
:1005D00001CB00F8013B38BF11F8013BA2F1040246
:1005E00098BF00F801CB38BF00F8013B11F00303BE
:1005F00000F06780083AC0F0088051F8043B083AE0
:1006000051F804CBA0E80810F5E7121D5CBF51F8C3
:10061000043B40F8043BAFF30080D20724BF11F83D
:10062000013B11F801CB48BF11F8012B24BF00F8A2
:10063000013B00F801CB48BF00F8012B7047431A7B
:1006400028BF9A427FF6B6AF032A1044114440F205
:10065000268010F0030F1EBF11F8013D521E00F856
:10066000013D10F0030F7FF4F6AF11F0030300F02B
:100670002C84083AC0F00B8051F8043D083A51F838
:1006800004CD40F8043D40F804CDFFF7F3BF121D40
:100690005CBF51F8043D40F8043DAFF30080D20741
:1006A00024BF11F8013D11F801CD48BF11F8012C0C
:1006B00024BF00F8013D00F801CD48BF00F8012C2F
:1006C000704710B5203AC0F00B80B1E81850203ABE
:1006D000A0E81850B1E81850A0E81850BFF4F5AFE2
:1006E0005FEA027C24BFB1E81850A0E8185044BF6C
:1006F00018C918C0BDE810405FEA827C24BF51F8D9
:10070000043B40F8043B08BF7047D20728BF31F8CC
:10071000023B48BF11F8012B28BF20F8023B48BF1D
:1007200000F8012B704702F0FF0343EA032242EA7C
:10073000024200F0F6BB4FF0000200B513469446AB
:100740009646203922BFA0E80C50A0E80C50B1F129
:100750002001BFF4F7AF090728BFA0E80C5048BF3D
:100760000CC05DF804EB890028BF40F8042B08BFDB
:10077000704748BF20F8022B11F0804F18BF00F8D7
:10078000012B704710B5044610F0030F08BF11F09D
:10079000030F40F015804FF0013E121FC0F20E8093
:1007A00051F8043BA3EB0E0C2CEA030C1CEACE1C04
:1007B00008BF40F8043BF0D0A1F1040102F10402AB
:1007C000521E08DB11F8013B002B00F8013BF7D16A
:1007D000114600F0A4FB204610BD00004FF0013C84
:1007E00050F8042B51F8043B9A4221D1A2EB0C03A0
:1007F000934313EACC1317D150F8042B51F8043B60
:100800009A4215D1A2EB0C03934313EACC130BD1FC
:1008100050F8042B51F8043B9A4209D1A2EB0C0387
:10082000934313EACC13DBD04FF00000704700BFB6
:10083000D01A01BAB1FA81F101F0180122FA01F0DF
:10084000CB40C1F12001DBB2C0B2C01A2CFA01F3D7
:10085000D11A914311EAC311E6D17047704770472E
:1008600070470000004870477087002010B5FFF700
:10087000F9FF006810BD10B50446FFF7F3FF0460F0
:1008800010BD2DE9F0470D4699469246044600F109
:1008900024080168880604D5E06921F01001216070
:1008A00000E00120A84201DD471B00E00027A1690C
:1008B0007A1902EB0900081AA0612078C00602D458
:1008C0002046FFF71BFD002608E0D4E901211AF8B5
:1008D00006009047206A401C761C20624E45F4DBDF
:1008E0002078C0060AD52046FFF708FD06E0D4E9C7
:1008F000012130209047206A401C2062381EA7F159
:100900000107F4DC07E0D4E9012118F8050090475D
:10091000206A401C2062281EA5F10105F3DC204658
:10092000FFF702FD2078000602D50220BDE8F0871F
:100930000120FBE770472DE9FF4F0C461E464FF0A4
:10094000FF378BB0D2E90001DDF860800A908A465B
:10095000C1F30A5505B93D46002108464FF0000095
:10096000BAF1000F00F4400005DA00EB80004FF40C
:10097000400101EA50004FEA9059B9F1010F00DD42
:10098000B9460A9850EA4A000ED044F61050A5F233
:10099000FF3545432F14B8F1000F1ED07542291EB4
:1009A0001EDDC9F100021CE0B8F1010F4FF000009C
:1009B00001D0302103E0F24305E02154401CB04255
:1009C000FBDB30460022002121540B99C1F808803E
:1009D000C1E900200FB0BDE8F08FBD1B6D1CDEE744
:1009E0004A4600DA694206A800F0CAFB06AB93E863
:1009F000070003AB83E8070050460A9901F030F97D
:100A00008DE80700A0F500501F3800900398002DD6
:100A10000ADD42F21F014A460844002303A903905D
:100A2000684601F0DBFB09E0A0F500504A461F389C
:100A3000002303A90390684601F0FAFB8DE8070044
:100A40000004000C03D04FF0FF30410800E01046D6
:100A5000B8F1000F03D00022009215461EE0751E6B
:100A600005D400F08FFA303262556D1EF9D5B346C9
:100A70000122084302D000227F1C04E020783028A5
:100A800001D100227F1E002A099784D01DE0112D7C
:100A900007DA00F077FA303262556D1C50EA010235
:100AA000F5D1084302D00098C8B10EE00021681EBD
:100AB00005E0235C625C63542254401E491C814261
:100AC000F7DBAB46A81B401E0990002004F80B0082
:100AD0000B98099AC0F80880C0E9002B7AE7112624
:100AE0004FF0000857E72DE9F04F88460446D21D25
:100AF00022F0070191B0D1E90001CDE90A0123F00C
:100B000043FE02460B98C00F01D02D2007E020685D
:100B1000810701D52B2002E0202101EAC000032A31
:100B2000099001D0072A05DB03464146204600F024
:100B300077FA0BE12078800601D5E06900E0062015
:100B4000B8F1650F814606D0B8F1660F18D0B8F13C
:100B5000670F70D131E00020B9F1110F009001DB77
:100B6000112301E009F101030AAA01A90CA8FFF76A
:100B7000E2FEDDE90C70002609F10105834647E03D
:100B800001204B4600904FF000470AAA01A90CA88B
:100B9000FFF7D1FEDDE90DB00C995D46002610B9D6
:100BA00009F101000D18B9EB050003D4C0F1FF36BF
:100BB00009F10105A5EB09002BE0B9F1010F01DAFC
:100BC0004FF001090020B9F1110F0090484601DDF6
:100BD000112300E003460AAA01A90CA8FFF7ABFE07
:100BE000DDE90C704D4600268346207800070AD4C4
:100BF000AB4500DA5D4601A8012D04DD411911F86D
:100C0000011C302907D04F4502DA17F1040F04DA2E
:100C1000012082460FE06D1EEEE7002F02DCED1B87
:100C20003E4403E0781CA84200DD7D1CB81B00F1A7
:100C3000010A4FF000472078000703D4AA4501DBE2
:100C40004FF0FF3A0021B7F1004F0DF143088DF846
:100C5000431024D002202B23002F01DA7F422D23C2
:100C60000A21021EA0F1010000DC5FB197FBF1FC3C
:100C700097FBF1F201FB1C7C17460CF1300C08F8D5
:100C800001CDEEE7A8F1010003702188090501D527
:100C9000452100E06521A0F1010800F8011C099838
:100CA0000FA9A1EB0807FF1D00B10120411901EBBD
:100CB000EA70A1693844081A401EA0612078C00675
:100CC00002D42046FFF71AFB099828B1D4E9012184
:100CD0009047206A401C20622078C00622D520461A
:100CE000FFF70CFB1EE0002E04DBB34502DD01A87C
:100CF000805D00E03020D4E901219047206A401C4B
:100D00002062761CAAF101005FEA000A0AD100F015
:100D100035F9C0680168405CD4E901219047206A38
:100D2000401C2062281EA5F10105DCDC07E0D4E9A7
:100D3000012118F8010B9047206A401C2062381EE0
:100D4000A7F10107F3DC2046FFF7EEFA032011B00C
:100D500041E6000001694A1C02610878704700B54D
:100D60008FB0CDE901310021059105497944CDE9E4
:100D7000031011466846FFF725FB0FB000BD0000C9
:100D8000E5FFFFFF0A6802F8010B0A6070470000E8
:100D90000FB4002300B589B00CA900910B99CB606A
:100DA000214B7B440693214B7B44079304236FF034
:100DB0000042CDE901321E4A7A446B46089202464F
:100DC00000202BF0BDF909B05DF814FB70B50646A4
:100DD0004FF0FF3015460C46324686B00091CDE903
:100DE000010169460020049004A8FFF7D1FF0246E4
:100DF0000498211825B108B1084600E02046286073
:100E0000049800280DD0002A02DD0098884208D0FE
:100E10003246081B69460094CDE9010404A8FFF797
:100E2000B7FF06B070BD0000FB0200001303000016
:100E3000530200002DE9F04791460F4680460446D4
:100E4000002614F8015B2DB100F090F80068405DB9
:100E5000C007F6D12B2D02D02D2D18D0641E4A4686
:100E60003946204600F03CF927B13968A14201D14A
:100E7000C7F800804FF0020471050BD540420028EE
:100E800003DDFFF7EFFC0460A007BDE8F08746F440
:100E90008066E4E70028F8DAFFF7E4FC04606FF00E
:100EA0000040F2E7431A28BF9A427FF60AAC10448A
:100EB00010F0030F11441EBF11F8013D521E00F83F
:100EC000013D10F0030F7FF4F6AF103AC0F00A8036
:100ED00010B531E91850103A20E91850BFF4F9AFB5
:100EE000BDE81040530724BF31E9081020E908107D
:100EF00044BF51F8043D40F8043D12F0030F08BF11
:100F00007047D20728BF31F8023D48BF11F8012CC5
:100F100028BF20F8023D48BF00F8012C70474FF071
:100F200000020429C0F0128010F0030C3FF405AC5D
:100F3000CCF1040CBCF1020F18BF00F8012BA8BFC4
:100F400020F8022BA1EB0C01FFF7F7BB5FEAC17C95
:100F500024BF00F8012B00F8012B48BF00F8012B3B
:100F600070470000004870477087002010B500F0FF
:100F700005F8001D10BD00BFFDA402000048704729
:100F80009087002030B5B0F10A024FEA900E71F15F
:100F900000034EEA817EB0EB0E0061EB91014FEA57
:100FA000101E4EEA017E10EB0E0041EB11114FEACC
:100FB000102E4EEA016E10EB0E0041EB11214FEAAC
:100FC000104E4EEA014E10EB0E0041EB114140185D
:100FD00041F100014FEAD00040EA41704FEAD101EF
:100FE00010EB80054FEA810444EA907444EB01045D
:100FF0006D1944EB0404521BA3414FF0000348BF9A
:101000000A3200D530BD401C41F1000130BD10B5A1
:101010000446FFF7ABFF0068005D00F0010010BD63
:101020002DE9F0411F46044603260168072A01F412
:10103000006004DB08B116A505E016A503E008B1C1
:1010400015A500E015A521F010002060A069C01EC4
:10105000A0610FB1401EA0612046FFF74FF94FB1CC
:10106000D4E9012138469047206A401C2062C01C08
:10107000206206E0206AFAE7D4E9012115F8010BA5
:101080009047761EF8D22046FFF74EF9BDE8F08172
:101090004E414E006E616E00494E4600696E66001C
:1010A000426842B1016811F8013B23B1521EC0E908
:1010B0000012184670470121C160881E70474268BF
:1010C0005AB1C368016843B983688B4205D0491E91
:1010D000521CC0E90012002070474FF0FF307047EB
:1010E0002DE9F05F824615468B4600270AF1010480
:1010F000B9460078302801D09DB113E014F8010BF7
:101100000127782803D0582801D045B10AE00DB155
:10111000102D07D1002714F8010B102502E0082537
:1011200000E00A250026B0460EE005FB080005FB9E
:1011300006F101271FFA80F801EB1046B6F5803F53
:1011400000D3B94614F8010B294600F0B0F8002886
:10115000EBDABBF1000F05D00FB1641E00E054467E
:10116000CBF80040B9F1000F06D0FFF77BFB02215E
:101170000160C81EBDE8F09F48EA0640FAE700009B
:101180002DE9F047814616468AB0354878440DC8A7
:101190008DE80D0032487844801C03AC0DC884E80B
:1011A0000D0041F69B300844372190FBF1F290FB93
:1011B000F1F5A5F1800501FB12041B3C02D5644248
:1011C000012000E00020DFF898A080460027FA44C4
:1011D000AAF1BE0A0EE0E0070AD03246684607EBE5
:1011E000470101230AEB810101F022F88DE8070095
:1011F00064107F1C002CEED1194F7F44AE3F19E0E4
:10120000E80715D007EB04100DF1180A90E80E005E
:101210008AE80E00C068F04201D198190890324661
:10122000012306A903A801F003F803AB83E8070034
:101230006D10641C002DE3D14FF001033246694666
:10124000B8F1000F03A802D000F0C8FF01E000F0E1
:10125000EFFFC9E90001C9F808200AB0BDE8F0872E
:101260003C9A04007546FFF77DFEAE4605006946D0
:10127000534620F00700854618B020B5FFF718F850
:10128000BDE820404FF000064FF000074FF0000887
:101290004FF0000B21F00701AC46ACE8C009ACE808
:1012A000C009ACE8C009ACE8C0098D4670473A28CF
:1012B00000D2303820F02002412A01D3A2F13700B9
:1012C000884201D34FF0FF30704700002DE9FF4FF7
:1012D00006468BB00878FF2806D0491C2D2805D07B
:1012E00000244FF0000908E000200CE00124F8E79A
:1012F00009EB8903491C00EB43090878FF28F7D163
:1013000014B1C9F100008146107800252C46AA4688
:1013100029462D2801D02B2804D1521C2D2813D06A
:10132000002082468B461078FF280FD04FF0000C2B
:101330000A21521CA5FB017804FB018105FB0C115D
:10134000C5194BEB0104EEE70120EAE7002108464E
:101350004FF00000BAF1000F02D000EB800040080F
:10136000C0F38157012F01DD4FF0FF370E9955EA89
:10137000040009EB01080BD04FF0020918F5FA7FC1
:1013800016DA4FEACA70002F706008DD012007E00E
:101390004FEACA70C6E900B00FB0BDE8F08F002078
:1013A0003060FFF75FFAC0F800901821084616E099
:1013B000B8F5FA7F18DD002F02DAF748784401E02B
:1013C000F6487844D0E90010C6E9001040EACA7037
:1013D0007060FFF747FAC0F80090142108460FB07C
:1013E000BDE8F04F2AF047BE002108464FF000004C
:1013F000B8F10001099002DAC7F1000200E03A46B4
:1014000001DAC8F1000106A8FFF7BAFE06AB93E8BF
:10141000070003AB83E8070044F23E005BEA0401E7
:101420000090584604D144F21E012C465D460091BE
:10143000210C0904014306D10099240444EA15440F
:101440002D041039009104F07F41014306D1009929
:10145000240244EA15642D020839009104F0704119
:10146000014306D10099240144EA15742D01091F96
:10147000009104F04041014306D10099A40044EAE0
:101480009574AD00891E009104F00041084304D119
:1014900000986D196441401E00904FF001033A46D8
:1014A0006846B8F1000FCDE9014503A902DD00F05F
:1014B000D4FE01E000F0A7FEBAF1000F04460D468D
:1014C00001D084F00044002108464FF00000099943
:1014D00040F2FF77484010F00C0F07D124F0004095
:1014E000284303D0C4F30A50B84212D1FFF7BAF927
:1014F000C0F80090C4F30A50B8420AD1A848784412
:10150000D0E90010C6E9001004F000410843706003
:1015100042E7C6E900543FE72DE9FF4F1F464FF071
:10152000000A4FF0FF38454691B0D7E90146CDF8A3
:101530003CA0FFF723FDC0680168405C1090B969CA
:1015400012986D1C8847396A814688470028F6D171
:10155000B9F1FF3F0AD0002E24F4D06411DDB9F1B7
:101560002B0F08D0B9F12D0F0BD102E0404615B07A
:1015700013E744F48064B96912986D1C8847761E9D
:101580008146600504A901D52D2000E02B20002E06
:1015900001F1010B0DF130088DF810003FDDB9F1BC
:1015A000690F08D0B9F1490F05D0B9F16E0F02D01B
:1015B000B9F14E0F1CD13B4601A8009580E85002BE
:1015C000DDE912126FF002002AF0BEFDC11CCED17F
:1015D0000EE0B96912986D1C884781461398761EF3
:1015E00044F4007405600F98401C002E0F9016DD27
:1015F000B9F1300FEDD0B9F1780F02D0B9F1580F31
:101600000DD10F9801280AD13B46CDE90054DDE900
:101610001212001F02962AF095FDC11CA7D1109945
:1016200089453ED144F0800406E01399681CAAF174
:10163000010A44F400740860B9696D1C1298761EA2
:10164000884730288146F0D02BE01099894505D194
:10165000200603D4761E44F0800418E0484628F0A3
:10166000BBFF08B3761E0DF123018B4544F40074D3
:1016700008D2A9F130000BF8010B200607D5AAF11A
:10168000010003E0200602D40AF101008246A00511
:1016900002D51399681C0860B96912986D1C8847B7
:1016A0008146002ED1DC53E0002E51DDB9F1650FEB
:1016B00002D0B9F1450F4BD1A00549D5B9696D1CD0
:1016C0001298761E24F440748847002E81460CDD63
:1016D0002B2804D0B9F12D0F07D144F48074B969D7
:1016E00012986D1C8847761E8146E00501D52D2194
:1016F00000E02B2108F8011BCDF8008021E0761EC8
:101700000DF13901884544F400740CD2A9F1300080
:1017100010F0FF0088F8000002D10099884509D92F
:1017200008F1010806E0E00501D51E4801E042F29B
:101730000F708246B96912986D1C884781461398CC
:101740000560002E04DD484628F046FF0028D6D16B
:10175000F96912988847FF2053468BF8000088F8F3
:10176000000000200A900B9004AA0CA90AA8FFF719
:10177000ADFDA00502D46FF00100F8E614F0240FCF
:1017800012D0E0071CD13868DDE90A12031D3B6066
:101790000068C0E9001213E0889804007A980400F9
:1017A0003E970400F1D8FFFF0AA9684623F03CFAEF
:1017B000E00705D13868009A011D396000680260B1
:1017C0002846D4E610B50446AFF300802046BDE8B5
:1017D0001040FEF758BD00002DE9FF4F1F464FF0A7
:1017E0003C0987B04FF00042DDE9141001F1010817
:1017F000DDF858A002EA405003900020059083468F
:10180000054604460490B969461E08988847AAF11F
:10181000010A0290BAF1000F3BDD02982E2815D084
:101820001021FFF744FD00282EDB4FF0010B059936
:10183000014317D0B9F1000F0BDB4A46C11700F086
:10184000FBF905430C43A9F1040905E001200490CC
:101850000BE008B145F0010501200590049820B97E
:10186000361D02E0049800B1361FB969089808F1E6
:1018700001088847BBF1000FAAF1010A0290C9D004
:101880000999C1F80080C5E70298702808D050284F
:1018900006D0F96908988847BBF1000F14D04FE0D3
:1018A000002002900120BBF1000F049009D0B9691B
:1018B000089808F101088847AAF10109B9F1000F59
:1018C00007DCF969089888476FF001000BB0BDE8A4
:1018D000F08F2B2804D02D280CD14FF0FF3004902E
:1018E000B969089808F101088847A9F10109B9F117
:1018F000000FE6DD411CE4D00A21FFF7D8FC0028E8
:10190000DFDB029908F1010801EB810100EB4100E6
:101910000290B969089888470A21FFF7C8FC099A1C
:10192000A9F10109B9F1000FC2F8008001DD00281A
:10193000E7DAF969089888470499029800FB01667C
:1019400055EA040004D004F04041090002D006E04A
:10195000039898E0A40044EA9574AD00B61E04F024
:101960000041080002D16D196441761E159810F0EF
:10197000240F03D04FF00B095C4803E04FF0280917
:101980006FF07D008246564507DAAAEB06018944CE
:10199000B9F1410F01DD4FF0410901200021A9F10A
:1019A000010200F049F9024628400B462140084355
:1019B00001D0012100E00021501E029143F1FF31CE
:1019C00028402140084301D0012000E00020029976
:1019D000834651EA0B014FD0002108464FF000002A
:1019E000039900F4400039B100EB80004FF440014E
:1019F00000EBD07001EA60008015012802DD4FF095
:101A0000FF3000E013D0401C36D0029860B3BBF129
:101A1000000F0CD14A460120002100F00DF92840AA
:101A20002140084301D0012000E00020E0B1012066
:101A30004A46002100F000F9034640190A46614178
:101A40002D1A8C4111D3B9F1400F09DD159810F012
:101A5000240F02D0AAF1340603E0AAF1170600E031
:101A6000761C00254FF0004406E05B1E42F1FF3279
:101A700020EA030521EA0204CAF10100B04206DAB5
:101A80001B49039808430190002000900EE0039A40
:101A9000C4F3D321E80A0A43164940EA44500A43F2
:101AA0003146CDE90002684623F0C7F8159810F0DA
:101AB000240F0BD01598C00715D13868DDE9001246
:101AC000031D3B600068C0E900120CE002A86946F3
:101AD00023F0AAF81598C00705D13868029A011DAD
:101AE0003960006802604046F0E6000002FCFFFF3B
:101AF0000000F07F0000F03F2DE9FF4F92461D46A9
:101B000085B04FF00041DDE9124BDDE914727F1E14
:101B100001EA4B50414940F0FF4940EA01080021E9
:101B200022F020004928049102D04E2828D04CE011
:101B30003BA0012607C88DE80700A9690698641C28
:101B400088477F1E014606D41DF8060018B121F013
:101B5000200181420BD0E96906988847032E34D0D2
:101B6000082E32D06FF0010009B0BDE8F08F761C6E
:101B7000032E01D0082EE0D1601CCAF80000DCE77B
:101B8000A9690698641C88477F1E2AD420F020008B
:101B9000412826D1A9690698641C88477F1E20D455
:101BA00020F020004E281CD1A9690698641C8847A3
:101BB0007F1E48F4002849F48009CAF8004001D487
:101BC000282806D0E969069888475FEACB7012D0CA
:101BD00022E0A9690698641C88477F1E01D400286A
:101BE00003DAE96906988847BCE72928F1D1641C23
:101BF000CAF80040E9E71BF0240F07D028680499D1
:101C0000031D2B600068C0E9001805E02868021D6C
:101C10002A600068C0F800902046A5E70000F07F29
:101C2000494E46494E4954590000000001491820C8
:101C3000ABBEFEE726000200B2F120030AD5C2F1D6
:101C4000200301FA02F120FA03F300FA02F041EA5C
:101C50000301704700FA03F14FF00000704770472E
:101C60005FEA400C08BF91F0000F4FEA8C234FEA67
:101C7000C12243EA51514FEA1C5018BF00F5F04011
:101C80004FEA300018BF41F000415FEA6C5C00F0A1
:101C90002980BCF1FF3F08BF40F080407047130C23
:101CA00006BF12044FF0100C4FF0000C130E04BFCF
:101CB00012020CF1080C130F04BF12010CF1040CFA
:101CC000930F04BF92000CF1020CD30F04BF52001B
:101CD0000CF1010C11464FF00002A0F11F00A0EB27
:101CE0000C00704711F0004F08BF704731F0004101
:101CF0003FF4D5AF0B0C06BF09044FF0100C4FF0AA
:101D0000000C0B0E04BF09020CF1080C0B0F04BFF2
:101D100009010CF1040C8B0F04BF89000CF1020CBB
:101D2000CB0F04BF49000CF1010CCCF12003A0EB58
:101D30000C0022FA03F302FA0CF241EA030100F16B
:101D40000100704720F07F4C80EA030023F07F47BA
:101D5000ACEB070303F57C5300F0004003F1FF03F5
:101D60002DE980494FEA154B09B44FEA144325EA9F
:101D70000B4E24EA03480FF2042606EB132749080A
:101D80003E785FEA320203FB0667C7F5000707FBF0
:101D900006F64FEA54374FEAD64606F1020607FB2D
:101DA000066CCCF1005C4FEA1C472CEA074C07FBA1
:101DB00006F40CFB06F504EB15464FEA961634BF05
:101DC00000204FF000404FEAD13706FB07FC4FEAF6
:101DD0001C4C0CFB0BF7D21B03FB0CF761EB070150
:101DE0000CFB0EF7B0EB074072EB17420CFB08F749
:101DF00034BFA2EB0742B2EB074261EB17414FEA57
:101E00000C444FEA910706FB07FC4FEA1C4C0CFB05
:101E10000BF7B0EBC74072EB573203FB0CF734BF44
:101E2000A2EBC742B2EBC74261EB57310CFB0EF796
:101E3000B0EBC70072EB57720CFB08F734BFA2EB94
:101E4000C702B2EBC70261EB5771039F4FEA816192
:101E500041EA921104EBCC044FEAD1374FEA826297
:101E600006FB07FC42EA90124FEA80604FEA1C4CE6
:101E70000CFB0BF7D21B03FB0CF761EB07010CFB10
:101E80000EF7B0EB074072EB17420CFB08F734BFBC
:101E9000A2EB0742B2EB074261EB17414FEA8C55C8
:101EA0004FEA910704EB9C2406FB07FC4FEA1C4C0D
:101EB0000CFB0BF7B0EBC74072EB573203FB0CF790
:101EC00034BFA2EBC742B2EBC74261EB57310CFB08
:101ED0000EF7B0EBC70072EB57720CFB08F734BF7C
:101EE000A2EBC702B2EBC70261EB577115EB4C25B1
:101EF0004FEA816141EA92114FEA82624FEAD1379B
:101F000042EA901206FB07FC44F100044FEA8060AD
:101F10004FEA1C4C0CFB0BF7D21B03FB0CF761EBDD
:101F200007010CFB0EF7B0EB074072EB17420CFBFE
:101F300008F734BFA2EB0742B2EB074261EB17414F
:101F400015EB1C154FEA813141EA92414FEA82328A
:101F500042EA90424FEA80304FEA0C7644F10004A6
:101F600048EA03434EEA0B484FF0000EB2EB080C70
:101F700071EB030724BF624639464EEB0E0E4FF05D
:101F8000000B0018524149414BEB0B0BB2EB080C14
:101F900071EB03077BF1000B24BF624639464EEB21
:101FA0000E0E4FF0000B0018524149414BEB0B0B4A
:101FB000B2EB080C71EB03077BF1000B24BF624608
:101FC00039464EEB0E0E51EA020718BF46F00106E5
:101FD00016EB0E7655F1000254F1000103D5BDE871
:101FE0008901BDE80088BDE88901BDE80048B6194F
:101FF000524141EB0101A3F10103704780807F7ED4
:102000007D7C7B7A7978777676757473727171706E
:102010006F6E6E6D6C6C6B6A6A6968686766666520
:102020006464636362616160605F5F5E5E5D5D5CAE
:102030005C5B5B5A5A59595858575756565555551F
:102040005454535352525251515050504F4F4F4E7F
:102050004E4D4D4D4C4C4C4B4B4B4A4A4A494949CD
:10206000484848474747474646464545454444440F
:1020700044434343434242424241414146EA0646C9
:10208000A3F570534FEA164646EA42564FEAD2226B
:1020900042EA415210B54FEAD121A3F1010300F009
:1020A0002FF820F0004000F1020C00F0004701EB97
:1020B00000501146BCF5006F40EA070000D210BD89
:1020C000BAF1000F0AD01CB503B44FF004004FF072
:1020D00004014FF000000FBCBDE810404FF00001BC
:1020E000BBF1010FB9BF04484FF0FF310348002195
:1020F00040EA070010BD00BFFFFFEF7F0000F07F48
:10210000002B9C4630D477002BD01CB54FEA370704
:1021100003B44FF010004FF01001BAF1000F06D0D9
:10212000BCF1000FDCBF40F0080040F008014FF0A8
:1021300000000FBCBDE810400BF1010BBBF1010F1B
:1021400008BF5FEA170722BF12F1010211F1010176
:102150004FF0004143F1000300F0004043EA00006B
:102160007047F9D35708D0E746EA064613F1400F07
:102170004FEA16461FDD13F1200FDFBF16430A4654
:10218000002120335B42BED0C3F1200746EA064659
:1021900002FA07F74FEA164646EA0706C3F1200798
:1021A00022FA03F201FA07F721FA03F14FF00003D4
:1021B00042EA0702A7E746EA020646EA06464FEA6F
:1021C000164646EA0106BCBF46EA0646360C4FF004
:1021D00000034FF000024FF0000194E72DE9804C1E
:1021E0009A46934670B491E8380007C831EA400C2B
:1021F00048BF34EA430C03D5FFF7A4FDFFF780FF87
:10220000F0BCBDE8008C2DE9804C9A46934670B432
:1022100091E8380007C831EA400C48BF34EA430C63
:1022200003D5FFF78FFDFFF729FFF0BCBDE8008C59
:102230002DE9804C9A46934670B491E8380007C85F
:1022400010F0804F08BF13F0804F03D100F01AF850
:10225000FFF756FFF0BCBDE8008C2DE9804C9A4694
:10226000934670B491E8380007C810F0804F08BF5B
:1022700013F0804F03D100F005F8FFF7FFFEF0BC2C
:10228000BDE8008C20F07F4780EA030023F07F4CFC
:1022900007EB0C03A3F57C5300F00040A3F1FE0311
:1022A00092F0000F00F0B38095F0000F00F07780FF
:1022B0002DE901494FEA11404FEA144621EA00484E
:1022C00000FB06FC24EA064708FB06F607FB08F8B5
:1022D00000FB07F718EB06484CEB164C4FEA124B85
:1022E00018EB07484FEA15464CEB174022EA0B4E15
:1022F0000BFB06FC25EA06470EFB06F607FB0EFE67
:102300000BFB07F71EEB064E4CEB164C4FF000068E
:102310001EEB074E4CEB174B18EB0B0840F100007F
:1023200018EB0E0B58EB000840F100008F1A4FF02D
:1023300000013CBFC943661B14BFB5EB040C002170
:102340003CBFC943F61B4FEA17444EEA8E0E27EAFC
:1023500004454FEA1C4704FB07622CEA074C05FBC7
:1023600007F70CFB05F604FB0CFC16EB074642EBEB
:10237000174216EB0C4642EB1C421BEB060658EBD1
:102380000202414146EA9E0601D5BDE80189B6191F
:10239000524141EB0101A3F10103BDE801894FEA7C
:1023A00014454FEA114724EA054621EA074C05FB8C
:1023B00007F406FB07F70CFB06F105FB0CFC11EB21
:1023C000074144EB17444FEA124711EB0C4144EB31
:1023D0001C4422EA074C05FB07F206FB07F70CFB3F
:1023E00006F605FB0CFC16EB074642EB174216EB14
:1023F0000C4642EB1C456A1854F1000148BF704777
:10240000B619524141EB0101A3F10103704795F068
:10241000000F37D04FEA11424FEA144721EA024633
:1024200024EA074C02FB07F106FB07F70CFB06F456
:1024300002FB0CFC14EB074441EB17414FEA154734
:1024400014EB0C4441EB1C4125EA074C02FB07F559
:1024500006FB07F70CFB06F602FB0CFC16EB074627
:1024600045EB174516EB0C4645EB1C42121951F192
:10247000000148BF7047B619524141EB0101A3F179
:10248000010370474FEA14454FEA114724EA054615
:1024900021EA074C05FB07F106FB07F70CFB06F2E8
:1024A0004FF0000605FB0CFC12EB074241EB174115
:1024B00012EB0C4251EB1C4148BF7047921841EBA4
:1024C0000101A3F10103704708B54FF47A70009041
:1024D00003E0BDF80000401E0090BDF80000002899
:1024E000F7D108BD2DE9F04188B00121080311F0B2
:1024F000DBFC02278DF81D7001268DF81C6000247E
:102500008DF81E4040200690DFF8A08006A94046C6
:1025100005F0A0FD382506958DF81C708DF81E403D
:1025200003208DF81D008DF81F6006A9404605F0B8
:1025300091FD05220321404605F0CAFD0522042134
:10254000404605F0C5FD05221146404605F0C0FD98
:102550004021404605F0D5FDFFF7B6FF402140463B
:1025600005F0CDFDADF804404FF48270ADF80600E3
:10257000F002ADF80800ADF80A40ADF80C4080104C
:10258000ADF80E00ADF81050ADF812400720ADF8D0
:102590001400074C01A9204613F0BBFE0121204680
:1025A00013F0A0FE08B0BDE8F08100000004024076
:1025B000003001402DE9F04186B000260596374CE9
:1025C000374D384FDFF8E08017E09DF814100120F8
:1025D00013F05CFE9DF8141024F81100A0880190FF
:1025E000E088029060892880A0893880E089A8F876
:1025F00000009DF81400401C05909DF81400082868
:10260000E3D3BDF80820294C2078411C21704100FB
:1026100022481030425221781423142917D12670F1
:10262000039604960AE09DF8101030F81110039AF2
:10263000114403919DF81010491C04919DF810104D
:102640001429F0D303981A49B0FBF3F00860BDF8E1
:1026500004206078411C61704100104838304252BB
:102660006178142917D16670039604960AE09DF8E4
:10267000101030F81110039A114403919DF81010B6
:10268000491C04919DF810101429F0D303980949AE
:10269000B0FBF3F0086006B0BDE8F081800C0020CC
:1026A0005E000020640000206C000020210100205A
:1026B000600000206800002011B581B00C4C0221A0
:1026C000204613F01BFE0028F9D0BDF80410204668
:1026D00013F01DFE0121204613F010FE0028F9D052
:1026E000204613F012FE0090BDF800001CBD000053
:1026F00000300140F0B59BB001210D02284611F0D9
:10270000D3FB0121880511F0A5FB40200090032692
:102710008DF8046000248DF8074069462B4805F0C9
:1027200099FC02942A4803902A4804900594322088
:1027300006900794A80008904000099080000A9035
:102740000B9500010C900D9401250E950F9410949B
:10275000214F02A9384602F0A9FD0121384602F0B6
:102760007FFD01221021384602F086FD02F0A4F917
:10277000174F01214C3F384600F070F81194129425
:102780001394149411A800F055F815948DF858502E
:102790008DF85950189419948DF8686015A9384629
:1027A00000F074F8002301220621384600F094F866
:1027B0000121384600F032F8384600F0C7F8012110
:1027C000384600F057F81BB0F0BD00000000024092
:1027D0004C200140C4090020106402400CB50020C8
:1027E000009001900B490AE09DF8040031F81000B8
:1027F000009A104400909DF80400401C01909DF840
:1028000004003228F0D300983221B0FBF1F00249E5
:1028100008800CBDC40900205C000020002904D001
:10282000816841F0010181607047816821F00101F8
:102830008160704710B5074C226807490A40D0E90B
:1028400000131943D0E902300343194311432160B7
:1028500010BD000004230140E030FCFF002904D03B
:10286000816841F4807181607047816821F48071D2
:1028700081607047002904D0816841F40071816053
:102880007047816821F400718160704730B54268FB
:102890000F4B1A400C790B6842EA04221343436041
:1028A00083680C4A1340D1E9034222434D798C6876
:1028B00044EA450422431A438260C26A22F4700249
:1028C000097D491EC9B242EA0151C16230BD000012
:1028D000FFFEFFFCFDF7FFC070B5072609290AD9E6
:1028E000C568A1F10A0404EB4404A640B543A34023
:1028F0001D43C56007E0056901EB4104A640B543EF
:10290000A3401D4305611F23072A09D2446B521EB1
:1029100002EB820293409C4391400C43446370BDA0
:102920000D2A09D2046BD21F02EB820293409C4312
:1029300091400C43046370BDC46A0D3A02EB8202FD
:1029400093409C4391400C43C46270BD816841F048
:10295000804181607047002800DC40427047417828
:10296000007841EA0020704710B50C480078400616
:1029700012D40B4C206841070ED5020609484FF4CB
:10298000007103D4BDE8104005F0BBBB05F0B7FBF8
:10299000206820F00400206010BD00003C000020F2
:1029A00034000020000802400549086840F0040097
:1029B000044B00221A8020F080000860704700005D
:1029C000340000207600002038B5456804460146F2
:1029D000284617F059FB00282AD02068304A0F28D3
:1029E00019D006DC0B2824D00C2810D00E2851D189
:1029F0002FE0112802D028284CD145E09268002A07
:102A000016D02146284601B0BDE830401047214687
:102A100028465268F7E7284606F0BAFA0090406E5A
:102A20000468684606F0FEFA002C01D02846A0474C
:102A300038BD284606F0ACFA0090683006F010FA6F
:102A4000009803216C3006F013FA684606F0EAFAA3
:102A500020E0E168486809680D2902D0202913D1D7
:102A600005E0002810DD28461EF0A6FC06E0002840
:102A700004DD2846BDE838401EF09EBC2846BDE86F
:102A8000384002211EF0AEBCE06818B9002128468B
:102A900000F097F92046BDE8384017F069BF000004
:102AA00094020020F0B5044685B08069B4F908505E
:102AB000668A0027CDE90265CDE900170490B4F9D4
:102AC0000C00B4F91060C118B4F90A00B4F90E5042
:102AD000104433462A4600F007F80546616800F0C6
:102AE00079F905B02846F0BDF0B585B00C46DDE9B2
:102AF0000D514C31DFF850C0DDE90A67CDE902C164
:102B00002146CDE9006717F083FE040018D006F0D7
:102B10003FFA10222946049017F0DAFC049830227C
:102B20000A493430FDF7CDFD084D04990C3D286865
:102B3000486604A806F076FA286841682046884767
:102B400005B02046F0BD0000C9290008A002002001
:102B5000F0B5044680688B4989B051F82050606810
:102B600000287DD0052804D006287AD0122879D1F3
:102B7000AEE0E86900284FD095E80E008DE80F0020
:102B800004F110010FC908F0B7FD002655F8260022
:102B900007F016FEA169E8690A1A21690144606913
:102BA000304406F097FFA169E8690A1A21690144D7
:102BB000E069801B06F08EFFE169E8690A1A616925
:102BC00001442069304407F041F8E169E8690A1AD4
:102BD00061690144A069801B07F038F8761C022E59
:102BE000D4DBA86807F0ECFDE069E9696669431A7F
:102BF00020694218521E3144801C07F091F8E169A7
:102C0000E869A2690B1A61690144101A401C921EFE
:102C100007F086F8EE6913E05FF0000655F826002D
:102C200007F0CEFDE069831BA069821B60698119F2
:102C30002069304406F0CCFF761C022EEEDB022623
:102C4000D5E90301CDE900016169E0690844431059
:102C5000A069891C821B2069304406F0E3FE02E073
:102C600089E012E08AE0D5E90501CDE90001E369D8
:102C700060690121184401EB6001A0699B1E821B61
:102C80002069304406F0CEFE78E0206806F080F936
:102C90000490206818F09CFE40B1A06808B10020A4
:102CA00008E00498006F28B1012003E00498406F09
:102CB00000B10220049901EB8000C56E04A806F063
:102CC000B1F900231A462846216806F03DFC55E07C
:102CD000206806F05DF90490866EEEB3B0F95C7082
:102CE000A168D1B3032942D05FF0000100EB81015C
:102CF000406D0C6C07F06EFD204607F061FD05A8E5
:102D000007F05EF8BDF81410A88B0144ADF814105C
:102D1000BDF81810081AADF81800BDF81600801C90
:102D2000ADF81600BDF81A00801EADF81A00049820
:102D30005E30B0F90220B0F9001005A807F09EFC43
:102D400004A806F06FF9022007F084FD304606F073
:102D50001FF93A4605A901E00BE006E0079006F0EE
:102D6000EBFC07A806F05EF908E00121BEE70221AE
:102D7000BCE704A8F6E7206818F0EEFA09B00020D6
:102D8000F0BD0000B8680408044A03491160044912
:102D90004A6A486210467047D00200209402002020
:102DA000A002002038B50D46040009D006F0F0F866
:102DB00000904565684606F035F9204618F0CFF8D2
:102DC00038BD4FF480720029114601D017F0E6B9E2
:102DD00017F037B92DE9FF410E4605004FF0010409
:102DE0001CD006F0D5F80190876E01A8009706F078
:102DF00019F93146684608F05FFF78B10098002461
:102E0000B84208D0284606F0C3F8019000998166C0
:102E100001A806F007F9284618F0A1F804B02046EA
:102E2000BDE8F081FEE700002DE9F05F7B4C2178E2
:102E30007B4840F66F0519396F1C82696FF0704648
:102E400040F6770840F6780940F6710A40F6790BAB
:102E50000C2925D2DFE801F0062645642424242429
:102E600083A224C229460546104617F08FFE8046ED
:102E70003146404614F008FC6FF07F41404614F0A4
:102E800055FC3946A86917F081FE05466549284674
:102E900014F0FAFB0021284614F048FC1A20207098
:102EA000BDE8F09F05463946104617F06FFE07460D
:102EB0003146384614F0E8FB6FF07F41384614F095
:102EC00035FC4146A86917F061FE0546554928467C
:102ED00014F0DAFB0021284614F028FC1B20207097
:102EE000DEE705464146104617F050FE07463146DC
:102EF000384614F0C9FB6FF07F41384614F016FCD9
:102F00004946A86917F042FE05464649284614F08E
:102F1000BBFB0021284614F009FC1C202070BFE7F1
:102F200005464946104617F031FE074631463846F9
:102F300014F0AAFB6FF07F41384614F0F7FB5146BE
:102F4000A86917F023FE05463649284614F09CFB75
:102F50000021284614F0EAFB21202070A0E7054656
:102F60005146104617F012FE07463146384614F017
:102F70008BFB6FF07F41384614F0D8FB5946A869A7
:102F800017F004FE05462749284614F07DFB002172
:102F9000284614F0CBFB2220207081E705465946D5
:102FA000104617F0F3FD07463146384614F06CFB27
:102FB0006FF07F41384614F0B9FB40F67201A86902
:102FC00017F0E4FD05461749284614F05DFB002183
:102FD000284614F0ABFB2420207061E7074640F63A
:102FE0007201104617F0D2FD80463146404614F07B
:102FF0004BFB6FF07F41404614F098FB2946B869BF
:1030000017F0C4FD05460749284614F03DFB002192
:10301000284614F08BFB1920207041E78E01002018
:103020009C010020FFFFBF00F0B52DED028B83B0A7
:10303000B0480178B04A00269FEDB00AB04C012597
:103040001929A06938D0DFEDAF0A1A297ED0AE4A1F
:103050001B297CD01C292BD1217C40F678031F1D15
:10306000022975D0217C012922D1D18800EE101AC5
:10307000B8EE400A80EE208A194617F087FDA3A11A
:1030800014F02FFB3946A06917F080FD054618EEB5
:10309000100A28F075FF41EC100BA0A153EC102B87
:1030A00001A8FDF717F901A9284614F01AFB2674A8
:1030B00003B0BDEC028BF0BD617B40F66F031F1DBA
:1030C000012927D0617B0229F2D1D2F8801000EECD
:1030D000901AF8EE600A80EE808A194617F056FDC5
:1030E00090A114F0FEFA3946A06917F04FFD06468C
:1030F00018EE100A28F044FF41EC100B8DA153ECA0
:10310000102B01A8FDF7E6F801A9304614F0E9FA02
:103110006573CDE7D16F00EE901AF8EE600A80EE8D
:10312000808A194617F032FD84A114F0DAFA394684
:10313000A06917F02BFD054618EE100A28F020FFB5
:1031400041EC100B7BA153EC102B02E00AE05CE099
:10315000ACE001A8FDF7BEF801A9284614F0C1FAB9
:103160006673A5E7A17B4FF407631F1D022927D0D3
:10317000A17B01299CD1D2F8881000EE101AB8EE7C
:10318000400A80EE208A194617F000FD6FA114F066
:10319000A8FA3946A06917F0F9FC054618EE100A9E
:1031A00028F0EEFE41EC100B5CA153EC102B01A8B3
:1031B000FDF790F801A9284614F093FAA67377E773
:1031C000D2F88C1000EE101AB8EE400A80EE208A79
:1031D000194617F0DBFC61A114F083FA3946A069A7
:1031E00017F0D4FC064618EE100A28F0C9FE41EC90
:1031F000100B4AA153EC102B01A8FDF76BF801A9A5
:10320000304614F06EFAA57352E7E17B40F677037F
:103210001F1D022926D0E17B0129A2D1118800EED1
:10322000901AF8EE600A80EE808A194617F0AEFC1C
:103230004EA114F056FA3946A06917F0A7FC0546CE
:1032400018EE100A28F09CFE41EC100B39A153EC4B
:10325000102B01A8FDF73EF801A9284614F041FA09
:10326000E67325E7518800EE901AF8EE600A80EECA
:10327000808A194617F08AFC40A114F032FA3946C8
:10328000A06917F083FC064618EE100A28F078FEB5
:1032900041EC100B27A153EC102B01A8FDF71AF8F5
:1032A00001A9304614F01DFAE57301E7118900EE1B
:1032B000101AB8EE400A80EE208A194617F066FC14
:1032C00032A114F00EFA3946A06917F05FFC0646E9
:1032D00018EE100A28F054FE41EC100B0FA153EC2D
:1032E000102B01A8FCF7F6FF01A9304614F0F9F9FC
:1032F0002574DDE68E010020980B00200000C842F6
:103300009C01002000007A44F0840020E688AAE6B0
:10331000ADA2E794B5E6B58131000000252E3366F5
:1033200000000000E8BE93E587BAE794B5E58E8B10
:1033300032000000252E326600000000E8BE93E552
:1033400087BAE794B5E58E8B31000000E99990E5E6
:1033500088B6E794B5E6B58131000000E99990E5BB
:1033600088B6E794B5E6B58132000000E688AAE6A3
:10337000ADA2E794B5E58E8B31000000E688AAE6A1
:10338000ADA2E794B5E58E8B32000000E688AAE690
:10339000ADA2E794B5E6B58132000000F0B52DEDA1
:1033A000028B83B0AF480178AF4A9FEDB00AB04CB2
:1033B00001250226A069192938D0DFEDAE0A1A29A5
:1033C0007ED0AD4A1B297CD01C292BD1217C40F614
:1033D00078031F1D002975D0217C012922D1518934
:1033E00000EE101AB8EE400A80EE208A194617F057
:1033F000CDFBA2A114F075F93946A06917F0C6FB00
:10340000054618EE100A28F0BBFD41EC100B9FA1F9
:1034100053EC102B01A8FCF75DFF01A9284614F01E
:1034200060F9267403B0BDEC028BF0BD617B40F601
:103430006F031F1D39B3617B0129F3D1D2F88410CA
:1034400000EE901AF8EE600A80EE808A194617F0B6
:103450009DFB90A114F045F93946A06917F096FB41
:10346000054618EE100A28F08BFD41EC100B8DA1DB
:1034700053EC102B01A8FCF72DFF01A9284614F0EE
:1034800030F96673CEE7D2F8801000EE901AF8EEAD
:10349000600A80EE808A194617F078FB83A114F049
:1034A00020F93946A06917F071FB064618EE100A9C
:1034B00028F066FD41EC100B7AA153EC102B02E0D2
:1034C0000AE05BE0AAE001A8FCF704FF01A930468E
:1034D00014F007F96573A5E7A17B4FF407631F1D7F
:1034E00039B3A17B01299DD1D2F8901000EE101ABA
:1034F000B8EE400A80EE208A194617F047FB6FA10C
:1035000014F0EFF83946A06917F040FB054618EEB5
:10351000100A28F035FD41EC100B5CA153EC102B88
:1035200001A8FCF7D7FE01A9284614F0DAF8A67323
:1035300078E7D2F88C1000EE101AB8EE400A80EE50
:10354000208A194617F022FB60A114F0CAF8394608
:10355000A06917F01BFB064618EE100A28F010FDB4
:1035600041EC100B49A153EC102B01A8FCF7B2FE63
:1035700001A9304614F0B5F8A57353E7E17B40F696
:1035800077031F1D31B3E17B0129A4D1918800EE9F
:10359000901AF8EE600A80EE808A194617F0F6FA63
:1035A0004EA114F09EF83946A06917F0EFFA0546CF
:1035B00018EE100A28F0E4FC41EC100B39A153EC92
:1035C000102B01A8FCF786FE01A9284614F089F803
:1035D000E67327E7518800EE901AF8EE600A80EE55
:1035E000808A194617F0D2FA40A114F07AF83946C9
:1035F000A06917F0CBFA064618EE100A28F0C0FCB6
:1036000041EC100B27A153EC102B01A8FCF762FE34
:1036100001A9304614F065F8E57303E7118900EE5F
:10362000101AB8EE400A80EE208A194617F0AEFA5A
:1036300032A114F056F83946A06917F0A7FA0646E9
:1036400018EE100A28F09CFC41EC100B0FA153EC73
:10365000102B01A8FCF73EFE01A9304614F041F8FA
:103660002574DFE68E010020980B00200000C84280
:103670009C01002000007A44F0840020E688AAE63D
:10368000ADA2E794B5E6B58133000000252E336680
:1036900000000000E8BE93E587BAE794B5E58E8B9D
:1036A00033000000252E326600000000E8BE93E5DE
:1036B00087BAE794B5E58E8B32000000E99990E572
:1036C00088B6E794B5E6B58133000000E99990E546
:1036D00088B6E794B5E6B58132000000E688AAE630
:1036E000ADA2E794B5E58E8B33000000E688AAE62C
:1036F000ADA2E794B5E58E8B32000000E688AAE61D
:10370000ADA2E794B5E6B581320000002DE9F05F87
:103710007B4C21787B4840F66F056E1C1939F71DEC
:1037200082696FF0704B40F6780840F6710940F6F8
:10373000790A0C2926D2DFE801F0062746652525FF
:10374000252584A325C229460546104617F01EFAF2
:1037500006465946304613F097FF6FF07F413046DA
:1037600013F0E4FF40F67201A86917F00FFA05465E
:103770006549284613F088FF0021284613F0D6FF3C
:1037800024202070BDE8F09F31460646104617F011
:10379000FDF907465946384613F076FF6FF07F4132
:1037A000384613F0C3FF2946B06917F0EFF9054614
:1037B0005549284613F068FF0021284613F0B6FF4C
:1037C00019202070DEE705463946104617F0DEF96D
:1037D00007465946384613F057FF6FF07F41384689
:1037E00013F0A4FF3146A86917F0D0F90546464901
:1037F000284613F049FF0021284613F097FF1A20AE
:103800002070BFE705464146104617F0BFF906464F
:103810005946304613F038FF6FF07F41304613F0C1
:1038200085FF3946A86917F0B1F90546364928469B
:1038300013F02AFF0021284613F078FF1B20207088
:10384000A0E705464946104617F0A0F90646594636
:10385000304613F019FF6FF07F41304613F066FFDA
:103860004146A86917F092F905462749284613F002
:103870000BFF0021284613F059FF1C20207081E720
:1038800005465146104617F081F90646594630461E
:1038900013F0FAFE6FF07F41304613F047FF4946C0
:1038A000A86917F073F905461749284613F0ECFE8E
:1038B0000021284613F03AFF2120207062E70546D8
:1038C00040F67201104617F061F906465946304637
:1038D00013F0DAFE6FF07F41304613F027FF5146B8
:1038E000A86917F053F905460749284613F0CCFE9E
:1038F0000021284613F01AFF2220207042E7000022
:103900008E0100209C010020FFFFBF002DE9F04F39
:103910002DED068B85B0FE48416E00EE101AB8EE14
:10392000400ADFEDFC0AC0EE209A816E00EE101A0C
:10393000B8EE400ADFEDF80A80EE209AC16E006F03
:1039400000EE100AB8EE400ADFEDF20A80EE20AA7F
:10395000F2480178F24E1939DFF8C89301254FF08B
:1039600064084FF4076B9FEDF08BF14A0024F14F90
:1039700090694FF6FF7A102939D2DFE801F008B2DA
:10398000FEFD3DE1FCFBFAF9F8F7F6F5F4F340F63D
:103990006F01174617F0FAF880466FF07041404605
:1039A00013F072FE6FF07F41404613F0BFFE40F609
:1039B0007301B86917F0EAF80746DF49384613F093
:1039C00063FE0021384613F0B1FE0494DB4906E0A3
:1039D0009DF810000C549DF81000401C04909DF8B8
:1039E00010000628F4D3CD491D200870357005B0AD
:1039F000BDEC068BBDE8F08F40F67301924617F0E0
:103A0000C5F883466FF07041584613F03DFE6FF0E5
:103A10007F41584613F08AFE3878002859D038780C
:103A2000B0B1029403943A78C449921C02A8FCF7FE
:103A3000A9FE02A820F03CFF9FEDC11B51EC100B2A
:103A400053EC112B28F072F827F0DCFFB049C8675F
:103A5000AF48C26F41F638018A4200D9C167C16FD1
:103A6000416041688268B1FBF8F15143494500D992
:103A70004460406800EE100AF8EE400A9FEDA51A77
:103A800080EE810A10EE100A28F07AFA41EC100B51
:103A9000ADA153EC102B02A8FCF71CFC02A9584660
:103AA00013F01FFE40F66F01DAF8180017F06EF8F9
:103AB0008046A149404613F0E7FD0021404613F03F
:103AC00035FE96491920087035703C7018F0E6F9FB
:103AD0008DE79A48FCF712FD642148438C49C8677A
:103AE000B6E75946154617F051F806466FF0704193
:103AF000304613F0C9FD6FF07F41304613F016FEDB
:103B000004948E4906E09DF810000C549DF81000B6
:103B1000401C04909DF810000628F4D340F6740170
:103B2000A86917F033F804468349204613F0ACFD2A
:103B30000021204613F0FAFD78491E20087056E750
:103B400040F67401924617F021F801906FF0704131
:103B5000019813F099FD6FF07F41019813F0E6FD95
:103B600038780BE0DCE245E287E19EE0D0E3A7E2B3
:103B700010E216E3FCE344E34FE166E000285AD08C
:103B80003878A8B1029403943A786C49D21C02A800
:103B9000FCF7F8FD02A820F08BFE53EC182B51EC3B
:103BA000100B27F0C3FF27F02DFF5949C1F88800FB
:103BB0005748D0F8882042F210718A4201D9C0F8E3
:103BC0008810D0F88810816041688268B1FBF8F1F4
:103BD0005143494500D98460806800EE100AF8EE30
:103BE000400A9FED4D1A80EE810A10EE100A28F06F
:103BF000C7F941EC100B56A153EC102B02A8FCF7AF
:103C000069FB02A9019813F06CFD5946DAF8180017
:103C100016F0BCFF80464849404613F035FD0021B0
:103C2000404613F083FD3D491A20087035703C7002
:103C300018F034F9DBE64148FCF760FC4FF47A7188
:103C400048433349C1F88800B2E740F6770115468A
:103C500016F09CFF06466FF07041304613F014FDDD
:103C60006FF07F41304613F061FD0494334906E064
:103C70009DF810000C549DF81000401C04909DF815
:103C800010000628F4D340F67B01A86916F07EFFE9
:103C900004462949204613F0F7FC0021204613F082
:103CA00045FD1E4925200870A1E640F67B0190469F
:103CB00016F06CFF81466FF07041484613F0E4FC4B
:103CC0006FF07F41484613F031FD3878F0B1387815
:103CD000B0B1029403943A781849921C02A8FCF7F8
:103CE00051FD02A820F0E4FD9FED151B51EC100BD7
:103CF00053EC112B27F01AFF27F084FE1649088099
:103D00001548028841F638018A4227E034E0000075
:103D1000980B00200000C84200007A448E01002069
:103D20004001002077D403000000000000408F40D5
:103D30009C01002041010020FFFFBF008401002002
:103D40000000000000005940252E326600000000EF
:103D5000252E336600000000F084002000D9018089
:103D600098F80F10A1B198F80F1001291AD098F8FF
:103D70000F10022920D028E0FE48FCF7BFFB00EB23
:103D8000C00101EB00100AEA8001FB480180B7E79F
:103D900000885FED200A00EE100AB8EE400AC0EE7F
:103DA000209A12E040885FED250A00EE100AB8EE76
:103DB000400AC0EE209A08E080885FED2A0A00EEF3
:103DC000100AB8EE400AC0EE209A19EE900A28F0C8
:103DD000D7F841EC100B53EC102BAFF2940102A872
:103DE000FCF778FA02A9484613F07BFC40F677010D
:103DF000D8F8180016F0CAFE8046E049404613F095
:103E000043FC0021404613F091FCDD491B20087063
:103E100035703C7018F042F8E9E540F67801154637
:103E200016F0B4FE06466FF07041304613F02CFCDD
:103E30006FF07F41304613F079FC0494CD4906E0E1
:103E40009DF810000C549DF81000401C04909DF843
:103E500010000628F4D340F67C01A86916F096FEFF
:103E60000446C649204613F00FFC0021204613F0FB
:103E70005DFCC34926200870B9E540F67C019046F8
:103E800016F084FE81466FF07041484613F0FCFB4B
:103E90006FF07F41484613F049FC387848B33878D2
:103EA000A0B1029403943A78B249D21C02A8FCF75C
:103EB00069FC02A820F0FCFC53EC182B51EC100B11
:103EC00027F034FE27F09EFDAB49C880AA48C2887F
:103ED00042F210718A4200D9C18098F81010A1B145
:103EE00098F8101001291AD098F81010022920D043
:103EF00028E0A048FCF702FB00EB4001C1EBC0103A
:103F00009D490AEAC000C880E0E7C08800EE100AB8
:103F1000B8EE400A5FED800A80EE209A12E0008938
:103F200000EE100AB8EE400A5FED850A80EE209A96
:103F300008E0408900EE100AB8EE400A5FED8A0AF8
:103F400080EE209A19EE100A28F01AF841EC100BB6
:103F500053EC102BAFF2082102A8FCF7BBF902A921
:103F6000484613F0BEFB40F67801D8F8180016F06A
:103F70000DFE80468149404613F086FB00214046F5
:103F800013F0D4FB7E491C20087035703C7017F08C
:103F900085FF2CE540F67901154616F0F7FD06463B
:103FA0006FF07041304613F06FFB6FF07F41304689
:103FB00013F0BCFB04946F4906E09DF810000C540C
:103FC0009DF81000401C04909DF810000628F4D3C2
:103FD00040F67D01A86916F0D9FD044667492046E0
:103FE00013F052FB0021204613F0A0FB6449272068
:103FF0000870FCE440F67D01924616F0C7FD80464D
:104000006FF07041404613F03FFB6FF07F41404638
:1040100013F08CFB3878E8B33878A0B1029403949D
:104020003A785449D21C02A8FCF7ACFB02A820F055
:104030003FFC53EC182B51EC100B27F077FD27F0C9
:10404000E1FC5049C8664F48C06E00EE100AF8EE19
:10405000400A1FEDCF1A80EE810A10EE100A27F0F9
:104060008FFF41EC100B53EC102BAFF21C3102A868
:10407000FCF730F902A9404613F033FB40F6790112
:10408000DAF8180016F082FD80463C49404613F0ED
:10409000FBFA00E00BE00021404613F047FB3849F3
:1040A0002220087035703C7017F0F8FE9FE431480C
:1040B000FCF724FA4FF47A7148433249C866C2E7E4
:1040C00040F67A01154616F061FD06466FF0704124
:1040D000304613F0D9FA6FF07F41304613F026FBDB
:1040E0000494244906E09DF810000C549DF810003B
:1040F000401C04909DF810000628F4D340F67E0181
:10410000A86916F043FD04461C49204613F0BCFA8A
:104110000021204613F00AFB19492820087066E4A4
:1041200040F67E01904616F031FD81466FF07041F9
:10413000484613F0A9FA6FF07F41484613F0F6FAAB
:104140001AEE100A27F01CFF41EC100B53EC102B59
:10415000AFF20C4102A8FCF7BDF802A9484613F0E3
:10416000C0FA40F67A01D8F8180016F00FFD804624
:10417000024909E084010020F0840020FFFFBF0015
:104180008E010020980B0020404613F07DFA00219C
:10419000404613F0CBFA9D492320087035703C70DF
:1041A00025E440F67101154616F0F0FC06466FF066
:1041B0007041304613F068FA6FF07F41304613F0DB
:1041C000B5FA0494924906E09DF810000C549DF84D
:1041D0001000401C04909DF810000628F4D340F60F
:1041E0007501A86916F0D2FC04468A49204613F0EE
:1041F0004BFA0021204613F099FA84491F200870D9
:1042000066E440F67501924616F0C0FC80466FF0F9
:104210007041404613F038FA6FF07F41404613F08A
:1042200085FA3878E8B33878A8B1029403943A78DC
:104230007749D21C02A8FCF7A5FA02A820F038FBA7
:1042400053EC182B51EC100B27F070FC27F0DAFB25
:104250007149C1F89C007048D0F89C1047F2305268
:10426000914213D8D0F89C1000EE101AF8EE400AD4
:104270009FED6A1A6A496B4A80EE810AD1ED000A05
:1042800020EE200A10EE101A914201DDC0F89C4089
:10429000D0F89C100161006900EE100AF8EE400AA7
:1042A00000E02BE09FED5D1A80EE810A10EE100A0F
:1042B00027F066FE41EC100B53EC102BAFF270515F
:1042C00002A8FCF707F802A9404613F00AFA40F6E4
:1042D0007101DAF8180016F059FC80464D49404645
:1042E00013F0D2F90021404613F020FA474921206B
:1042F000087035703C7017F0D1FD20E44448FCF79D
:10430000FDF84FF47A7148434349C1F89C00A2E795
:1043100040F67201154616F039FC06466FF0704102
:10432000304613F0B1F96FF07F41304613F0FEF9DB
:104330000494374906E09DF810000C549DF81000D5
:10434000401C04909DF810000628F4D340F6760136
:10435000A86916F01BFC04462E49204613F094F978
:104360000021204613F0E2F928492020087061E47A
:10437000FFE740F67601904616F008FC81466FF0A4
:104380007041484613F080F96FF07F41484613F0C2
:10439000CDF9387890B3387878B1029403943A78AC
:1043A0001B4902A8FCF7EEF902A820F081FA51ECB3
:1043B000100B27F027FB88F8000098F800201AA1BE
:1043C00002A8FBF787FF02A9484613F08AF940F6D6
:1043D0007201D8F8180016F0D9FB80460D49404606
:1043E00013F052F90021404613F0A0F907492420A8
:1043F000087035703C7017F051FD1BE4FFE704486E
:10440000FCF77CF888F80000D7E700008E01002058
:1044100084010020FFFFBF00980B002000007A44B9
:1044200024000020000048432533640070B5174C79
:1044300061792046164D806940F69902012912D013
:10444000A17B01291DD0114616F0A0FB06466FF096
:104450007041304613F018F92946304613F066F9DA
:104460002F20207070BD114616F090FB044629469F
:10447000204613F009F92046BDE87040002113F0F2
:1044800055B9BDE8704000F069BA0000DC010020B9
:10449000FFFFBF002DE9FF470446006810B117F089
:1044A00097FA68B10022314850F8221060680A2853
:1044B00041D007DCF0B306280DD0072854D106E020
:1044C0000122F0E712280AD019284DD137E0204602
:1044D00018F072FE48E0204619F0FCFF44E0206826
:1044E00004F056FD0290B0F9548090F85650476C95
:1044F000466B02A804F096FD206800F039F881466A
:10450000684616F01BFBBDF8001009EB05000844D7
:10451000ADF80000246A304606F05CF9022006F08F
:1045200099F9384606F04CF942466946204605F0AE
:1045300003F919E007E020461AF0B8FA14E0886998
:1045400004B0BDE8F087206816F006FF206804F08C
:104550001FFD0390B0F90610B0F90220891A491C1A
:10456000C16703A804F05EFD0020E9E7C8680408FD
:1045700038B504F00DFD0090C46F684604F052FD9C
:10458000204638BD044A034911600449CA69C8611C
:10459000104670475C0300202407002028070020F5
:1045A00000B589B024216846FCF7C5F819200190B0
:1045B00003480068806841686846884709B000BDC4
:1045C0002407002070B5FF22FF23084D05F58076F3
:1045D00005E010F8014B54402A5D5A40335D491EF6
:1045E00089B2F6D243EA022070BD00007CC1020805
:1045F0007CB51B4C2078012500281DD01948C16FBF
:104600004160D0F888108160D0F89C100161164894
:1046100005707021682014F03CF82903134803F05A
:104620006EFD08F0CBFCA902114803F068FD1148AB
:10463000016841F08001016025700F491920087060
:104640000E480024047016F095FA034600940C4AB4
:1046500029210C48019404F093FE0B4988617CBD2C
:1046600042010020980B00207D000020000C024039
:1046700000080240400000208E0100207C00002045
:104680005D6B0208D8CC02089C0100201CB50E48C6
:10469000002404700D4804700D48047070216820D7
:1046A00013F0F7FF4FF480510A4803F028FD16F08D
:1046B00061FA03460094084A08210848019404F06E
:1046C0005FFE074908601CBD420100207D000020FC
:1046D0007C000020000C0240457E020854D10208F4
:1046E000B80100207CB5124C5020A0710320A070AE
:1046F000104908700025E57126F0A8FB0E480570EA
:10470000208BDFED0E0A00EE100AB8EE400A80EEB4
:10471000201A84ED081A16F02DFA03460095084A6F
:1047200029210848019504F02BFE60627CBD000041
:10473000400100207D0000207C00002000007A4421
:10474000F1540208D8C502081CB50F4905200870AD
:104750000E48002404700E4804707021682013F085
:1047600098FF4FF480510B4803F0C9FC16F002FA91
:1047700003460094084A25210848019404F000FEED
:10478000074948601CBD0000420100208E01002046
:104790007C000020000C0240D581020834D20208BF
:1047A000CC0100201CB508490620087016F0E2F97B
:1047B0000346002000900190044A0121044804F0BF
:1047C000DFFD044948601CBD42010020A98D02089C
:1047D00040D60208D40100207CB5274C2078002860
:1047E00012D04FF40041254803F08BFC244D0221E8
:1047F000284603F084FC4FF4FA7000F0FBFD4FF400
:104800000051284603F07DFC022020701D490870ED
:104810001D49092008701D48D0F898104160D0F853
:10482000A01081601A48DFED1B0A1B4DB0F90A0089
:1048300000EE100AB8EEC00A80EE201A85ED021ACA
:10484000164800240470164903200870702168205F
:1048500013F01FFF4FF48051124803F050FC16F084
:1048600089F903460094104A15211048019404F078
:1048700087FD68607CBD000042010020000002400E
:10488000000802407D0000208E010020980B0020CF
:10489000FC84002000007A44340100207C000020C9
:1048A0008B010020000C0240DD4C02088CC3020882
:1048B0007CB51E4C2078002801D008F07FFB042036
:1048C00020701B4908701B49172008701A48DFED3B
:1048D0001B0A1B4DB0F9080000EE100AB8EEC00A22
:1048E00080EE201A85ED021A1648D0F89410016166
:1048F000154900240C70154A02211170D0F8A4103B
:10490000C1607021682013F0C4FE4FF4805110483C
:1049100003F0F5FB16F02EF9034600940D4A17211B
:104920000D48019404F02CFD68607CBD420100201C
:104930007D0000208E010020FC84002000007A44CD
:1049400090010020980B00207C0000208B010020AB
:10495000000C0240D99B020854CA02081CB516F08C
:1049600009F9002403460094064A072106480194E9
:1049700004F006FD0549486005490C70054A082108
:1049800011701CBD2594020820C5030804020020F4
:104990007C000020420100201CB516F0EBF800243A
:1049A00003460094074A12210748019404F0E8FCEA
:1049B00006498861064A1470064B07221A702F2296
:1049C0000A701CBD298E020828C30308DC010020E0
:1049D0007C000020420100201CB502208DF805005B
:1049E00001208DF8040000208DF806001C200090A6
:1049F0006946024803F02EFB1CBD00000010024077
:104A000031B582B02B4D0421284603F078FB0821F4
:104A1000284603F076FB00BF00BF00BF00BF0421A3
:104A2000284603F06EFB00BF0821284603F069FB0F
:104A30000421284603F063FB002101914FF6FF7427
:104A400029E09DF80410072912D9BDF808100804C0
:104A500004D51021284603F054FB03E0102128461A
:104A600003F04DFBBDF8081004EA4100029003E09A
:104A70001021284603F043FB0821284603F03FFBA2
:104A800000BF00BF00BF0821284603F03AFB9DF895
:104A90000410491C01919DF804001828D1D3042169
:104AA000284603F02EFB03B02846BDE8304008211D
:104AB00003F027BB0010024008B538208DF8000035
:104AC00003208DF801008DF8020001208DF803000D
:104AD00068460BF0A1FE08BD70B5644DA979284663
:104AE0000024406A05F14406462970D01EDC1529D1
:104AF0003BD0162952D040297ED140F6051116F040
:104B000045F82978012906D92978491E297029787C
:104B1000314401F8014C29786A78914200D16C70D7
:104B2000BDE870405149443112F0DBBD4D2967D0DA
:104B30004E297CD04F295FD140F6341116F026F86B
:104B40002978012906D92978491E29702978314404
:104B500001F8014C29786A78914200D16C70BDE867
:104B600070404249443112F0BCBD40F66B0116F072
:104B70000DF82978012906D92978491E2970297844
:104B8000314401F8014C29786A78914200D16C7067
:104B9000BDE870403549443112F0A3BD40F66C01C8
:104BA00015F0F4FF2978012906D92978491E2970C2
:104BB0002978314401F8014C29786A78914200D172
:104BC0006C70BDE870402949443112F08ABD40F64E
:104BD0000E1115F0DBFF2978012906D92978491E25
:104BE00029702978314401F8014C29786A7891427A
:104BF00000D16C701D4900E037E0443112F071FDC6
:104C000040F63211686A15F0C1FF2978012906D9EA
:104C10002978491E29702978314401F8014C2978F6
:104C20006A78914200D16C701049443100E003E091
:104C3000BDE8704012F055BD40F6331115F0A6FFE7
:104C40002978012906D92978491E29702978314403
:104C500001F8014C29786A78914200D16C70BDE866
:104C600070400249443112F03CBD70BD400100204B
:104C70002DE9F0416B4801786B481D396B4F806915
:104C800000246B4D6B4E0C297ED2DFE801F0061E2E
:104C9000364EC8C8C8C8668098B040F6730115F093
:104CA00075FF2978012906D92978491E29702978A4
:104CB000394401F8014C29783278914200D134709E
:104CC000BDE8F041594912F00CBD40F6740115F0F1
:104CD0005DFF2978012906D92978491E297029788C
:104CE000394401F8014C29783278914200D134706E
:104CF000BDE8F0414D4912F0F4BC40F6750115F0E5
:104D000045FF2978012906D92978491E2970297873
:104D1000394401F8014C29783278914200D134703D
:104D2000BDE8F041414912F0DCBC40F6760115F0D7
:104D30002DFF2978012906D92978491E297029785B
:104D4000394401F8014C29783278914200D134700D
:104D5000BDE8F041354912F0C4BC40F67B0115F0C6
:104D600015FF2978012906D92978491E2970297843
:104D7000394401F8014C29783278914200D13470DD
:104D8000BDE8F041294900E049E012F0AABC40F634
:104D90007C0115F0FBFE2978012906D92978491EE6
:104DA00029702978394401F8014C297832789142E8
:104DB00000D13470BDE8F0411C4912F092BC40F6BD
:104DC0007D0115F0E3FE2978012906D92978491ECD
:104DD00029702978394401F8014C297832789142B8
:104DE00000D13470BDE8F041104912F07ABC40F6B1
:104DF0007E0115F0CBFE2978012906D92978491EB4
:104E000029702978394401F8014C29783278914287
:104E100000D13470BDE8F041044912F062BCBDE835
:104E2000F08100008E0100209C0100208401002000
:104E300040010020410100202DE9F0412B4801787C
:104E40002B482C4F002440682B4D2C4E18291BD08A
:104E5000432931D0562947D140F62D1115F096FE41
:104E60002978012906D92978491E297029783944D9
:104E700001F8014C29783278914200D13470BDE8B4
:104E8000F0411C4912F02DBC40F66E0115F07EFE7B
:104E90002978012906D92978491E297029783944A9
:104EA00001F8014C29783278914200D13470BDE884
:104EB000F041104912F015BC40F6111115F066FED4
:104EC0002978012906D92978491E29702978394479
:104ED00001F8014C29783278914200D13470BDE854
:104EE000F041044912F0FDBBBDE8F0818E010020C5
:104EF0009001002084010020400100204101002099
:104F00002DE9F041884801788848894F002440689D
:104F1000884D894E10297DD008DCA1F10B010529AF
:104F200079D2DFE801F0233B879FB70051294DD0AC
:104F3000522963D053296FD054296CD140F63811CF
:104F400015F024FE2978012906D92978491E2970EF
:104F50002978394401F8014C29783278914200D1FE
:104F60003470BDE8F041724912F0BBBB4FF40661EA
:104F700015F00CFE2978012906D92978491E2970D7
:104F80002978394401F8014C29783278914200D1CE
:104F90003470BDE8F041664912F0A3BB40F66101F0
:104FA00015F0F4FD2978012906D92978491E2970C0
:104FB0002978394401F8014C29783278914200D19E
:104FC0003470BDE8F0415A4912F08BBB40F6351100
:104FD00015F0DCFD2978012906D92978491E2970A8
:104FE0002978394401F8014C29783278914200D16E
:104FF0003470BDE8F0414E4912F073BB40F63611F3
:1050000015F0C4FD297801290AD92978491E29708B
:10501000297802E056E085E06CE0394401F8014C63
:1050200029783278914200D13470BDE8F04140498E
:1050300012F057BB40F6620115F0A8FD297801294E
:1050400006D92978491E29702978394401F8014C7C
:1050500029783278914200D13470BDE8F04134496A
:1050600012F03FBB40F6630115F090FD297801294D
:1050700006D92978491E29702978394401F8014C4C
:1050800029783278914200D13470BDE8F041284946
:1050900012F027BB40F6640115F078FD297801294C
:1050A00006D92978491E29702978394401F8014C1C
:1050B00029783278914200D13470BDE8F0411C4922
:1050C00012F00FBB40F6650115F060FD297801294B
:1050D00006D92978491E29702978394401F8014CEC
:1050E00029783278914200D13470BDE8F0411049FE
:1050F00012F0F7BA40F6371115F048FD297801296A
:1051000006D92978491E29702978394401F8014CBB
:1051100029783278914200D13470BDE8F0410449D9
:1051200012F0DFBABDE8F0818E010020CC01002032
:105130008401002040010020410100202DE9F041C0
:105140002B4801782B482C4F002440682B4D2C4EC7
:1051500011291BD0122931D0582947D140F62E11E0
:1051600015F014FD2978012906D92978491E2970DE
:105170002978394401F8014C29783278914200D1DC
:105180003470BDE8F0411C4912F0ABBA40F666013C
:1051900015F0FCFC2978012906D92978491E2970C7
:1051A0002978394401F8014C29783278914200D1AC
:1051B0003470BDE8F041104912F093BA40F667012F
:1051C00015F0E4FC2978012906D92978491E2970AF
:1051D0002978394401F8014C29783278914200D17C
:1051E0003470BDE8F041044912F07BBABDE8F081AB
:1051F0008E010020340100208401002040010020A5
:10520000410100200148006870470000A803002009
:1052100010B50549054800F00DF80548016841F052
:105220000201016010BD00002080001010640240E7
:1052300034000020074A904201D2074801E00548A7
:105240001038064A8B0001EA020101D5C16070479F
:105250008160704710640240006002407D0F7D0F46
:10526000002904D0016841F0010101607047016824
:1052700021F00101016070470B0609D522B1436995
:1052800043F08003436103E0436923F080034361FB
:10529000802905D001F01E011AB102680A4302609C
:1052A000704702688A4302607047000030B50368A7
:1052B000124A1340CC680A682243D1E905452C43C1
:1052C0002243CC6922430C6A22434C6A22438C6AF3
:1052D00022434C6B22438C6B22431A430260426987
:1052E00022F00703D1E90B2422431A4342610A69E1
:1052F00042604A6882608968C16030BD3F801CF0AE
:10530000F8B50546006803F043FE0090448ED0F8DF
:105310008860684603F086FE06B1012604F00104A9
:10532000286816F055FB0EB1002006E00CB10120F4
:1053300003E008B1022000E003201B4951F82010CF
:10534000686858B302280CD0052802D0122828D14A
:1053500003E0284617F05CFF23E028461AF03BF8EC
:105360001FE06A69E8694FF0FF33801AA0F1080274
:1053700003EB6204421CAB69001B4510A3EB620601
:10538000C86905F01DFA06E03219311B284604F001
:10539000A1FB641E6D1C002CF6DA02E0286815F0F3
:1053A000DBFF0020F8BD000028690408044A034917
:1053B000116004490A6B086310467047AC03002073
:1053C000640700206807002038B50D46002403F06C
:1053D000DFFD0090C06B294603F0BCFE0546684621
:1053E00003F020FE1DB1284603F0D2FD04462046FE
:1053F00038BD704711B54FF47A7402E0204600F0D2
:1054000006F8BDF800104A1E0092F7D218BD01B58B
:1054100082B000200190042110E0009100BF00BF85
:1054200000BF00BF00BFBDF80000401E0004000C1C
:105430000090F3D1BDF80400401C0190BDF80400B9
:10544000BDF808209042E8D30EBD000010B52DED48
:10545000028B20490A78204CB2EE048A022AE068C6
:105460001ED00978032918D11C4991ED000A20EEBD
:10547000080ABDEEC00A10EE101A09B202F018FFB9
:10548000174890ED000A20EE080ABDEEC00A10EEA3
:10549000100A01B2206902F00BFFBDEC028B10BDB7
:1054A000104991ED000A20EE080ABDEEC00A10EE88
:1054B000101A09B202F0FCFE0B4890ED000A20EE33
:1054C000080ABDEEC00A10EE100A01B2206902F00F
:1054D000EFFEE2E78B010020B80100202800002049
:1054E00030000020240000202C0000201CB51048B3
:1054F000C07901281AD1FF2005F062F9022005F0D9
:1055000097F9B4200021CDE90010032306220C21D5
:105510004FF4C37004F0BAF902B00C23BDE8104098
:1055200040F27F120421034804F036BB1CBD00008A
:105530007C0000207CC302081CB51048C0790128FB
:105540001AD1FF2005F03CF9022005F071F9B420D2
:105550000021CDE90010032306220C2140F2D110D6
:1055600004F094F902B00C23BDE810404FF4E5724A
:105570000421034804F010BB1CBD00007C00002087
:105580007CC3020831B525F09BF9A02025F060F915
:1055900025F0C6F970B99DF8000025F059F925F0FD
:1055A000BFF938B925F08CF9A12025F051F925F083
:1055B000B7F918B125F0A0F9002038BD25F01CF985
:1055C000034C207025F000F925F096F9207838BDBD
:1055D0007400002070B50120FFF7D4FFFE4C20605E
:1055E0000120FFF7CFFF206020680002206002202A
:1055F000FFF7C8FF2168084420602068000220608F
:105600000320FFF7BFFF21680844206020680002E4
:1056100020600420FFF7B6FF2168084420600520C1
:10562000FFF7B0FFED4D28602868000228600620D3
:10563000FFF7A8FF2968084428602868000228604E
:105640000720FFF79FFF29680844286028680002A8
:1056500028600820FFF796FF296808442860C020CA
:10566000FFF790FF6063606B00026063C120FFF78B
:1056700089FF616B08446063606B00026063C22055
:10568000FFF780FF616B08446063606B000260633A
:10569000C320FFF777FF616B08446063C420FFF706
:1056A00071FF6863686B00026863C520FFF76AFFDB
:1056B000696B08446863686B00026863C620FFF783
:1056C00061FF696B08446863686B00026863C72008
:1056D000FFF758FF696B08446863C820FFF752FF63
:1056E000A063A06B0002A063C920FFF74BFFA16B72
:1056F0000844A063A06B0002A063CA20FFF742FF2A
:10570000A16B0844A063A06B0002A063CB20FFF74D
:1057100039FFA16B0844A063CC20FFF733FFA863D7
:10572000A86B0002A863CD20FFF72CFFA96B0844EB
:10573000A863A86B0002A863CE20FFF723FFA96B24
:105740000844A863A86B0002A863CF20FFF71AFFE4
:10575000A96B0844A8630920FFF714FF6060606824
:10576000000260600A20FFF70DFF61680844606076
:105770006068000260600B20FFF704FF6168084466
:1057800060606068000260600C20FFF7FBFE6168EB
:10579000084460600D20FFF7F5FE6860686800024D
:1057A00068600E20FFF7EEFE69680844686068686C
:1057B000000268600F20FFF7E5FE69680844686032
:1057C0006868000268601020FFF7DCFE6968084422
:1057D00068601120FFF7D6FEA060A0680002A060FC
:1057E0001220FFF7CFFEA1680844A060A068000265
:1057F000A0601320FFF7C6FEA1680844A060A0685F
:105800000002A0601420FFF7BDFEA1680844A0605C
:105810001520FFF7B7FEA860A8680002A860162050
:10582000FFF7B0FEA9680844A860A8680002A86055
:105830001720FFF7A7FEA9680844A860A86800021F
:10584000A8601820FFF79EFEA9680844A8601920E8
:10585000FFF798FEE060E0680002E0601A20FFF7C2
:1058600091FEE1680844E060E0680002E0601B200F
:10587000FFF788FEE1680844E060E0680002E0604D
:105880001C20FFF77FFEE1680844E0601D20FFF761
:1058900079FEE860E8680002E8601E20FFF772FE0B
:1058A000E9680844E860E8680002E8601F20FFF744
:1058B00069FEE9680844E860E8680002E8602020C2
:1058C000FFF760FEE9680844E8602120FFF75AFE10
:1058D00020612069000220612220FFF753FE216928
:1058E000084420612069000220612320FFF74AFE5E
:1058F0002169084420612069000220612420FFF70B
:1059000041FE2169084420612520FFF73BFE286104
:105910002869000228612620FFF734FE296908441F
:1059200028612869000228612720FFF72BFE2969DA
:10593000084428612869000228612820FFF722FE18
:105940002969084428612920FFF71CFE606160690D
:10595000000260612A20FFF715FE6169084460615A
:105960006069000260612B20FFF70CFE616908444A
:1059700060616069000260612C20FFF703FE6169CD
:10598000084460612D20FFF7FDFD68616869000231
:1059900068612E20FFF7F6FD69690844686168694F
:1059A000000268612F20FFF7EDFD69690844686116
:1059B0006869000268613020FFF7E4FD6969084406
:1059C0006861AB20FFF7DEFDE062E06A0002E062A2
:1059D000AC20FFF7D7FD03E0F00A0020440B0020C5
:1059E000E16A0844E062E06A0002E062AD20FFF78D
:1059F000C9FDE16A0844E062E06A0002E062AE20AC
:105A0000FFF7C0FDE16A0844E062AF20FFF7BAFD8E
:105A1000E862E86A0002E862B020FFF7B3FDE96AD5
:105A20000844E862E86A0002E862B120FFF7AAFDD4
:105A3000E96A0844E862E86A0002E862B220FFF717
:105A4000A1FDE96A0844E862B720FFF79BFD2063E7
:105A5000206B00022063B820FFF794FD216B0844FF
:105A60002063206B00022063B920FFF78BFD216BC0
:105A700008442063206B00022063BA20FFF782FDF8
:105A8000216B08442063BB20FFF77CFD2863286B53
:105A900000022863BC20FFF775FD296B08442863CA
:105AA000286B00022863BD20FFF76CFD296B0844BA
:105AB0002863286B00022863BE20FFF763FD296B73
:105AC000084428633120FFF75DFDA061A069000252
:105AD000A0613220FFF756FDA1690844A061A069CA
