:020000040802F0
:10000000C890002095020208D71803083DC00208D6
:10001000D51803081D2F020825CC03080000000096
:10002000000000000000000000000000CB8003087A
:100030007F54020800000000495303082593030879
:10004000AF020208AF020208AF020208AF020208C4
:10005000AF020208AF020208AF020208AF020208B4
:10006000AF020208AF020208AF020208AF020208A4
:10007000AF020208AF020208AF020208AF02020894
:10008000AF020208AF020208AF020208AF02020884
:10009000AF020208AF020208AF020208AF02020874
:1000A000AF020208AF020208AF020208AF02020864
:1000B000AF02020835980308359C0308AF02020816
:1000C000AF020208AF020208AF020208AF02020844
:1000D000AF020208C5C70308AF020208E1C803085F
:1000E000AF020208AF020208AF020208AF02020824
:1000F000AF020208AF020208AF020208AF02020814
:10010000AF020208AF02020849A30308AF020208C7
:10011000AF020208AF02020829A40308AF020208D6
:100120009D520208AF020208AF020208AF020208A5
:10013000AF020208AF020208AF020208AF020208D3
:10014000AF020208AF020208AF020208AF020208C3
:10015000AF020208AF020208AF020208AF020208B3
:10016000AF020208AF020208AF020208AF020208A3
:10017000AF020208AF020208AF020208AF02020893
:10018000AF020208AF02020800F002F800F072F8B5
:100190000AA090E8000C82448344AAF10107DA45E2
:1001A00001D100F067F8AFF2090EBAE80F0013F0C2
:1001B000010F18BFFB1A43F00103184784FA04002B
:1001C000A4FA04000A444FF0000C10F8013B13F0AD
:1001D000070408BF10F8014B1D1108BF10F8015BA0
:1001E000641E05D010F8016B641E01F8016BF9D193
:1001F00013F0080F1EBF10F8014BAD1C0C1B09D1EA
:100200006D1E58BF01F801CBFAD505E014F8016B5B
:1002100001F8016B6D1EF9D59142D6D370470000ED
:100220000023002400250026103A28BF78C1FBD8FF
:10023000520728BF30C148BF0B607047662930F0B5
:10024000D180642900F08280002070471FB530F013
:10025000BCF800F093FE0400002000212FF0BEFA4D
:10026000401C6060002000212FF0A2FAE0601FBD5A
:1002700010B510BD00F0F6FF1146FFF7E7FF2EF0B6
:100280009BFD01F09FFA03B4FFF7F2FF03BC01F0FE
:10029000CDFC00000948804709480047FEE7FEE71B
:1002A000FEE7FEE7FEE7FEE7FEE7FEE7FEE7FEE726
:1002B00004480549054A064B70470000ED930308C2
:1002C00089010208C88A0020C8900020C88C00203C
:1002D000C88C00200FB41CB5074B06AA7B446946A6
:1002E0000090059800F03BFD0020694600F04AFDB3
:1002F0001CBC5DF814FB0000A50A000070B50446A4
:1003000085690068C10601D5302600E02026C007B7
:1003100007D070BDD4E9012130469047206A401CC7
:1003200020626D1EF6D570BD70B5044685690078F3
:10033000C00707D170BDD4E9012120209047206A71
:10034000401C20626D1EF6D570BD00002DE9F04105
:100350000646002410687529314616A510D0AFF363
:100360000080002802DA404213A507E031688A07BE
:1003700001D512A502E0490704D511A5012401E029
:10038000AFF3008000210A2206F1240709E0B0FB48
:10039000F2FCB0FBF2F302FB1C003030785418463C
:1003A000491C0028F3D123462A463046BDE8F041D7
:1003B00000F067BA000000002D0000002B000000D4
:1003C000200000002DE9F05F894604464FF0000A46
:1003D000DFF824B1FB44C0F820A02046E16888473C
:1003E00000287DD0252806D0D4E901219047206A35
:1003F000401C2062F1E700255F462046E1688847FF
:100400002028064607DB312E05D2B81910F8200C3B
:1004100008B10543F1E7A80701D525F00405C4F8A4
:100420001CA00027C4F818A02A2E09D030462EF0B0
:1004300065FA38B304EB8708303EC8F8186019E055
:1004400059F8041B204604EB87029161E168884754
:10045000012F064618D1E069002820DA25F0200592
:100460001DE0D8F8180000EB800006EB40003038A3
:10047000C8F818002046E168884706462EF03EFA84
:100480000028EED1012F0AD02E2E08D12046E16897
:1004900088477F1C0646022F45F02005C4DBA06973
:1004A000002803DA404245F00105A061E80701D0C9
:1004B00025F01005A6B1A6F14100192802D8203672
:1004C00045F400654A463146204625604D46FFF713
:1004D000B5FE60B1012807D0ED1D25F0070000E052
:1004E00007E000F1080978E705F1040975E73046EF
:1004F0007AE7206ABDE8F09F84F7040070B50646ED
:1005000000F0B0F90468054630460A22002100F0E8
:1005100091FC2C6070BD40EA0103024630B59B0798
:1005200010D14FF0013400E008C208C91D1B9D43E3
:1005300015EAC41FF8D013F0FF0102F8011B0DD01B
:100540001B0AF8E711F8013B002B02F8013B05D02C
:1005500011F8013B002B02F8013BF3D130BD10B57F
:10056000431C02E010F8011B71B18107FAD14FF072
:10057000013202C88C1A8C4314EAC211F9D0C01A95
:100580000A0603D0C01E10BDC01A10BD0A0401D057
:10059000801E10BD0902FCD0401E10BD421E12F884
:1005A000013F002BFBD111F8013B002B02F8013B6E
:1005B000F9D17047032A40F2308010F0030C00F0AC
:1005C000158011F8013BBCF1020F624498BF11F88D
:1005D00001CB00F8013B38BF11F8013BA2F1040246
:1005E00098BF00F801CB38BF00F8013B11F00303BE
:1005F00000F06780083AC0F0088051F8043B083AE0
:1006000051F804CBA0E80810F5E7121D5CBF51F8C3
:10061000043B40F8043BAFF30080D20724BF11F83D
:10062000013B11F801CB48BF11F8012B24BF00F8A2
:10063000013B00F801CB48BF00F8012B7047431A7B
:1006400028BF9A427FF6B6AF032A1044114440F205
:10065000268010F0030F1EBF11F8013D521E00F856
:10066000013D10F0030F7FF4F6AF11F0030300F02B
:100670002C84083AC0F00B8051F8043D083A51F838
:1006800004CD40F8043D40F804CDFFF7F3BF121D40
:100690005CBF51F8043D40F8043DAFF30080D20741
:1006A00024BF11F8013D11F801CD48BF11F8012C0C
:1006B00024BF00F8013D00F801CD48BF00F8012C2F
:1006C000704710B5203AC0F00B80B1E81850203ABE
:1006D000A0E81850B1E81850A0E81850BFF4F5AFE2
:1006E0005FEA027C24BFB1E81850A0E8185044BF6C
:1006F00018C918C0BDE810405FEA827C24BF51F8D9
:10070000043B40F8043B08BF7047D20728BF31F8CC
:10071000023B48BF11F8012B28BF20F8023B48BF1D
:1007200000F8012B704702F0FF0343EA032242EA7C
:10073000024200F0F6BB4FF0000200B513469446AB
:100740009646203922BFA0E80C50A0E80C50B1F129
:100750002001BFF4F7AF090728BFA0E80C5048BF3D
:100760000CC05DF804EB890028BF40F8042B08BFDB
:10077000704748BF20F8022B11F0804F18BF00F8D7
:10078000012B704710B5044610F0030F08BF11F09D
:10079000030F40F015804FF0013E121FC0F20E8093
:1007A00051F8043BA3EB0E0C2CEA030C1CEACE1C04
:1007B00008BF40F8043BF0D0A1F1040102F10402AB
:1007C000521E08DB11F8013B002B00F8013BF7D16A
:1007D000114600F0A4FB204610BD00004FF0013C84
:1007E00050F8042B51F8043B9A4221D1A2EB0C03A0
:1007F000934313EACC1317D150F8042B51F8043B60
:100800009A4215D1A2EB0C03934313EACC130BD1FC
:1008100050F8042B51F8043B9A4209D1A2EB0C0387
:10082000934313EACC13DBD04FF00000704700BFB6
:10083000D01A01BAB1FA81F101F0180122FA01F0DF
:10084000CB40C1F12001DBB2C0B2C01A2CFA01F3D7
:10085000D11A914311EAC311E6D17047704770472E
:100860007047000000487047648A002010B5FFF709
:10087000F9FF006810BD10B50446FFF7F3FF0460F0
:1008800010BD2DE9F0470D4699469246044600F109
:1008900024080168880604D5E06921F01001216070
:1008A00000E00120A84201DD471B00E00027A1690C
:1008B0007A1902EB0900081AA0612078C00602D458
:1008C0002046FFF71BFD002608E0D4E901211AF8B5
:1008D00006009047206A401C761C20624E45F4DBDF
:1008E0002078C0060AD52046FFF708FD06E0D4E9C7
:1008F000012130209047206A401C2062381EA7F159
:100900000107F4DC07E0D4E9012118F8050090475D
:10091000206A401C2062281EA5F10105F3DC204658
:10092000FFF702FD2078000602D50220BDE8F0871F
:100930000120FBE770472DE9FF4F0C461E464FF0A4
:10094000FF378BB0D2E90001DDF860800A908A465B
:10095000C1F30A5505B93D46002108464FF0000095
:10096000BAF1000F00F4400005DA00EB80004FF40C
:10097000400101EA50004FEA9059B9F1010F00DD42
:10098000B9460A9850EA4A000ED044F61050A5F233
:10099000FF3545432F14B8F1000F1ED07542291EB4
:1009A0001EDDC9F100021CE0B8F1010F4FF000009C
:1009B00001D0302103E0F24305E02154401CB04255
:1009C000FBDB30460022002121540B99C1F808803E
:1009D000C1E900200FB0BDE8F08FBD1B6D1CDEE744
:1009E0004A4600DA694206A800F0CAFB06AB93E863
:1009F000070003AB83E8070050460A9901F030F97D
:100A00008DE80700A0F500501F3800900398002DD6
:100A10000ADD42F21F014A460844002303A903905D
:100A2000684601F0DBFB09E0A0F500504A461F389C
:100A3000002303A90390684601F0FAFB8DE8070044
:100A40000004000C03D04FF0FF30410800E01046D6
:100A5000B8F1000F03D00022009215461EE0751E6B
:100A600005D400F08FFA303262556D1EF9D5B346C9
:100A70000122084302D000227F1C04E020783028A5
:100A800001D100227F1E002A099784D01DE0112D7C
:100A900007DA00F077FA303262556D1C50EA010235
:100AA000F5D1084302D00098C8B10EE00021681EBD
:100AB00005E0235C625C63542254401E491C814261
:100AC000F7DBAB46A81B401E0990002004F80B0082
:100AD0000B98099AC0F80880C0E9002B7AE7112624
:100AE0004FF0000857E72DE9F04F88460446D21D25
:100AF00022F0070191B0D1E90001CDE90A0126F009
:100B000063FC02460B98C00F01D02D2007E020683F
:100B1000810701D52B2002E0202101EAC000032A31
:100B2000099001D0072A05DB03464146204600F024
:100B300077FA0BE12078800601D5E06900E0062015
:100B4000B8F1650F814606D0B8F1660F18D0B8F13C
:100B5000670F70D131E00020B9F1110F009001DB77
:100B6000112301E009F101030AAA01A90CA8FFF76A
:100B7000E2FEDDE90C70002609F10105834647E03D
:100B800001204B4600904FF000470AAA01A90CA88B
:100B9000FFF7D1FEDDE90DB00C995D46002610B9D6
:100BA00009F101000D18B9EB050003D4C0F1FF36BF
:100BB00009F10105A5EB09002BE0B9F1010F01DAFC
:100BC0004FF001090020B9F1110F0090484601DDF6
:100BD000112300E003460AAA01A90CA8FFF7ABFE07
:100BE000DDE90C704D4600268346207800070AD4C4
:100BF000AB4500DA5D4601A8012D04DD411911F86D
:100C0000011C302907D04F4502DA17F1040F04DA2E
:100C1000012082460FE06D1EEEE7002F02DCED1B87
:100C20003E4403E0781CA84200DD7D1CB81B00F1A7
:100C3000010A4FF000472078000703D4AA4501DBE2
:100C40004FF0FF3A0021B7F1004F0DF143088DF846
:100C5000431024D002202B23002F01DA7F422D23C2
:100C60000A21021EA0F1010000DC5FB197FBF1FC3C
:100C700097FBF1F201FB1C7C17460CF1300C08F8D5
:100C800001CDEEE7A8F1010003702188090501D527
:100C9000452100E06521A0F1010800F8011C099838
:100CA0000FA9A1EB0807FF1D00B10120411901EBBD
:100CB000EA70A1693844081A401EA0612078C00675
:100CC00002D42046FFF71AFB099828B1D4E9012184
:100CD0009047206A401C20622078C00622D520461A
:100CE000FFF70CFB1EE0002E04DBB34502DD01A87C
:100CF000805D00E03020D4E901219047206A401C4B
:100D00002062761CAAF101005FEA000A0AD100F015
:100D100035F9C0680168405CD4E901219047206A38
:100D2000401C2062281EA5F10105DCDC07E0D4E9A7
:100D3000012118F8010B9047206A401C2062381EE0
:100D4000A7F10107F3DC2046FFF7EEFA032011B00C
:100D500041E6000001694A1C02610878704700B54D
:100D60008FB0CDE901310021059105497944CDE9E4
:100D7000031011466846FFF725FB0FB000BD0000C9
:100D8000E5FFFFFF0A6802F8010B0A6070470000E8
:100D90000FB4002300B589B00CA900910B99CB606A
:100DA000214B7B440693214B7B44079304236FF034
:100DB0000042CDE901321E4A7A446B46089202464F
:100DC00000202FF071FB09B05DF814FB70B50646EA
:100DD0004FF0FF3015460C46324686B00091CDE903
:100DE000010169460020049004A8FFF7D1FF0246E4
:100DF0000498211825B108B1084600E02046286073
:100E0000049800280DD0002A02DD0098884208D0FE
:100E10003246081B69460094CDE9010404A8FFF797
:100E2000B7FF06B070BD0000FB0200001303000016
:100E3000530200002DE9F04791460F4680460446D4
:100E4000002614F8015B2DB100F090F80068405DB9
:100E5000C007F6D12B2D02D02D2D18D0641E4A4686
:100E60003946204600F03CF927B13968A14201D14A
:100E7000C7F800804FF0020471050BD540420028EE
:100E800003DDFFF7EFFC0460A007BDE8F08746F440
:100E90008066E4E70028F8DAFFF7E4FC04606FF00E
:100EA0000040F2E7431A28BF9A427FF60AAC10448A
:100EB00010F0030F11441EBF11F8013D521E00F83F
:100EC000013D10F0030F7FF4F6AF103AC0F00A8036
:100ED00010B531E91850103A20E91850BFF4F9AFB5
:100EE000BDE81040530724BF31E9081020E908107D
:100EF00044BF51F8043D40F8043D12F0030F08BF11
:100F00007047D20728BF31F8023D48BF11F8012CC5
:100F100028BF20F8023D48BF00F8012C70474FF071
:100F200000020429C0F0128010F0030C3FF405AC5D
:100F3000CCF1040CBCF1020F18BF00F8012BA8BFC4
:100F400020F8022BA1EB0C01FFF7F7BB5FEAC17C95
:100F500024BF00F8012B00F8012B48BF00F8012B3B
:100F60007047000000487047648A002010B500F008
:100F700005F8001D10BD00BF65E80200004870477D
:100F8000848A002030B5B0F10A024FEA900E71F168
:100F900000034EEA817EB0EB0E0061EB91014FEA57
:100FA000101E4EEA017E10EB0E0041EB11114FEACC
:100FB000102E4EEA016E10EB0E0041EB11214FEAAC
:100FC000104E4EEA014E10EB0E0041EB114140185D
:100FD00041F100014FEAD00040EA41704FEAD101EF
:100FE00010EB80054FEA810444EA907444EB01045D
:100FF0006D1944EB0404521BA3414FF0000348BF9A
:101000000A3200D530BD401C41F1000130BD10B5A1
:101010000446FFF7ABFF0068005D00F0010010BD63
:101020002DE9F0411F46044603260168072A01F412
:10103000006004DB08B116A505E016A503E008B1C1
:1010400015A500E015A521F010002060A069C01EC4
:10105000A0610FB1401EA0612046FFF74FF94FB1CC
:10106000D4E9012138469047206A401C2062C01C08
:10107000206206E0206AFAE7D4E9012115F8010BA5
:101080009047761EF8D22046FFF74EF9BDE8F08172
:101090004E414E006E616E00494E4600696E66001C
:1010A000426842B1016811F8013B23B1521EC0E908
:1010B0000012184670470121C160881E70474268BF
:1010C0005AB1C368016843B983688B4205D0491E91
:1010D000521CC0E90012002070474FF0FF307047EB
:1010E0002DE9F05F824615468B4600270AF1010480
:1010F000B9460078302801D09DB113E014F8010BF7
:101100000127782803D0582801D045B10AE00DB155
:10111000102D07D1002714F8010B102502E0082537
:1011200000E00A250026B0460EE005FB080005FB9E
:1011300006F101271FFA80F801EB1046B6F5803F53
:1011400000D3B94614F8010B294600F0B0F8002886
:10115000EBDABBF1000F05D00FB1641E00E054467E
:10116000CBF80040B9F1000F06D0FFF77BFB02215E
:101170000160C81EBDE8F09F48EA0640FAE700009B
:101180002DE9F047814616468AB0354878440DC8A7
:101190008DE80D0032487844801C03AC0DC884E80B
:1011A0000D0041F69B300844372190FBF1F290FB93
:1011B000F1F5A5F1800501FB12041B3C02D5644248
:1011C000012000E00020DFF898A080460027FA44C4
:1011D000AAF1BE0A0EE0E0070AD03246684607EBE5
:1011E000470101230AEB810101F022F88DE8070095
:1011F00064107F1C002CEED1194F7F44AE3F19E0E4
:10120000E80715D007EB04100DF1180A90E80E005E
:101210008AE80E00C068F04201D198190890324661
:10122000012306A903A801F003F803AB83E8070034
:101230006D10641C002DE3D14FF001033246694666
:10124000B8F1000F03A802D000F0C8FF01E000F0E1
:10125000EFFFC9E90001C9F808200AB0BDE8F0872E
:101260005CEA04007546FFF77DFEAE460500694660
:10127000534620F00700854618B020B5FFF718F850
:10128000BDE820404FF000064FF000074FF0000887
:101290004FF0000B21F00701AC46ACE8C009ACE808
:1012A000C009ACE8C009ACE8C0098D4670473A28CF
:1012B00000D2303820F02002412A01D3A2F13700B9
:1012C000884201D34FF0FF30704700002DE9FF4FF7
:1012D00006468BB00878FF2806D0491C2D2805D07B
:1012E00000244FF0000908E000200CE00124F8E79A
:1012F00009EB8903491C00EB43090878FF28F7D163
:1013000014B1C9F100008146107800252C46AA4688
:1013100029462D2801D02B2804D1521C2D2813D06A
:10132000002082468B461078FF280FD04FF0000C2B
:101330000A21521CA5FB017804FB018105FB0C115D
:10134000C5194BEB0104EEE70120EAE7002108464E
:101350004FF00000BAF1000F02D000EB800040080F
:10136000C0F38157012F01DD4FF0FF370E9955EA89
:10137000040009EB01080BD04FF0020918F5FA7FC1
:1013800016DA4FEACA70002F706008DD012007E00E
:101390004FEACA70C6E900B00FB0BDE8F08F002078
:1013A0003060FFF75FFAC0F800901821084616E099
:1013B000B8F5FA7F18DD002F02DAF748784401E02B
:1013C000F6487844D0E90010C6E9001040EACA7037
:1013D0007060FFF747FAC0F80090142108460FB07C
:1013E000BDE8F04F2EF0FBBF002108464FF0000093
:1013F000B8F10001099002DAC7F1000200E03A46B4
:1014000001DAC8F1000106A8FFF7BAFE06AB93E8BF
:10141000070003AB83E8070044F23E005BEA0401E7
:101420000090584604D144F21E012C465D460091BE
:10143000210C0904014306D10099240444EA15440F
:101440002D041039009104F07F41014306D1009929
:10145000240244EA15642D020839009104F0704119
:10146000014306D10099240144EA15742D01091F96
:10147000009104F04041014306D10099A40044EAE0
:101480009574AD00891E009104F00041084304D119
:1014900000986D196441401E00904FF001033A46D8
:1014A0006846B8F1000FCDE9014503A902DD00F05F
:1014B000D4FE01E000F0A7FEBAF1000F04460D468D
:1014C00001D084F00044002108464FF00000099943
:1014D00040F2FF77484010F00C0F07D124F0004095
:1014E000284303D0C4F30A50B84212D1FFF7BAF927
:1014F000C0F80090C4F30A50B8420AD1A848784412
:10150000D0E90010C6E9001004F000410843706003
:1015100042E7C6E900543FE72DE9FF4F1F464FF071
:10152000000A4FF0FF38454691B0D7E90146CDF8A3
:101530003CA0FFF723FDC0680168405C1090B969CA
:1015400012986D1C8847396A814688470028F6D171
:10155000B9F1FF3F0AD0002E24F4D06411DDB9F1B7
:101560002B0F08D0B9F12D0F0BD102E0404615B07A
:1015700013E744F48064B96912986D1C8847761E9D
:101580008146600504A901D52D2000E02B20002E06
:1015900001F1010B0DF130088DF810003FDDB9F1BC
:1015A000690F08D0B9F1490F05D0B9F16E0F02D01B
:1015B000B9F14E0F1CD13B4601A8009580E85002BE
:1015C000DDE912126FF002002EF072FFC11CCED1C5
:1015D0000EE0B96912986D1C884781461398761EF3
:1015E00044F4007405600F98401C002E0F9016DD27
:1015F000B9F1300FEDD0B9F1780F02D0B9F1580F31
:101600000DD10F9801280AD13B46CDE90054DDE900
:101610001212001F02962EF049FFC11CA7D110998B
:1016200089453ED144F0800406E01399681CAAF174
:10163000010A44F400740860B9696D1C1298761EA2
:10164000884730288146F0D02BE01099894505D194
:10165000200603D4761E44F0800418E048462DF09E
:101660004DF908B3761E0DF123018B4544F4007447
:1016700008D2A9F130000BF8010B200607D5AAF11A
:10168000010003E0200602D40AF101008246A00511
:1016900002D51399681C0860B96912986D1C8847B7
:1016A0008146002ED1DC53E0002E51DDB9F1650FEB
:1016B00002D0B9F1450F4BD1A00549D5B9696D1CD0
:1016C0001298761E24F440748847002E81460CDD63
:1016D0002B2804D0B9F12D0F07D144F48074B969D7
:1016E00012986D1C8847761E8146E00501D52D2194
:1016F00000E02B2108F8011BCDF8008021E0761EC8
:101700000DF13901884544F400740CD2A9F1300080
:1017100010F0FF0088F8000002D10099884509D92F
:1017200008F1010806E0E00501D51E4801E042F29B
:101730000F708246B96912986D1C884781461398CC
:101740000560002E04DD48462DF0D8F80028D6D1DB
:10175000F96912988847FF2053468BF8000088F8F3
:10176000000000200A900B9004AA0CA90AA8FFF719
:10177000ADFDA00502D46FF00100F8E614F0240FCF
:1017800012D0E0071CD13868DDE90A12031D3B6066
:101790000068C0E9001213E0A8E804009AE8040019
:1017A0005EE70400F1D8FFFF0AA9684626F05CF85E
:1017B000E00705D13868009A011D396000680260B1
:1017C0002846D4E610B50446AFF300802046BDE8B5
:1017D0001040FEF758BD00002DE9FF4F1F464FF0A7
:1017E0003C0987B04FF00042DDE9141001F1010817
:1017F000DDF858A002EA405003900020059083468F
:10180000054604460490B969461E08988847AAF11F
:10181000010A0290BAF1000F3BDD02982E2815D084
:101820001021FFF744FD00282EDB4FF0010B059936
:10183000014317D0B9F1000F0BDB4A46C11700F086
:10184000FBF905430C43A9F1040905E001200490CC
:101850000BE008B145F0010501200590049820B97E
:10186000361D02E0049800B1361FB969089808F1E6
:1018700001088847BBF1000FAAF1010A0290C9D004
:101880000999C1F80080C5E70298702808D050284F
:1018900006D0F96908988847BBF1000F14D04FE0D3
:1018A000002002900120BBF1000F049009D0B9691B
:1018B000089808F101088847AAF10109B9F1000F59
:1018C00007DCF969089888476FF001000BB0BDE8A4
:1018D000F08F2B2804D02D280CD14FF0FF3004902E
:1018E000B969089808F101088847A9F10109B9F117
:1018F000000FE6DD411CE4D00A21FFF7D8FC0028E8
:10190000DFDB029908F1010801EB810100EB4100E6
:101910000290B969089888470A21FFF7C8FC099A1C
:10192000A9F10109B9F1000FC2F8008001DD00281A
:10193000E7DAF969089888470499029800FB01667C
:1019400055EA040004D004F04041090002D006E04A
:10195000039898E0A40044EA9574AD00B61E04F024
:101960000041080002D16D196441761E159810F0EF
:10197000240F03D04FF00B095C4803E04FF0280917
:101980006FF07D008246564507DAAAEB06018944CE
:10199000B9F1410F01DD4FF0410901200021A9F10A
:1019A000010200F049F9024628400B462140084355
:1019B00001D0012100E00021501E029143F1FF31CE
:1019C00028402140084301D0012000E00020029976
:1019D000834651EA0B014FD0002108464FF000002A
:1019E000039900F4400039B100EB80004FF440014E
:1019F00000EBD07001EA60008015012802DD4FF095
:101A0000FF3000E013D0401C36D0029860B3BBF129
:101A1000000F0CD14A460120002100F00DF92840AA
:101A20002140084301D0012000E00020E0B1012066
:101A30004A46002100F000F9034640190A46614178
:101A40002D1A8C4111D3B9F1400F09DD159810F012
:101A5000240F02D0AAF1340603E0AAF1170600E031
:101A6000761C00254FF0004406E05B1E42F1FF3279
:101A700020EA030521EA0204CAF10100B04206DAB5
:101A80001B49039808430190002000900EE0039A40
:101A9000C4F3D321E80A0A43164940EA44500A43F2
:101AA0003146CDE90002684625F0E7FE159810F0B2
:101AB000240F0BD01598C00715D13868DDE9001246
:101AC000031D3B600068C0E900120CE002A86946F3
:101AD00025F0CAFE1598C00705D13868029A011D85
:101AE0003960006802604046F0E6000002FCFFFF3B
:101AF0000000F07F0000F03F2DE9FF4F92461D46A9
:101B000085B04FF00041DDE9124BDDE914727F1E14
:101B100001EA4B50414940F0FF4940EA01080021E9
:101B200022F020004928049102D04E2828D04CE011
:101B30003BA0012607C88DE80700A9690698641C28
:101B400088477F1E014606D41DF8060018B121F013
:101B5000200181420BD0E96906988847032E34D0D2
:101B6000082E32D06FF0010009B0BDE8F08F761C6E
:101B7000032E01D0082EE0D1601CCAF80000DCE77B
:101B8000A9690698641C88477F1E2AD420F020008B
:101B9000412826D1A9690698641C88477F1E20D455
:101BA00020F020004E281CD1A9690698641C8847A3
:101BB0007F1E48F4002849F48009CAF8004001D487
:101BC000282806D0E969069888475FEACB7012D0CA
:101BD00022E0A9690698641C88477F1E01D400286A
:101BE00003DAE96906988847BCE72928F1D1641C23
:101BF000CAF80040E9E71BF0240F07D028680499D1
:101C0000031D2B600068C0E9001805E02868021D6C
:101C10002A600068C0F800902046A5E70000F07F29
:101C2000494E46494E4954590000000001491820C8
:101C3000ABBEFEE726000200B2F120030AD5C2F1D6
:101C4000200301FA02F120FA03F300FA02F041EA5C
:101C50000301704700FA03F14FF00000704770472E
:101C60005FEA400C08BF91F0000F4FEA8C234FEA67
:101C7000C12243EA51514FEA1C5018BF00F5F04011
:101C80004FEA300018BF41F000415FEA6C5C00F0A1
:101C90002980BCF1FF3F08BF40F080407047130C23
:101CA00006BF12044FF0100C4FF0000C130E04BFCF
:101CB00012020CF1080C130F04BF12010CF1040CFA
:101CC000930F04BF92000CF1020CD30F04BF52001B
:101CD0000CF1010C11464FF00002A0F11F00A0EB27
:101CE0000C00704711F0004F08BF704731F0004101
:101CF0003FF4D5AF0B0C06BF09044FF0100C4FF0AA
:101D0000000C0B0E04BF09020CF1080C0B0F04BFF2
:101D100009010CF1040C8B0F04BF89000CF1020CBB
:101D2000CB0F04BF49000CF1010CCCF12003A0EB58
:101D30000C0022FA03F302FA0CF241EA030100F16B
:101D40000100704720F07F4C80EA030023F07F47BA
:101D5000ACEB070303F57C5300F0004003F1FF03F5
:101D60002DE980494FEA154B09B44FEA144325EA9F
:101D70000B4E24EA03480FF2042606EB132749080A
:101D80003E785FEA320203FB0667C7F5000707FBF0
:101D900006F64FEA54374FEAD64606F1020607FB2D
:101DA000066CCCF1005C4FEA1C472CEA074C07FBA1
:101DB00006F40CFB06F504EB15464FEA961634BF05
:101DC00000204FF000404FEAD13706FB07FC4FEAF6
:101DD0001C4C0CFB0BF7D21B03FB0CF761EB070150
:101DE0000CFB0EF7B0EB074072EB17420CFB08F749
:101DF00034BFA2EB0742B2EB074261EB17414FEA57
:101E00000C444FEA910706FB07FC4FEA1C4C0CFB05
:101E10000BF7B0EBC74072EB573203FB0CF734BF44
:101E2000A2EBC742B2EBC74261EB57310CFB0EF796
:101E3000B0EBC70072EB57720CFB08F734BFA2EB94
:101E4000C702B2EBC70261EB5771039F4FEA816192
:101E500041EA921104EBCC044FEAD1374FEA826297
:101E600006FB07FC42EA90124FEA80604FEA1C4CE6
:101E70000CFB0BF7D21B03FB0CF761EB07010CFB10
:101E80000EF7B0EB074072EB17420CFB08F734BFBC
:101E9000A2EB0742B2EB074261EB17414FEA8C55C8
:101EA0004FEA910704EB9C2406FB07FC4FEA1C4C0D
:101EB0000CFB0BF7B0EBC74072EB573203FB0CF790
:101EC00034BFA2EBC742B2EBC74261EB57310CFB08
:101ED0000EF7B0EBC70072EB57720CFB08F734BF7C
:101EE000A2EBC702B2EBC70261EB577115EB4C25B1
:101EF0004FEA816141EA92114FEA82624FEAD1379B
:101F000042EA901206FB07FC44F100044FEA8060AD
:101F10004FEA1C4C0CFB0BF7D21B03FB0CF761EBDD
:101F200007010CFB0EF7B0EB074072EB17420CFBFE
:101F300008F734BFA2EB0742B2EB074261EB17414F
:101F400015EB1C154FEA813141EA92414FEA82328A
:101F500042EA90424FEA80304FEA0C7644F10004A6
:101F600048EA03434EEA0B484FF0000EB2EB080C70
:101F700071EB030724BF624639464EEB0E0E4FF05D
:101F8000000B0018524149414BEB0B0BB2EB080C14
:101F900071EB03077BF1000B24BF624639464EEB21
:101FA0000E0E4FF0000B0018524149414BEB0B0B4A
:101FB000B2EB080C71EB03077BF1000B24BF624608
:101FC00039464EEB0E0E51EA020718BF46F00106E5
:101FD00016EB0E7655F1000254F1000103D5BDE871
:101FE0008901BDE80088BDE88901BDE80048B6194F
:101FF000524141EB0101A3F10103704780807F7ED4
:102000007D7C7B7A7978777676757473727171706E
:102010006F6E6E6D6C6C6B6A6A6968686766666520
:102020006464636362616160605F5F5E5E5D5D5CAE
:102030005C5B5B5A5A59595858575756565555551F
:102040005454535352525251515050504F4F4F4E7F
:102050004E4D4D4D4C4C4C4B4B4B4A4A4A494949CD
:10206000484848474747474646464545454444440F
:1020700044434343434242424241414146EA0646C9
:10208000A3F570534FEA164646EA42564FEAD2226B
:1020900042EA415210B54FEAD121A3F1010300F009
:1020A0002FF820F0004000F1020C00F0004701EB97
:1020B00000501146BCF5006F40EA070000D210BD89
:1020C000BAF1000F0AD01CB503B44FF004004FF072
:1020D00004014FF000000FBCBDE810404FF00001BC
:1020E000BBF1010FB9BF04484FF0FF310348002195
:1020F00040EA070010BD00BFFFFFEF7F0000F07F48
:10210000002B9C4630D477002BD01CB54FEA370704
:1021100003B44FF010004FF01001BAF1000F06D0D9
:10212000BCF1000FDCBF40F0080040F008014FF0A8
:1021300000000FBCBDE810400BF1010BBBF1010F1B
:1021400008BF5FEA170722BF12F1010211F1010176
:102150004FF0004143F1000300F0004043EA00006B
:102160007047F9D35708D0E746EA064613F1400F07
:102170004FEA16461FDD13F1200FDFBF16430A4654
:10218000002120335B42BED0C3F1200746EA064659
:1021900002FA07F74FEA164646EA0706C3F1200798
:1021A00022FA03F201FA07F721FA03F14FF00003D4
:1021B00042EA0702A7E746EA020646EA06464FEA6F
:1021C000164646EA0106BCBF46EA0646360C4FF004
:1021D00000034FF000024FF0000194E72DE9804C1E
:1021E0009A46934670B491E8380007C831EA400C2B
:1021F00048BF34EA430C03D5FFF7A4FDFFF780FF87
:10220000F0BCBDE8008C2DE9804C9A46934670B432
:1022100091E8380007C831EA400C48BF34EA430C63
:1022200003D5FFF78FFDFFF729FFF0BCBDE8008C59
:102230002DE9804C9A46934670B491E8380007C85F
:1022400010F0804F08BF13F0804F03D100F01AF850
:10225000FFF756FFF0BCBDE8008C2DE9804C9A4694
:10226000934670B491E8380007C810F0804F08BF5B
:1022700013F0804F03D100F005F8FFF7FFFEF0BC2C
:10228000BDE8008C20F07F4780EA030023F07F4CFC
:1022900007EB0C03A3F57C5300F00040A3F1FE0311
:1022A00092F0000F00F0B38095F0000F00F07780FF
:1022B0002DE901494FEA11404FEA144621EA00484E
:1022C00000FB06FC24EA064708FB06F607FB08F8B5
:1022D00000FB07F718EB06484CEB164C4FEA124B85
:1022E00018EB07484FEA15464CEB174022EA0B4E15
:1022F0000BFB06FC25EA06470EFB06F607FB0EFE67
:102300000BFB07F71EEB064E4CEB164C4FF000068E
:102310001EEB074E4CEB174B18EB0B0840F100007F
:1023200018EB0E0B58EB000840F100008F1A4FF02D
:1023300000013CBFC943661B14BFB5EB040C002170
:102340003CBFC943F61B4FEA17444EEA8E0E27EAFC
:1023500004454FEA1C4704FB07622CEA074C05FBC7
:1023600007F70CFB05F604FB0CFC16EB074642EBEB
:10237000174216EB0C4642EB1C421BEB060658EBD1
:102380000202414146EA9E0601D5BDE80189B6191F
:10239000524141EB0101A3F10103BDE801894FEA7C
:1023A00014454FEA114724EA054621EA074C05FB8C
:1023B00007F406FB07F70CFB06F105FB0CFC11EB21
:1023C000074144EB17444FEA124711EB0C4144EB31
:1023D0001C4422EA074C05FB07F206FB07F70CFB3F
:1023E00006F605FB0CFC16EB074642EB174216EB14
:1023F0000C4642EB1C456A1854F1000148BF704777
:10240000B619524141EB0101A3F10103704795F068
:10241000000F37D04FEA11424FEA144721EA024633
:1024200024EA074C02FB07F106FB07F70CFB06F456
:1024300002FB0CFC14EB074441EB17414FEA154734
:1024400014EB0C4441EB1C4125EA074C02FB07F559
:1024500006FB07F70CFB06F602FB0CFC16EB074627
:1024600045EB174516EB0C4645EB1C42121951F192
:10247000000148BF7047B619524141EB0101A3F179
:10248000010370474FEA14454FEA114724EA054615
:1024900021EA074C05FB07F106FB07F70CFB06F2E8
:1024A0004FF0000605FB0CFC12EB074241EB174115
:1024B00012EB0C4251EB1C4148BF7047921841EBA4
:1024C0000101A3F10103704708B54FF47A70009041
:1024D00003E0BDF80000401E0090BDF80000002899
:1024E000F7D108BD2DE9F04188B00121080313F0B0
:1024F0006DFB02278DF81D7001268DF81C600024ED
:102500008DF81E4040200690DFF8A08006A94046C6
:1025100005F0DEFD382506958DF81C708DF81E40FF
:1025200003208DF81D008DF81F6006A9404605F0B8
:10253000CFFD05220321404605F008FE05220421B7
:10254000404605F003FE05221146404605F0FEFD1B
:102550004021404605F013FEFFF7B6FF40214046FC
:1025600005F00BFEADF804404FF48270ADF80600A4
:10257000F002ADF80800ADF80A40ADF80C4080104C
:10258000ADF80E00ADF81050ADF812400720ADF8D0
:102590001400074C01A9204615F07BFD01212046BF
:1025A00015F060FD08B0BDE8F081000000040240B5
:1025B0000030014070B588B0002507956A4C16E0E0
:1025C0009DF81C10012015F021FD9DF81C1024F829
:1025D0001100A0880290E088049060890390A0898F
:1025E0000190E08900909DF81C00401C07909DF828
:1025F0001C000828E4D3BDF810305C4A1078411C58
:102600001170410058481030435211783C2918D1BC
:102610001570059506950AE09DF8181030F8111010
:10262000059B194405919DF81810491C06919DF8C9
:1026300018103C29F0D305983C21B0FBF1F04C492F
:102640000860BDF80C305078411C5170410046487C
:102650008830435251781E231E2917D15570059595
:1026600006950AE09DF8181030F81110059C2144D9
:1026700005919DF81810491C06919DF818101E2907
:10268000F0D305983B49B0FBF3F00880BDF8044057
:102690001079411C1171410037484452117964246A
:1026A000642917D11571059506950AE09DF8181053
:1026B00030F81110059E314405919DF81810491C01
:1026C00006919DF818106429F0D305982B49B0FBAA
:1026D000F4F00880BDF808609078411C91704100CA
:1026E0002148EC3046529178642900D195700595C7
:1026F00006950AE09DF8181030F81110059E314437
:1027000005919DF81810491C06919DF81810642930
:10271000F0D305981A49B0FBF4F00860BDF800400A
:10272000D078411CD170410013483C384452D178D4
:102730001E2917D1D570059506950AE09DF8181049
:1027400030F81110059A114405919DF81810491C94
:1027500006919DF818101E29F0D305980949B0FB81
:10276000F3F0088008B070BDB40C002049010020CF
:102770006800002066000020A40E00206C000020ED
:10278000700000207400002011B581B00C4C0221B3
:10279000204615F073FC0028F9D0BDF8041020463F
:1027A00015F075FC0121204615F068FC0028F9D0D1
:1027B000204615F06AFC0090BDF800001CBD00002A
:1027C00000300140F0B59BB001210D02284613F006
:1027D000FDF90121880513F0CFF940200090032670
:1027E0008DF8046000248DF8074069462B4805F0F9
:1027F0006FFC02942A4803902A48049005943220E2
:1028000006900794A80008904000099080000A9064
:102810000B9500010C900D9401250E950F941094CA
:10282000214F02A9384602F087FD0121384602F007
:102830005DFD01221021384602F064FD02F0DCF952
:10284000174F01214C3F384600F070F81194129454
:102850001394149411A800F055F815948DF858505D
:102860008DF85950189419948DF8686015A9384658
:1028700000F074F8002301220621384600F094F895
:102880000121384600F032F8384600F0C7F801213F
:10289000384600F057F81BB0F0BD000000000240C1
:1028A0004C200140F8090020106402400CB50020C3
:1028B000009001900B490AE09DF8040031F81000E7
:1028C000009A104400909DF80400401C01909DF86F
:1028D00004003228F0D300983221B0FBF1F0024915
:1028E00008800CBDF809002064000020002904D0F5
:1028F000816841F0010181607047816821F0010128
:102900008160704710B5074C226807490A40D0E93A
:1029100000131943D0E902300343194311432160E6
:1029200010BD000004230140E030FCFF002904D06A
:10293000816841F4807181607047816821F4807101
:1029400081607047002904D0816841F40071816082
:102950007047816821F400718160704730B542682A
:102960000F4B1A400C790B6842EA04221343436070
:1029700083680C4A1340D1E9034222434D798C68A5
:1029800044EA450422431A438260C26A22F4700278
:10299000097D491EC9B242EA0151C16230BD000041
:1029A000FFFEFFFCFDF7FFC070B5072609290AD915
:1029B000C568A1F10A0404EB4404A640B543A34052
:1029C0001D43C56007E0056901EB4104A640B5431E
:1029D000A3401D4305611F23072A09D2446B521EE1
:1029E00002EB820293409C4391400C43446370BDD0
:1029F0000D2A09D2046BD21F02EB820293409C4342
:102A000091400C43046370BDC46A0D3A02EB82022C
:102A100093409C4391400C43C46270BD816841F077
:102A2000804181607047002800DC40427047417857
:102A3000007841EA0020704710B50C480078400645
:102A400012D40B4C206841070ED5020609484FF4FA
:102A5000007103D4BDE8104005F091BB05F08DFB7B
:102A6000206820F00400206010BD00004400002019
:102A70003C000020000802400549086840F00400BE
:102A8000044B00221A8020F080000860704700008C
:102A90003C0000207E00002038B545680446014611
:102AA00028461AF0FDF800282AD02068304A0F285E
:102AB00019D006DC0B2824D00C2810D00E2851D1B8
:102AC0002FE0112802D028284CD145E09268002A36
:102AD00016D02146284601B0BDE8304010472146B7
:102AE00028465268F7E7284606F090FA0090406EB4
:102AF0000468684606F0D4FA002C01D02846A047A6
:102B000038BD284606F082FA0090683006F0E6F9F3
:102B1000009803216C3006F0E9F9684606F0C0FA27
:102B200020E0E168486809680D2902D0202913D106
:102B300005E0002810DD284621F05EFA06E00028B6
:102B400004DD2846BDE8384021F056BA2846BDE8E5
:102B50003840022121F066BAE06818B90021284601
:102B600000F097F92046BDE838401AF00DBD00008E
:102B7000C8020020F0B5044685B08069B4F9085059
:102B8000668A0027CDE90265CDE900170490B4F903
:102B90000C00B4F91060C118B4F90A00B4F90E5071
:102BA000104433462A4600F007F80546616800F0F5
:102BB00079F905B02846F0BDF0B585B00C46DDE9E1
:102BC0000D514C31DFF850C0DDE90A67CDE902C193
:102BD0002146CDE900671AF027FC040018D006F062
:102BE00015FA1022294604901AF07EFA0498302231
:102BF0000A493430FDF765FD084D04990C3D2868FD
:102C0000486604A806F04CFA2868416820468847C0
:102C100005B02046F0BD0000992A0208D402002029
:102C2000F0B5044680688B4989B051F8205060683F
:102C300000287DD0052804D006287AD0122879D122
:102C4000AEE0E86900284FD095E80E008DE80F004F
:102C500004F110010FC908F08DFD002655F826007B
:102C600007F0ECFDA169E8690A1A2169014460696D
:102C7000304406F06DFFA169E8690A1A2169014430
:102C8000E069801B06F064FFE169E8690A1A61697E
:102C900001442069304407F017F8E169E8690A1A2D
:102CA00061690144A069801B07F00EF8761C022EB2
:102CB000D4DBA86807F0C2FDE069E9696669431AD8
:102CC00020694218521E3144801C07F067F8E16900
:102CD000E869A2690B1A61690144101A401C921E2E
:102CE00007F05CF8EE6913E05FF0000655F8260087
:102CF00007F0A4FDE069831BA069821B606981194C
:102D00002069304406F0A2FF761C022EEEDB02267C
:102D1000D5E90301CDE900016169E0690844431088
:102D2000A069891C821B2069304406F0B9FE02E0CC
:102D300089E012E08AE0D5E90501CDE90001E36907
:102D400060690121184401EB6001A0699B1E821B90
:102D50002069304406F0A4FE78E0206806F056F9B9
:102D6000049020681BF040FC40B1A06808B100202E
:102D700008E00498006F28B1012003E00498406F38
:102D800000B10220049901EB8000C56E04A806F092
:102D900087F900231A462846216806F013FC55E0FF
:102DA000206806F033F90490866EEEB3B0F95C70DB
:102DB000A168D1B3032942D05FF0000100EB81018B
:102DC000406D0C6C07F044FD204607F037FD05A868
:102DD00007F034F8BDF81410A88B0144ADF81410B6
:102DE000BDF81810081AADF81800BDF81600801CC0
:102DF000ADF81600BDF81A00801EADF81A00049850
:102E00005E30B0F90220B0F9001005A807F074FC9C
:102E100004A806F045F9022007F05AFD304606F0F6
:102E2000F5F83A4605A901E00BE006E0079006F048
:102E3000C1FC07A806F034F908E00121BEE7022131
:102E4000BCE704A8F6E720681BF092F809B0002060
:102E5000F0BD0000D8B80608044A034911600449CF
:102E60004A6A48621046704704030020C8020020E6
:102E7000D402002038B50D46040009D006F0C6F88B
:102E800000904565684606F00BF920461AF073FE7F
:102E900038BD4FF480720029114601D019F08ABF65
:102EA00019F0DCBE2DE9FF410E4605004FF001048C
:102EB0001CD006F0ABF80190876E01A8009706F0D1
:102EC000EFF83146684608F035FF78B100980024E5
:102ED000B84208D0284606F099F80190009981661A
:102EE00001A806F0DDF828461AF045FE04B0204699
:102EF000BDE8F081F8B515460C4606000DD006F089
:102F000085F80090032C02D200EB8400056468462B
:102F100006F0C6F830461AF02EFEF8BDFEE70000B7
:102F20002DE9F05F7B4C21787B4840F66F0519391D
:102F30006F1C82696FF0704640F6770840F678099A
:102F400040F6710A40F6790B0C2925D2DFE801F032
:102F5000062645642424242483A224C22946054647
:102F600010461AF01FFC80463146404616F006FB1C
:102F70006FF07F41404616F053FB3946A8691AF0BE
:102F800011FC05466549284616F0F8FA0021284646
:102F900016F046FB1A202070BDE8F09F0546394622
:102FA00010461AF0FFFB07463146384616F0E6FA9F
:102FB0006FF07F41384616F033FB4146A8691AF09E
:102FC000F1FB05465549284616F0D8FA0021284657
:102FD00016F026FB1B202070DEE705464146104612
:102FE0001AF0E0FB07463146384616F0C7FA6FF094
:102FF0007F41384616F014FB4946A8691AF0D2FB07
:1030000005464649284616F0B9FA0021284616F02A
:1030100007FB1C202070BFE70546494610461AF002
:10302000C1FB07463146384616F0A8FA6FF07F41DB
:10303000384616F0F5FA5146A8691AF0B3FB054672
:103040003649284616F09AFA0021284616F0E8FA82
:1030500021202070A0E70546514610461AF0A2FB39
:1030600007463146384616F089FA6FF07F413846F8
:1030700016F0D6FA5946A8691AF094FB0546274976
:10308000284616F07BFA0021284616F0C9FA2220BD
:10309000207081E70546594610461AF083FB074623
:1030A0003146384616F06AFA6FF07F41384616F01E
:1030B000B7FA40F67201A8691AF074FB0546174981
:1030C000284616F05BFA0021284616F0A9FA2420BB
:1030D000207061E7074640F6720110461AF062FB65
:1030E00080463146404616F049FA6FF07F4140462F
:1030F00016F096FA2946B8691AF054FB05460749B6
:10310000284616F03BFA0021284616F089FA1920C5
:10311000207041E7BF010020D0010020FFFFBF0069
:10312000F0B52DED028B83B0B0480178B04A00268F
:103130009FEDB00AB04C01251929A06938D0DFED08
:10314000AF0A1A297ED0AE4A1B297CD01C292BD16C
:10315000217C40F678031F1D022975D0217C0129AE
:1031600022D1D18800EE101AB8EE400A80EE208AF3
:1031700019461AF017FBA3A116F02DFA3946A069DB
:103180001AF010FB054618EE100A2DF0ADF841ECD0
:10319000100BA0A153EC102B01A8FDF79BF801A97F
:1031A000284616F018FA267403B0BDEC028BF0BD69
:1031B000617B40F66F031F1D012927D0617B022927
:1031C000F2D1D2F8801000EE901AF8EE600A80EE8C
:1031D000808A19461AF0E6FA90A116F0FCF93946F1
:1031E000A0691AF0DFFA064618EE100A2DF07CF8F6
:1031F00041EC100B8DA153EC102B01A8FDF76AF8E0
:1032000001A9304616F0E7F96573CDE7D16F00EEFE
:10321000901AF8EE600A80EE808A19461AF0C2FA17
:1032200084A116F0D8F93946A0691AF0BBFA054610
:1032300018EE100A2DF058F841EC100B7BA153EC5E
:10324000102B02E00AE05CE0ACE001A8FDF742F8D8
:1032500001A9284616F0BFF96673A5E7A17B4FF4D4
:1032600007631F1D022927D0A17B01299CD1D2F819
:10327000881000EE101AB8EE400A80EE208A194637
:103280001AF090FA6FA116F0A6F93946A0691AF063
:1032900089FA054618EE100A2DF026F841EC100BBD
:1032A0005CA153EC102B01A8FDF714F801A92846E6
:1032B00016F091F9A67377E7D2F88C1000EE101A89
:1032C000B8EE400A80EE208A19461AF06BFA61A126
:1032D00016F081F93946A0691AF064FA064618EE2C
:1032E000100A2DF001F841EC100B4AA153EC102B01
:1032F00001A8FCF7EFFF01A9304616F06CF9A573A1
:1033000052E7E17B40F677031F1D022926D0E17BBF
:103310000129A2D1118800EE901AF8EE600A80EE21
:10332000808A19461AF03EFA4EA116F054F9394631
:10333000A0691AF037FA054618EE100A2CF0D4FFEF
:1033400041EC100B39A153EC102B01A8FCF7C2FF84
:1033500001A9284616F03FF9E67325E7518800EEEB
:10336000901AF8EE600A80EE808A19461AF01AFA6E
:1033700040A116F030F93946A0691AF013FA064652
:1033800018EE100A2CF0B0FF41EC100B27A153EC03
:10339000102B01A8FCF79EFF01A9304616F01BF97F
:1033A000E57301E7118900EE101AB8EE400A80EECD
:1033B000208A19461AF0F6F932A116F00CF93946AE
:1033C000A0691AF0EFF9064618EE100A2CF08CFFEF
:1033D00041EC100B0FA153EC102B01A8FCF77AFF66
:1033E00001A9304616F0F7F82574DDE6BF0100208C
:1033F000CC0B00200000C842D001002000007A441D
:103400006C870020E688AAE6ADA2E794B5E6B58110
:1034100031000000252E336600000000E8BE93E571
:1034200087BAE794B5E58E8B32000000252E326610
:1034300000000000E8BE93E587BAE794B5E58E8BFF
:1034400031000000E99990E588B6E794B5E6B581CA
:1034500031000000E99990E588B6E794B5E6B581BA
:1034600032000000E688AAE6ADA2E794B5E58E8BAF
:1034700031000000E688AAE6ADA2E794B5E58E8BA0
:1034800032000000E688AAE6ADA2E794B5E6B58171
:1034900032000000F0B52DED028B83B0AF4801780B
:1034A000AF4A9FEDB00AB04C01250226A069192948
:1034B00038D0DFEDAE0A1A297ED0AD4A1B297CD068
:1034C0001C292BD1217C40F678031F1D002975D0C3
:1034D000217C012922D1518900EE101AB8EE400A50
:1034E00080EE208A19461AF05DF9A2A116F073F851
:1034F0003946A0691AF056F9054618EE100A2CF064
:10350000F3FE41EC100B9FA153EC102B01A8FCF72C
:10351000E1FE01A9284616F05EF8267403B0BDEC62
:10352000028BF0BD617B40F66F031F1D39B3617BD9
:103530000129F3D1D2F8841000EE901AF8EE600A57
:1035400080EE808A19461AF02DF990A116F043F802
:103550003946A0691AF026F9054618EE100A2CF033
:10356000C3FE41EC100B8DA153EC102B01A8FCF70E
:10357000B1FE01A9284616F02EF86673CEE7D2F800
:10358000801000EE901AF8EE600A80EE808A1946EC
:103590001AF008F983A116F01EF83946A0691AF04E
:1035A00001F9064618EE100A2CF09EFE41EC100BB5
:1035B0007AA153EC102B02E00AE05BE0AAE001A83C
:1035C000FCF788FE01A9304616F005F86573A5E7FB
:1035D000A17B4FF407631F1D39B3A17B01299DD146
:1035E000D2F8901000EE101AB8EE400A80EE208A51
:1035F00019461AF0D7F86FA115F0EDFF3946A0690A
:103600001AF0D0F8054618EE100A2CF06DFE41ECC9
:10361000100B5CA153EC102B01A8FCF75BFE01A979
:10362000284615F0D8FFA67378E7D2F88C1000EE84
:10363000101AB8EE400A80EE208A19461AF0B2F845
:1036400060A115F0C8FF3946A0691AF0ABF806462C
:1036500018EE100A2CF048FE41EC100B49A153EC77
:10366000102B01A8FCF736FE01A9304615F0B3FF78
:10367000A57353E7E17B40F677031F1D31B3E17B70
:103680000129A4D1918800EE901AF8EE600A80EE2C
:10369000808A19461AF086F84EA115F09CFF39462B
:1036A000A0691AF07FF8054618EE100A2CF01CFEEF
:1036B00041EC100B39A153EC102B01A8FCF70AFECA
:1036C00001A9284615F087FFE67327E7518800EE29
:1036D000901AF8EE600A80EE808A19461AF062F8B5
:1036E00040A115F078FF3946A0691AF05BF806464C
:1036F00018EE100A2CF0F8FD41EC100B27A153EC4A
:10370000102B01A8FCF7E6FD01A9304615F063FF78
:10371000E57303E7118900EE101AB8EE400A80EE57
:10372000208A19461AF03EF832A115F054FF3946A6
:10373000A0691AF037F8064618EE100A2CF0D4FDEE
:1037400041EC100B0FA153EC102B01A8FCF7C2FDAC
:1037500001A9304615F03FFF2574DFE6BF010020C8
:10376000CC0B00200000C842D001002000007A44A9
:103770006C870020E688AAE6ADA2E794B5E6B5819D
:1037800033000000252E336600000000E8BE93E5FC
:1037900087BAE794B5E58E8B33000000252E32669C
:1037A00000000000E8BE93E587BAE794B5E58E8B8C
:1037B00032000000E99990E588B6E794B5E6B58156
:1037C00033000000E99990E588B6E794B5E6B58145
:1037D00032000000E688AAE6ADA2E794B5E58E8B3C
:1037E00033000000E688AAE6ADA2E794B5E58E8B2B
:1037F00032000000E688AAE6ADA2E794B5E6B581FE
:10380000320000002DE9F05F7B4C21787B4840F6C8
:103810006F056E1C1939F71D82696FF0704B40F609
:10382000780840F6710940F6790A0C2926D2DFE8BB
:1038300001F0062746652525252584A325C22946AE
:103840000546104619F0AEFF06465946304615F0BB
:1038500095FE6FF07F41304615F0E2FE40F67201B2
:10386000A86919F09FFF05466549284615F086FEB0
:103870000021284615F0D4FE24202070BDE8F09FDA
:1038800031460646104619F08DFF07465946384620
:1038900015F074FE6FF07F41384615F0C1FE2946E1
:1038A000B06919F07FFF05465549284615F066FEB8
:1038B0000021284615F0B4FE19202070DEE70546E9
:1038C0003946104619F06EFF07465946384615F03E
:1038D00055FE6FF07F41384615F0A2FE3146A869CB
:1038E00019F060FF05464649284615F047FE0021BD
:1038F000284615F095FE1A202070BFE70546414680
:10390000104619F04FFF06465946304615F036FE70
:103910006FF07F41304615F083FE3946A86919F0F3
:1039200041FF05463649284615F028FE0021284665
:1039300015F076FE1B202070A0E70546494610468C
:1039400019F030FF06465946304615F017FE6FF065
:103950007F41304615F064FE4146A86919F022FF08
:1039600005462749284615F009FE0021284615F08E
:1039700057FE1C20207081E705465146104619F07D
:1039800011FF06465946304615F0F8FD6FF07F41AD
:10399000304615F045FE4946A86919F003FF054673
:1039A0001749284615F0EAFD0021284615F038FE93
:1039B0002120207062E7054640F67201104619F09A
:1039C000F1FE06465946304615F0D8FD6FF07F41AE
:1039D000304615F025FE5146A86919F0E3FE05466C
:1039E0000749284615F0CAFD0021284615F018FEA3
:1039F0002220207042E70000BF010020D0010020FB
:103A0000FFFFBF002DE9F04F2DED068B83B0FD4881
:103A1000416E00EE101AB8EE400ADFEDFB0AC0EE70
:103A2000209A816E00EE101AB8EE400ADFEDF70A18
:103A300080EE209AC16E006F00EE100AB8EE400AC8
:103A4000DFEDF10A80EE20AAF1480178F14D193935
:103A5000DFF8C48364274FF4076A9FEDF08BF148C9
:103A60000024F14E826940F677094FF6FF7B10295A
:103A70003AD2DFE801F008B4F0EF3EF1EDECEBEA0A
:103A8000E9E8E7E6E5E4064640F66F01104619F07E
:103A900089FE07466FF07041384615F06FFD6FF0F4
:103AA0007F41384615F0BCFD40F67301B06919F04E
:103AB00079FE0646DD49304615F060FD00213046AE
:103AC00015F0AEFD0294DA4906E09DF808000C54AA
:103AD0009DF80800401C02909DF808000628F4D3C9
:103AE000CB491D2008702C7003B0BDEC068BBDE8DF
:103AF000F08F814640F67301104619F053FE82465E
:103B00006FF07041504615F039FD6FF07F4150461F
:103B100015F086FD3078002859D03078B0B1009487
:103B200001943278C249D21C6846FCF72BFE6846E5
:103B300023F0DEFC9FEDBF1B51EC100B53EC112B5F
:103B40002CF0A8F92CF012F9AE49C867AD48C26F45
:103B500041F638018A4200D9C167C16F41604168AE
:103B60008268B1FBF7F15143414500D94460406898
:103B700000EE100AF8EE400A9FEDA31A80EE810ACB
:103B800010EE100A2CF0B0FB41EC100BABA153EC83
:103B9000102B6846FCF79EFB6946504615F01BFD4E
:103BA00040F66F01D9F8180019F0FCFD07469F494F
:103BB000384615F0E3FC0021384615F031FD9449F4
:103BC000192008702C7034701AF074FF8CE7984834
:103BD000FCF794FC642148438A49C867B6E7054668
:103BE0005146104619F0DEFD06466FF07041304632
:103BF00015F0C4FC6FF07F41304615F011FD0294C2
:103C00008B4A06E09DF8080014549DF80810491CE2
:103C100002919DF808000628F4D340F67401A869C3
:103C200019F0C0FD04468149204615F0A7FC00218B
:103C3000204615F0F5FC76491E20087054E7EAE2AC
:103C400052E296E1B1E0E0E3B4E21CE225E3F0E306
:103C500054E301E05CE178E0814640F674011046EF
:103C600019F0A0FD83466FF07041584615F086FCB0
:103C70006FF07F41584615F0D3FC307800285AD0B9
:103C80003078A8B10094019432786949121D6846D1
:103C9000FCF778FD684623F02BFC53EC182B51EC15
:103CA000100B2CF0F7F82CF061F85649C1F8880099
:103CB0005448D0F8882042F210718A4201D9C0F8E5
:103CC0008810D0F88810816041688268B1FBF7F1F4
:103CD0005143414500D98460806800EE100AF8EE37
:103CE000400A9FED4A1A80EE810A10EE100A2CF06D
:103CF000FBFA41EC100B53A153EC102B6846FCF778
:103D0000E9FA6946584615F066FC5146D9F818009C
:103D100019F048FD07464549384615F02FFC0021AB
:103D2000384615F07DFC3A491A2008702C70347022
:103D30001AF0C0FED8E63E48FCF7E0FB4FF47A717B
:103D400048433049C1F88800B2E705464946104665
:103D500019F028FD06466FF07041304615F00EFC54
:103D60006FF07F41304615F05BFC0294304A06E06C
:103D70009DF8080014549DF80810491C02919DF804
:103D800008000628F4D340F67B01A86919F00AFD63
:103D900004462649204615F0F1FB0021204615F087
:103DA0003FFC1B49252008709EE6074640F67B0134
:103DB000104619F0F7FC80466FF07041404615F050
:103DC000DDFB6FF07F41404615F02AFC3078F8B3F8
:103DD0003078B0B10094019432781549D21C68460D
:103DE000FCF7D0FC684623F083FB9FED121B51ECDF
:103DF000100B53EC112B2CF04DF82BF0B7FF13499F
:103E0000088026E0CC0B00200000C84200007A4465
:103E1000BF0100207401002077D4030000000000DF
:103E200000408F40D001002075010020FFFFBF003F
:103E3000B40100200000000000005940252E326629
:103E400000000000252E3366000000006C87002073
:103E50000FE0FE48028841F638018A4200D901800D
:103E6000F97B91B1F97B012919D0F97B022920D086
:103E700028E0F748FCF742FB00EBC00101EB001023
:103E80000BEA8001F1480180BBE700885FED220A60
:103E900000EE100AB8EE400AC0EE209A12E0408808
:103EA0005FED270A00EE100AB8EE400AC0EE209A35
:103EB00008E080885FED2C0A00EE100AB8EE400A98
:103EC000C0EE209A19EE900A2CF00EFA41EC100B7D
:103ED00053EC102BAFF29C016846FCF7FBF96946E6
:103EE000404615F078FB4946B86919F05BFC074677
:103EF000D849384615F042FB0021384615F090FBB2
:103F0000D5491B2008702C7034701AF0D3FDEBE5F6
:103F1000054640F67801104619F044FC06466FF05D
:103F20007041304615F02AFB6FF07F41304615F0A6
:103F300077FB0294C64A06E09DF8080014549DF8E9
:103F40000810491C02919DF808000628F4D340F699
:103F50007C01A86919F026FC0446BE49204615F0EC
:103F60000DFB0021204615F05BFBBB4926200870A5
:103F7000BAE5074640F67C01104619F013FC80466E
:103F80006FF07041404615F0F9FA6FF07F414046FE
:103F900015F046FB307830B33078A0B1009401942E
:103FA0003278AB49121D6846FCF7ECFB684623F0FB
:103FB0009FFA53EC182B51EC100B2BF06BFF2BF0EE
:103FC000D5FEA249C880A148C28842F210718A4237
:103FD00000D9C180397C91B1397C012919D0397C53
:103FE000022920D028E09A48FCF788FA00EB40012B
:103FF000C1EBC01095490BEAC000C880E3E7C08858
:1040000000EE100AB8EE400A5FED800A80EE209ABA
:1040100012E0008900EE100AB8EE400A5FED850A52
:1040200080EE209A08E0408900EE100AB8EE400ABF
:104030005FED8A0A80EE209A19EE100A2CF054F9EE
:1040400041EC100B53EC102BAFF208216846FCF743
:1040500041F96946404615F0BEFA40F67801B86964
:1040600019F0A0FB07467B49384615F087FA002176
:10407000384615F0D5FA78491C2008702C70347039
:104080001AF018FD30E5054640F67901104619F0A2
:1040900089FB06466FF07041304615F06FFA6FF0FD
:1040A0007F41304615F0BCFA0294694A06E09DF85B
:1040B000080014549DF80810491C02919DF808004E
:1040C0000628F4D340F67D01A86919F06BFB04467D
:1040D0006049204615F052FA0021204615F0A0FA5A
:1040E0005D4927200870FFE4074640F67D01104631
:1040F00019F058FB80466FF07041404615F03EFACB
:104100006FF07F41404615F08BFA3078F0B330788D
:10411000A0B10094019432784D49121D6846FCF715
:1041200031FB684623F0E4F953EC182B51EC100BEB
:104130002BF0B0FE2BF01AFE4849C8664748C06E07
:1041400000EE100AF8EE400A1FEDD01A80EE810A48
:1041500010EE100A2CF0C8F841EC100B53EC102BA9
:10416000AFF220316846FCF7B5F86946404615F0D5
:1041700032FA40F67901B86919F014FB074635495F
:10418000384615F0FBF90021384600E009E015F04B
:1041900047FA3149222008702C7034701AF08AFCDA
:1041A000A2E42B48FCF7AAF94FF47A7148432B4953
:1041B000C866C3E7054640F67A01104619F0F2FAE0
:1041C00006466FF07041304615F0D8F96FF07F4128
:1041D000304615F025FA02941D4A06E09DF80800C5
:1041E00014549DF80810491C02919DF808000628F7
:1041F000F4D340F67E01A86919F0D4FA04461549B3
:10420000204615F0BBF90021204615F009FA1249A5
:104210002820087068E4074640F67E01104619F031
:10422000C1FA80466FF07041404615F0A7F96FF073
:104230007F41404615F0F4F91AEE100A2CF054F8BC
:1042400041EC100B53EC102B0AE000006C870020AF
:10425000B4010020FFFFBF00BF010020CC0B0020F5
:10426000AFF228416846FCF735F86946404615F03C
:10427000B2F940F67A01B86919F094FA0746A049F4
:10428000384615F07BF90021384615F0C9F99D49EB
:10429000232008702C70347026E4054640F6710126
:1042A000104619F07FFA06466FF07041304615F05F
:1042B00065F96FF07F41304615F0B2F90294924AE9
:1042C00006E09DF8080014549DF80810491C02915E
:1042D0009DF808000628F4D340F67501A86919F086
:1042E00061FA04468649204615F048F90021204627
:1042F00015F096F983491F20087067E4074640F6D9
:104300007501104619F04EFA80466FF07041404634
:1043100015F034F96FF07F41404615F081F930789F
:10432000E8B33078A8B10094019432787649121D30
:104330006846FCF727FA684623F0DAF853EC182BA6
:1043400051EC100B2BF0A6FD2BF010FD6F49C1F8BE
:104350009C006E48D0F89C1047F23052914213D81E
:10436000D0F89C1000EE101AF8EE400A9FED681A83
:104370006849694A80EE810AD1ED000A20EE200AE0
:1043800010EE101A914201DDC0F89C40D0F89C104C
:104390000161006900EE100AF8EE400A00E02AE030
:1043A0009FED5B1A80EE810A10EE100A2BF09CFF45
:1043B00041EC100B53EC102BAFF278516846FBF731
:1043C00089FF6946404615F006F940F67101B86963
:1043D00019F0E8F907464A49384615F0CFF80021A8
:1043E000384615F01DF94749212008702C703470AB
:1043F0001AF060FB22E44448FCF780F84FF47A712D
:1044000048434249C1F89C00A3E7054640F67201C3
:10441000104619F0C7F906466FF07041304615F0A6
:10442000ADF86FF07F41304615F0FAF80294364A45
:1044300007E01CE09DF8080014549DF80810491C82
:1044400002919DF808000628F4D340F67601A86989
:1044500019F0A8F904462A49204615F08FF80021E2
:10446000204615F0DDF827492020087062E4074651
:1044700040F67601104619F095F980466FF07041CC
:10448000404615F07BF86FF07F41404615F0C8F8C4
:10449000307878B3307870B10094019432781A494A
:1044A0006846FCF76FF9684623F022F851EC100BD0
:1044B0002BF05CFC38703A7818A16846FBF70AFFCD
:1044C0006946404615F087F840F67201B86919F060
:1044D00069F907460A49384615F050F80021384670
:1044E00015F09EF80749242008702C7034701AF0DB
:1044F000E1FA1FE4FFE70448FCF700F83870DAE758
:10450000FFFFBF00BF010020B4010020CC0B002042
:1045100000007A4424000020000048432533640052
:1045200070B5174C61792046164D806940F69902A6
:10453000012912D0A17B01291DD0114619F032F9B1
:1045400006466FF07041304615F018F8294630469F
:1045500015F066F82F20207070BD114619F022F971
:1045600004462946204615F009F82046BDE870406B
:10457000002115F055B8BDE8704000F08FBA00007A
:1045800010020020FFFFBF002DE9FF47044600682E
:1045900010B11AF029F868B10022314850F8221001
:1045A00060680A2841D007DCF0B306280DD0072840
:1045B00054D106E00122F0E712280AD019284DD183
:1045C00037E020461BF018FC48E020461CF0A2FD16
:1045D00044E0206804F01AFD0290B0F9548090F88D
:1045E0005650476C466B02A804F05AFD206800F054
:1045F00039F88146684619F0ADF8BDF8001009EBAE
:1046000005000844ADF80000246A304606F020F9A1
:10461000022006F05DF9384606F010F94246694678
:10462000204605F0C7F819E007E020461DF05EF8C7
:1046300014E0886904B0BDE8F087206819F098FCA0
:10464000206804F0E3FC0390B0F90610B0F90220F2
:10465000891A491CC16703A804F022FD0020E9E77C
:10466000E8B8060838B504F0D1FC0090C46F68467D
:1046700004F016FD204638BD044A03491160044980
:10468000CA69C8611046704790030020580700208F
:104690005C07002000B589B024216846FCF74BF880
:1046A000192001900348006880684168684688477F
:1046B00009B000BD5807002070B5FF22FF23084D48
:1046C00005F5807605E010F8014B54402A5D5A400C
:1046D000335D491E89B2F6D243EA022070BD000064
:1046E000E404050810B50A4A0A4C4FF4006100289A
:1046F00007D0012804D1104603F041FD0120E070ED
:1047000010BD104603F039FD0020E07010BD000020
:1047100000000240540100207CB51B4C207801258C
:1047200000281DD01948C16F4160D0F88810816001
:10473000D0F89C100161164805707021682015F0B2
:10474000BEFF2903134803F018FD08F091FDA902EC
:10475000114803F012FD1148016841F08001016029
:1047600025700F49192008700E480024047019F0B4
:104770000DF8034600940C4A2A210C48019404F0D9
:104780003DFE0B4988617CBD76010020CC0B0020EA
:1047900085000020000C0240000802404800002074
:1047A000BF01002084000020ED9F0408941005083C
:1047B000D00100201CB50E48002404700D48047080
:1047C0000D4804707021682015F079FF4FF4805176
:1047D0000A4803F0D2FC18F0D9FF03460094084AB7
:1047E00009210848019404F009FE074908601CBD2E
:1047F000760100208500002084000020000C02408B
:10480000C5B604082C150508EC0100207CB5134C36
:104810005020A0710320A070114908700025E57197
:104820002AF0AEFC0120FFF75DFF0E480570E08A1C
:10483000DFED0D0A00EE100AB8EE400A80EE201AF5
:1048400084ED071A18F0A2FF03460095074A2A21B3
:104850000748019504F0D2FD20627CBD7401002060
:10486000850000208400002000007A44CD830408E5
:104870005C0905081CB50F49052008700E48002486
:1048800004700E4804707021682015F018FF4FF472
:1048900080510B4803F071FC18F078FF0346009438
:1048A000084A27210848019404F0A8FD07494860F8
:1048B0001CBD000076010020BF0100208400002004
:1048C000000C0240E5BB0408281605080002002081
:1048D0001CB508490620087018F058FF0346002050
:1048E00000900190044A0121044804F087FD044926
:1048F00048601CBD76010020FDCC04086C1A050838
:10490000080200207CB5274C2078002815D020789C
:10491000022812D04FF40041234803F030FC234D0D
:104920000221284603F029FC4FF4FA7000F0A8FD9C
:104930004FF40051284603F022FC022020701C494D
:1049400008701C49092008701B48D0F89810416075
:10495000D0F8A01081601948DFED190A194D90EDCB
:10496000050AB8EEC00A80EE201A85ED021A164834
:10497000002404701549032008707021682015F088
:104980009EFE4FF48051124803F0F7FB18F0FEFE34
:10499000034600940F4A16210F48019404F02EFD9F
:1049A00068607CBD760100200000024000080240E3
:1049B00085000020BF010020CC0B0020788700205C
:1049C00000007A446801002084000020BC0100201F
:1049D000000C02401D790408F40605087CB5234C40
:1049E0002078002801D008F043FC042020702049E2
:1049F00008702049172008701F48DFED200A204E5C
:104A000090ED040AB8EEC00A80EE201A86ED021A74
:104A10001C4CD4F894002061206940F6C4118842EF
:104A200003D90120FFF75EFE02E00020FFF75AFEE7
:104A3000154800250570154902200870D4F8A40017
:104A4000E0607021682015F03AFE4FF48051104864
:104A500003F093FB18F09AFE034600950D4A1821C7
:104A60000D48019504F0CAFC70607CBD7601002001
:104A700085000020BF0100207887002000007A44D4
:104A8000C4010020CC0B002084000020BC010020C9
:104A9000000C024039DC0408F40D05081CB518F0C0
:104AA00075FE002403460094064A07210648019437
:104AB00004F0A4FC0549486005490C70054A08212A
:104AC00011701CBD59D404084C0906083802002096
:104AD00084000020760100201CB518F057FE002449
:104AE00003460094074A12210748019404F086FC0B
:104AF00006498861064A1470064B07221A702F2255
:104B00000A701CBD7DCD0408540706081002002061
:104B100084000020760100201CB502208DF80500DD
:104B200001208DF8040000208DF806001C20009064
:104B30006946024803F0CCFA1CBD00000010024098
:104B400031B582B02B4D0421284603F016FB082115
:104B5000284603F014FB00BF00BF00BF00BF0421C4
:104B6000284603F00CFB00BF0821284603F007FB92
:104B70000421284603F001FB002101914FF6FF7448
:104B800029E09DF80410072912D9BDF8081008047F
:104B900004D51021284603F0F2FA03E0102128463C
:104BA00003F0EBFABDF8081004EA4100029003E0BC
:104BB0001021284603F0E1FA0821284603F0DDFA27
:104BC00000BF00BF00BF0821284603F0D8FA9DF8B7
:104BD0000410491C01919DF804001828D1D3042128
:104BE000284603F0CCFA03B02846BDE8304008213F
:104BF00003F0C5BA0010024008B538208DF8000057
:104C000003208DF801008DF8020001208DF80300CB
:104C100068460CF061FE08BD70B5594DA97928466B
:104C20000024006A05F14006462964D01BDC1529E2
:104C300035D0162949D040297ED140F6051118F00B
:104C4000B1FD297821B12978491E29702978745439
:104C500029786A78914200D16C70BDE8704048496B
:104C6000403114F0B8BC4D2959D04E2970D04F298D
:104C700062D140F6341118F095FD297821B12978D8
:104C8000491E29702978745429786A78914200D194
:104C90006C70BDE870403A49403114F09CBC40F65D
:104CA0006B0118F07FFD297821B12978491E297000
:104CB0002978745429786A78914200D16C70BDE8E3
:104CC00070402F49403114F086BC40F66C0118F05A
:104CD00069FD297821B12978491E297029787454F1
:104CE00029786A78914200D16C70BDE870402449FF
:104CF000403114F070BC40F60E1118F053FD2978C5
:104D000021B12978491E29702978745429786A7844
:104D1000914200D16C701A49403114F05CFC40F6AD
:104D20003211286A18F03EFD297821B12978491EF0
:104D300029702978745400E020E029786A7891423B
:104D400000D16C70BDE870400D49403114F043BC97
:104D500040F6331118F026FD297821B12978491E33
:104D600029702978745429786A78914200D16C703E
:104D7000BDE870400249403114F02DBC70BD000008
:104D8000740100202DE9F0415F4801785F481D392A
:104D90005F4F806900245F4D5F4E0C297ED2DFE8B3
:104DA00001F0061B3045B0B0B0B05A6F869B40F69C
:104DB000730118F0F7FC297821B12978491E297070
:104DC00029787C5429783278914200D13470BDE83A
:104DD000F0414F4914F0FFBB40F6740118F0E2FCBB
:104DE000297821B12978491E297029787C5429789D
:104DF0003278914200D13470BDE8F041444914F05A
:104E0000EABB40F6750118F0CDFC297821B129786C
:104E1000491E297029787C5429783278914200D132
:104E20003470BDE8F0413A4914F0D5BB40F6760144
:104E300018F0B8FC297821B12978491E2970297801
:104E40007C5429783278914200D13470BDE8F04129
:104E50002F4914F0C0BB40F67B0118F0A3FC297861
:104E600021B12978491E297029787C542978327813
:104E7000914200D13470BDE8F041254914F0ABBB3C
:104E800040F67C0118F08EFC297821B12978491E62
:104E9000297029787C542978327800E031E09142F9
:104EA00000D13470BDE8F041194914F094BB40F6CC
:104EB0007D0118F077FC297821B12978491E2970E5
:104EC00029787C5429783278914200D13470BDE839
:104ED000F0410F4914F07FBB40F67E0118F062FCF0
:104EE000297821B12978491E297029787C5429789C
:104EF0003278914200D13470BDE8F041044914F099
:104F00006ABBBDE8F0810000BF010020D001002095
:104F1000B401002074010020750100202DE9F0414A
:104F2000274801782748284F00244068274D284EFD
:104F3000182918D043292BD056293ED140F62D11DF
:104F400018F030FC297821B12978491E2970297878
:104F50007C5429783278914200D13470BDE8F04118
:104F6000194914F038BB40F66E0118F01BFC297883
:104F700021B12978491E297029787C542978327802
:104F8000914200D13470BDE8F0410F4914F023BBC9
:104F900040F6111118F006FC297821B12978491E34
:104FA000297029787C5429783278914200D1347064
:104FB000BDE8F041044914F00EBBBDE8F0810000EB
:104FC000BF010020C4010020B401002074010020B2
:104FD000750100202DE9F0417948017879487A4F30
:104FE00000244068794D7A4E10297DD008DCA1F16B
:104FF0000B01052979D2DFE801F02035748DA2007C
:10500000512944D0522957D053296FD054296CD1FB
:1050100040F6381118F0C6FB297821B12978491ECD
:10502000297029787C5429783278914200D13470E3
:10503000BDE8F041644914F0CEBA4FF4066118F0AF
:10504000B1FB297821B12978491E297029787C542F
:1050500029783278914200D13470BDE8F0415A4944
:1050600014F0B9BA40F6610118F09CFB297821B11F
:105070002978491E297029787C5429783278914200
:1050800000D13470BDE8F0414F4914F0A4BA40F6A5
:10509000351118F087FB297821B12978491E29702C
:1050A00029787C5429783278914200D13470BDE857
:1050B000F041454914F08FBA40F6361118F072FBF2
:1050C000297821B12978491E297029787C542978BA
:1050D0003278914200D13470BDE8F0413A4914F081
:1050E0007ABA40F6620102E03EE067E051E018F073
:1050F00059FB297821B12978491E297029787C54D7
:1051000029783278914200D13470BDE8F0412E49BF
:1051100014F061BA40F6630118F044FB297821B11C
:105120002978491E297029787C542978327891424F
:1051300000D13470BDE8F041234914F04CBA40F678
:10514000640118F02FFB297821B12978491E2970B4
:1051500029787C5429783278914200D13470BDE8A6
:10516000F041194914F037BA40F6650118F01AFBFE
:10517000297821B12978491E297029787C54297809
:105180003278914200D13470BDE8F0410E4914F0FC
:1051900022BA40F6371118F005FB297821B1297899
:1051A000491E297029787C5429783278914200D19F
:1051B0003470BDE8F041044914F00DBABDE8F08147
:1051C000BF01002000020020B40100207401002073
:1051D000750100202DE9F04128480078284A294F20
:1051E0000024294D294E112819D012282DD05828D5
:1051F00041D140F62E11506818F0D4FA297821B127
:105200002978491E297029787C542978327891426E
:1052100000D13470BDE8F0411A4914F0DCB940F611
:105220006601506818F0BEFA297821B12978491E24
:10523000297029787C5429783278914200D13470D1
:10524000BDE8F0410F4914F0C6B940F66701506857
:1052500018F0A8FA297821B12978491E29702978EF
:105260007C5429783278914200D13470BDE8F04105
:10527000044914F0B0B9BDE8F0810000BF0100207E
:1052800068010020B4010020740100207501002095
:105290000148006870470000DC03002010B5054994
:1052A000054800F00DF80548016841F00201016071
:1052B00010BD000020800010106402403C0000205F
:1052C000074A904201D2074801E005481038064AD3
:1052D0008B0001EA020101D5C1607047816070470F
:1052E00010640240006002407D0F7D0F002904D051
:1052F000016841F0010101607047016821F001017E
:10530000016070470B0609D522B1436943F0800361
:10531000436103E0436923F080034361802905D0A2
:1053200001F01E011AB102680A4302607047026868
:105330008A4302607047000030B50368124A134088
:10534000CC680A682243D1E905452C432243CC6945
:1053500022430C6A22434C6A22438C6A22434C6BE0
:1053600022438C6B22431A430260426922F00703F6
:10537000D1E90B2422431A4342610A6942604A6818
:1053800082608968C16030BD3F801CF0F8B5054679
:10539000006803F03BFE0090448ED0F888606846B9
:1053A00003F07EFE06B1012604F00104286819F01E
:1053B0001BF90EB1002006E00CB1012003E008B19A
:1053C000022000E003201B4951F82010686858B300
:1053D00002280CD0052802D0122828D103E0284644
:1053E0001AF036FD23E028461CF015FE1FE06A691E
:1053F000E8694FF0FF33801AA0F1080203EB620462
:10540000421CAB69001B4510A3EB6206C86905F09E
:1054100015FA06E03219311B284604F099FB641E88
:105420006D1C002CF6DA02E0286818F0A1FD0020BF
:10543000F8BD000048B90608044A03491160044950
:105440000A6B086310467047E003002098070020AD
:105450009C07002038B50D46002403F0D7FD0090CE
:10546000C06B294603F0B4FE0546684603F018FEFB
:105470001DB1284603F0CAFD0446204638BD7047DA
:1054800011B54FF47A7402E0204600F006F8BDF83A
:1054900000104A1E0092F7D218BD01B582B000205C
:1054A0000190042110E0009100BF00BF00BF00BFC9
:1054B00000BFBDF80000401E0004000C0090F3D1B6
:1054C000BDF80400401C0190BDF80400BDF80820A0
:1054D0009042E8D30EBD000010B52DED028B20499F
:1054E0000A78204CB2EE048A022AE0681ED00978BD
:1054F000032918D11C4991ED000A20EE080ABDEEDF
:10550000C00A10EE101A09B202F010FF174890ED11
:10551000000A20EE080ABDEEC00A10EE100A01B221
:10552000206902F003FFBDEC028B10BD104991ED24
:10553000000A20EE080ABDEEC00A10EE101A09B2E9
:1055400002F0F4FE0B4890ED000A20EE080ABDEED2
:10555000C00A10EE100A01B2206902F0E7FEE2E78D
:10556000BC010020EC0100202800002030000020B9
:10557000240000202C0000201CB51048C079012810
:105580001AD1FF2005F05AF9022005F08FF9B42056
:105590000021CDE90010032306220C214FF4C37033
:1055A00004F0B2F902B00C23BDE8104040F27F12C3
:1055B0000421034804F02EBB1CBD00008400002021
:1055C000E406050831B529F00FFBA02029F0D4FA34
:1055D00029F03AFB70B99DF8000029F0CDFA29F0C6
:1055E00033FB38B929F000FBA12029F0C5FA29F0D6
:1055F0002BFB18B129F014FB002038BD29F090FADC
:10560000034C207029F074FA29F00AFB207838BD89
:105610007C00002070B50120FFF7D4FFFE4C206015
:105620000120FFF7CFFF20602068000220600220E9
:10563000FFF7C8FF2168084420602068000220604E
:105640000320FFF7BFFF21680844206020680002A4
:1056500020600420FFF7B6FF216808442060052081
:10566000FFF7B0FFED4D2860286800022860062093
:10567000FFF7A8FF2968084428602868000228600E
:105680000720FFF79FFF2968084428602868000268
:1056900028600820FFF796FF296808442860C0208A
:1056A000FFF790FF6063606B00026063C120FFF74B
:1056B00089FF616B08446063606B00026063C22015
:1056C000FFF780FF616B08446063606B00026063FA
:1056D000C320FFF777FF616B08446063C420FFF7C6
:1056E00071FF6863686B00026863C520FFF76AFF9B
:1056F000696B08446863686B00026863C620FFF743
:1057000061FF696B08446863686B00026863C720C7
:10571000FFF758FF696B08446863C820FFF752FF22
:10572000A063A06B0002A063C920FFF74BFFA16B31
:105730000844A063A06B0002A063CA20FFF742FFE9
:10574000A16B0844A063A06B0002A063CB20FFF70D
:1057500039FFA16B0844A063CC20FFF733FFA86397
:10576000A86B0002A863CD20FFF72CFFA96B0844AB
:10577000A863A86B0002A863CE20FFF723FFA96BE4
:105780000844A863A86B0002A863CF20FFF71AFFA4
:10579000A96B0844A8630920FFF714FF60606068E4
:1057A000000260600A20FFF70DFF61680844606036
:1057B0006068000260600B20FFF704FF6168084426
:1057C00060606068000260600C20FFF7FBFE6168AB
:1057D000084460600D20FFF7F5FE6860686800020D
:1057E00068600E20FFF7EEFE69680844686068682C
:1057F000000268600F20FFF7E5FE696808446860F2
:105800006868000268601020FFF7DCFE69680844E1
:1058100068601120FFF7D6FEA060A0680002A060BB
:105820001220FFF7CFFEA1680844A060A068000224
:10583000A0601320FFF7C6FEA1680844A060A0681E
:105840000002A0601420FFF7BDFEA1680844A0601C
:105850001520FFF7B7FEA860A8680002A860162010
:10586000FFF7B0FEA9680844A860A8680002A86015
:105870001720FFF7A7FEA9680844A860A8680002DF
:10588000A8601820FFF79EFEA9680844A8601920A8
:10589000FFF798FEE060E0680002E0601A20FFF782
:1058A00091FEE1680844E060E0680002E0601B20CF
:1058B000FFF788FEE1680844E060E0680002E0600D
:1058C0001C20FFF77FFEE1680844E0601D20FFF721
:1058D00079FEE860E8680002E8601E20FFF772FECB
:1058E000E9680844E860E8680002E8601F20FFF704
:1058F00069FEE9680844E860E8680002E860202082
:10590000FFF760FEE9680844E8602120FFF75AFECF
:1059100020612069000220612220FFF753FE2169E7
:10592000084420612069000220612320FFF74AFE1D
:105930002169084420612069000220612420FFF7CA
:1059400041FE2169084420612520FFF73BFE2861C4
:105950002869000228612620FFF734FE29690844DF
:1059600028612869000228612720FFF72BFE29699A
:10597000084428612869000228612820FFF722FED8
:105980002969084428612920FFF71CFE60616069CD
:10599000000260612A20FFF715FE6169084460611A
:1059A0006069000260612B20FFF70CFE616908440A
:1059B00060616069000260612C20FFF703FE61698D
:1059C000084460612D20FFF7FDFD686168690002F1
:1059D00068612E20FFF7F6FD69690844686168690F
:1059E000000268612F20FFF7EDFD696908446861D6
:1059F0006869000268613020FFF7E4FD69690844C6
:105A00006861AB20FFF7DEFDE062E06A0002E06261
:105A1000AC20FFF7D7FD03E0240B0020780B00201B
:105A2000E16A0844E062E06A0002E062AD20FFF74C
:105A3000C9FDE16A0844E062E06A0002E062AE206B
:105A4000FFF7C0FDE16A0844E062AF20FFF7BAFD4E
:105A5000E862E86A0002E862B020FFF7B3FDE96A95
:105A60000844E862E86A0002E862B120FFF7AAFD94
:105A7000E96A0844E862E86A0002E862B220FFF7D7
:105A8000A1FDE96A0844E862B720FFF79BFD2063A7
:105A9000206B00022063B820FFF794FD216B0844BF
:105AA0002063206B00022063B920FFF78BFD216B80
:105AB00008442063206B00022063BA20FFF782FDB8
:105AC000216B08442063BB20FFF77CFD2863286B13
:105AD00000022863BC20FFF775FD296B084428638A
