:020000040800F2
:10000000688E0020950200084F06010825BE0008F2
:100010004D060108692E0008A19C0108000000009F
:10002000000000000000000000000000AB610108BB
:10003000075400080000000095360108917201087D
:10004000AF020008AF020008AF020008AF020008CC
:10005000AF020008AF020008AF020008AF020008BC
:10006000AF020008AF020008AF020008AF020008AC
:10007000AF020008AF020008AF020008AF0200089C
:10008000AF020008AF020008AF020008AF0200088C
:10009000AF020008AF020008AF020008AF0200087C
:1000A000AF020008AF020008AF020008AF0200086C
:1000B000AF020008A1770108AD7A0108AF0200087D
:1000C000AF020008AF020008AF020008AF0200084C
:1000D000AF02000855980108AF0200085D990108B9
:1000E000AF020008AF020008AF020008AF0200082C
:1000F000AF020008AF020008AF020008AF0200081C
:10010000AF020008AF0200089D810108AF0200089D
:10011000AF020008AF0200087D820108AF020008AC
:1001200025520008AF020008AF020008AF02000825
:10013000AF020008AF020008AF020008AF020008DB
:10014000AF020008AF020008AF020008AF020008CB
:10015000AF020008AF020008AF020008AF020008BB
:10016000AF020008AF020008AF020008AF020008AB
:10017000AF020008AF020008AF020008AF0200089B
:10018000AF020008AF02000800F002F800F072F8B9
:100190000AA090E8000C82448344AAF10107DA45E2
:1001A00001D100F067F8AFF2090EBAE80F0013F0C2
:1001B000010F18BFFB1A43F00103184738B70300BB
:1001C00058B703000A444FF0000C10F8013B13F03D
:1001D000070408BF10F8014B1D1108BF10F8015BA0
:1001E000641E05D010F8016B641E01F8016BF9D193
:1001F00013F0080F1EBF10F8014BAD1C0C1B09D1EA
:100200006D1E58BF01F801CBFAD505E014F8016B5B
:1002100001F8016B6D1EF9D59142D6D370470000ED
:100220000023002400250026103A28BF78C1FBD8FF
:10023000520728BF30C148BF0B60704766292BF0BA
:100240000184642900F08280002070471FB52BF0E4
:10025000ECFB00F093FE0400002000212AF0EEFDEC
:10026000401C6060002000212AF0D2FDE0601FBD2C
:1002700010B510BD00F0F6FF1146FFF7E7FF2AF0BA
:10028000F7F801F09FFA03B4FFF7F2FF03BC01F0A7
:10029000CDFC00000948804709480047FEE7FEE71B
:1002A000FEE7FEE7FEE7FEE7FEE7FEE7FEE7FEE726
:1002B00004480549054A064B704700005973010878
:1002C0008901000868880020688E0020688A002064
:1002D000688A00200FB41CB5074B06AA7B44694608
:1002E0000090059800F03BFD0020694600F04AFDB3
:1002F0001CBC5DF814FB0000A50A000070B50446A4
:1003000085690068C10601D5302600E02026C007B7
:1003100007D070BDD4E9012130469047206A401CC7
:1003200020626D1EF6D570BD70B5044685690078F3
:10033000C00707D170BDD4E9012120209047206A71
:10034000401C20626D1EF6D570BD00002DE9F04105
:100350000646002410687529314616A510D0AFF363
:100360000080002802DA404213A507E031688A07BE
:1003700001D512A502E0490704D511A5012401E029
:10038000AFF3008000210A2206F1240709E0B0FB48
:10039000F2FCB0FBF2F302FB1C003030785418463C
:1003A000491C0028F3D123462A463046BDE8F041D7
:1003B00000F067BA000000002D0000002B000000D4
:1003C000200000002DE9F05F894604464FF0000A46
:1003D000DFF824B1FB44C0F820A02046E16888473C
:1003E00000287DD0252806D0D4E901219047206A35
:1003F000401C2062F1E700255F462046E1688847FF
:100400002028064607DB312E05D2B81910F8200C3B
:1004100008B10543F1E7A80701D525F00405C4F8A4
:100420001CA00027C4F818A02A2E09D0304629F0B5
:10043000C3FD38B304EB8708303EC8F8186019E0F4
:1004400059F8041B204604EB87029161E168884754
:10045000012F064618D1E069002820DA25F0200592
:100460001DE0D8F8180000EB800006EB40003038A3
:10047000C8F818002046E1688847064629F09CFD28
:100480000028EED1012F0AD02E2E08D12046E16897
:1004900088477F1C0646022F45F02005C4DBA06973
:1004A000002803DA404245F00105A061E80701D0C9
:1004B00025F01005A6B1A6F14100192802D8203672
:1004C00045F400654A463146204625604D46FFF713
:1004D000B5FE60B1012807D0ED1D25F0070000E052
:1004E00007E000F1080978E705F1040975E73046EF
:1004F0007AE7206ABDE8F09F38B4030070B506467D
:1005000000F0B0F90468054630460A22002100F0E8
:1005100091FC2C6070BD40EA0103024630B59B0798
:1005200010D14FF0013400E008C208C91D1B9D43E3
:1005300015EAC41FF8D013F0FF0102F8011B0DD01B
:100540001B0AF8E711F8013B002B02F8013B05D02C
:1005500011F8013B002B02F8013BF3D130BD10B57F
:10056000431C02E010F8011B71B18107FAD14FF072
:10057000013202C88C1A8C4314EAC211F9D0C01A95
:100580000A0603D0C01E10BDC01A10BD0A0401D057
:10059000801E10BD0902FCD0401E10BD421E12F884
:1005A000013F002BFBD111F8013B002B02F8013B6E
:1005B000F9D17047032A40F2308010F0030C00F0AC
:1005C000158011F8013BBCF1020F624498BF11F88D
:1005D00001CB00F8013B38BF11F8013BA2F1040246
:1005E00098BF00F801CB38BF00F8013B11F00303BE
:1005F00000F06780083AC0F0088051F8043B083AE0
:1006000051F804CBA0E80810F5E7121D5CBF51F8C3
:10061000043B40F8043BAFF30080D20724BF11F83D
:10062000013B11F801CB48BF11F8012B24BF00F8A2
:10063000013B00F801CB48BF00F8012B7047431A7B
:1006400028BF9A427FF6B6AF032A1044114440F205
:10065000268010F0030F1EBF11F8013D521E00F856
:10066000013D10F0030F7FF4F6AF11F0030300F02B
:100670002C84083AC0F00B8051F8043D083A51F838
:1006800004CD40F8043D40F804CDFFF7F3BF121D40
:100690005CBF51F8043D40F8043DAFF30080D20741
:1006A00024BF11F8013D11F801CD48BF11F8012C0C
:1006B00024BF00F8013D00F801CD48BF00F8012C2F
:1006C000704710B5203AC0F00B80B1E81850203ABE
:1006D000A0E81850B1E81850A0E81850BFF4F5AFE2
:1006E0005FEA027C24BFB1E81850A0E8185044BF6C
:1006F00018C918C0BDE810405FEA827C24BF51F8D9
:10070000043B40F8043B08BF7047D20728BF31F8CC
:10071000023B48BF11F8012B28BF20F8023B48BF1D
:1007200000F8012B704702F0FF0343EA032242EA7C
:10073000024200F0F6BB4FF0000200B513469446AB
:100740009646203922BFA0E80C50A0E80C50B1F129
:100750002001BFF4F7AF090728BFA0E80C5048BF3D
:100760000CC05DF804EB890028BF40F8042B08BFDB
:10077000704748BF20F8022B11F0804F18BF00F8D7
:10078000012B704710B5044610F0030F08BF11F09D
:10079000030F40F015804FF0013E121FC0F20E8093
:1007A00051F8043BA3EB0E0C2CEA030C1CEACE1C04
:1007B00008BF40F8043BF0D0A1F1040102F10402AB
:1007C000521E08DB11F8013B002B00F8013BF7D16A
:1007D000114600F0A4FB204610BD00004FF0013C84
:1007E00050F8042B51F8043B9A4221D1A2EB0C03A0
:1007F000934313EACC1317D150F8042B51F8043B60
:100800009A4215D1A2EB0C03934313EACC130BD1FC
:1008100050F8042B51F8043B9A4209D1A2EB0C0387
:10082000934313EACC13DBD04FF00000704700BFB6
:10083000D01A01BAB1FA81F101F0180122FA01F0DF
:10084000CB40C1F12001DBB2C0B2C01A2CFA01F3D7
:10085000D11A914311EAC311E6D17047704770472E
:1008600070470000004870470888002010B5FFF767
:10087000F9FF006810BD10B50446FFF7F3FF0460F0
:1008800010BD2DE9F0470D4699469246044600F109
:1008900024080168880604D5E06921F01001216070
:1008A00000E00120A84201DD471B00E00027A1690C
:1008B0007A1902EB0900081AA0612078C00602D458
:1008C0002046FFF71BFD002608E0D4E901211AF8B5
:1008D00006009047206A401C761C20624E45F4DBDF
:1008E0002078C0060AD52046FFF708FD06E0D4E9C7
:1008F000012130209047206A401C2062381EA7F159
:100900000107F4DC07E0D4E9012118F8050090475D
:10091000206A401C2062281EA5F10105F3DC204658
:10092000FFF702FD2078000602D50220BDE8F0871F
:100930000120FBE770472DE9FF4F0C461E464FF0A4
:10094000FF378BB0D2E90001DDF860800A908A465B
:10095000C1F30A5505B93D46002108464FF0000095
:10096000BAF1000F00F4400005DA00EB80004FF40C
:10097000400101EA50004FEA9059B9F1010F00DD42
:10098000B9460A9850EA4A000ED044F61050A5F233
:10099000FF3545432F14B8F1000F1ED07542291EB4
:1009A0001EDDC9F100021CE0B8F1010F4FF000009C
:1009B00001D0302103E0F24305E02154401CB04255
:1009C000FBDB30460022002121540B99C1F808803E
:1009D000C1E900200FB0BDE8F08FBD1B6D1CDEE744
:1009E0004A4600DA694206A800F0CAFB06AB93E863
:1009F000070003AB83E8070050460A9901F030F97D
:100A00008DE80700A0F500501F3800900398002DD6
:100A10000ADD42F21F014A460844002303A903905D
:100A2000684601F0DBFB09E0A0F500504A461F389C
:100A3000002303A90390684601F0FAFB8DE8070044
:100A40000004000C03D04FF0FF30410800E01046D6
:100A5000B8F1000F03D00022009215461EE0751E6B
:100A600005D400F08FFA303262556D1EF9D5B346C9
:100A70000122084302D000227F1C04E020783028A5
:100A800001D100227F1E002A099784D01DE0112D7C
:100A900007DA00F077FA303262556D1C50EA010235
:100AA000F5D1084302D00098C8B10EE00021681EBD
:100AB00005E0235C625C63542254401E491C814261
:100AC000F7DBAB46A81B401E0990002004F80B0082
:100AD0000B98099AC0F80880C0E9002B7AE7112624
:100AE0004FF0000857E72DE9F04F88460446D21D25
:100AF00022F0070191B0D1E90001CDE90A0123F00C
:100B000071FB02460B98C00F01D02D2007E0206832
:100B1000810701D52B2002E0202101EAC000032A31
:100B2000099001D0072A05DB03464146204600F024
:100B300077FA0BE12078800601D5E06900E0062015
:100B4000B8F1650F814606D0B8F1660F18D0B8F13C
:100B5000670F70D131E00020B9F1110F009001DB77
:100B6000112301E009F101030AAA01A90CA8FFF76A
:100B7000E2FEDDE90C70002609F10105834647E03D
:100B800001204B4600904FF000470AAA01A90CA88B
:100B9000FFF7D1FEDDE90DB00C995D46002610B9D6
:100BA00009F101000D18B9EB050003D4C0F1FF36BF
:100BB00009F10105A5EB09002BE0B9F1010F01DAFC
:100BC0004FF001090020B9F1110F0090484601DDF6
:100BD000112300E003460AAA01A90CA8FFF7ABFE07
:100BE000DDE90C704D4600268346207800070AD4C4
:100BF000AB4500DA5D4601A8012D04DD411911F86D
:100C0000011C302907D04F4502DA17F1040F04DA2E
:100C1000012082460FE06D1EEEE7002F02DCED1B87
:100C20003E4403E0781CA84200DD7D1CB81B00F1A7
:100C3000010A4FF000472078000703D4AA4501DBE2
:100C40004FF0FF3A0021B7F1004F0DF143088DF846
:100C5000431024D002202B23002F01DA7F422D23C2
:100C60000A21021EA0F1010000DC5FB197FBF1FC3C
:100C700097FBF1F201FB1C7C17460CF1300C08F8D5
:100C800001CDEEE7A8F1010003702188090501D527
:100C9000452100E06521A0F1010800F8011C099838
:100CA0000FA9A1EB0807FF1D00B10120411901EBBD
:100CB000EA70A1693844081A401EA0612078C00675
:100CC00002D42046FFF71AFB099828B1D4E9012184
:100CD0009047206A401C20622078C00622D520461A
:100CE000FFF70CFB1EE0002E04DBB34502DD01A87C
:100CF000805D00E03020D4E901219047206A401C4B
:100D00002062761CAAF101005FEA000A0AD100F015
:100D100035F9C0680168405CD4E901219047206A38
:100D2000401C2062281EA5F10105DCDC07E0D4E9A7
:100D3000012118F8010B9047206A401C2062381EE0
:100D4000A7F10107F3DC2046FFF7EEFA032011B00C
:100D500041E6000001694A1C02610878704700B54D
:100D60008FB0CDE901310021059105497944CDE9E4
:100D7000031011466846FFF725FB0FB000BD0000C9
:100D8000E5FFFFFF0A6802F8010B0A6070470000E8
:100D90000FB4002300B589B00CA900910B99CB606A
:100DA000214B7B440693214B7B44079304236FF034
:100DB0000042CDE901321E4A7A446B46089202464F
:100DC00000202AF0A1FE09B05DF814FB70B50646BC
:100DD0004FF0FF3015460C46324686B00091CDE903
:100DE000010169460020049004A8FFF7D1FF0246E4
:100DF0000498211825B108B1084600E02046286073
:100E0000049800280DD0002A02DD0098884208D0FE
:100E10003246081B69460094CDE9010404A8FFF797
:100E2000B7FF06B070BD0000FB0200001303000016
:100E3000530200002DE9F04791460F4680460446D4
:100E4000002614F8015B2DB100F090F80068405DB9
:100E5000C007F6D12B2D02D02D2D18D0641E4A4686
:100E60003946204600F03CF927B13968A14201D14A
:100E7000C7F800804FF0020471050BD540420028EE
:100E800003DDFFF7EFFC0460A007BDE8F08746F440
:100E90008066E4E70028F8DAFFF7E4FC04606FF00E
:100EA0000040F2E7431A28BF9A427FF60AAC10448A
:100EB00010F0030F11441EBF11F8013D521E00F83F
:100EC000013D10F0030F7FF4F6AF103AC0F00A8036
:100ED00010B531E91850103A20E91850BFF4F9AFB5
:100EE000BDE81040530724BF31E9081020E908107D
:100EF00044BF51F8043D40F8043D12F0030F08BF11
:100F00007047D20728BF31F8023D48BF11F8012CC5
:100F100028BF20F8023D48BF00F8012C70474FF071
:100F200000020429C0F0128010F0030C3FF405AC5D
:100F3000CCF1040CBCF1020F18BF00F8012BA8BFC4
:100F400020F8022BA1EB0C01FFF7F7BB5FEAC17C95
:100F500024BF00F8012B00F8012B48BF00F8012B3B
:100F600070470000004870470888002010B500F066
:100F700005F8001D10BD00BFC59E02000048704767
:100F80002888002030B5B0F10A024FEA900E71F1C6
:100F900000034EEA817EB0EB0E0061EB91014FEA57
:100FA000101E4EEA017E10EB0E0041EB11114FEACC
:100FB000102E4EEA016E10EB0E0041EB11214FEAAC
:100FC000104E4EEA014E10EB0E0041EB114140185D
:100FD00041F100014FEAD00040EA41704FEAD101EF
:100FE00010EB80054FEA810444EA907444EB01045D
:100FF0006D1944EB0404521BA3414FF0000348BF9A
:101000000A3200D530BD401C41F1000130BD10B5A1
:101010000446FFF7ABFF0068005D00F0010010BD63
:101020002DE9F0411F46044603260168072A01F412
:10103000006004DB08B116A505E016A503E008B1C1
:1010400015A500E015A521F010002060A069C01EC4
:10105000A0610FB1401EA0612046FFF74FF94FB1CC
:10106000D4E9012138469047206A401C2062C01C08
:10107000206206E0206AFAE7D4E9012115F8010BA5
:101080009047761EF8D22046FFF74EF9BDE8F08172
:101090004E414E006E616E00494E4600696E66001C
:1010A000426842B1016811F8013B23B1521EC0E908
:1010B0000012184670470121C160881E70474268BF
:1010C0005AB1C368016843B983688B4205D0491E91
:1010D000521CC0E90012002070474FF0FF307047EB
:1010E0002DE9F05F824615468B4600270AF1010480
:1010F000B9460078302801D09DB113E014F8010BF7
:101100000127782803D0582801D045B10AE00DB155
:10111000102D07D1002714F8010B102502E0082537
:1011200000E00A250026B0460EE005FB080005FB9E
:1011300006F101271FFA80F801EB1046B6F5803F53
:1011400000D3B94614F8010B294600F0B0F8002886
:10115000EBDABBF1000F05D00FB1641E00E054467E
:10116000CBF80040B9F1000F06D0FFF77BFB02215E
:101170000160C81EBDE8F09F48EA0640FAE700009B
:101180002DE9F047814616468AB0354878440DC8A7
:101190008DE80D0032487844801C03AC0DC884E80B
:1011A0000D0041F69B300844372190FBF1F290FB93
:1011B000F1F5A5F1800501FB12041B3C02D5644248
:1011C000012000E00020DFF898A080460027FA44C4
:1011D000AAF1BE0A0EE0E0070AD03246684607EBE5
:1011E000470101230AEB810101F022F88DE8070095
:1011F00064107F1C002CEED1194F7F44AE3F19E0E4
:10120000E80715D007EB04100DF1180A90E80E005E
:101210008AE80E00C068F04201D198190890324661
:10122000012306A903A801F003F803AB83E8070034
:101230006D10641C002DE3D14FF001033246694666
:10124000B8F1000F03A802D000F0C8FF01E000F0E1
:10125000EFFFC9E90001C9F808200AB0BDE8F0872E
:1012600010A703007546FFF77DFEAE4605006946F0
:10127000534620F00700854618B020B5FFF718F850
:10128000BDE820404FF000064FF000074FF0000887
:101290004FF0000B21F00701AC46ACE8C009ACE808
:1012A000C009ACE8C009ACE8C0098D4670473A28CF
:1012B00000D2303820F02002412A01D3A2F13700B9
:1012C000884201D34FF0FF30704700002DE9FF4FF7
:1012D00006468BB00878FF2806D0491C2D2805D07B
:1012E00000244FF0000908E000200CE00124F8E79A
:1012F00009EB8903491C00EB43090878FF28F7D163
:1013000014B1C9F100008146107800252C46AA4688
:1013100029462D2801D02B2804D1521C2D2813D06A
:10132000002082468B461078FF280FD04FF0000C2B
:101330000A21521CA5FB017804FB018105FB0C115D
:10134000C5194BEB0104EEE70120EAE7002108464E
:101350004FF00000BAF1000F02D000EB800040080F
:10136000C0F38157012F01DD4FF0FF370E9955EA89
:10137000040009EB01080BD04FF0020918F5FA7FC1
:1013800016DA4FEACA70002F706008DD012007E00E
:101390004FEACA70C6E900B00FB0BDE8F08F002078
:1013A0003060FFF75FFAC0F800901821084616E099
:1013B000B8F5FA7F18DD002F02DAF748784401E02B
:1013C000F6487844D0E90010C6E9001040EACA7037
:1013D0007060FFF747FAC0F80090142108460FB07C
:1013E000BDE8F04F2AF02BBB002108464FF000006B
:1013F000B8F10001099002DAC7F1000200E03A46B4
:1014000001DAC8F1000106A8FFF7BAFE06AB93E8BF
:10141000070003AB83E8070044F23E005BEA0401E7
:101420000090584604D144F21E012C465D460091BE
:10143000210C0904014306D10099240444EA15440F
:101440002D041039009104F07F41014306D1009929
:10145000240244EA15642D020839009104F0704119
:10146000014306D10099240144EA15742D01091F96
:10147000009104F04041014306D10099A40044EAE0
:101480009574AD00891E009104F00041084304D119
:1014900000986D196441401E00904FF001033A46D8
:1014A0006846B8F1000FCDE9014503A902DD00F05F
:1014B000D4FE01E000F0A7FEBAF1000F04460D468D
:1014C00001D084F00044002108464FF00000099943
:1014D00040F2FF77484010F00C0F07D124F0004095
:1014E000284303D0C4F30A50B84212D1FFF7BAF927
:1014F000C0F80090C4F30A50B8420AD1A848784412
:10150000D0E90010C6E9001004F000410843706003
:1015100042E7C6E900543FE72DE9FF4F1F464FF071
:10152000000A4FF0FF38454691B0D7E90146CDF8A3
:101530003CA0FFF723FDC0680168405C1090B969CA
:1015400012986D1C8847396A814688470028F6D171
:10155000B9F1FF3F0AD0002E24F4D06411DDB9F1B7
:101560002B0F08D0B9F12D0F0BD102E0404615B07A
:1015700013E744F48064B96912986D1C8847761E9D
:101580008146600504A901D52D2000E02B20002E06
:1015900001F1010B0DF130088DF810003FDDB9F1BC
:1015A000690F08D0B9F1490F05D0B9F16E0F02D01B
:1015B000B9F14E0F1CD13B4601A8009580E85002BE
:1015C000DDE912126FF002002AF0A2FAC11CCED19E
:1015D0000EE0B96912986D1C884781461398761EF3
:1015E00044F4007405600F98401C002E0F9016DD27
:1015F000B9F1300FEDD0B9F1780F02D0B9F1580F31
:101600000DD10F9801280AD13B46CDE90054DDE900
:101610001212001F02962AF079FAC11CA7D1109964
:1016200089453ED144F0800406E01399681CAAF174
:10163000010A44F400740860B9696D1C1298761EA2
:10164000884730288146F0D02BE01099894505D194
:10165000200603D4761E44F0800418E0484628F0A3
:10166000ABFC08B3761E0DF123018B4544F40074E6
:1016700008D2A9F130000BF8010B200607D5AAF11A
:10168000010003E0200602D40AF101008246A00511
:1016900002D51399681C0860B96912986D1C8847B7
:1016A0008146002ED1DC53E0002E51DDB9F1650FEB
:1016B00002D0B9F1450F4BD1A00549D5B9696D1CD0
:1016C0001298761E24F440748847002E81460CDD63
:1016D0002B2804D0B9F12D0F07D144F48074B969D7
:1016E00012986D1C8847761E8146E00501D52D2194
:1016F00000E02B2108F8011BCDF8008021E0761EC8
:101700000DF13901884544F400740CD2A9F1300080
:1017100010F0FF0088F8000002D10099884509D92F
:1017200008F1010806E0E00501D51E4801E042F29B
:101730000F708246B96912986D1C884781461398CC
:101740000560002E04DD484628F036FC0028D6D17E
:10175000F96912988847FF2053468BF8000088F8F3
:10176000000000200A900B9004AA0CA90AA8FFF719
:10177000ADFDA00502D46FF00100F8E614F0240FCF
:1017800012D0E0071CD13868DDE90A12031D3B6066
:101790000068C0E9001213E05CA503004EA5030039
:1017A00012A40300F1D8FFFF0AA9684622F06CFFDB
:1017B000E00705D13868009A011D396000680260B1
:1017C0002846D4E610B50446AFF300802046BDE8B5
:1017D0001040FEF758BD00002DE9FF4F1F464FF0A7
:1017E0003C0987B04FF00042DDE9141001F1010817
:1017F000DDF858A002EA405003900020059083468F
:10180000054604460490B969461E08988847AAF11F
:10181000010A0290BAF1000F3BDD02982E2815D084
:101820001021FFF744FD00282EDB4FF0010B059936
:10183000014317D0B9F1000F0BDB4A46C11700F086
:10184000FBF905430C43A9F1040905E001200490CC
:101850000BE008B145F0010501200590049820B97E
:10186000361D02E0049800B1361FB969089808F1E6
:1018700001088847BBF1000FAAF1010A0290C9D004
:101880000999C1F80080C5E70298702808D050284F
:1018900006D0F96908988847BBF1000F14D04FE0D3
:1018A000002002900120BBF1000F049009D0B9691B
:1018B000089808F101088847AAF10109B9F1000F59
:1018C00007DCF969089888476FF001000BB0BDE8A4
:1018D000F08F2B2804D02D280CD14FF0FF3004902E
:1018E000B969089808F101088847A9F10109B9F117
:1018F000000FE6DD411CE4D00A21FFF7D8FC0028E8
:10190000DFDB029908F1010801EB810100EB4100E6
:101910000290B969089888470A21FFF7C8FC099A1C
:10192000A9F10109B9F1000FC2F8008001DD00281A
:10193000E7DAF969089888470499029800FB01667C
:1019400055EA040004D004F04041090002D006E04A
:10195000039898E0A40044EA9574AD00B61E04F024
:101960000041080002D16D196441761E159810F0EF
:10197000240F03D04FF00B095C4803E04FF0280917
:101980006FF07D008246564507DAAAEB06018944CE
:10199000B9F1410F01DD4FF0410901200021A9F10A
:1019A000010200F049F9024628400B462140084355
:1019B00001D0012100E00021501E029143F1FF31CE
:1019C00028402140084301D0012000E00020029976
:1019D000834651EA0B014FD0002108464FF000002A
:1019E000039900F4400039B100EB80004FF440014E
:1019F00000EBD07001EA60008015012802DD4FF095
:101A0000FF3000E013D0401C36D0029860B3BBF129
:101A1000000F0CD14A460120002100F00DF92840AA
:101A20002140084301D0012000E00020E0B1012066
:101A30004A46002100F000F9034640190A46614178
:101A40002D1A8C4111D3B9F1400F09DD159810F012
:101A5000240F02D0AAF1340603E0AAF1170600E031
:101A6000761C00254FF0004406E05B1E42F1FF3279
:101A700020EA030521EA0204CAF10100B04206DAB5
:101A80001B49039808430190002000900EE0039A40
:101A9000C4F3D321E80A0A43164940EA44500A43F2
:101AA0003146CDE90002684622F0F7FD159810F0A6
:101AB000240F0BD01598C00715D13868DDE9001246
:101AC000031D3B600068C0E900120CE002A86946F3
:101AD00022F0DAFD1598C00705D13868029A011D79
:101AE0003960006802604046F0E6000002FCFFFF3B
:101AF0000000F07F0000F03F2DE9FF4F92461D46A9
:101B000085B04FF00041DDE9124BDDE914727F1E14
:101B100001EA4B50414940F0FF4940EA01080021E9
:101B200022F020004928049102D04E2828D04CE011
:101B30003BA0012607C88DE80700A9690698641C28
:101B400088477F1E014606D41DF8060018B121F013
:101B5000200181420BD0E96906988847032E34D0D2
:101B6000082E32D06FF0010009B0BDE8F08F761C6E
:101B7000032E01D0082EE0D1601CCAF80000DCE77B
:101B8000A9690698641C88477F1E2AD420F020008B
:101B9000412826D1A9690698641C88477F1E20D455
:101BA00020F020004E281CD1A9690698641C8847A3
:101BB0007F1E48F4002849F48009CAF8004001D487
:101BC000282806D0E969069888475FEACB7012D0CA
:101BD00022E0A9690698641C88477F1E01D400286A
:101BE00003DAE96906988847BCE72928F1D1641C23
:101BF000CAF80040E9E71BF0240F07D028680499D1
:101C0000031D2B600068C0E9001805E02868021D6C
:101C10002A600068C0F800902046A5E70000F07F29
:101C2000494E46494E4954590000000001491820C8
:101C3000ABBEFEE726000200B2F120030AD5C2F1D6
:101C4000200301FA02F120FA03F300FA02F041EA5C
:101C50000301704700FA03F14FF00000704770472E
:101C60005FEA400C08BF91F0000F4FEA8C234FEA67
:101C7000C12243EA51514FEA1C5018BF00F5F04011
:101C80004FEA300018BF41F000415FEA6C5C00F0A1
:101C90002980BCF1FF3F08BF40F080407047130C23
:101CA00006BF12044FF0100C4FF0000C130E04BFCF
:101CB00012020CF1080C130F04BF12010CF1040CFA
:101CC000930F04BF92000CF1020CD30F04BF52001B
:101CD0000CF1010C11464FF00002A0F11F00A0EB27
:101CE0000C00704711F0004F08BF704731F0004101
:101CF0003FF4D5AF0B0C06BF09044FF0100C4FF0AA
:101D0000000C0B0E04BF09020CF1080C0B0F04BFF2
:101D100009010CF1040C8B0F04BF89000CF1020CBB
:101D2000CB0F04BF49000CF1010CCCF12003A0EB58
:101D30000C0022FA03F302FA0CF241EA030100F16B
:101D40000100704720F07F4C80EA030023F07F47BA
:101D5000ACEB070303F57C5300F0004003F1FF03F5
:101D60002DE980494FEA154B09B44FEA144325EA9F
:101D70000B4E24EA03480FF2042606EB132749080A
:101D80003E785FEA320203FB0667C7F5000707FBF0
:101D900006F64FEA54374FEAD64606F1020607FB2D
:101DA000066CCCF1005C4FEA1C472CEA074C07FBA1
:101DB00006F40CFB06F504EB15464FEA961634BF05
:101DC00000204FF000404FEAD13706FB07FC4FEAF6
:101DD0001C4C0CFB0BF7D21B03FB0CF761EB070150
:101DE0000CFB0EF7B0EB074072EB17420CFB08F749
:101DF00034BFA2EB0742B2EB074261EB17414FEA57
:101E00000C444FEA910706FB07FC4FEA1C4C0CFB05
:101E10000BF7B0EBC74072EB573203FB0CF734BF44
:101E2000A2EBC742B2EBC74261EB57310CFB0EF796
:101E3000B0EBC70072EB57720CFB08F734BFA2EB94
:101E4000C702B2EBC70261EB5771039F4FEA816192
:101E500041EA921104EBCC044FEAD1374FEA826297
:101E600006FB07FC42EA90124FEA80604FEA1C4CE6
:101E70000CFB0BF7D21B03FB0CF761EB07010CFB10
:101E80000EF7B0EB074072EB17420CFB08F734BFBC
:101E9000A2EB0742B2EB074261EB17414FEA8C55C8
:101EA0004FEA910704EB9C2406FB07FC4FEA1C4C0D
:101EB0000CFB0BF7B0EBC74072EB573203FB0CF790
:101EC00034BFA2EBC742B2EBC74261EB57310CFB08
:101ED0000EF7B0EBC70072EB57720CFB08F734BF7C
:101EE000A2EBC702B2EBC70261EB577115EB4C25B1
:101EF0004FEA816141EA92114FEA82624FEAD1379B
:101F000042EA901206FB07FC44F100044FEA8060AD
:101F10004FEA1C4C0CFB0BF7D21B03FB0CF761EBDD
:101F200007010CFB0EF7B0EB074072EB17420CFBFE
:101F300008F734BFA2EB0742B2EB074261EB17414F
:101F400015EB1C154FEA813141EA92414FEA82328A
:101F500042EA90424FEA80304FEA0C7644F10004A6
:101F600048EA03434EEA0B484FF0000EB2EB080C70
:101F700071EB030724BF624639464EEB0E0E4FF05D
:101F8000000B0018524149414BEB0B0BB2EB080C14
:101F900071EB03077BF1000B24BF624639464EEB21
:101FA0000E0E4FF0000B0018524149414BEB0B0B4A
:101FB000B2EB080C71EB03077BF1000B24BF624608
:101FC00039464EEB0E0E51EA020718BF46F00106E5
:101FD00016EB0E7655F1000254F1000103D5BDE871
:101FE0008901BDE80088BDE88901BDE80048B6194F
:101FF000524141EB0101A3F10103704780807F7ED4
:102000007D7C7B7A7978777676757473727171706E
:102010006F6E6E6D6C6C6B6A6A6968686766666520
:102020006464636362616160605F5F5E5E5D5D5CAE
:102030005C5B5B5A5A59595858575756565555551F
:102040005454535352525251515050504F4F4F4E7F
:102050004E4D4D4D4C4C4C4B4B4B4A4A4A494949CD
:10206000484848474747474646464545454444440F
:1020700044434343434242424241414146EA0646C9
:10208000A3F570534FEA164646EA42564FEAD2226B
:1020900042EA415210B54FEAD121A3F1010300F009
:1020A0002FF820F0004000F1020C00F0004701EB97
:1020B00000501146BCF5006F40EA070000D210BD89
:1020C000BAF1000F0AD01CB503B44FF004004FF072
:1020D00004014FF000000FBCBDE810404FF00001BC
:1020E000BBF1010FB9BF04484FF0FF310348002195
:1020F00040EA070010BD00BFFFFFEF7F0000F07F48
:10210000002B9C4630D477002BD01CB54FEA370704
:1021100003B44FF010004FF01001BAF1000F06D0D9
:10212000BCF1000FDCBF40F0080040F008014FF0A8
:1021300000000FBCBDE810400BF1010BBBF1010F1B
:1021400008BF5FEA170722BF12F1010211F1010176
:102150004FF0004143F1000300F0004043EA00006B
:102160007047F9D35708D0E746EA064613F1400F07
:102170004FEA16461FDD13F1200FDFBF16430A4654
:10218000002120335B42BED0C3F1200746EA064659
:1021900002FA07F74FEA164646EA0706C3F1200798
:1021A00022FA03F201FA07F721FA03F14FF00003D4
:1021B00042EA0702A7E746EA020646EA06464FEA6F
:1021C000164646EA0106BCBF46EA0646360C4FF004
:1021D00000034FF000024FF0000194E72DE9804C1E
:1021E0009A46934670B491E8380007C831EA400C2B
:1021F00048BF34EA430C03D5FFF7A4FDFFF780FF87
:10220000F0BCBDE8008C2DE9804C9A46934670B432
:1022100091E8380007C831EA400C48BF34EA430C63
:1022200003D5FFF78FFDFFF729FFF0BCBDE8008C59
:102230002DE9804C9A46934670B491E8380007C85F
:1022400010F0804F08BF13F0804F03D100F01AF850
:10225000FFF756FFF0BCBDE8008C2DE9804C9A4694
:10226000934670B491E8380007C810F0804F08BF5B
:1022700013F0804F03D100F005F8FFF7FFFEF0BC2C
:10228000BDE8008C20F07F4780EA030023F07F4CFC
:1022900007EB0C03A3F57C5300F00040A3F1FE0311
:1022A00092F0000F00F0B38095F0000F00F07780FF
:1022B0002DE901494FEA11404FEA144621EA00484E
:1022C00000FB06FC24EA064708FB06F607FB08F8B5
:1022D00000FB07F718EB06484CEB164C4FEA124B85
:1022E00018EB07484FEA15464CEB174022EA0B4E15
:1022F0000BFB06FC25EA06470EFB06F607FB0EFE67
:102300000BFB07F71EEB064E4CEB164C4FF000068E
:102310001EEB074E4CEB174B18EB0B0840F100007F
:1023200018EB0E0B58EB000840F100008F1A4FF02D
:1023300000013CBFC943661B14BFB5EB040C002170
:102340003CBFC943F61B4FEA17444EEA8E0E27EAFC
:1023500004454FEA1C4704FB07622CEA074C05FBC7
:1023600007F70CFB05F604FB0CFC16EB074642EBEB
:10237000174216EB0C4642EB1C421BEB060658EBD1
:102380000202414146EA9E0601D5BDE80189B6191F
:10239000524141EB0101A3F10103BDE801894FEA7C
:1023A00014454FEA114724EA054621EA074C05FB8C
:1023B00007F406FB07F70CFB06F105FB0CFC11EB21
:1023C000074144EB17444FEA124711EB0C4144EB31
:1023D0001C4422EA074C05FB07F206FB07F70CFB3F
:1023E00006F605FB0CFC16EB074642EB174216EB14
:1023F0000C4642EB1C456A1854F1000148BF704777
:10240000B619524141EB0101A3F10103704795F068
:10241000000F37D04FEA11424FEA144721EA024633
:1024200024EA074C02FB07F106FB07F70CFB06F456
:1024300002FB0CFC14EB074441EB17414FEA154734
:1024400014EB0C4441EB1C4125EA074C02FB07F559
:1024500006FB07F70CFB06F602FB0CFC16EB074627
:1024600045EB174516EB0C4645EB1C42121951F192
:10247000000148BF7047B619524141EB0101A3F179
:10248000010370474FEA14454FEA114724EA054615
:1024900021EA074C05FB07F106FB07F70CFB06F2E8
:1024A0004FF0000605FB0CFC12EB074241EB174115
:1024B00012EB0C4251EB1C4148BF7047921841EBA4
:1024C0000101A3F10103704708B54FF47A70009041
:1024D00003E0BDF80000401E0090BDF80000002899
:1024E000F7D108BD2DE9F04188B00121080311F0B2
:1024F0000BFC02278DF81D7001268DF81C6000244E
:102500008DF81E4040200690DFF8A08006A94046C6
:1025100005F0ACFD382506958DF81C708DF81E4031
:1025200003208DF81D008DF81F6006A9404605F0B8
:102530009DFD05220321404605F0D6FD052204211C
:10254000404605F0D1FD05221146404605F0CCFD80
:102550004021404605F0E1FDFFF7B6FF402140462F
:1025600005F0D9FDADF804404FF48270ADF80600D7
:10257000F002ADF80800ADF80A40ADF80C4080104C
:10258000ADF80E00ADF81050ADF812400720ADF8D0
:102590001400074C01A9204613F0EBFD0121204651
:1025A00013F0D0FD08B0BDE8F08100000004024047
:1025B00000300140F0B587B000250695474C484FE4
:1025C000484E16E09DF81810012013F08FFD9DF87D
:1025D000181024F81100A0880290E0880390608908
:1025E0003880A0893080E08901909DF81800401C57
:1025F00006909DF818000828E4D3BDF80C203A4B4B
:102600001878411C19704100344810304252197832
:102610003C243C2917D11D70049505950AE09DF8CE
:10262000141030F81110049A114404919DF81410FC
:10263000491C05919DF814103C29F0D304982B49AE
:10264000B0FBF4F00860BDF808205878411C5970C0
:10265000410022488830425259783C2917D15D7098
:10266000049505950AE09DF8141030F81110049AAD
:10267000114404919DF81410491C05919DF8141003
:102680003C29F0D304981A49B0FBF4F00860BDF877
:1026900004209878411C997041001648425299785C
:1026A000282918D19D70049505950AE09DF814100D
:1026B00030F81110049A114404919DF81410491C2B
:1026C00005919DF814102829F0D304982821B0FB17
:1026D000F1F00949088007B0F0BD0000680C002047
:1026E0005E00002064000020210100206000002026
:1026F00068000020680D00206C00002011B581B03A
:102700000C4C0221204613F029FD0028F9D0BDF819
:102710000410204613F02BFD0121204613F01EFD6E
:102720000028F9D0204613F020FD0090BDF80000ED
:102730001CBD000000300140F0B59BB001210D022E
:10274000284611F0E1FA0121880511F0B3FA402082
:10275000009003268DF8046000248DF80740694638
:102760002B4805F083FC02942A4803902A480490E1
:102770000594322006900794A80008904000099024
:1027800080000A900B9500010C900D9401250E9588
:102790000F941094214F02A9384602F091FD0121B7
:1027A000384602F067FD01221021384602F06EFD26
:1027B00002F08CF9174F01214C3F384600F070F8B9
:1027C000119412941394149411A800F055F81594D0
:1027D0008DF858508DF85950189419948DF86860F8
:1027E00015A9384600F074F8002301220621384666
:1027F00000F094F80121384600F032F8384600F035
:10280000C7F80121384600F057F81BB0F0BD0000B2
:10281000000002404C200140AC090020106402403E
:102820000CB50020009001900B490AE09DF80400CF
:1028300031F81000009A104400909DF80400401CEC
:1028400001909DF804003228F0D300983221B0FBAB
:10285000F1F0024908800CBDAC0900205C000020AA
:10286000002904D0816841F00101816070478168CE
:1028700021F001018160704710B5074C22680749BB
:102880000A40D0E900131943D0E902300343194349
:102890001143216010BD000004230140E030FCFF23
:1028A000002904D0816841F480718160704781689B
:1028B00021F4807181607047002904D0816841F45F
:1028C000007181607047816821F4007181607047F8
:1028D00030B542680F4B1A400C790B6842EA04226B
:1028E0001343436083680C4A1340D1E903422243F7
:1028F0004D798C6844EA450422431A438260C26AD7
:1029000022F47002097D491EC9B242EA0151C16236
:1029100030BD0000FFFEFFFCFDF7FFC070B50726CD
:1029200009290AD9C568A1F10A0404EB4404A640A8
:10293000B543A3401D43C56007E0056901EB4104B1
:10294000A640B543A3401D4305611F23072A09D2B2
:10295000446B521E02EB820293409C4391400C4315
:10296000446370BD0D2A09D2046BD21F02EB8202B0
:1029700093409C4391400C43046370BDC46A0D3A7C
:1029800002EB820293409C4391400C43C46270BDB1
:10299000816841F0804181607047002800DC40423E
:1029A00070474178007841EA0020704710B50C4824
:1029B0000078400612D40B4C206841070ED5020661
:1029C00009484FF4007103D4BDE8104005F0A5BBE1
:1029D00005F0A1FB206820F00400206010BD00007D
:1029E0003C0000203400002000080240054908682F
:1029F00040F00400044B00221A8020F080000860A0
:102A000070470000340000207600002038B545688B
:102A100004460146284617F081F900282AD020688C
:102A2000304A0F2819D006DC0B2824D00C2810D0EF
:102A30000E2851D12FE0112802D028284CD145E092
:102A40009268002A16D02146284601B0BDE83040E1
:102A50001047214628465268F7E7284606F0A4FAB0
:102A60000090406E0468684606F0E8FA002C01D039
:102A70002846A04738BD284606F096FA00906830F0
:102A800006F0FAF9009803216C3006F0FDF968466B
:102A900006F0D4FA20E0E168486809680D2902D000
:102AA000202913D105E0002810DD28461EF0B2F9D8
:102AB00006E0002804DD2846BDE838401EF0AAB92B
:102AC0002846BDE8384002211EF0BAB9E06818B9BE
:102AD0000021284600F097F92046BDE8384017F05D
:102AE00091BD00008C020020F0B5044685B08069DD
:102AF000B4F90850668A0027CDE90265CDE90017D0
:102B00000490B4F90C00B4F91060C118B4F90A00CB
:102B1000B4F90E50104433462A4600F007F8054633
:102B2000616800F079F905B02846F0BDF0B585B0D0
:102B30000C46DDE90D514C31DFF850C0DDE90A6784
:102B4000CDE902C12146CDE9006717F0ABFC0400D6
:102B500018D006F029FA10222946049017F002FB3B
:102B6000049830220A493430FDF7ABFD084D049932
:102B70000C3D2868486604A806F060FA2868416899
:102B80002046884705B02046F0BD00000D2A000809
:102B900098020020F0B5044680688B4989B051F84E
:102BA0002050606800287DD0052804D006287AD0FF
:102BB000122879D1AEE0E86900284FD095E80E00E0
:102BC0008DE80F0004F110010FC908F0C7FC0026C2
:102BD00055F8260007F000FEA169E8690A1A216984
:102BE00001446069304406F081FFA169E8690A1A6E
:102BF00021690144E069801B06F078FFE169E8691A
:102C00000A1A616901442069304407F02BF8E16930
:102C1000E8690A1A61690144A069801B07F022F87B
:102C2000761C022ED4DBA86807F0D6FDE069E969BE
:102C30006669431A20694218521E3144801C07F00D
:102C40007BF8E169E869A2690B1A61690144101A0D
:102C5000401C921E07F070F8EE6913E05FF000066A
:102C600055F8260007F0B8FDE069831BA069821BB8
:102C7000606981192069304406F0B6FF761C022E87
:102C8000EEDB0226D5E90301CDE900016169E069C7
:102C900008444310A069891C821B2069304406F057
:102CA000CDFE02E089E012E08AE0D5E90501CDE938
:102CB0000001E36960690121184401EB6001A0692A
:102CC0009B1E821B2069304406F0B8FE78E0206825
:102CD00006F06AF90490206818F0C4FC40B1A068BE
:102CE00008B1002008E00498006F28B1012003E03B
:102CF0000498406F00B10220049901EB8000C56E7A
:102D000004A806F09BF900231A462846216806F01D
:102D100027FC55E0206806F047F90490866EEEB374
:102D2000B0F95C70A168D1B3032942D05FF0000113
:102D300000EB8101406D0C6C07F058FD204607F058
:102D40004BFD05A807F048F8BDF81410A88B014406
:102D5000ADF81410BDF81810081AADF81800BDF839
:102D60001600801CADF81600BDF81A00801EADF8E4
:102D70001A0004985E30B0F90220B0F9001005A8DE
:102D800007F088FC04A806F059F9022007F06EFD50
:102D9000304606F009F93A4605A901E00BE006E0E5
:102DA000079006F0D5FC07A806F048F908E00121D5
:102DB000BEE70221BCE704A8F6E7206818F016F980
:102DC00009B00020F0BD00008C750308044A0349D7
:102DD000116004494A6A486210467047C8020020E0
:102DE0008C0200209802002038B50D46040009D05E
:102DF00006F0DAF800904565684606F01FF92046AF
:102E000017F0F7FE38BD4FF480720029114601D04B
:102E100017F00EB816F060BF2DE9FF410E46050011
:102E20004FF001041CD006F0BFF80190876E01A896
:102E3000009706F003F93146684608F06FFE78B156
:102E400000980024B84208D0284606F0ADF801905A
:102E50000099816601A806F0F1F8284617F0C9FE2E
:102E600004B02046BDE8F081FEE700002DE9F05FE8
:102E70007B4C21787B4840F66F0519396F1C8269BD
:102E80006FF0704640F6770840F6780940F6710A10
:102E900040F6790B0C2925D2DFE801F006264564BF
:102EA0002424242483A224C229460546104617F070
:102EB000B7FC80463146404614F016FB6FF07F4168
:102EC000404614F063FB3946A86917F0A9FC054693
:102ED0006549284614F008FB0021284614F056FBEB
:102EE0001A202070BDE8F09F05463946104617F0BD
:102EF00097FC07463146384614F0F6FA6FF07F41EA
:102F0000384614F043FB4146A86917F089FC054692
:102F10005549284614F0E8FA0021284614F036FBFB
:102F20001B202070DEE705464146104617F078FC6E
:102F300007463146384614F0D7FA6FF07F413846DD
:102F400014F024FB4946A86917F06AFC0546464977
:102F5000284614F0C9FA0021284614F017FB1C205B
:102F60002070BFE705464946104617F059FC074652
:102F70003146384614F0B8FA6FF07F41384614F005
:102F800005FB5146A86917F04BFC05463649284613
:102F900014F0AAFA0021284614F0F8FA2120207033
:102FA000A0E705465146104617F03AFC0746314661
:102FB000384614F099FA6FF07F41384614F0E6FA7B
:102FC0005946A86917F02CFC05462749284614F0F5
:102FD0008BFA0021284614F0D9FA2220207081E7CC
:102FE00005465946104617F01BFC07463146384641
:102FF00014F07AFA6FF07F41384614F0C7FA40F6C1
:103000007201A86917F00CFC05461749284614F010
:103010006BFA0021284614F0B9FA2420207061E7E9
:10302000074640F67201104617F0FAFB804631461B
:10303000404614F059FA6FF07F41404614F0A6FA6A
:103040002946B86917F0ECFB05460749284614F0F5
:103050004BFA0021284614F099FA1920207041E714
:103060008E0100209C010020FFFFBF00F0B52DED78
:10307000028B83B0B0480178B04A00269FEDB00AB9
:10308000B04C01251929A06938D0DFEDAF0A1A2903
:103090007ED0AE4A1B297CD01C292BD1217C40F646
:1030A00078031F1D022975D0217C012922D1D188E6
:1030B00000EE101AB8EE400A80EE208A194617F08A
:1030C000AFFBA3A114F03DFA3946A06917F0A8FBA5
:1030D000054618EE100A28F037FC41EC100BA0A1B1
:1030E00053EC102B01A8FDF7F5F801A9284614F0C0
:1030F00028FA267403B0BDEC028BF0BD617B40F66C
:103100006F031F1D012927D0617B0229F2D1D2F85C
:10311000801000EE901AF8EE600A80EE808A194660
:1031200017F07EFB90A114F00CFA3946A06917F055
:1031300077FB064618EE100A28F006FC41EC100B4F
:103140008DA153EC102B01A8FDF7C4F801A930465E
:1031500014F0F7F96573CDE7D16F00EE901AF8EE31
:10316000600A80EE808A194617F05AFB84A114F099
:10317000E8F93946A06917F053FB054618EE100A26
:1031800028F0E2FB41EC100B7BA153EC102B02E08A
:103190000AE05CE0ACE001A8FDF79CF801A9284634
:1031A00014F0CFF96673A5E7A17B4FF407631F1DE9
:1031B000022927D0A17B01299CD1D2F8881000EEEA
:1031C000101AB8EE400A80EE208A194617F028FB44
:1031D0006FA114F0B6F93946A06917F021FB054636
:1031E00018EE100A28F0B0FB41EC100B5CA153EC78
:1031F000102B01A8FDF76EF801A9284614F0A1F9DB
:10320000A67377E7D2F88C1000EE101AB8EE400AD9
:1032100080EE208A194617F003FB61A114F091F9A2
:103220003946A06917F0FCFA064618EE100A28F095
:103230008BFB41EC100B4AA153EC102B01A8FDF7BE
:1032400049F801A9304614F07CF9A57352E7E17BF7
:1032500040F677031F1D022926D0E17B0129A2D168
:10326000118800EE901AF8EE600A80EE808A194606
:1032700017F0D6FA4EA114F064F93946A06917F098
:10328000CFFA054618EE100A28F05EFB41EC100B51
:1032900039A153EC102B01A8FDF71CF801A9284611
:1032A00014F04FF9E67325E7518800EE901AF8EE16
:1032B000600A80EE808A194617F0B2FA40A114F035
:1032C00040F93946A06917F0ABFA064618EE100A25
:1032D00028F03AFB41EC100B27A153EC102B01A86E
:1032E000FCF7F8FF01A9304614F02BF9E57301E76C
:1032F000118900EE101AB8EE400A80EE208A1946B5
:1033000017F08EFA32A114F01CF93946A06917F0B3
:1033100087FA064618EE100A28F016FB41EC100B4F
:103320000FA153EC102B01A8FCF7D4FF01A93046E4
:1033300014F007F92574DDE68E010020800B0020D3
:103340000000C8429C01002000007A44B88500209B
:10335000E688AAE6ADA2E794B5E6B58131000000A3
:10336000252E336600000000E8BE93E587BAE79497
:10337000B5E58E8B32000000252E3266000000007D
:10338000E8BE93E587BAE794B5E58E8B310000007F
:10339000E99990E588B6E794B5E6B581310000007B
:1033A000E99990E588B6E794B5E6B581320000006A
:1033B000E688AAE6ADA2E794B5E58E8B3100000061
:1033C000E688AAE6ADA2E794B5E58E8B3200000050
:1033D000E688AAE6ADA2E794B5E6B5813200000022
:1033E000F0B52DED028B83B0AF480178AF4A9FED69
:1033F000B00AB04C01250226A069192938D0DFEDAA
:10340000AE0A1A297ED0AD4A1B297CD01C292BD1AB
:10341000217C40F678031F1D002975D0217C0129ED
:1034200022D1518900EE101AB8EE400A80EE208AAF
:10343000194617F0F5F9A2A114F083F83946A069EE
:1034400017F0EEF9054618EE100A28F07DFA41EC67
:10345000100B9FA153EC102B01A8FCF73BFF01A917
:10346000284614F06EF8267403B0BDEC028BF0BD54
:10347000617B40F66F031F1D39B3617B0129F3D1D6
:10348000D2F8841000EE901AF8EE600A80EE808A7E
:10349000194617F0C5F990A114F053F83946A06900
:1034A00017F0BEF9054618EE100A28F04DFA41EC67
:1034B000100B8DA153EC102B01A8FCF70BFF01A9F9
:1034C000284614F03EF86673CEE7D2F8801000EE7E
:1034D000901AF8EE600A80EE808A194617F0A0F97B
:1034E00083A114F02EF83946A06917F099F9064621
:1034F00018EE100A28F028FA41EC100B7AA153ECD0
:10350000102B02E00AE05BE0AAE001A8FCF7E2FE73
:1035100001A9304614F015F86573A5E7A17B4FF4B7
:1035200007631F1D39B3A17B01299DD1D2F89010EB
:1035300000EE101AB8EE400A80EE208A194617F005
:103540006FF96FA113F0FDFF3946A06917F068F914
:10355000054618EE100A28F0F7F941EC100B5CA1B3
:1035600053EC102B01A8FCF7B5FE01A9284613F077
:10357000E8FFA67378E7D2F88C1000EE101AB8EEC8
:10358000400A80EE208A194617F04AF960A113F02C
:10359000D8FF3946A06917F043F9064618EE100A1D
:1035A00028F0D2F941EC100B49A153EC102B01A8E3
:1035B000FCF790FE01A9304613F0C3FFA57353E753
:1035C000E17B40F677031F1D31B3E17B0129A4D1D4
:1035D000918800EE901AF8EE600A80EE808A194613
:1035E00017F01EF94EA113F0ACFF3946A06917F091
:1035F00017F9054618EE100A28F0A6F941EC100B51
:1036000039A153EC102B01A8FCF764FE01A9284650
:1036100013F097FFE67327E7518800EE901AF8EE53
:10362000600A80EE808A194617F0FAF840A113F07C
:1036300088FF3946A06917F0F3F8064618EE100A1D
:1036400028F082F941EC100B27A153EC102B01A8B4
:10365000FCF740FE01A9304613F073FFE57303E762
:10366000118900EE101AB8EE400A80EE208A194641
:1036700017F0D6F832A113F064FF3946A06917F0AD
:10368000CFF8064618EE100A28F05EF941EC100B50
:103690000FA153EC102B01A8FCF71CFE01A930462A
:1036A00013F04FFF2574DFE68E010020800B002011
:1036B0000000C8429C01002000007A44B885002028
:1036C000E688AAE6ADA2E794B5E6B581330000002E
:1036D000252E336600000000E8BE93E587BAE79424
:1036E000B5E58E8B33000000252E32660000000009
:1036F000E8BE93E587BAE794B5E58E8B320000000B
:10370000E99990E588B6E794B5E6B5813300000005
:10371000E99990E588B6E794B5E6B58132000000F6
:10372000E688AAE6ADA2E794B5E58E8B33000000EB
:10373000E688AAE6ADA2E794B5E58E8B32000000DC
:10374000E688AAE6ADA2E794B5E6B58132000000AE
:103750002DE9F05F7B4C21787B4840F66F056E1CAD
:103760001939F71D82696FF0704B40F6780840F602
:10377000710940F6790A0C2926D2DFE801F0062704
:1037800046652525252584A325C2294605461046DC
:1037900017F046F806465946304613F0A5FE6FF07E
:1037A0007F41304613F0F2FE40F67201A86917F02F
:1037B00037F805466549284613F096FE002128464D
:1037C00013F0E4FE24202070BDE8F09F3146064649
:1037D000104617F025F807465946384613F084FE80
:1037E0006FF07F41384613F0D1FE2946B06917F0DB
:1037F00017F805465549284613F076FE002128465D
:1038000013F0C4FE19202070DEE705463946104645
:1038100017F006F807465946384613F065FE6FF074
:103820007F41384613F0B2FE3146A86916F0F8FF22
:1038300005464649284613F057FE0021284613F056
:10384000A5FE1A202070BFE705464146104616F037
:10385000E7FF06465946304613F046FE6FF07F41BB
:10386000304613F093FE3946A86916F0D9FF054695
:103870003649284613F038FE0021284613F086FE0C
:103880001B202070A0E705464946104616F0C8FFE9
:1038900006465946304613F027FE6FF07F4130460A
:1038A00013F074FE4146A86916F0BAFF0546274991
:1038B000284613F019FE0021284613F067FE1C204D
:1038C000207081E705465146104616F0A9FF0646CE
:1038D0005946304613F008FE6FF07F41304613F032
:1038E00055FE4946A86916F09BFF0546174928462C
:1038F00013F0FAFD0021284613F048FE2120207025
:1039000062E7054640F67201104616F089FF06464A
:103910005946304613F0E8FD6FF07F41304613F012
:1039200035FE5146A86916F07BFF05460749284633
:1039300013F0DAFD0021284613F028FE2220207023
:1039400042E700008E0100209C010020FFFFBF0025
:103950002DE9F04F2DED068B85B0FE48416E00EE4F
:10396000101AB8EE400ADFEDFC0AC0EE209A816E14
:1039700000EE101AB8EE400ADFEDF80A80EE209A49
:10398000C16E006F00EE100AB8EE400ADFEDF20AD9
:1039900080EE20AAF2480178F24E1939DFF8C89378
:1039A00001254FF064084FF4076B9FEDF08BF14A4F
:1039B0000024F14F90694FF6FF7A102939D2DFE8E1
:1039C00001F008B2FEFD3DE1FCFBFAF9F8F7F6F56F
:1039D000F4F340F66F01174616F022FF80466FF0B1
:1039E0007041404613F080FD6FF07F41404613F078
:1039F000CDFD40F67301B86916F012FF0746DF49A6
:103A0000384613F071FD0021384613F0BFFD0494D1
:103A1000DB4906E09DF810000C549DF81000401C96
:103A200004909DF810000628F4D3CD491D2008709D
:103A3000357005B0BDEC068BBDE8F08F40F6730124
:103A4000924616F0EDFE83466FF07041584613F033
:103A50004BFD6FF07F41584613F098FD38780028F1
:103A600059D03878B0B1029403943A78C449921C82
:103A700002A8FCF787FE02A820F04AFC9FEDC11BBC
:103A800051EC100B53EC112B27F034FD27F09EFC6A
:103A9000B049C867AF48C26F41F638018A4200D9C1
:103AA000C167C16F416041688268B1FBF8F1514361
:103AB000494500D94460406800EE100AF8EE400A1B
:103AC0009FEDA51A80EE810A10EE100A27F03CFF48
:103AD00041EC100BADA153EC102B02A8FCF7FAFB44
:103AE00002A9584613F02DFD40F66F01DAF81800D0
:103AF00016F096FE8046A149404613F0F5FC0021E1
:103B0000404613F043FD96491920087035703C700B
:103B100018F00EF88DE79A48FCF7F0FC6421484352
:103B20008C49C867B6E75946154616F079FE064631
:103B30006FF07041304613F0D7FC6FF07F41304694
:103B400013F024FD04948E4906E09DF810000C54F7
:103B50009DF81000401C04909DF810000628F4D336
:103B600040F67401A86916F05BFE044683492046BE
:103B700013F0BAFC0021204613F008FD78491E20FE
:103B8000087056E740F67401924616F049FE01901F
:103B90006FF07041019813F0A7FC6FF07F4101981E
:103BA00013F0F4FC38780BE0DCE245E287E19EE0BC
:103BB000D0E3A7E210E216E3FCE344E34FE166E062
:103BC00000285AD03878A8B1029403943A786C4906
:103BD000D21C02A8FCF7D6FD02A820F099FB53ECFA
:103BE000182B51EC100B27F085FC27F0EFFB5949FF
:103BF000C1F888005748D0F8882042F210718A42F4
:103C000001D9C0F88810D0F88810816041688268B6
:103C1000B1FBF8F15143494500D98460806800EE5A
:103C2000100AF8EE400A9FED4D1A80EE810A10EE60
:103C3000100A27F089FE41EC100B56A153EC102B13
:103C400002A8FCF747FB02A9019813F07AFC594639
:103C5000DAF8180016F0E4FD80464849404613F0B3
:103C600043FC0021404613F091FC3D491A200870A6
:103C700035703C7017F05CFFDBE64148FCF73EFC1A
:103C80004FF47A7148433349C1F88800B2E740F6EF
:103C90007701154616F0C4FD06466FF070413046B8
:103CA00013F022FC6FF07F41304613F06FFC049458
:103CB000334906E09DF810000C549DF81000401C9C
:103CC00004909DF810000628F4D340F67B01A86903
:103CD00016F0A6FD04462949204613F005FC0021F4
:103CE000204613F053FC1E4925200870A1E640F63B
:103CF0007B01904616F094FD81466FF07041484676
:103D000013F0F2FB6FF07F41484613F03FFC387828
:103D1000F0B13878B0B1029403943A781849921C03
:103D200002A8FCF72FFD02A820F0F2FA9FED151B68
:103D300051EC100B53EC112B27F0DCFB27F046FB6A
:103D4000164908801548028841F638018A4227E062
:103D500034E00000800B00200000C84200007A44DC
:103D60008E0100204001002077D4030000000000F5
:103D700000408F409C01002041010020FFFFBF0058
:103D8000840100200000000000005940252E32660A
:103D900000000000252E336600000000B8850020DA
:103DA00000D9018098F80F10A1B198F80F100129DF
:103DB0001AD098F80F10022920D028E0FE48FCF70E
:103DC0009DFB00EBC00101EB00100AEA8001FB48FB
:103DD0000180B7E700885FED200A00EE100AB8EE18
:103DE000400AC0EE209A12E040885FED250A00EEFE
:103DF000100AB8EE400AC0EE209A08E080885FED15
:103E00002A0A00EE100AB8EE400AC0EE209A19EE17
:103E1000900A27F099FD41EC100B53EC102BAFF2F8
:103E2000940102A8FCF756FA02A9484613F089FB50
:103E300040F67701D8F8180016F0F2FC8046E04909
:103E4000404613F051FB0021404613F09FFBDD4933
:103E50001B20087035703C7017F06AFEE9E540F6EB
:103E60007801154616F0DCFC06466FF070413046CE
:103E700013F03AFB6FF07F41304613F087FB049458
:103E8000CD4906E09DF810000C549DF81000401C30
:103E900004909DF810000628F4D340F67C01A86930
:103EA00016F0BEFC0446C649204613F01DFB002157
:103EB000204613F06BFBC34926200870B9E540F695
:103EC0007C01904616F0ACFC81466FF0704148468C
:103ED00013F00AFB6FF07F41484613F057FB387828
:103EE00048B33878A0B1029403943A78B249D21C0E
:103EF00002A8FCF747FC02A820F00AFA53EC182BA2
:103F000051EC100B27F0F6FA27F060FAAB49C880A5
:103F1000AA48C28842F210718A4200D9C18098F83A
:103F20001010A1B198F8101001291AD098F81010AB
:103F3000022920D028E0A048FCF7E0FA00EB40017D
:103F4000C1EBC0109D490AEAC000C880E0E7C08804
:103F500000EE100AB8EE400A5FED800A80EE209A6B
:103F600012E0008900EE100AB8EE400A5FED850A03
:103F700080EE209A08E0408900EE100AB8EE400A70
:103F80005FED8A0A80EE209A19EE100A27F0DCFC19
:103F900041EC100B53EC102BAFF2082102A8FCF7F8
:103FA00099F902A9484613F0CCFA40F67801D8F8FE
:103FB000180016F035FC80468149404613F094FA0B
:103FC0000021404613F0E2FA7E491C20087035704B
:103FD0003C7017F0ADFD2CE540F67901154616F062
:103FE0001FFC06466FF07041304613F07DFA6FF00B
:103FF0007F41304613F0CAFA04946F4906E09DF8F9
:1040000010000C549DF81000401C04909DF8100006
:104010000628F4D340F67D01A86916F001FC044699
:104020006749204613F060FA0021204613F0AEFAEB
:10403000644927200870FCE440F67D01924616F0A2
:10404000EFFB80466FF07041404613F04DFA6FF081
:104050007F41404613F09AFA3878E8B33878A0B137
:10406000029403943A785449D21C02A8FCF78AFBC4
:1040700002A820F04DF953EC182B51EC100B27F04F
:1040800039FA27F0A3F95049C8664F48C06E00EED0
:10409000100AF8EE400A1FEDCF1A80EE810A10EEEA
:1040A000100A27F051FC41EC100B53EC102BAFF22F
:1040B0001C3102A8FCF70EF902A9404613F041FAA0
:1040C00040F67901DAF8180016F0AAFB80463C4960
:1040D000404613F009FA00E00BE00021404613F0DF
:1040E00055FA38492220087035703C7017F020FDD1
:1040F0009FE43148FCF702FA4FF47A7148433249A1
:10410000C866C2E740F67A01154616F089FB0646F6
:104110006FF07041304613F0E7F96FF07F413046A1
:1041200013F034FA0494244906E09DF810000C546E
:104130009DF81000401C04909DF810000628F4D350
:1041400040F67E01A86916F06BFB04461C49204628
:1041500013F0CAF90021204613F018FA1949282053
:10416000087066E440F67E01904616F059FB8146E1
:104170006FF07041484613F0B7F96FF07F41484641
:1041800013F004FA1AEE100A27F0DEFB41EC100BD4
:1041900053EC102BAFF20C4102A8FCF79BF802A9DC
:1041A000484613F0CEF940F67A01D8F8180016F018
:1041B00037FB8046024909E084010020B8850020D1
:1041C000FFFFBF008E010020800B0020404613F04F
:1041D0008BF90021404613F0D9F99D49232008703E
:1041E00035703C7025E440F67101154616F018FB59
:1041F00006466FF07041304613F076F96FF07F415C
:10420000304613F0C3F90494924906E09DF810007B
:104210000C549DF81000401C04909DF810000628D6
:10422000F4D340F67501A86916F0FAFA04468A49F3
:10423000204613F059F90021204613F0A7F98449CC
:104240001F20087066E440F67501924616F0E8FA01
:1042500080466FF07041404613F046F96FF07F41A1
:10426000404613F093F93878E8B33878A8B102944F
:1042700003943A787749D21C02A8FCF783FA02A883
:1042800020F046F853EC182B51EC100B27F032F9C4
:1042900027F09CF87149C1F89C007048D0F89C1038
:1042A00047F23052914213D8D0F89C1000EE101A09
:1042B000F8EE400A9FED6A1A6A496B4A80EE810A5D
:1042C000D1ED000A20EE200A10EE101A914201DD15
:1042D000C0F89C40D0F89C100161006900EE100A03
:1042E000F8EE400A00E02BE09FED5D1A80EE810AB7
:1042F00010EE100A27F028FB41EC100B53EC102BAA
:10430000AFF2705102A8FBF7E5FF02A9404613F097
:1043100018F940F67101DAF8180016F081FA8046B3
:104320004D49404613F0E0F80021404613F02EF9C5
:1043300047492120087035703C7017F0F9FB20E4E4
:104340004448FCF7DBF84FF47A7148434349C1F81D
:104350009C00A2E740F67201154616F061FA064687
:104360006FF07041304613F0BFF86FF07F41304678
:1043700013F00CF90494374906E09DF810000C5432
:104380009DF81000401C04909DF810000628F4D3FE
:1043900040F67601A86916F043FA04462E492046F5
:1043A00013F0A2F80021204613F0F0F8284920204D
:1043B000087061E4FFE740F67601904616F030FAA7
:1043C00081466FF07041484613F08EF86FF07F41E0
:1043D000484613F0DBF8387890B3387878B1029417
:1043E00003943A781B4902A8FCF7CCF902A81FF005
:1043F0008FFF51EC100B26F0E9FF88F8000098F8C9
:1044000000201AA102A8FBF765FF02A9484613F095
:1044100098F840F67201D8F8180016F001FA8046B4
:104420000D49404613F060F80021404613F0AEF805
:1044300007492420087035703C7017F079FB1BE4A5
:10444000FFE70448FCF75AF888F80000D7E70000B7
:104450008E01002084010020FFFFBF00800B0020A0
:1044600000007A4424000020000048432533640003
:1044700070B5174C61792046164D806940F6990257
:10448000012912D0A17B01291DD0114616F0C8F9CF
:1044900006466FF07041304613F026F82946304644
:1044A00013F074F82F20207070BD114616F0B8F983
:1044B00004462946204613F017F82046BDE8704010
:1044C000002113F063B8BDE8704000F051BA00005D
:1044D000D4010020FFFFBF002DE9FF47044600681C
:1044E00010B117F0BFF868B10022314850F822101F
:1044F00060680A2841D007DCF0B306280DD00728F1
:1045000054D106E00122F0E712280AD019284DD133
:1045100037E0204618F09AFC48E0204619F014FED7
:1045200044E0206804F040FD0290B0F9548090F817
:104530005650476C466B02A804F080FD206800F0DE
:1045400039F88146684616F043F9BDF8001009EBCA
:1045500005000844ADF80000246A304606F046F92C
:10456000022006F083F9384606F036F942466946DD
:10457000204605F0EDF819E007E020461AF0D0F8E3
:1045800014E0886904B0BDE8F087206816F02EFDBD
:10459000206804F009FD0390B0F90610B0F902207C
:1045A000891A491CC16703A804F048FD0020E9E707
:1045B0009C75030838B504F0F7FC0090C46F68469A
:1045C00004F03CFD204638BD044A0349116004490B
:1045D000CA69C86110467047540300201C070020B8
:1045E0002007002000B589B024216846FCF7A3F815
:1045F0001920019003480068806841686846884730
:1046000009B000BD1C07002070B5FF22FF23084D34
:1046100005F5807605E010F8014B54402A5D5A40BC
:10462000335D491E89B2F6D243EA022070BD000014
:1046300044BB02087CB51B4C2078012500281DD006
:104640001948C16F4160D0F888108160D0F89C1083
:104650000161164805707021682013F05AFF290384
:10466000134803F058FD08F0DBFBA902114803F0E2
:1046700052FD1148016841F08001016025700F4929
:10468000192008700E480024047016F0BDF8034687
:1046900000940C4A29210C48019404F07DFE0B493A
:1046A00088617CBD42010020800B00207D0000203D
:1046B000000C024000080240400000208E01002053
:1046C0007C000020BD650208A0C602089C010020F5
:1046D0001CB50E48002404700D4804700D48047089
:1046E0007021682013F015FF4FF480510A4803F041
:1046F00012FD16F089F803460094084A082108487C
:10470000019404F049FE074908601CBD42010020E5
:104710007D0000207C000020000C0240A5780208EB
:104720001CCB0208B80100207CB5124C5020A071AF
:104730000320A070104908700025E57126F06AF882
:104740000E480570208BDFED0E0A00EE100AB8EE61
:10475000400A80EE201A84ED081A16F055F8034638
:104760000095084A29210848019504F015FE606269
:104770007CBD0000400100207D0000207C00002066
:1047800000007A44514F0208A0BF02081CB50F492F
:10479000052008700E48002404700E480470702133
:1047A000682013F0B6FE4FF480510B4803F0B3FCC1
:1047B00016F02AF803460094084A25210848019477
:1047C00004F0EAFD074948601CBD000042010020DA
:1047D0008E0100207C000020000C0240357C020885
:1047E000FCCB0208CC0100207CB5284C20780028A6
:1047F00015D02078022812D04FF40041244803F04D
:104800008CFC244D0221284603F085FC4FF4FA70FD
:1048100000F0FAFD4FF40051284603F07EFC022020
:1048200020701D4908701D49092008701C48D0F8E7
:1048300098104160D0F8A01081601A48DFED1A0A84
:104840001A4DB0F90A0000EE100AB8EEC00A80EE68
:10485000201A85ED021A1648002404701549032019
:1048600008707021682013F054FE4FF480511248F4
:1048700003F051FC15F0C8FF034600940F4A1521C0
:104880000F48019404F088FD68607CBD420100205F
:1048900000000240000802407D0000208E01002040
:1048A000800B0020C485002000007A4434010020E1
:1048B0007C0000208B010020000C02403D470208D4
:1048C00054BD02087CB51E4C2078002801D008F0A9
:1048D000A7FA042020701B4908701B491720087094
:1048E0001A48DFED1B0A1B4DB0F9080000EE100A54
:1048F000B8EEC00A80EE201A85ED021A1648D0F8EC
:1049000094100161154900240C70154A02211170A0
:10491000D0F8A410C1607021682013F0FAFD4FF4A4
:104920008051104803F0F7FB15F06EFF034600942A
:104930000D4A17210D48019404F02EFD68607CBDDE
:10494000420100207D0000208E010020C48500204F
:1049500000007A4490010020800B00207C000020A1
:104960008B010020000C0240B99502081CC402080B
:104970001CB515F049FF002403460094064A0721A0
:104980000648019404F008FD0549486005490C708B
:10499000054A082111701CBD058E020800D20208CC
:1049A000FC0100207C000020420100201CB515F015
:1049B0002BFF002403460094074A12210748019464
:1049C00004F0EAFC06498861064A1470064B072287
:1049D0001A702F220A701CBD0988020808D002082C
:1049E000D40100207C000020420100201CB50220E0
:1049F0008DF8050001208DF8040000208DF80600D8
:104A00001C2000906946024803F030FB1CBD0000EA
:104A10000010024031B582B02B4D0421284603F02E
:104A20007AFB0821284603F078FB00BF00BF00BFD7
:104A300000BF0421284603F070FB00BF0821284670
:104A400003F06BFB0421284603F065FB0021019174
:104A50004FF6FF7429E09DF80410072912D9BDF81C
:104A60000810080404D51021284603F056FB03E083
:104A70001021284603F04FFBBDF8081004EA41005E
:104A8000029003E01021284603F045FB0821284648
:104A900003F041FB00BF00BF00BF0821284603F020
:104AA0003CFB9DF80410491C01919DF80400182856
:104AB000D1D30421284603F030FB03B02846BDE8DB
:104AC0003040082103F029BB0010024008B538200F
:104AD0008DF8000003208DF801008DF80200012000
:104AE0008DF8030068460BF0B3FD08BD70B5644D4A
:104AF000A97928460024406A05F14406462970D069
:104B00001EDC15293BD0162952D040297ED140F613
:104B1000051115F085FE2978012906D92978491E45
:104B200029702978314401F8014C29786A7891423A
:104B300000D16C70BDE870405149443112F001BDA4
:104B40004D2967D04E297CD04F295FD140F63411D2
:104B500015F066FE2978012906D92978491E2970A1
:104B60002978314401F8014C29786A78914200D1C2
:104B70006C70BDE870404249443112F0E2BC40F62E
:104B80006B0115F04DFE2978012906D92978491EB7
:104B900029702978314401F8014C29786A789142CA
:104BA00000D16C70BDE870403549443112F0C9BC89
:104BB00040F66C0115F034FE2978012906D92978D0
:104BC000491E29702978314401F8014C29786A7806
:104BD000914200D16C70BDE870402949443112F017
:104BE000B0BC40F60E1115F01BFE2978012906D93C
:104BF0002978491E29702978314401F8014C297817
:104C00006A78914200D16C701D4900E037E0443170
:104C100012F097FC40F63211686A15F001FE29780F
:104C2000012906D92978491E29702978314401F8CB
:104C3000014C29786A78914200D16C701049443156
:104C400000E003E0BDE8704012F07BBC40F6331199
:104C500015F0E6FD2978012906D92978491E297021
:104C60002978314401F8014C29786A78914200D1C1
:104C70006C70BDE870400249443112F062BC70BDF6
:104C8000400100202DE9F0416B4801786B481D3947
:104C90006B4F806900246B4D6B4E0C297ED2DFE890
:104CA00001F0061E364EC8C8C8C8668098B040F6E7
:104CB000730115F0B5FD2978012906D92978491E17
:104CC00029702978394401F8014C297832789142C9
:104CD00000D13470BDE8F041594912F032BC40F6C1
:104CE000740115F09DFD2978012906D92978491EFE
:104CF00029702978394401F8014C29783278914299
:104D000000D13470BDE8F0414D4912F01ABC40F6B4
:104D1000750115F085FD2978012906D92978491EE4
:104D200029702978394401F8014C29783278914268
:104D300000D13470BDE8F041414912F002BC40F6A8
:104D4000760115F06DFD2978012906D92978491ECB
:104D500029702978394401F8014C29783278914238
:104D600000D13470BDE8F041354912F0EABB40F69D
:104D70007B0115F055FD2978012906D92978491EAE
:104D800029702978394401F8014C29783278914208
:104D900000D13470BDE8F041294900E049E012F04B
:104DA000D0BB40F67C0115F03BFD2978012906D9DE
:104DB0002978491E29702978394401F8014C29784D
:104DC0003278914200D13470BDE8F0411C4912F0B4
:104DD000B8BB40F67D0115F023FD2978012906D9DD
:104DE0002978491E29702978394401F8014C29781D
:104DF0003278914200D13470BDE8F041104912F090
:104E0000A0BB40F67E0115F00BFD2978012906D9DB
:104E10002978491E29702978394401F8014C2978EC
:104E20003278914200D13470BDE8F041044912F06B
:104E300088BBBDE8F08100008E0100209C010020AD
:104E40008401002040010020410100202DE9F041B3
:104E50002B4801782B482C4F002440682B4D2C4EBA
:104E600018291BD0432931D0562947D140F62D119E
:104E700015F0D6FC2978012906D92978491E297010
:104E80002978394401F8014C29783278914200D1CF
:104E90003470BDE8F0411C4912F053BB40F66E017E
:104EA00015F0BEFC2978012906D92978491E2970F8
:104EB0002978394401F8014C29783278914200D19F
:104EC0003470BDE8F041104912F03BBB40F61111BF
:104ED00015F0A6FC2978012906D92978491E2970E0
:104EE0002978394401F8014C29783278914200D16F
:104EF0003470BDE8F041044912F023BBBDE8F081F5
:104F00008E0100209001002084010020400100203B
:104F1000410100202DE9F041884801788848894FF7
:104F200000244068884D894E10297DD008DCA1F10D
:104F30000B01052979D2DFE801F0233B879FB700F9
:104F400051294DD0522963D053296FD054296CD1A7
:104F500040F6381115F064FC2978012906D9297822
:104F6000491E29702978394401F8014C2978327892
:104F7000914200D13470BDE8F041724912F0E1BABB
:104F80004FF4066115F04CFC2978012906D92978DF
:104F9000491E29702978394401F8014C2978327862
:104FA000914200D13470BDE8F041664912F0C9BAAF
:104FB00040F6610115F034FC2978012906D92978D9
:104FC000491E29702978394401F8014C2978327832
:104FD000914200D13470BDE8F0415A4912F0B1BAA3
:104FE00040F6351115F01CFC2978012906D92978DD
:104FF000491E29702978394401F8014C2978327802
:10500000914200D13470BDE8F0414E4912F099BA96
:1050100040F6361115F004FC297801290AD92978BF
:10502000491E2970297802E056E085E06CE0394499
:1050300001F8014C29783278914200D13470BDE8F2
:10504000F041404912F07DBA40F6620115F0E8FBEC
:105050002978012906D92978491E297029783944E7
:1050600001F8014C29783278914200D13470BDE8C2
:10507000F041344912F065BA40F6630115F0D0FBF7
:105080002978012906D92978491E297029783944B7
:1050900001F8014C29783278914200D13470BDE892
:1050A000F041284912F04DBA40F6640115F0B8FB02
:1050B0002978012906D92978491E29702978394487
:1050C00001F8014C29783278914200D13470BDE862
:1050D000F0411C4912F035BA40F6650115F0A0FB0D
:1050E0002978012906D92978491E29702978394457
:1050F00001F8014C29783278914200D13470BDE832
:10510000F041104912F01DBA40F6371115F088FB36
:105110002978012906D92978491E29702978394426
:1051200001F8014C29783278914200D13470BDE801
:10513000F041044912F005BABDE8F0818E0100206B
:10514000CC0100208401002040010020410100200A
:105150002DE9F0412B4801782B482C4F0024406862
:105160002B4D2C4E11291BD0122931D0582947D153
:1051700040F62E1115F054FB2978012906D929781B
:10518000491E29702978394401F8014C2978327870
:10519000914200D13470BDE8F0411C4912F0D1B900
:1051A00040F6660115F03CFB2978012906D92978DB
:1051B000491E29702978394401F8014C2978327840
:1051C000914200D13470BDE8F041104912F0B9B9F4
:1051D00040F6670115F024FB2978012906D92978C2
:1051E000491E29702978394401F8014C2978327810
:1051F000914200D13470BDE8F041044912F0A1B9E8
:10520000BDE8F0818E0100203401002084010020DF
:105210004001002041010020014800687047000063
:10522000A003002010B50549054800F00DF8054819
:10523000016841F00201016010BD000020800010F3
:105240001064024034000020074A904201D207480F
:1052500001E005481038064A8B0001EA020101D539
:10526000C160704781607047106402400060024076
:105270007D0F7D0F002904D0016841F0010101601C
:105280007047016821F00101016070470B0609D5E4
:1052900022B1436943F08003436103E0436923F093
:1052A00080034361802905D001F01E011AB1026814
:1052B0000A430260704702688A4302607047000038
:1052C00030B50368124A1340CC680A682243D1E91A
:1052D00005452C432243CC6922430C6A22434C6A85
:1052E00022438C6A22434C6B22438C6B22431A4329
:1052F0000260426922F00703D1E90B2422431A43DA
:1053000042610A6942604A6882608968C16030BD52
:105310003F801CF0F8B50546006803F045FE00909C
:10532000448ED0F88860684603F088FE06B10126F6
:1053300004F00104286816F095F90EB1002006E08B
:105340000CB1012003E008B1022000E003201B495A
:1053500051F82010686858B302280CD0052802D0F4
:10536000122828D103E0284617F09CFD23E02846A8
:1053700019F06BFE1FE06A69E8694FF0FF33801A8D
:10538000A0F1080203EB6204421CAB69001B45104C
:10539000A3EB6206C86905F01FFA06E03219311B5B
:1053A000284604F0A3FB641E6D1C002CF6DA02E014
:1053B000286815F01BFE0020F8BD0000FC750308EE
:1053C000044A0349116004490A6B08631046704798
:1053D000A40300205C0700206007002038B50D46BC
:1053E000002403F0E1FD0090C06B294603F0BEFEEF
:1053F0000546684603F022FE1DB1284603F0D4FDA1
:105400000446204638BD704711B54FF47A7402E067
:10541000204600F006F8BDF800104A1E0092F7D2B0
:1054200018BD01B582B000200190042110E0009168
:1054300000BF00BF00BF00BF00BFBDF80000401E9E
:105440000004000C0090F3D1BDF80400401C019052
:10545000BDF80400BDF808209042E8D30EBD00005E
:1054600010B52DED028B20490A78204CB2EE048A4B
:10547000022AE0681ED00978032918D11C4991ED51
:10548000000A20EE080ABDEEC00A10EE101A09B29A
:1054900002F01AFF174890ED000A20EE080ABDEE50
:1054A000C00A10EE100A01B2206902F00DFFBDEC37
:1054B000028B10BD104991ED000A20EE080ABDEEE6
:1054C000C00A10EE101A09B202F0FEFE0B4890ED71
:1054D000000A20EE080ABDEEC00A10EE100A01B262
:1054E000206902F0F1FEE2E78B010020B801002004
:1054F0002800002030000020240000202C00002084
:105500001CB51048C07901281AD1FF2005F064F9B4
:10551000022005F099F9B4200021CDE90010032301
:1055200006220C214FF4C37004F0BCF902B00C2326
:10553000BDE8104040F27F120421034804F038BB5C
:105540001CBD00007C00002044BD02081CB51048B2
:10555000C07901281AD1FF2005F03EF9022005F09C
:1055600073F9B4200021CDE90010032306220C2199
:1055700040F2D11004F096F902B00C23BDE81040BF
:105580004FF4E5720421034804F012BB1CBD000077
:105590007C00002044BD020831B524F081FEA0202B
:1055A00024F046FE24F0ACFE70B99DF8000024F013
:1055B0003FFE24F0A5FE38B924F072FEA12024F0AD
:1055C00037FE24F09DFE18B124F086FE002038BD81
:1055D00024F002FE034C207024F0E6FD24F07CFE53
:1055E000207838BD7400002070B50120FFF7D4FF8B
:1055F000FE4C20600120FFF7CFFF206020680002F2
:1056000020600220FFF7C8FF21680844206020685E
:10561000000220600320FFF7BFFF216808442060DC
:105620002068000220600420FFF7B6FF21680844CC
:1056300020600520FFF7B0FFED4D286028680002CC
:1056400028600620FFF7A8FF29680844286028681A
:10565000000228600720FFF79FFF296808442860A0
:105660002868000228600820FFF796FF2968084490
:105670002860C020FFF790FF6063606B00026063EA
:10568000C120FFF789FF616B08446063606B000213
:105690006063C220FFF780FF616B08446063606B4A
:1056A00000026063C320FFF777FF616B084460630B
:1056B000C420FFF771FF6863686B00026863C52050
:1056C000FFF76AFF696B08446863686B00026863F0
:1056D000C620FFF761FF696B08446863686B0002CE
:1056E0006863C720FFF758FF696B08446863C820E8
:1056F000FFF752FFA063A06B0002A063C920FFF771
:105700004BFFA16B0844A063A06B0002A063CA20FA
:10571000FFF742FFA16B0844A063A06B0002A063E7
:10572000CB20FFF739FFA16B0844A063CC20FFF723
:1057300033FFA863A86B0002A863CD20FFF72CFFFE
:10574000A96B0844A863A86B0002A863CE20FFF7EA
:1057500023FFA96B0844A863A86B0002A863CF20AD
:10576000FFF71AFFA96B0844A8630920FFF714FF8D
:1057700060606068000260600A20FFF70DFF6168EA
:10578000084460606068000260600B20FFF704FF5F
:105790006168084460606068000260600C20FFF788
:1057A000FBFE6168084460600D20FFF7F5FE68604D
:1057B0006868000268600E20FFF7EEFE6968084422
:1057C00068606868000268600F20FFF7E5FE69689E
:1057D000084468606868000268601020FFF7DCFE1B
:1057E0006968084468601120FFF7D6FEA060A068D1
:1057F0000002A0601220FFF7CFFEA1680844A0605D
:10580000A0680002A0601320FFF7C6FEA16808444C
:10581000A060A0680002A0601420FFF7BDFEA16890
:105820000844A0601520FFF7B7FEA860A868000232
:10583000A8601620FFF7B0FEA9680844A860A86811
:105840000002A8601720FFF7A7FEA9680844A86017
:10585000A8680002A8601820FFF79EFEA968084407
:10586000A8601920FFF798FEE060E0680002E060A1
:105870001A20FFF791FEE1680844E060E06800024A
:10588000E0601B20FFF788FEE1680844E060E06804
:105890000002E0601C20FFF77FFEE1680844E06042
:1058A0001D20FFF779FEE860E8680002E8601E202E
:1058B000FFF772FEE9680844E860E8680002E86003
:1058C0001F20FFF769FEE9680844E860E868000205
:1058D000E8602020FFF760FEE9680844E8602120C6
:1058E000FFF75AFE20612069000220612220FFF7A5
:1058F00053FE2169084420612069000220612320B1
:10590000FFF74AFE216908442061206900022061F6
:105910002420FFF741FE2169084420612520FFF77C
:105920003BFE28612869000228612620FFF734FE2B
:105930002969084428612869000228612720FFF7A7
:105940002BFE296908442861286900022861282063
:10595000FFF722FE2969084428612920FFF71CFE71
:1059600060616069000260612A20FFF715FE6169CD
:10597000084460616069000260612B20FFF70CFE43
:105980006169084460616069000260612C20FFF772
:1059900003FE6169084460612D20FFF7FDFD686129
:1059A0006869000268612E20FFF7F6FD6969084406
:1059B00068616869000268612F20FFF7EDFD696981
:1059C000084468616869000268613020FFF7E4FDFF
:1059D000696908446861AB20FFF7DEFDE062E06AB8
:1059E0000002E062AC20FFF7D7FD03E0D80A0020F8
:1059F0002C0B0020E16A0844E062E06A0002E062E9
:105A0000AD20FFF7C9FDE16A0844E062E06A0002E8
:105A1000E062AE20FFF7C0FDE16A0844E062AF201B
:105A2000FFF7BAFDE862E86A0002E862B020FFF71B
:105A3000B3FDE96A0844E862E86A0002E862B1205E
:105A4000FFF7AAFDE96A0844E862E86A0002E86232
:105A5000B220FFF7A1FDE96A0844E862B720FFF72A
:105A60009BFD2063206B00022063B820FFF794FDAC
:105A7000216B08442063206B00022063B920FFF7EC
:105A80008BFD216B08442063206B00022063BA2049
:105A9000FFF782FD216B08442063BB20FFF77CFDEC
:105AA0002863286B00022863BC20FFF775FD296B73
:105AB00008442863286B00022863BD20FFF76CFDB3
:105AC000296B08442863286B00022863BE20FFF777
:105AD00063FD296B084428633120FFF75DFDA06159
