:020000040802F0
:10000000C890002095020208771903082DC0020845
:10001000751903081D2F0208A1CE03080000000077
:10002000000000000000000000000000EF82030854
:100030006F540208000000006D550308499503083D
:10004000AF020208AF020208AF020208AF020208C4
:10005000AF020208AF020208AF020208AF020208B4
:10006000AF020208AF020208AF020208AF020208A4
:10007000AF020208AF020208AF020208AF02020894
:10008000AF020208AF020208AF020208AF02020884
:10009000AF020208AF020208AF020208AF02020874
:1000A000AF020208AF020208AF020208AF02020864
:1000B000AF020208599A0308599E0308AF020208CA
:1000C000AF020208AF020208AF020208AF02020844
:1000D000AF02020841CA0308AF0202085DCB030861
:1000E000AF020208AF020208AF020208AF02020824
:1000F000AF020208AF020208AF020208AF02020814
:10010000AF020208AF020208E1A50308AF0202082D
:10011000AF020208AF020208C1A60308AF0202083C
:100120008D520208AF020208AF020208AF020208B5
:10013000AF020208AF020208AF020208AF020208D3
:10014000AF020208AF020208AF020208AF020208C3
:10015000AF020208AF020208AF020208AF020208B3
:10016000AF020208AF020208AF020208AF020208A3
:10017000AF020208AF020208AF020208AF02020893
:10018000AF020208AF02020800F002F800F072F8B5
:100190000AA090E8000C82448344AAF10107DA45E2
:1001A00001D100F067F8AFF2090EBAE80F0013F0C2
:1001B000010F18BFFB1A43F001031847A8FE040003
:1001C000C8FE04000A444FF0000C10F8013B13F085
:1001D000070408BF10F8014B1D1108BF10F8015BA0
:1001E000641E05D010F8016B641E01F8016BF9D193
:1001F00013F0080F1EBF10F8014BAD1C0C1B09D1EA
:100200006D1E58BF01F801CBFAD505E014F8016B5B
:1002100001F8016B6D1EF9D59142D6D370470000ED
:100220000023002400250026103A28BF78C1FBD8FF
:10023000520728BF30C148BF0B607047662930F0B5
:100240009B82642900F08280002070471FB530F047
:1002500086FA00F093FE0400002000212FF088FCB5
:10026000401C6060002000212FF06CFCE0601FBD8E
:1002700010B510BD00F0F6FF1146FFF7E7FF2EF0B6
:100280004FFF01F09FFA03B4FFF7F2FF03BC01F048
:10029000CDFC00000948804709480047FEE7FEE71B
:1002A000FEE7FEE7FEE7FEE7FEE7FEE7FEE7FEE726
:1002B00004480549054A064B70470000119603089B
:1002C00089010208C88A0020C8900020C88C00203C
:1002D000C88C00200FB41CB5074B06AA7B446946A6
:1002E0000090059800F03BFD0020694600F04AFDB3
:1002F0001CBC5DF814FB0000A50A000070B50446A4
:1003000085690068C10601D5302600E02026C007B7
:1003100007D070BDD4E9012130469047206A401CC7
:1003200020626D1EF6D570BD70B5044685690078F3
:10033000C00707D170BDD4E9012120209047206A71
:10034000401C20626D1EF6D570BD00002DE9F04105
:100350000646002410687529314616A510D0AFF363
:100360000080002802DA404213A507E031688A07BE
:1003700001D512A502E0490704D511A5012401E029
:10038000AFF3008000210A2206F1240709E0B0FB48
:10039000F2FCB0FBF2F302FB1C003030785418463C
:1003A000491C0028F3D123462A463046BDE8F041D7
:1003B00000F067BA000000002D0000002B000000D4
:1003C000200000002DE9F05F894604464FF0000A46
:1003D000DFF824B1FB44C0F820A02046E16888473C
:1003E00000287DD0252806D0D4E901219047206A35
:1003F000401C2062F1E700255F462046E1688847FF
:100400002028064607DB312E05D2B81910F8200C3B
:1004100008B10543F1E7A80701D525F00405C4F8A4
:100420001CA00027C4F818A02A2E09D030462EF0B0
:100430001BFC38B304EB8708303EC8F8186019E09D
:1004400059F8041B204604EB87029161E168884754
:10045000012F064618D1E069002820DA25F0200592
:100460001DE0D8F8180000EB800006EB40003038A3
:10047000C8F818002046E168884706462EF0F4FBCD
:100480000028EED1012F0AD02E2E08D12046E16897
:1004900088477F1C0646022F45F02005C4DBA06973
:1004A000002803DA404245F00105A061E80701D0C9
:1004B00025F01005A6B1A6F14100192802D8203672
:1004C00045F400654A463146204625604D46FFF713
:1004D000B5FE60B1012807D0ED1D25F0070000E052
:1004E00007E000F1080978E705F1040975E73046EF
:1004F0007AE7206ABDE8F09FA8FB040070B50646C5
:1005000000F0B0F90468054630460A22002100F0E8
:1005100091FC2C6070BD40EA0103024630B59B0798
:1005200010D14FF0013400E008C208C91D1B9D43E3
:1005300015EAC41FF8D013F0FF0102F8011B0DD01B
:100540001B0AF8E711F8013B002B02F8013B05D02C
:1005500011F8013B002B02F8013BF3D130BD10B57F
:10056000431C02E010F8011B71B18107FAD14FF072
:10057000013202C88C1A8C4314EAC211F9D0C01A95
:100580000A0603D0C01E10BDC01A10BD0A0401D057
:10059000801E10BD0902FCD0401E10BD421E12F884
:1005A000013F002BFBD111F8013B002B02F8013B6E
:1005B000F9D17047032A40F2308010F0030C00F0AC
:1005C000158011F8013BBCF1020F624498BF11F88D
:1005D00001CB00F8013B38BF11F8013BA2F1040246
:1005E00098BF00F801CB38BF00F8013B11F00303BE
:1005F00000F06780083AC0F0088051F8043B083AE0
:1006000051F804CBA0E80810F5E7121D5CBF51F8C3
:10061000043B40F8043BAFF30080D20724BF11F83D
:10062000013B11F801CB48BF11F8012B24BF00F8A2
:10063000013B00F801CB48BF00F8012B7047431A7B
:1006400028BF9A427FF6B6AF032A1044114440F205
:10065000268010F0030F1EBF11F8013D521E00F856
:10066000013D10F0030F7FF4F6AF11F0030300F02B
:100670002C84083AC0F00B8051F8043D083A51F838
:1006800004CD40F8043D40F804CDFFF7F3BF121D40
:100690005CBF51F8043D40F8043DAFF30080D20741
:1006A00024BF11F8013D11F801CD48BF11F8012C0C
:1006B00024BF00F8013D00F801CD48BF00F8012C2F
:1006C000704710B5203AC0F00B80B1E81850203ABE
:1006D000A0E81850B1E81850A0E81850BFF4F5AFE2
:1006E0005FEA027C24BFB1E81850A0E8185044BF6C
:1006F00018C918C0BDE810405FEA827C24BF51F8D9
:10070000043B40F8043B08BF7047D20728BF31F8CC
:10071000023B48BF11F8012B28BF20F8023B48BF1D
:1007200000F8012B704702F0FF0343EA032242EA7C
:10073000024200F0F6BB4FF0000200B513469446AB
:100740009646203922BFA0E80C50A0E80C50B1F129
:100750002001BFF4F7AF090728BFA0E80C5048BF3D
:100760000CC05DF804EB890028BF40F8042B08BFDB
:10077000704748BF20F8022B11F0804F18BF00F8D7
:10078000012B704710B5044610F0030F08BF11F09D
:10079000030F40F015804FF0013E121FC0F20E8093
:1007A00051F8043BA3EB0E0C2CEA030C1CEACE1C04
:1007B00008BF40F8043BF0D0A1F1040102F10402AB
:1007C000521E08DB11F8013B002B00F8013BF7D16A
:1007D000114600F0A4FB204610BD00004FF0013C84
:1007E00050F8042B51F8043B9A4221D1A2EB0C03A0
:1007F000934313EACC1317D150F8042B51F8043B60
:100800009A4215D1A2EB0C03934313EACC130BD1FC
:1008100050F8042B51F8043B9A4209D1A2EB0C0387
:10082000934313EACC13DBD04FF00000704700BFB6
:10083000D01A01BAB1FA81F101F0180122FA01F0DF
:10084000CB40C1F12001DBB2C0B2C01A2CFA01F3D7
:10085000D11A914311EAC311E6D17047704770472E
:100860007047000000487047648A002010B5FFF709
:10087000F9FF006810BD10B50446FFF7F3FF0460F0
:1008800010BD2DE9F0470D4699469246044600F109
:1008900024080168880604D5E06921F01001216070
:1008A00000E00120A84201DD471B00E00027A1690C
:1008B0007A1902EB0900081AA0612078C00602D458
:1008C0002046FFF71BFD002608E0D4E901211AF8B5
:1008D00006009047206A401C761C20624E45F4DBDF
:1008E0002078C0060AD52046FFF708FD06E0D4E9C7
:1008F000012130209047206A401C2062381EA7F159
:100900000107F4DC07E0D4E9012118F8050090475D
:10091000206A401C2062281EA5F10105F3DC204658
:10092000FFF702FD2078000602D50220BDE8F0871F
:100930000120FBE770472DE9FF4F0C461E464FF0A4
:10094000FF378BB0D2E90001DDF860800A908A465B
:10095000C1F30A5505B93D46002108464FF0000095
:10096000BAF1000F00F4400005DA00EB80004FF40C
:10097000400101EA50004FEA9059B9F1010F00DD42
:10098000B9460A9850EA4A000ED044F61050A5F233
:10099000FF3545432F14B8F1000F1ED07542291EB4
:1009A0001EDDC9F100021CE0B8F1010F4FF000009C
:1009B00001D0302103E0F24305E02154401CB04255
:1009C000FBDB30460022002121540B99C1F808803E
:1009D000C1E900200FB0BDE8F08FBD1B6D1CDEE744
:1009E0004A4600DA694206A800F0CAFB06AB93E863
:1009F000070003AB83E8070050460A9901F030F97D
:100A00008DE80700A0F500501F3800900398002DD6
:100A10000ADD42F21F014A460844002303A903905D
:100A2000684601F0DBFB09E0A0F500504A461F389C
:100A3000002303A90390684601F0FAFB8DE8070044
:100A40000004000C03D04FF0FF30410800E01046D6
:100A5000B8F1000F03D00022009215461EE0751E6B
:100A600005D400F08FFA303262556D1EF9D5B346C9
:100A70000122084302D000227F1C04E020783028A5
:100A800001D100227F1E002A099784D01DE0112D7C
:100A900007DA00F077FA303262556D1C50EA010235
:100AA000F5D1084302D00098C8B10EE00021681EBD
:100AB00005E0235C625C63542254401E491C814261
:100AC000F7DBAB46A81B401E0990002004F80B0082
:100AD0000B98099AC0F80880C0E9002B7AE7112624
:100AE0004FF0000857E72DE9F04F88460446D21D25
:100AF00022F0070191B0D1E90001CDE90A0126F009
:100B0000A1FD02460B98C00F01D02D2007E0206800
:100B1000810701D52B2002E0202101EAC000032A31
:100B2000099001D0072A05DB03464146204600F024
:100B300077FA0BE12078800601D5E06900E0062015
:100B4000B8F1650F814606D0B8F1660F18D0B8F13C
:100B5000670F70D131E00020B9F1110F009001DB77
:100B6000112301E009F101030AAA01A90CA8FFF76A
:100B7000E2FEDDE90C70002609F10105834647E03D
:100B800001204B4600904FF000470AAA01A90CA88B
:100B9000FFF7D1FEDDE90DB00C995D46002610B9D6
:100BA00009F101000D18B9EB050003D4C0F1FF36BF
:100BB00009F10105A5EB09002BE0B9F1010F01DAFC
:100BC0004FF001090020B9F1110F0090484601DDF6
:100BD000112300E003460AAA01A90CA8FFF7ABFE07
:100BE000DDE90C704D4600268346207800070AD4C4
:100BF000AB4500DA5D4601A8012D04DD411911F86D
:100C0000011C302907D04F4502DA17F1040F04DA2E
:100C1000012082460FE06D1EEEE7002F02DCED1B87
:100C20003E4403E0781CA84200DD7D1CB81B00F1A7
:100C3000010A4FF000472078000703D4AA4501DBE2
:100C40004FF0FF3A0021B7F1004F0DF143088DF846
:100C5000431024D002202B23002F01DA7F422D23C2
:100C60000A21021EA0F1010000DC5FB197FBF1FC3C
:100C700097FBF1F201FB1C7C17460CF1300C08F8D5
:100C800001CDEEE7A8F1010003702188090501D527
:100C9000452100E06521A0F1010800F8011C099838
:100CA0000FA9A1EB0807FF1D00B10120411901EBBD
:100CB000EA70A1693844081A401EA0612078C00675
:100CC00002D42046FFF71AFB099828B1D4E9012184
:100CD0009047206A401C20622078C00622D520461A
:100CE000FFF70CFB1EE0002E04DBB34502DD01A87C
:100CF000805D00E03020D4E901219047206A401C4B
:100D00002062761CAAF101005FEA000A0AD100F015
:100D100035F9C0680168405CD4E901219047206A38
:100D2000401C2062281EA5F10105DCDC07E0D4E9A7
:100D3000012118F8010B9047206A401C2062381EE0
:100D4000A7F10107F3DC2046FFF7EEFA032011B00C
:100D500041E6000001694A1C02610878704700B54D
:100D60008FB0CDE901310021059105497944CDE9E4
:100D7000031011466846FFF725FB0FB000BD0000C9
:100D8000E5FFFFFF0A6802F8010B0A6070470000E8
:100D90000FB4002300B589B00CA900910B99CB606A
:100DA000214B7B440693214B7B44079304236FF034
:100DB0000042CDE901321E4A7A446B46089202464F
:100DC00000202FF03BFD09B05DF814FB70B506461E
:100DD0004FF0FF3015460C46324686B00091CDE903
:100DE000010169460020049004A8FFF7D1FF0246E4
:100DF0000498211825B108B1084600E02046286073
:100E0000049800280DD0002A02DD0098884208D0FE
:100E10003246081B69460094CDE9010404A8FFF797
:100E2000B7FF06B070BD0000FB0200001303000016
:100E3000530200002DE9F04791460F4680460446D4
:100E4000002614F8015B2DB100F090F80068405DB9
:100E5000C007F6D12B2D02D02D2D18D0641E4A4686
:100E60003946204600F03CF927B13968A14201D14A
:100E7000C7F800804FF0020471050BD540420028EE
:100E800003DDFFF7EFFC0460A007BDE8F08746F440
:100E90008066E4E70028F8DAFFF7E4FC04606FF00E
:100EA0000040F2E7431A28BF9A427FF60AAC10448A
:100EB00010F0030F11441EBF11F8013D521E00F83F
:100EC000013D10F0030F7FF4F6AF103AC0F00A8036
:100ED00010B531E91850103A20E91850BFF4F9AFB5
:100EE000BDE81040530724BF31E9081020E908107D
:100EF00044BF51F8043D40F8043D12F0030F08BF11
:100F00007047D20728BF31F8023D48BF11F8012CC5
:100F100028BF20F8023D48BF00F8012C70474FF071
:100F200000020429C0F0128010F0030C3FF405AC5D
:100F3000CCF1040CBCF1020F18BF00F8012BA8BFC4
:100F400020F8022BA1EB0C01FFF7F7BB5FEAC17C95
:100F500024BF00F8012B00F8012B48BF00F8012B3B
:100F60007047000000487047648A002010B500F008
:100F700005F8001D10BD00BFF9EB020000487047E6
:100F8000848A002030B5B0F10A024FEA900E71F168
:100F900000034EEA817EB0EB0E0061EB91014FEA57
:100FA000101E4EEA017E10EB0E0041EB11114FEACC
:100FB000102E4EEA016E10EB0E0041EB11214FEAAC
:100FC000104E4EEA014E10EB0E0041EB114140185D
:100FD00041F100014FEAD00040EA41704FEAD101EF
:100FE00010EB80054FEA810444EA907444EB01045D
:100FF0006D1944EB0404521BA3414FF0000348BF9A
:101000000A3200D530BD401C41F1000130BD10B5A1
:101010000446FFF7ABFF0068005D00F0010010BD63
:101020002DE9F0411F46044603260168072A01F412
:10103000006004DB08B116A505E016A503E008B1C1
:1010400015A500E015A521F010002060A069C01EC4
:10105000A0610FB1401EA0612046FFF74FF94FB1CC
:10106000D4E9012138469047206A401C2062C01C08
:10107000206206E0206AFAE7D4E9012115F8010BA5
:101080009047761EF8D22046FFF74EF9BDE8F08172
:101090004E414E006E616E00494E4600696E66001C
:1010A000426842B1016811F8013B23B1521EC0E908
:1010B0000012184670470121C160881E70474268BF
:1010C0005AB1C368016843B983688B4205D0491E91
:1010D000521CC0E90012002070474FF0FF307047EB
:1010E0002DE9F05F824615468B4600270AF1010480
:1010F000B9460078302801D09DB113E014F8010BF7
:101100000127782803D0582801D045B10AE00DB155
:10111000102D07D1002714F8010B102502E0082537
:1011200000E00A250026B0460EE005FB080005FB9E
:1011300006F101271FFA80F801EB1046B6F5803F53
:1011400000D3B94614F8010B294600F0B0F8002886
:10115000EBDABBF1000F05D00FB1641E00E054467E
:10116000CBF80040B9F1000F06D0FFF77BFB02215E
:101170000160C81EBDE8F09F48EA0640FAE700009B
:101180002DE9F047814616468AB0354878440DC8A7
:101190008DE80D0032487844801C03AC0DC884E80B
:1011A0000D0041F69B300844372190FBF1F290FB93
:1011B000F1F5A5F1800501FB12041B3C02D5644248
:1011C000012000E00020DFF898A080460027FA44C4
:1011D000AAF1BE0A0EE0E0070AD03246684607EBE5
:1011E000470101230AEB810101F022F88DE8070095
:1011F00064107F1C002CEED1194F7F44AE3F19E0E4
:10120000E80715D007EB04100DF1180A90E80E005E
:101210008AE80E00C068F04201D198190890324661
:10122000012306A903A801F003F803AB83E8070034
:101230006D10641C002DE3D14FF001033246694666
:10124000B8F1000F03A802D000F0C8FF01E000F0E1
:10125000EFFFC9E90001C9F808200AB0BDE8F0872E
:1012600080EE04007546FFF77DFEAE460500694638
:10127000534620F00700854618B020B5FFF718F850
:10128000BDE820404FF000064FF000074FF0000887
:101290004FF0000B21F00701AC46ACE8C009ACE808
:1012A000C009ACE8C009ACE8C0098D4670473A28CF
:1012B00000D2303820F02002412A01D3A2F13700B9
:1012C000884201D34FF0FF30704700002DE9FF4FF7
:1012D00006468BB00878FF2806D0491C2D2805D07B
:1012E00000244FF0000908E000200CE00124F8E79A
:1012F00009EB8903491C00EB43090878FF28F7D163
:1013000014B1C9F100008146107800252C46AA4688
:1013100029462D2801D02B2804D1521C2D2813D06A
:10132000002082468B461078FF280FD04FF0000C2B
:101330000A21521CA5FB017804FB018105FB0C115D
:10134000C5194BEB0104EEE70120EAE7002108464E
:101350004FF00000BAF1000F02D000EB800040080F
:10136000C0F38157012F01DD4FF0FF370E9955EA89
:10137000040009EB01080BD04FF0020918F5FA7FC1
:1013800016DA4FEACA70002F706008DD012007E00E
:101390004FEACA70C6E900B00FB0BDE8F08F002078
:1013A0003060FFF75FFAC0F800901821084616E099
:1013B000B8F5FA7F18DD002F02DAF748784401E02B
:1013C000F6487844D0E90010C6E9001040EACA7037
:1013D0007060FFF747FAC0F80090142108460FB07C
:1013E000BDE8F04F2FF0C5B9002108464FF00000CE
:1013F000B8F10001099002DAC7F1000200E03A46B4
:1014000001DAC8F1000106A8FFF7BAFE06AB93E8BF
:10141000070003AB83E8070044F23E005BEA0401E7
:101420000090584604D144F21E012C465D460091BE
:10143000210C0904014306D10099240444EA15440F
:101440002D041039009104F07F41014306D1009929
:10145000240244EA15642D020839009104F0704119
:10146000014306D10099240144EA15742D01091F96
:10147000009104F04041014306D10099A40044EAE0
:101480009574AD00891E009104F00041084304D119
:1014900000986D196441401E00904FF001033A46D8
:1014A0006846B8F1000FCDE9014503A902DD00F05F
:1014B000D4FE01E000F0A7FEBAF1000F04460D468D
:1014C00001D084F00044002108464FF00000099943
:1014D00040F2FF77484010F00C0F07D124F0004095
:1014E000284303D0C4F30A50B84212D1FFF7BAF927
:1014F000C0F80090C4F30A50B8420AD1A848784412
:10150000D0E90010C6E9001004F000410843706003
:1015100042E7C6E900543FE72DE9FF4F1F464FF071
:10152000000A4FF0FF38454691B0D7E90146CDF8A3
:101530003CA0FFF723FDC0680168405C1090B969CA
:1015400012986D1C8847396A814688470028F6D171
:10155000B9F1FF3F0AD0002E24F4D06411DDB9F1B7
:101560002B0F08D0B9F12D0F0BD102E0404615B07A
:1015700013E744F48064B96912986D1C8847761E9D
:101580008146600504A901D52D2000E02B20002E06
:1015900001F1010B0DF130088DF810003FDDB9F1BC
:1015A000690F08D0B9F1490F05D0B9F16E0F02D01B
:1015B000B9F14E0F1CD13B4601A8009580E85002BE
:1015C000DDE912126FF002002FF03CF9C11CCED100
:1015D0000EE0B96912986D1C884781461398761EF3
:1015E00044F4007405600F98401C002E0F9016DD27
:1015F000B9F1300FEDD0B9F1780F02D0B9F1580F31
:101600000DD10F9801280AD13B46CDE90054DDE900
:101610001212001F02962FF013F9C11CA7D11099C6
:1016200089453ED144F0800406E01399681CAAF174
:10163000010A44F400740860B9696D1C1298761EA2
:10164000884730288146F0D02BE01099894505D194
:10165000200603D4761E44F0800418E048462DF09E
:1016600003FB08B3761E0DF123018B4544F400748F
:1016700008D2A9F130000BF8010B200607D5AAF11A
:10168000010003E0200602D40AF101008246A00511
:1016900002D51399681C0860B96912986D1C8847B7
:1016A0008146002ED1DC53E0002E51DDB9F1650FEB
:1016B00002D0B9F1450F4BD1A00549D5B9696D1CD0
:1016C0001298761E24F440748847002E81460CDD63
:1016D0002B2804D0B9F12D0F07D144F48074B969D7
:1016E00012986D1C8847761E8146E00501D52D2194
:1016F00000E02B2108F8011BCDF8008021E0761EC8
:101700000DF13901884544F400740CD2A9F1300080
:1017100010F0FF0088F8000002D10099884509D92F
:1017200008F1010806E0E00501D51E4801E042F29B
:101730000F708246B96912986D1C884781461398CC
:101740000560002E04DD48462DF08EFA0028D6D123
:10175000F96912988847FF2053468BF8000088F8F3
:10176000000000200A900B9004AA0CA90AA8FFF719
:10177000ADFDA00502D46FF00100F8E614F0240FCF
:1017800012D0E0071CD13868DDE90A12031D3B6066
:101790000068C0E9001213E0CCEC0400BEEC0400C9
:1017A00082EB0400F1D8FFFF0AA9684626F09CF9F5
:1017B000E00705D13868009A011D396000680260B1
:1017C0002846D4E610B50446AFF300802046BDE8B5
:1017D0001040FEF758BD00002DE9FF4F1F464FF0A7
:1017E0003C0987B04FF00042DDE9141001F1010817
:1017F000DDF858A002EA405003900020059083468F
:10180000054604460490B969461E08988847AAF11F
:10181000010A0290BAF1000F3BDD02982E2815D084
:101820001021FFF744FD00282EDB4FF0010B059936
:10183000014317D0B9F1000F0BDB4A46C11700F086
:10184000FBF905430C43A9F1040905E001200490CC
:101850000BE008B145F0010501200590049820B97E
:10186000361D02E0049800B1361FB969089808F1E6
:1018700001088847BBF1000FAAF1010A0290C9D004
:101880000999C1F80080C5E70298702808D050284F
:1018900006D0F96908988847BBF1000F14D04FE0D3
:1018A000002002900120BBF1000F049009D0B9691B
:1018B000089808F101088847AAF10109B9F1000F59
:1018C00007DCF969089888476FF001000BB0BDE8A4
:1018D000F08F2B2804D02D280CD14FF0FF3004902E
:1018E000B969089808F101088847A9F10109B9F117
:1018F000000FE6DD411CE4D00A21FFF7D8FC0028E8
:10190000DFDB029908F1010801EB810100EB4100E6
:101910000290B969089888470A21FFF7C8FC099A1C
:10192000A9F10109B9F1000FC2F8008001DD00281A
:10193000E7DAF969089888470499029800FB01667C
:1019400055EA040004D004F04041090002D006E04A
:10195000039898E0A40044EA9574AD00B61E04F024
:101960000041080002D16D196441761E159810F0EF
:10197000240F03D04FF00B095C4803E04FF0280917
:101980006FF07D008246564507DAAAEB06018944CE
:10199000B9F1410F01DD4FF0410901200021A9F10A
:1019A000010200F049F9024628400B462140084355
:1019B00001D0012100E00021501E029143F1FF31CE
:1019C00028402140084301D0012000E00020029976
:1019D000834651EA0B014FD0002108464FF000002A
:1019E000039900F4400039B100EB80004FF440014E
:1019F00000EBD07001EA60008015012802DD4FF095
:101A0000FF3000E013D0401C36D0029860B3BBF129
:101A1000000F0CD14A460120002100F00DF92840AA
:101A20002140084301D0012000E00020E0B1012066
:101A30004A46002100F000F9034640190A46614178
:101A40002D1A8C4111D3B9F1400F09DD159810F012
:101A5000240F02D0AAF1340603E0AAF1170600E031
:101A6000761C00254FF0004406E05B1E42F1FF3279
:101A700020EA030521EA0204CAF10100B04206DAB5
:101A80001B49039808430190002000900EE0039A40
:101A9000C4F3D321E80A0A43164940EA44500A43F2
:101AA0003146CDE90002684626F027F8159810F077
:101AB000240F0BD01598C00715D13868DDE9001246
:101AC000031D3B600068C0E900120CE002A86946F3
:101AD00026F00AF81598C00705D13868029A011D4A
:101AE0003960006802604046F0E6000002FCFFFF3B
:101AF0000000F07F0000F03F2DE9FF4F92461D46A9
:101B000085B04FF00041DDE9124BDDE914727F1E14
:101B100001EA4B50414940F0FF4940EA01080021E9
:101B200022F020004928049102D04E2828D04CE011
:101B30003BA0012607C88DE80700A9690698641C28
:101B400088477F1E014606D41DF8060018B121F013
:101B5000200181420BD0E96906988847032E34D0D2
:101B6000082E32D06FF0010009B0BDE8F08F761C6E
:101B7000032E01D0082EE0D1601CCAF80000DCE77B
:101B8000A9690698641C88477F1E2AD420F020008B
:101B9000412826D1A9690698641C88477F1E20D455
:101BA00020F020004E281CD1A9690698641C8847A3
:101BB0007F1E48F4002849F48009CAF8004001D487
:101BC000282806D0E969069888475FEACB7012D0CA
:101BD00022E0A9690698641C88477F1E01D400286A
:101BE00003DAE96906988847BCE72928F1D1641C23
:101BF000CAF80040E9E71BF0240F07D028680499D1
:101C0000031D2B600068C0E9001805E02868021D6C
:101C10002A600068C0F800902046A5E70000F07F29
:101C2000494E46494E4954590000000001491820C8
:101C3000ABBEFEE726000200B2F120030AD5C2F1D6
:101C4000200301FA02F120FA03F300FA02F041EA5C
:101C50000301704700FA03F14FF00000704770472E
:101C60005FEA400C08BF91F0000F4FEA8C234FEA67
:101C7000C12243EA51514FEA1C5018BF00F5F04011
:101C80004FEA300018BF41F000415FEA6C5C00F0A1
:101C90002980BCF1FF3F08BF40F080407047130C23
:101CA00006BF12044FF0100C4FF0000C130E04BFCF
:101CB00012020CF1080C130F04BF12010CF1040CFA
:101CC000930F04BF92000CF1020CD30F04BF52001B
:101CD0000CF1010C11464FF00002A0F11F00A0EB27
:101CE0000C00704711F0004F08BF704731F0004101
:101CF0003FF4D5AF0B0C06BF09044FF0100C4FF0AA
:101D0000000C0B0E04BF09020CF1080C0B0F04BFF2
:101D100009010CF1040C8B0F04BF89000CF1020CBB
:101D2000CB0F04BF49000CF1010CCCF12003A0EB58
:101D30000C0022FA03F302FA0CF241EA030100F16B
:101D40000100704720F07F4C80EA030023F07F47BA
:101D5000ACEB070303F57C5300F0004003F1FF03F5
:101D60002DE980494FEA154B09B44FEA144325EA9F
:101D70000B4E24EA03480FF2042606EB132749080A
:101D80003E785FEA320203FB0667C7F5000707FBF0
:101D900006F64FEA54374FEAD64606F1020607FB2D
:101DA000066CCCF1005C4FEA1C472CEA074C07FBA1
:101DB00006F40CFB06F504EB15464FEA961634BF05
:101DC00000204FF000404FEAD13706FB07FC4FEAF6
:101DD0001C4C0CFB0BF7D21B03FB0CF761EB070150
:101DE0000CFB0EF7B0EB074072EB17420CFB08F749
:101DF00034BFA2EB0742B2EB074261EB17414FEA57
:101E00000C444FEA910706FB07FC4FEA1C4C0CFB05
:101E10000BF7B0EBC74072EB573203FB0CF734BF44
:101E2000A2EBC742B2EBC74261EB57310CFB0EF796
:101E3000B0EBC70072EB57720CFB08F734BFA2EB94
:101E4000C702B2EBC70261EB5771039F4FEA816192
:101E500041EA921104EBCC044FEAD1374FEA826297
:101E600006FB07FC42EA90124FEA80604FEA1C4CE6
:101E70000CFB0BF7D21B03FB0CF761EB07010CFB10
:101E80000EF7B0EB074072EB17420CFB08F734BFBC
:101E9000A2EB0742B2EB074261EB17414FEA8C55C8
:101EA0004FEA910704EB9C2406FB07FC4FEA1C4C0D
:101EB0000CFB0BF7B0EBC74072EB573203FB0CF790
:101EC00034BFA2EBC742B2EBC74261EB57310CFB08
:101ED0000EF7B0EBC70072EB57720CFB08F734BF7C
:101EE000A2EBC702B2EBC70261EB577115EB4C25B1
:101EF0004FEA816141EA92114FEA82624FEAD1379B
:101F000042EA901206FB07FC44F100044FEA8060AD
:101F10004FEA1C4C0CFB0BF7D21B03FB0CF761EBDD
:101F200007010CFB0EF7B0EB074072EB17420CFBFE
:101F300008F734BFA2EB0742B2EB074261EB17414F
:101F400015EB1C154FEA813141EA92414FEA82328A
:101F500042EA90424FEA80304FEA0C7644F10004A6
:101F600048EA03434EEA0B484FF0000EB2EB080C70
:101F700071EB030724BF624639464EEB0E0E4FF05D
:101F8000000B0018524149414BEB0B0BB2EB080C14
:101F900071EB03077BF1000B24BF624639464EEB21
:101FA0000E0E4FF0000B0018524149414BEB0B0B4A
:101FB000B2EB080C71EB03077BF1000B24BF624608
:101FC00039464EEB0E0E51EA020718BF46F00106E5
:101FD00016EB0E7655F1000254F1000103D5BDE871
:101FE0008901BDE80088BDE88901BDE80048B6194F
:101FF000524141EB0101A3F10103704780807F7ED4
:102000007D7C7B7A7978777676757473727171706E
:102010006F6E6E6D6C6C6B6A6A6968686766666520
:102020006464636362616160605F5F5E5E5D5D5CAE
:102030005C5B5B5A5A59595858575756565555551F
:102040005454535352525251515050504F4F4F4E7F
:102050004E4D4D4D4C4C4C4B4B4B4A4A4A494949CD
:10206000484848474747474646464545454444440F
:1020700044434343434242424241414146EA0646C9
:10208000A3F570534FEA164646EA42564FEAD2226B
:1020900042EA415210B54FEAD121A3F1010300F009
:1020A0002FF820F0004000F1020C00F0004701EB97
:1020B00000501146BCF5006F40EA070000D210BD89
:1020C000BAF1000F0AD01CB503B44FF004004FF072
:1020D00004014FF000000FBCBDE810404FF00001BC
:1020E000BBF1010FB9BF04484FF0FF310348002195
:1020F00040EA070010BD00BFFFFFEF7F0000F07F48
:10210000002B9C4630D477002BD01CB54FEA370704
:1021100003B44FF010004FF01001BAF1000F06D0D9
:10212000BCF1000FDCBF40F0080040F008014FF0A8
:1021300000000FBCBDE810400BF1010BBBF1010F1B
:1021400008BF5FEA170722BF12F1010211F1010176
:102150004FF0004143F1000300F0004043EA00006B
:102160007047F9D35708D0E746EA064613F1400F07
:102170004FEA16461FDD13F1200FDFBF16430A4654
:10218000002120335B42BED0C3F1200746EA064659
:1021900002FA07F74FEA164646EA0706C3F1200798
:1021A00022FA03F201FA07F721FA03F14FF00003D4
:1021B00042EA0702A7E746EA020646EA06464FEA6F
:1021C000164646EA0106BCBF46EA0646360C4FF004
:1021D00000034FF000024FF0000194E72DE9804C1E
:1021E0009A46934670B491E8380007C831EA400C2B
:1021F00048BF34EA430C03D5FFF7A4FDFFF780FF87
:10220000F0BCBDE8008C2DE9804C9A46934670B432
:1022100091E8380007C831EA400C48BF34EA430C63
:1022200003D5FFF78FFDFFF729FFF0BCBDE8008C59
:102230002DE9804C9A46934670B491E8380007C85F
:1022400010F0804F08BF13F0804F03D100F01AF850
:10225000FFF756FFF0BCBDE8008C2DE9804C9A4694
:10226000934670B491E8380007C810F0804F08BF5B
:1022700013F0804F03D100F005F8FFF7FFFEF0BC2C
:10228000BDE8008C20F07F4780EA030023F07F4CFC
:1022900007EB0C03A3F57C5300F00040A3F1FE0311
:1022A00092F0000F00F0B38095F0000F00F07780FF
:1022B0002DE901494FEA11404FEA144621EA00484E
:1022C00000FB06FC24EA064708FB06F607FB08F8B5
:1022D00000FB07F718EB06484CEB164C4FEA124B85
:1022E00018EB07484FEA15464CEB174022EA0B4E15
:1022F0000BFB06FC25EA06470EFB06F607FB0EFE67
:102300000BFB07F71EEB064E4CEB164C4FF000068E
:102310001EEB074E4CEB174B18EB0B0840F100007F
:1023200018EB0E0B58EB000840F100008F1A4FF02D
:1023300000013CBFC943661B14BFB5EB040C002170
:102340003CBFC943F61B4FEA17444EEA8E0E27EAFC
:1023500004454FEA1C4704FB07622CEA074C05FBC7
:1023600007F70CFB05F604FB0CFC16EB074642EBEB
:10237000174216EB0C4642EB1C421BEB060658EBD1
:102380000202414146EA9E0601D5BDE80189B6191F
:10239000524141EB0101A3F10103BDE801894FEA7C
:1023A00014454FEA114724EA054621EA074C05FB8C
:1023B00007F406FB07F70CFB06F105FB0CFC11EB21
:1023C000074144EB17444FEA124711EB0C4144EB31
:1023D0001C4422EA074C05FB07F206FB07F70CFB3F
:1023E00006F605FB0CFC16EB074642EB174216EB14
:1023F0000C4642EB1C456A1854F1000148BF704777
:10240000B619524141EB0101A3F10103704795F068
:10241000000F37D04FEA11424FEA144721EA024633
:1024200024EA074C02FB07F106FB07F70CFB06F456
:1024300002FB0CFC14EB074441EB17414FEA154734
:1024400014EB0C4441EB1C4125EA074C02FB07F559
:1024500006FB07F70CFB06F602FB0CFC16EB074627
:1024600045EB174516EB0C4645EB1C42121951F192
:10247000000148BF7047B619524141EB0101A3F179
:10248000010370474FEA14454FEA114724EA054615
:1024900021EA074C05FB07F106FB07F70CFB06F2E8
:1024A0004FF0000605FB0CFC12EB074241EB174115
:1024B00012EB0C4251EB1C4148BF7047921841EBA4
:1024C0000101A3F10103704708B54FF47A70009041
:1024D00003E0BDF80000401E0090BDF80000002899
:1024E000F7D108BD2DE9F04188B00121080313F0B0
:1024F0007FFC02278DF81D7001268DF81C600024DA
:102500008DF81E4040200690DFF8A08006A94046C6
:1025100005F0D6FD382506958DF81C708DF81E4007
:1025200003208DF81D008DF81F6006A9404605F0B8
:10253000C7FD05220321404605F000FE05220421C7
:10254000404605F0FBFD05221146404605F0F6FD2C
:102550004021404605F00BFEFFF7B6FF4021404604
:1025600005F003FEADF804404FF48270ADF80600AC
:10257000F002ADF80800ADF80A40ADF80C4080104C
:10258000ADF80E00ADF81050ADF812400720ADF8D0
:102590001400074C01A9204615F08DFE01212046AC
:1025A00015F072FE08B0BDE8F081000000040240A2
:1025B0000030014070B588B0002507956A4C16E0E0
:1025C0009DF81C10012015F033FE9DF81C1024F816
:1025D0001100A0880290E088049060890390A0898F
:1025E0000190E08900909DF81C00401C07909DF828
:1025F0001C000828E4D3BDF810305C4A1078411C58
:102600001170410058481030435211783C2918D1BC
:102610001570059506950AE09DF8181030F8111010
:10262000059B194405919DF81810491C06919DF8C9
:1026300018103C29F0D305983C21B0FBF1F04C492F
:102640000860BDF80C305078411C5170410046487C
:102650008830435251781E231E2917D15570059595
:1026600006950AE09DF8181030F81110059C2144D9
:1026700005919DF81810491C06919DF818101E2907
:10268000F0D305983B49B0FBF3F00880BDF8044057
:102690001079411C1171410037484452117964246A
:1026A000642917D11571059506950AE09DF8181053
:1026B00030F81110059E314405919DF81810491C01
:1026C00006919DF818106429F0D305982B49B0FBAA
:1026D000F4F00880BDF808609078411C91704100CA
:1026E0002148EC3046529178642900D195700595C7
:1026F00006950AE09DF8181030F81110059E314437
:1027000005919DF81810491C06919DF81810642930
:10271000F0D305981A49B0FBF4F00860BDF800400A
:10272000D078411CD170410013483C384452D178D4
:102730001E2917D1D570059506950AE09DF8181049
:1027400030F81110059A114405919DF81810491C94
:1027500006919DF818101E29F0D305980949B0FB81
:10276000F3F0088008B070BDB40C002049010020CF
:102770006800002066000020A40E00206C000020ED
:10278000700000207400002011B581B00C4C0221B3
:10279000204615F085FD0028F9D0BDF8041020462C
:1027A00015F087FD0121204615F07AFD0028F9D0AB
:1027B000204615F07CFD0090BDF800001CBD000017
:1027C00000300140F0B59BB001210D02284613F006
:1027D0000FFB0121880513F0E1FA40200090032649
:1027E0008DF8046000248DF8074069462B4805F0F9
:1027F00067FC02942A4803902A48049005943220EA
:1028000006900794A80008904000099080000A9064
:102810000B9500010C900D9401250E950F941094CA
:10282000214F02A9384602F07FFD0121384602F00F
:1028300055FD01221021384602F05CFD02F0D4F96A
:10284000174F01214C3F384600F070F81194129454
:102850001394149411A800F055F815948DF858505D
:102860008DF85950189419948DF8686015A9384658
:1028700000F074F8002301220621384600F094F895
:102880000121384600F032F8384600F0C7F801213F
:10289000384600F057F81BB0F0BD000000000240C1
:1028A0004C200140F8090020106402400CB50020C3
:1028B000009001900B490AE09DF8040031F81000E7
:1028C000009A104400909DF80400401C01909DF86F
:1028D00004003228F0D300983221B0FBF1F0024915
:1028E00008800CBDF809002064000020002904D0F5
:1028F000816841F0010181607047816821F0010128
:102900008160704710B5074C226807490A40D0E93A
:1029100000131943D0E902300343194311432160E6
:1029200010BD000004230140E030FCFF002904D06A
:10293000816841F4807181607047816821F4807101
:1029400081607047002904D0816841F40071816082
:102950007047816821F400718160704730B542682A
:102960000F4B1A400C790B6842EA04221343436070
:1029700083680C4A1340D1E9034222434D798C68A5
:1029800044EA450422431A438260C26A22F4700278
:10299000097D491EC9B242EA0151C16230BD000041
:1029A000FFFEFFFCFDF7FFC070B5072609290AD915
:1029B000C568A1F10A0404EB4404A640B543A34052
:1029C0001D43C56007E0056901EB4104A640B5431E
:1029D000A3401D4305611F23072A09D2446B521EE1
:1029E00002EB820293409C4391400C43446370BDD0
:1029F0000D2A09D2046BD21F02EB820293409C4342
:102A000091400C43046370BDC46A0D3A02EB82022C
:102A100093409C4391400C43C46270BD816841F077
:102A2000804181607047002800DC40427047417857
:102A3000007841EA0020704710B50C480078400645
:102A400012D40B4C206841070ED5020609484FF4FA
:102A5000007103D4BDE8104005F089BB05F085FB8B
:102A6000206820F00400206010BD00004400002019
:102A70003C000020000802400549086840F00400BE
:102A8000044B00221A8020F080000860704700008C
:102A90003C0000207E00002038B545680446014611
:102AA00028461AF03BFA00282AD02068304A0F281E
:102AB00019D006DC0B2824D00C2810D00E2851D1B8
:102AC0002FE0112802D028284CD145E09268002A36
:102AD00016D02146284601B0BDE8304010472146B7
:102AE00028465268F7E7284606F088FA0090406EBC
:102AF0000468684606F0CCFA002C01D02846A047AE
:102B000038BD284606F07AFA0090683006F0DEF903
:102B1000009803216C3006F0E1F9684606F0B8FA37
:102B200020E0E168486809680D2902D0202913D106
:102B300005E0002810DD284621F09CFB06E0002877
:102B400004DD2846BDE8384021F094BB2846BDE8A6
:102B50003840022121F0A4BBE06818B900212846C2
:102B600000F097F92046BDE838401AF04BBE00004F
:102B7000C8020020F0B5044685B08069B4F9085059
:102B8000668A0027CDE90265CDE900170490B4F903
:102B90000C00B4F91060C118B4F90A00B4F90E5071
:102BA000104433462A4600F007F80546616800F0F5
:102BB00079F905B02846F0BDF0B585B00C46DDE9E1
:102BC0000D514C31DFF850C0DDE90A67CDE902C193
:102BD0002146CDE900671AF065FD040018D006F023
:102BE0000DFA1022294604901AF0BCFB04983022FA
:102BF0000A493430FDF765FD084D04990C3D2868FD
:102C0000486604A806F044FA2868416820468847C8
:102C100005B02046F0BD0000992A0208D402002029
:102C2000F0B5044680688B4989B051F8205060683F
:102C300000287DD0052804D006287AD0122879D122
:102C4000AEE0E86900284FD095E80E008DE80F004F
:102C500004F110010FC908F085FD002655F8260083
:102C600007F0E4FDA169E8690A1A21690144606975
:102C7000304406F065FFA169E8690A1A2169014438
:102C8000E069801B06F05CFFE169E8690A1A616986
:102C900001442069304407F00FF8E169E8690A1A35
:102CA00061690144A069801B07F006F8761C022EBA
:102CB000D4DBA86807F0BAFDE069E9696669431AE0
:102CC00020694218521E3144801C07F05FF8E16908
:102CD000E869A2690B1A61690144101A401C921E2E
:102CE00007F054F8EE6913E05FF0000655F826008F
:102CF00007F09CFDE069831BA069821B6069811954
:102D00002069304406F09AFF761C022EEEDB022684
:102D1000D5E90301CDE900016169E0690844431088
:102D2000A069891C821B2069304406F0B1FE02E0D4
:102D300089E012E08AE0D5E90501CDE90001E36907
:102D400060690121184401EB6001A0699B1E821B90
:102D50002069304406F09CFE78E0206806F04EF9C9
:102D6000049020681BF07EFD40B1A06808B10020EF
:102D700008E00498006F28B1012003E00498406F38
:102D800000B10220049901EB8000C56E04A806F092
:102D90007FF900231A462846216806F00BFC55E00F
:102DA000206806F02BF90490866EEEB3B0F95C70E3
:102DB000A168D1B3032942D05FF0000100EB81018B
:102DC000406D0C6C07F03CFD204607F02FFD05A878
:102DD00007F02CF8BDF81410A88B0144ADF81410BE
:102DE000BDF81810081AADF81800BDF81600801CC0
:102DF000ADF81600BDF81A00801EADF81A00049850
:102E00005E30B0F90220B0F9001005A807F06CFCA4
:102E100004A806F03DF9022007F052FD304606F006
:102E2000EDF83A4605A901E00BE006E0079006F050
:102E3000B9FC07A806F02CF908E00121BEE7022141
:102E4000BCE704A8F6E720681BF0D0F909B0002021
:102E5000F0BD0000FCBC0608044A034911600449A7
:102E60004A6A48621046704704030020C8020020E6
:102E7000D402002038B50D46040009D006F0BEF893
:102E800000904565684606F003F920461AF0B1FF48
:102E900038BD4FF480720029114601D01AF0C8B82D
:102EA0001AF01AB82DE9FF410E4605004FF0010453
:102EB0001CD006F0A3F80190876E01A8009706F0D9
:102EC000E7F83146684608F02DFF78B100980024F5
:102ED000B84208D0284606F091F801900099816622
:102EE00001A806F0D5F828461AF083FF04B0204662
:102EF000BDE8F081F8B515460C4606000DD006F089
:102F00007DF80090032C02D200EB84000564684633
:102F100006F0BEF830461AF06CFFF8BDFEE7000080
:102F20002DE9F05F7B4C21787B4840F66F0519391D
:102F30006F1C82696FF0704640F6770840F678099A
:102F400040F6710A40F6790B0C2925D2DFE801F032
:102F5000062645642424242483A224C22946054647
:102F600010461AF05DFD80463146404616F018FCCA
:102F70006FF07F41404616F065FC3946A8691AF0AB
:102F80004FFD05466549284616F00AFC00212846F3
:102F900016F058FC1A202070BDE8F09F054639460F
:102FA00010461AF03DFD07463146384616F0F8FB4C
:102FB0006FF07F41384616F045FC4146A8691AF08B
:102FC0002FFD05465549284616F0EAFB0021284604
:102FD00016F038FC1B202070DEE7054641461046FF
:102FE0001AF01EFD07463146384616F0D9FB6FF041
:102FF0007F41384616F026FC4946A8691AF010FDB4
:1030000005464649284616F0CBFB0021284616F017
:1030100019FC1C202070BFE70546494610461AF0EF
:10302000FFFC07463146384616F0BAFB6FF07F4189
:10303000384616F007FC5146A8691AF0F1FC05461F
:103040003649284616F0ACFB0021284616F0FAFB5C
:1030500021202070A0E70546514610461AF0E0FCFA
:1030600007463146384616F09BFB6FF07F413846E5
:1030700016F0E8FB5946A8691AF0D2FC0546274924
:10308000284616F08DFB0021284616F0DBFB222097
:10309000207081E70546594610461AF0C1FC0746E4
:1030A0003146384616F07CFB6FF07F41384616F00B
:1030B000C9FB40F67201A8691AF0B2FC054617492F
:1030C000284616F06DFB0021284616F0BBFB242095
:1030D000207061E7074640F6720110461AF0A0FC26
:1030E00080463146404616F05BFB6FF07F4140461C
:1030F00016F0A8FB2946B8691AF092FC0546074964
:10310000284616F04DFB0021284616F09BFB19209F
:10311000207041E7BF010020D0010020FFFFBF0069
:10312000F0B52DED028B83B0B0480178B04A00268F
:103130009FEDB00AB04C01251929A06938D0DFED08
:10314000AF0A1A297ED0AE4A1B297CD01C292BD16C
:10315000217C40F678031F1D022975D0217C0129AE
:1031600022D1D18800EE101AB8EE400A80EE208AF3
:1031700019461AF055FCA3A116F03FFB3946A06989
:103180001AF04EFC054618EE100A2DF077FA41ECC5
:10319000100BA0A153EC102B01A8FDF79BF801A97F
:1031A000284616F02AFB267403B0BDEC028BF0BD56
:1031B000617B40F66F031F1D012927D0617B022927
:1031C000F2D1D2F8801000EE901AF8EE600A80EE8C
:1031D000808A19461AF024FC90A116F00EFB39469D
:1031E000A0691AF01DFC064618EE100A2DF046FAEA
:1031F00041EC100B8DA153EC102B01A8FDF76AF8E0
:1032000001A9304616F0F9FA6573CDE7D16F00EEEB
:10321000901AF8EE600A80EE808A19461AF000FCD7
:1032200084A116F0EAFA3946A0691AF0F9FB0546BE
:1032300018EE100A2DF022FA41EC100B7BA153EC92
:10324000102B02E00AE05CE0ACE001A8FDF742F8D8
:1032500001A9284616F0D1FA6673A5E7A17B4FF4C1
:1032600007631F1D022927D0A17B01299CD1D2F819
:10327000881000EE101AB8EE400A80EE208A194637
:103280001AF0CEFB6FA116F0B8FA3946A0691AF011
:10329000C7FB054618EE100A2DF0F0F941EC100BB3
:1032A0005CA153EC102B01A8FDF714F801A92846E6
:1032B00016F0A3FAA67377E7D2F88C1000EE101A76
:1032C000B8EE400A80EE208A19461AF0A9FB61A1E7
:1032D00016F093FA3946A0691AF0A2FB064618EEDA
:1032E000100A2DF0CBF941EC100B4AA153EC102B36
:1032F00001A8FCF7EFFF01A9304616F07EFAA5738E
:1033000052E7E17B40F677031F1D022926D0E17BBF
:103310000129A2D1118800EE901AF8EE600A80EE21
:10332000808A19461AF07CFB4EA116F066FA3946DF
:10333000A0691AF075FB054618EE100A2DF09EF9EB
:1033400041EC100B39A153EC102B01A8FCF7C2FF84
:1033500001A9284616F051FAE67325E7518800EED8
:10336000901AF8EE600A80EE808A19461AF058FB2F
:1033700040A116F042FA3946A0691AF051FB064600
:1033800018EE100A2DF07AF941EC100B27A153EC3E
:10339000102B01A8FCF79EFF01A9304616F02DFA6C
:1033A000E57301E7118900EE101AB8EE400A80EECD
:1033B000208A19461AF034FB32A116F01EFA39465B
:1033C000A0691AF02DFB064618EE100A2DF056F9EA
:1033D00041EC100B0FA153EC102B01A8FCF77AFF66
:1033E00001A9304616F009FA2574DDE6BF01002078
:1033F000CC0B00200000C842D001002000007A441D
:103400006C870020E688AAE6ADA2E794B5E6B58110
:1034100031000000252E336600000000E8BE93E571
:1034200087BAE794B5E58E8B32000000252E326610
:1034300000000000E8BE93E587BAE794B5E58E8BFF
:1034400031000000E99990E588B6E794B5E6B581CA
:1034500031000000E99990E588B6E794B5E6B581BA
:1034600032000000E688AAE6ADA2E794B5E58E8BAF
:1034700031000000E688AAE6ADA2E794B5E58E8BA0
:1034800032000000E688AAE6ADA2E794B5E6B58171
:1034900032000000F0B52DED028B83B0AF4801780B
:1034A000AF4A9FEDB00AB04C01250226A069192948
:1034B00038D0DFEDAE0A1A297ED0AD4A1B297CD068
:1034C0001C292BD1217C40F678031F1D002975D0C3
:1034D000217C012922D1518900EE101AB8EE400A50
:1034E00080EE208A19461AF09BFAA2A116F085F9FF
:1034F0003946A0691AF094FA054618EE100A2DF024
:10350000BDF841EC100B9FA153EC102B01A8FCF768
:10351000E1FE01A9284616F070F9267403B0BDEC4F
:10352000028BF0BD617B40F66F031F1D39B3617BD9
:103530000129F3D1D2F8841000EE901AF8EE600A57
:1035400080EE808A19461AF06BFA90A116F055F9B0
:103550003946A0691AF064FA054618EE100A2DF0F3
:103560008DF841EC100B8DA153EC102B01A8FCF74A
:10357000B1FE01A9284616F040F96673CEE7D2F8ED
:10358000801000EE901AF8EE600A80EE808A1946EC
:103590001AF046FA83A116F030F93946A0691AF0FC
:1035A0003FFA064618EE100A2DF068F841EC100BB1
:1035B0007AA153EC102B02E00AE05BE0AAE001A83C
:1035C000FCF788FE01A9304616F017F96573A5E7E8
:1035D000A17B4FF407631F1D39B3A17B01299DD146
:1035E000D2F8901000EE101AB8EE400A80EE208A51
:1035F00019461AF015FA6FA116F0FFF83946A069BE
:103600001AF00EFA054618EE100A2DF037F841ECC4
:10361000100B5CA153EC102B01A8FCF75BFE01A979
:10362000284616F0EAF8A67378E7D2F88C1000EE78
:10363000101AB8EE400A80EE208A19461AF0F0F906
:1036400060A116F0DAF83946A0691AF0E9F90646E1
:1036500018EE100A2DF012F841EC100B49A153ECB2
:10366000102B01A8FCF736FE01A9304616F0C5F86C
:10367000A57353E7E17B40F677031F1D31B3E17B70
:103680000129A4D1918800EE901AF8EE600A80EE2C
:10369000808A19461AF0C4F94EA116F0AEF83946E0
:1036A000A0691AF0BDF9054618EE100A2CF0E6FFE5
:1036B00041EC100B39A153EC102B01A8FCF70AFECA
:1036C00001A9284616F099F8E67327E7518800EE1D
:1036D000901AF8EE600A80EE808A19461AF0A0F976
:1036E00040A116F08AF83946A0691AF099F9064601
:1036F00018EE100A2CF0C2FF41EC100B27A153EC7E
:10370000102B01A8FCF7E6FD01A9304616F075F86C
:10371000E57303E7118900EE101AB8EE400A80EE57
:10372000208A19461AF07CF932A116F066F839465B
:10373000A0691AF075F9064618EE100A2CF09EFFE3
:1037400041EC100B0FA153EC102B01A8FCF7C2FDAC
:1037500001A9304616F051F82574DFE6BF010020BC
:10376000CC0B00200000C842D001002000007A44A9
:103770006C870020E688AAE6ADA2E794B5E6B5819D
:1037800033000000252E336600000000E8BE93E5FC
:1037900087BAE794B5E58E8B33000000252E32669C
:1037A00000000000E8BE93E587BAE794B5E58E8B8C
:1037B00032000000E99990E588B6E794B5E6B58156
:1037C00033000000E99990E588B6E794B5E6B58145
:1037D00032000000E688AAE6ADA2E794B5E58E8B3C
:1037E00033000000E688AAE6ADA2E794B5E58E8B2B
:1037F00032000000E688AAE6ADA2E794B5E6B581FE
:10380000320000002DE9F05F7B4C21787B4840F6C8
:103810006F056E1C1939F71D82696FF0704B40F609
:10382000780840F6710940F6790A0C2926D2DFE8BB
:1038300001F0062746652525252584A325C22946AE
:10384000054610461AF0ECF806465946304615F083
:10385000A7FF6FF07F41304615F0F4FF40F672018C
:10386000A8691AF0DDF805466549284615F098FF65
:103870000021284615F0E6FF24202070BDE8F09FC7
:103880003146064610461AF0CBF8074659463846E8
:1038900015F086FF6FF07F41384615F0D3FF2946BB
:1038A000B0691AF0BDF805465549284615F078FF6D
:1038B0000021284615F0C6FF19202070DEE70546D6
:1038C000394610461AF0ACF807465946384615F006
:1038D00067FF6FF07F41384615F0B4FF3146A869A5
:1038E0001AF09EF805464649284615F059FF002172
:1038F000284615F0A7FF1A202070BFE7054641466D
:1039000010461AF08DF806465946304615F048FF25
:103910006FF07F41304615F095FF3946A8691AF0DF
:103920007FF805463649284615F03AFF002128461B
:1039300015F088FF1B202070A0E705464946104679
:103940001AF06EF806465946304615F029FF6FF01A
:103950007F41304615F076FF4146A8691AF060F8BD
:1039600005462749284615F01BFF0021284615F07B
:1039700069FF1C20207081E70546514610461AF069
:103980004FF806465946304615F00AFF6FF07F4162
:10399000304615F057FF4946A8691AF041F8054628
:1039A0001749284615F0FCFE0021284615F04AFF6D
:1039B0002120207062E7054640F6720110461AF099
:1039C0002FF806465946304615F0EAFE6FF07F4163
:1039D000304615F037FF5146A8691AF021F8054620
:1039E0000749284615F0DCFE0021284615F02AFF7D
:1039F0002220207042E70000BF010020D0010020FB
:103A0000FFFFBF002DE9F04F2DED068B83B0FD4881
:103A1000416E00EE101AB8EE400ADFEDFB0AC0EE70
:103A2000209A816E00EE101AB8EE400ADFEDF70A18
:103A300080EE209AC16E006F00EE100AB8EE400AC8
:103A4000DFEDF10A80EE20AAF1480178F14D193935
:103A5000DFF8C48364274FF4076A9FEDF08BF148C9
:103A60000024F14E826940F677094FF6FF7B10295A
:103A70003AD2DFE801F008B4F0EF3EF1EDECEBEA0A
:103A8000E9E8E7E6E5E4064640F66F01104619F07E
:103A9000C7FF07466FF07041384615F081FE6FF0A2
:103AA0007F41384615F0CEFE40F67301B06919F03B
:103AB000B7FF0646DD49304615F072FE002130465C
:103AC00015F0C0FE0294DA4906E09DF808000C5497
:103AD0009DF80800401C02909DF808000628F4D3C9
:103AE000CB491D2008702C7003B0BDEC068BBDE8DF
:103AF000F08F814640F67301104619F091FF82461F
:103B00006FF07041504615F04BFE6FF07F4150460C
:103B100015F098FE3078002859D03078B0B1009474
:103B200001943278C249D21C6846FCF72BFE6846E5
:103B300023F01EFE9FEDBF1B51EC100B53EC112B1D
:103B40002CF072FB2CF0DCFAAE49C867AD48C26FAE
:103B500041F638018A4200D9C167C16F41604168AE
:103B60008268B1FBF7F15143414500D94460406898
:103B700000EE100AF8EE400A9FEDA31A80EE810ACB
:103B800010EE100A2CF07AFD41EC100BABA153ECB7
:103B9000102B6846FCF79EFB6946504615F02DFE3B
:103BA00040F66F01D9F8180019F03AFF07469F490F
:103BB000384615F0F5FD0021384615F043FE9449CE
:103BC000192008702C7034701BF0B2F88CE79848FC
:103BD000FCF794FC642148438A49C867B6E7054668
:103BE0005146104619F01CFF06466FF070413046F2
:103BF00015F0D6FD6FF07F41304615F023FE02949C
:103C00008B4A06E09DF8080014549DF80810491CE2
:103C100002919DF808000628F4D340F67401A869C3
:103C200019F0FEFE04468149204615F0B9FD002139
:103C3000204615F007FE76491E20087054E7EAE298
:103C400052E296E1B1E0E0E3B4E21CE225E3F0E306
:103C500054E301E05CE178E0814640F674011046EF
:103C600019F0DEFE83466FF07041584615F098FD5E
:103C70006FF07F41584615F0E5FD307800285AD0A6
:103C80003078A8B10094019432786949121D6846D1
:103C9000FCF778FD684623F06BFD53EC182B51ECD4
:103CA000100B2CF0C1FA2CF02BFA5649C1F8880001
:103CB0005448D0F8882042F210718A4201D9C0F8E5
:103CC0008810D0F88810816041688268B1FBF7F1F4
:103CD0005143414500D98460806800EE100AF8EE37
:103CE000400A9FED4A1A80EE810A10EE100A2CF06D
:103CF000C5FC41EC100B53A153EC102B6846FCF7AC
:103D0000E9FA6946584615F078FD5146D9F8180089
:103D100019F086FE07464549384615F041FD002159
:103D2000384615F08FFD3A491A2008702C7034700F
:103D30001AF0FEFFD8E63E48FCF7E0FB4FF47A713C
:103D400048433049C1F88800B2E705464946104665
:103D500019F066FE06466FF07041304615F020FD02
:103D60006FF07F41304615F06DFD0294304A06E059
:103D70009DF8080014549DF80810491C02919DF804
:103D800008000628F4D340F67B01A86919F048FE24
:103D900004462649204615F003FD0021204615F073
:103DA00051FD1B49252008709EE6074640F67B0121
:103DB000104619F035FE80466FF07041404615F010
:103DC000EFFC6FF07F41404615F03CFD3078F8B3D2
:103DD0003078B0B10094019432781549D21C68460D
:103DE000FCF7D0FC684623F0C3FC9FED121B51EC9E
:103DF000100B53EC112B2CF017FA2CF081F913490E
:103E0000088026E0CC0B00200000C84200007A4465
:103E1000BF0100207401002077D4030000000000DF
:103E200000408F40D001002075010020FFFFBF003F
:103E3000B40100200000000000005940252E326629
:103E400000000000252E3366000000006C87002073
:103E50000FE0FE48028841F638018A4200D901800D
:103E6000F97B91B1F97B012919D0F97B022920D086
:103E700028E0F748FCF742FB00EBC00101EB001023
:103E80000BEA8001F1480180BBE700885FED220A60
:103E900000EE100AB8EE400AC0EE209A12E0408808
:103EA0005FED270A00EE100AB8EE400AC0EE209A35
:103EB00008E080885FED2C0A00EE100AB8EE400A98
:103EC000C0EE209A19EE900A2CF0D8FB41EC100BB2
:103ED00053EC102BAFF29C016846FCF7FBF96946E6
:103EE000404615F08AFC4946B86919F099FD074625
:103EF000D849384615F054FC0021384615F0A2FC8C
:103F0000D5491B2008702C7034701AF011FFEBE5B6
:103F1000054640F67801104619F082FD06466FF01E
:103F20007041304615F03CFC6FF07F41304615F093
:103F300089FC0294C64A06E09DF8080014549DF8D6
:103F40000810491C02919DF808000628F4D340F699
:103F50007C01A86919F064FD0446BE49204615F0AD
:103F60001FFC0021204615F06DFCBB49262008707F
:103F7000BAE5074640F67C01104619F051FD80462F
:103F80006FF07041404615F00BFC6FF07F414046EA
:103F900015F058FC307830B33078A0B1009401941B
:103FA0003278AB49121D6846FCF7ECFB684623F0FB
:103FB000DFFB53EC182B51EC100B2CF035F92CF0E7
:103FC0009FF8A249C880A148C28842F210718A4273
:103FD00000D9C180397C91B1397C012919D0397C53
:103FE000022920D028E09A48FCF788FA00EB40012B
:103FF000C1EBC01095490BEAC000C880E3E7C08858
:1040000000EE100AB8EE400A5FED800A80EE209ABA
:1040100012E0008900EE100AB8EE400A5FED850A52
:1040200080EE209A08E0408900EE100AB8EE400ABF
:104030005FED8A0A80EE209A19EE100A2CF01EFB22
:1040400041EC100B53EC102BAFF208216846FCF743
:1040500041F96946404615F0D0FB40F67801B86951
:1040600019F0DEFC07467B49384615F099FB002124
:10407000384615F0E7FB78491C2008702C70347026
:104080001AF056FE30E5054640F67901104619F063
:10409000C7FC06466FF07041304615F081FB6FF0AB
:1040A0007F41304615F0CEFB0294694A06E09DF848
:1040B000080014549DF80810491C02919DF808004E
:1040C0000628F4D340F67D01A86919F0A9FC04463E
:1040D0006049204615F064FB0021204615F0B2FB34
:1040E0005D4927200870FFE4074640F67D01104631
:1040F00019F096FC80466FF07041404615F050FB79
:104100006FF07F41404615F09DFB3078F0B330787A
:10411000A0B10094019432784D49121D6846FCF715
:1041200031FB684623F024FB53EC182B51EC100BA9
:104130002CF07AF82BF0E4FF4849C8664748C06E77
:1041400000EE100AF8EE400A1FEDD01A80EE810A48
:1041500010EE100A2CF092FA41EC100B53EC102BDD
:10416000AFF220316846FCF7B5F86946404615F0D5
:1041700044FB40F67901B86919F052FC074635490D
:10418000384615F00DFB0021384600E009E015F037
:1041900059FB3149222008702C7034701AF0C8FD88
:1041A000A2E42B48FCF7AAF94FF47A7148432B4953
:1041B000C866C3E7054640F67A01104619F030FCA0
:1041C00006466FF07041304615F0EAFA6FF07F4115
:1041D000304615F037FB02941D4A06E09DF80800B2
:1041E00014549DF80810491C02919DF808000628F7
:1041F000F4D340F67E01A86919F012FC0446154973
:10420000204615F0CDFA0021204615F01BFB12497F
:104210002820087068E4074640F67E01104619F031
:10422000FFFB80466FF07041404615F0B9FA6FF021
:104230007F41404615F006FB1AEE100A2CF01EFADC
:1042400041EC100B53EC102B0AE000006C870020AF
:10425000B4010020FFFFBF00BF010020CC0B0020F5
:10426000AFF228416846FCF735F86946404615F03C
:10427000C4FA40F67A01B86919F0D2FB0746A049A2
:10428000384615F08DFA0021384615F0DBFA9D49C5
:10429000232008702C70347026E4054640F6710126
:1042A000104619F0BDFB06466FF07041304615F020
:1042B00077FA6FF07F41304615F0C4FA0294924AC3
:1042C00006E09DF8080014549DF80810491C02915E
:1042D0009DF808000628F4D340F67501A86919F086
:1042E0009FFB04468649204615F05AFA00212046D5
:1042F00015F0A8FA83491F20087067E4074640F6C6
:104300007501104619F08CFB80466FF070414046F5
:1043100015F046FA6FF07F41404615F093FA307879
:10432000E8B33078A8B10094019432787649121D30
:104330006846FCF727FA684623F01AFA53EC182B64
:1043400051EC100B2BF070FF2BF0DAFE6F49C1F827
:104350009C006E48D0F89C1047F23052914213D81E
:10436000D0F89C1000EE101AF8EE400A9FED681A83
:104370006849694A80EE810AD1ED000A20EE200AE0
:1043800010EE101A914201DDC0F89C40D0F89C104C
:104390000161006900EE100AF8EE400A00E02AE030
:1043A0009FED5B1A80EE810A10EE100A2CF066F980
:1043B00041EC100B53EC102BAFF278516846FBF731
:1043C00089FF6946404615F018FA40F67101B86950
:1043D00019F026FB07464A49384615F0E1F9002155
:1043E000384615F02FFA4749212008702C70347098
:1043F0001AF09EFC22E44448FCF780F84FF47A71EE
:1044000048434249C1F89C00A3E7054640F67201C3
:10441000104619F005FB06466FF07041304615F066
:10442000BFF96FF07F41304615F00CFA0294364A1E
:1044300007E01CE09DF8080014549DF80810491C82
:1044400002919DF808000628F4D340F67601A86989
:1044500019F0E6FA04462A49204615F0A1F9002190
:10446000204615F0EFF927492020087062E407463E
:1044700040F67601104619F0D3FA80466FF070418D
:10448000404615F08DF96FF07F41404615F0DAF99E
:10449000307878B3307870B10094019432781A494A
:1044A0006846FCF76FF9684623F062F951EC100B8F
:1044B0002BF026FE38703A7818A16846FBF70AFF01
:1044C0006946404615F099F940F67201B86919F04D
:1044D000A7FA07460A49384615F062F9002138461E
:1044E00015F0B0F90749242008702C7034701AF0C8
:1044F0001FFC1FE4FFE70448FCF700F83870DAE718
:10450000FFFFBF00BF010020B4010020CC0B002042
:1045100000007A4424000020000048432533640052
:1045200070B5174C61792046164D806940F69902A6
:10453000012912D0A17B01291DD0114619F070FA72
:1045400006466FF07041304615F02AF9294630468C
:1045500015F078F92F20207070BD114619F060FA1F
:1045600004462946204615F01BF92046BDE8704058
:10457000002115F067B9BDE8704000F087BA00006F
:1045800010020020FFFFBF002DE9FF47044600682E
:1045900010B11AF067F968B10022314850F82210C2
:1045A00060680A2841D007DCF0B306280DD0072840
:1045B00054D106E00122F0E712280AD019284DD183
:1045C00037E020461BF056FD48E020461CF0E0FE98
:1045D00044E0206804F012FD0290B0F9548090F895
:1045E0005650476C466B02A804F052FD206800F05C
:1045F00039F88146684619F0EBF9BDF8001009EB6F
:1046000005000844ADF80000246A304606F018F9A9
:10461000022006F055F9384606F008F94246694688
:10462000204605F0BFF819E007E020461DF09CF990
:1046300014E0886904B0BDE8F087206819F0D6FD61
:10464000206804F0DBFC0390B0F90610B0F90220FA
:10465000891A491CC16703A804F01AFD0020E9E784
:104660000CBD060838B504F0C9FC0090C46F68465C
:1046700004F00EFD204638BD044A03491160044988
:10468000CA69C8611046704790030020580700208F
:104690005C07002000B589B024216846FCF74BF880
:1046A000192001900348006880684168684688477F
:1046B00009B000BD5807002070B5FF22FF23084D48
:1046C00005F5807605E010F8014B54402A5D5A400C
:1046D000335D491E89B2F6D243EA022070BD000064
:1046E0007808050810B50A4A0A4C4FF40061002802
:1046F00007D0012804D1104603F039FD0120E070F5
:1047000010BD104603F031FD0020E07010BD000028
:1047100000000240540100207CB51B4C207801258C
:1047200000281DD01948C16F4160D0F88810816001
:10473000D0F89C100161164805707021682016F0B1
:104740000AF92903134803F010FD08F089FDA902B6
:10475000114803F00AFD1148016841F08001016031
:1047600025700F49192008700E480024047019F0B4
:104770004BF9034600940C4A2A210C48019404F09A
:1047800035FE0B4988617CBD76010020CC0B0020F2
:1047900085000020000C0240000802404800002074
:1047A000BF0100208400002055A30408441405081C
:1047B000D00100201CB50E48002404700D48047080
:1047C0000D4804707021682016F0C5F84FF4805130
:1047D0000A4803F0CAFC19F017F903460094084A86
:1047E00009210848019404F001FE074908601CBD36
:1047F000760100208500002084000020000C02408B
:1048000031BA0408DC180508EC0100207CB5134C13
:104810005020A0710320A070114908700025E57197
:104820002AF078FE0020FFF75DFF0E480570E08A51
:10483000DFED0D0A00EE100AB8EE400A80EE201AF5
:1048400084ED071A19F0E0F803460095074A2B217A
:104850000748019504F0CAFD20627CBD7401002068
:10486000850000208400002000007A444D86040862
:10487000F00C05081CB50F49052008700E480024EF
:1048800004700E4804707021682016F064F84FF42C
:1048900080510B4803F069FC19F0B6F80346009408
:1048A000084A27210848019404F0A0FD0749486000
:1048B0001CBD000076010020BF0100208400002004
:1048C000000C024051BF0408D8190508000200205E
:1048D0001CB508490620087019F096F80346002018
:1048E00000900190044A0121044804F07FFD04492E
:1048F00048601CBD7601002069D004081C1E050814
:10490000080200207CB5274C2078002815D020789C
:10491000022812D04FF40041234803F028FC234D15
:104920000221284603F021FC4FF4FA7000F0A0FDAC
:104930004FF40051284603F01AFC022020701C4955
:1049400008701C49092008701B48D0F89810416075
:10495000D0F8A01081601948DFED190A194D90EDCB
:10496000050AB8EEC00A80EE201A85ED021A164834
:10497000002404701549032008707021682015F088
:10498000EAFF4FF48051124803F0EFFB19F03CF8B6
:10499000034600940F4A16210F48019404F026FDA7
:1049A00068607CBD760100200000024000080240E3
:1049B00085000020BF010020CC0B0020788700205C
:1049C00000007A446801002084000020BC0100201F
:1049D000000C02409D7B0408880A05087CB51F4C2A
:1049E0002078002801D008F03BFC042020701C49EE
:1049F00008701C49172008701B48DFED1C0A1C4E6C
:104A000090ED040AB8EEC00A80EE201A86ED021A74
:104A1000184CD4F8940020610020FFF763FE16487C
:104A200000250570154902200870D4F8A400E06044
:104A30007021682015F08FFF4FF48051104803F06B
:104A400094FB18F0E1FF034600950E4A18210E482A
:104A5000019504F0CBFC70607CBD00007601002065
:104A600085000020BF0100207887002000007A44E4
:104A7000C4010020CC0B002084000020BC010020D9
:104A8000000C0240A5DF0408A41105081CB518F0AD
:104A9000BBFF002403460094064A07210648019400
:104AA00004F0A4FC0549486005490C70054A08213A
:104AB00011701CBDC5D70408FC0C06083802002084
:104AC00084000020760100201CB518F09DFF002412
:104AD00003460094074A12210748019404F086FC1B
:104AE00006498861064A1470064B07221A702F2265
:104AF0000A701CBDE9D00408040B0608100200204F
:104B000084000020760100201CB502208DF80500ED
:104B100001208DF8040000208DF806001C20009074
:104B20006946024803F0CCFA1CBD000000100240A8
:104B300031B582B02B4D0421284603F016FB082125
:104B4000284603F014FB00BF00BF00BF00BF0421D4
:104B5000284603F00CFB00BF0821284603F007FBA2
:104B60000421284603F001FB002101914FF6FF7458
:104B700029E09DF80410072912D9BDF8081008048F
:104B800004D51021284603F0F2FA03E0102128464C
:104B900003F0EBFABDF8081004EA4100029003E0CC
:104BA0001021284603F0E1FA0821284603F0DDFA37
:104BB00000BF00BF00BF0821284603F0D8FA9DF8C7
:104BC0000410491C01919DF804001828D1D3042138
:104BD000284603F0CCFA03B02846BDE8304008214F
:104BE00003F0C5BA0010024008B538208DF8000067
:104BF00003208DF801008DF8020001208DF80300DC
:104C000068460CF0B9FE08BD70B5594DA979284623
:104C10000024006A05F14006462964D01BDC1529F2
:104C200035D0162949D040297ED140F6051118F01B
:104C3000F7FE297821B12978491E29702978745402
:104C400029786A78914200D16C70BDE8704048497B
:104C5000403114F0D2BD4D2959D04E2970D04F2982
:104C600062D140F6341118F0DBFE297821B12978A1
:104C7000491E29702978745429786A78914200D1A4
:104C80006C70BDE870403A49403114F0B6BD40F652
:104C90006B0118F0C5FE297821B12978491E2970C9
:104CA0002978745429786A78914200D16C70BDE8F3
:104CB00070402F49403114F0A0BD40F66C0118F04F
:104CC000AFFE297821B12978491E297029787454BA
:104CD00029786A78914200D16C70BDE8704024490F
:104CE000403114F08ABD40F60E1118F099FE297873
:104CF00021B12978491E29702978745429786A7855
:104D0000914200D16C701A49403114F076FD40F6A2
:104D10003211286A18F084FE297821B12978491EB9
:104D200029702978745400E020E029786A7891424B
:104D300000D16C70BDE870400D49403114F05DBD8C
:104D400040F6331118F06CFE297821B12978491EFC
:104D500029702978745429786A78914200D16C704E
:104D6000BDE870400249403114F047BD70BD0000FD
:104D7000740100202DE9F0415F4801785F481D393A
:104D80005F4F806900245F4D5F4E0C297ED2DFE8C3
:104D900001F0061B3045B0B0B0B05A6F869B40F6AC
:104DA000730118F03DFE297821B12978491E297038
:104DB00029787C5429783278914200D13470BDE84A
:104DC000F0414F4914F019BD40F6740118F028FE67
:104DD000297821B12978491E297029787C542978AD
:104DE0003278914200D13470BDE8F041444914F06A
:104DF00004BD40F6750118F013FE297821B1297819
:104E0000491E297029787C5429783278914200D142
:104E10003470BDE8F0413A4914F0EFBC40F6760139
:104E200018F0FEFD297821B12978491E29702978CA
:104E30007C5429783278914200D13470BDE8F04139
:104E40002F4914F0DABC40F67B0118F0E9FD29780F
:104E500021B12978491E297029787C542978327823
:104E6000914200D13470BDE8F041254914F0C5BC31
:104E700040F67C0118F0D4FD297821B12978491E2B
:104E8000297029787C542978327800E031E0914209
:104E900000D13470BDE8F041194914F0AEBC40F6C1
:104EA0007D0118F0BDFD297821B12978491E2970AE
:104EB00029787C5429783278914200D13470BDE849
:104EC000F0410F4914F099BC40F67E0118F0A8FD9E
:104ED000297821B12978491E297029787C542978AC
:104EE0003278914200D13470BDE8F041044914F0A9
:104EF00084BCBDE8F0810000BF010020D00100208B
:104F0000B401002074010020750100202DE9F0415A
:104F1000274801782748284F00244068274D284E0D
:104F2000182918D043292BD056293ED140F62D11EF
:104F300018F076FD297821B12978491E2970297841
:104F40007C5429783278914200D13470BDE8F04128
:104F5000194914F052BC40F66E0118F061FD297831
:104F600021B12978491E297029787C542978327812
:104F7000914200D13470BDE8F0410F4914F03DBCBE
:104F800040F6111118F04CFD297821B12978491EFD
:104F9000297029787C5429783278914200D1347074
:104FA000BDE8F041044914F028BCBDE8F0810000E0
:104FB000BF010020C4010020B401002074010020C2
:104FC000750100202DE9F0417948017879487A4F40
:104FD00000244068794D7A4E10297DD008DCA1F17B
:104FE0000B01052979D2DFE801F02035748DA2008C
:104FF000512944D0522957D053296FD054296CD10C
:1050000040F6381118F00CFD297821B12978491E95
:10501000297029787C5429783278914200D13470F3
:10502000BDE8F041644914F0E8BB4FF4066118F0A4
:10503000F7FC297821B12978491E297029787C54F8
:1050400029783278914200D13470BDE8F0415A4954
:1050500014F0D3BB40F6610118F0E2FC297821B1CD
:105060002978491E297029787C5429783278914210
:1050700000D13470BDE8F0414F4914F0BEBB40F69A
:10508000351118F0CDFC297821B12978491E2970F5
:1050900029787C5429783278914200D13470BDE867
:1050A000F041454914F0A9BB40F6361118F0B8FCA0
:1050B000297821B12978491E297029787C542978CA
:1050C0003278914200D13470BDE8F0413A4914F091
:1050D00094BB40F6620102E03EE067E051E018F068
:1050E0009FFC297821B12978491E297029787C54A0
:1050F00029783278914200D13470BDE8F0412E49D0
:1051000014F07BBB40F6630118F08AFC297821B1CA
:105110002978491E297029787C542978327891425F
:1051200000D13470BDE8F041234914F066BB40F66D
:10513000640118F075FC297821B12978491E29707D
:1051400029787C5429783278914200D13470BDE8B6
:10515000F041194914F051BB40F6650118F060FCAC
:10516000297821B12978491E297029787C54297819
:105170003278914200D13470BDE8F0410E4914F00C
:105180003CBB40F6371118F04BFC297821B1297847
:10519000491E297029787C5429783278914200D1AF
:1051A0003470BDE8F041044914F027BBBDE8F0813C
:1051B000BF01002000020020B40100207401002083
:1051C000750100202DE9F04128480078284A294F30
:1051D0000024294D294E112819D012282DD05828E5
:1051E00041D140F62E11506818F01AFC297821B1EF
:1051F0002978491E297029787C542978327891427F
:1052000000D13470BDE8F0411A4914F0F6BA40F606
:105210006601506818F004FC297821B12978491EEC
:10522000297029787C5429783278914200D13470E1
:10523000BDE8F0410F4914F0E0BA40F6670150684C
:1052400018F0EEFB297821B12978491E29702978B8
:105250007C5429783278914200D13470BDE8F04115
:10526000044914F0CABABDE8F0810000BF01002073
:1052700068010020B40100207401002075010020A5
:105280000148006870470000DC03002010B50549A4
:10529000054800F00DF80548016841F00201016081
:1052A00010BD000020800010106402403C0000206F
:1052B000074A904201D2074801E005481038064AE3
:1052C0008B0001EA020101D5C1607047816070471F
:1052D00010640240006002407D0F7D0F002904D061
:1052E000016841F0010101607047016821F001018E
:1052F000016070470B0609D522B1436943F0800372
:10530000436103E0436923F080034361802905D0B2
:1053100001F01E011AB102680A4302607047026878
:105320008A4302607047000030B50368124A134098
:10533000CC680A682243D1E905452C432243CC6955
:1053400022430C6A22434C6A22438C6A22434C6BF0
:1053500022438C6B22431A430260426922F0070306
:10536000D1E90B2422431A4342610A6942604A6828
:1053700082608968C16030BD3F801CF0F8B5054689
:10538000006803F03BFE0090448ED0F888606846C9
:1053900003F07EFE06B1012604F00104286819F02E
:1053A00061FA0EB1002006E00CB1012003E008B163
:1053B000022000E003201B4951F82010686858B310
:1053C00002280CD0052802D0122828D103E0284654
:1053D0001AF07CFE23E028461CF05BFF1FE06A69A0
:1053E000E8694FF0FF33801AA0F1080203EB620472
:1053F000421CAB69001B4510A3EB6206C86905F0AF
:1054000015FA06E03219311B284604F099FB641E98
:105410006D1C002CF6DA02E0286818F0E7FE002088
:10542000F8BD00006CBD0608044A03491160044938
:105430000A6B086310467047E003002098070020BD
:105440009C07002038B50D46002403F0D7FD0090DE
:10545000C06B294603F0B4FE0546684603F018FE0B
:105460001DB1284603F0CAFD0446204638BD7047EA
:1054700011B54FF47A7402E0204600F006F8BDF84A
:1054800000104A1E0092F7D218BD01B582B000206C
:105490000190042110E0009100BF00BF00BF00BFD9
:1054A00000BFBDF80000401E0004000C0090F3D1C6
:1054B000BDF80400401C0190BDF80400BDF80820B0
:1054C0009042E8D30EBD000010B52DED028B2049AF
:1054D0000A78204CB2EE048A022AE0681ED00978CD
:1054E000032918D11C4991ED000A20EE080ABDEEEF
:1054F000C00A10EE101A09B202F010FF174890ED22
:10550000000A20EE080ABDEEC00A10EE100A01B231
:10551000206902F003FFBDEC028B10BD104991ED34
:10552000000A20EE080ABDEEC00A10EE101A09B2F9
:1055300002F0F4FE0B4890ED000A20EE080ABDEEE2
:10554000C00A10EE100A01B2206902F0E7FEE2E79D
:10555000BC010020EC0100202800002030000020C9
:10556000240000202C0000201CB51048C079012820
:105570001AD1FF2005F05AF9022005F08FF9B42066
:105580000021CDE90010032306220C214FF4C37043
:1055900004F0B2F902B00C23BDE8104040F27F12D3
:1055A0000421034804F02EBB1CBD00008400002031
:1055B000780A050831B529F0CBFCA02029F090FC31
:1055C00029F0F6FC70B99DF8000029F089FC29F05B
:1055D000EFFC38B929F0BCFCA12029F081FC29F0AE
:1055E000E7FC18B129F0D0FC002038BD29F04CFCB4
:1055F000034C207029F030FC29F0C6FC207838BD1F
:105600007C00002070B50120FFF7D4FFFE4C206025
:105610000120FFF7CFFF20602068000220600220F9
:10562000FFF7C8FF2168084420602068000220605E
:105630000320FFF7BFFF21680844206020680002B4
:1056400020600420FFF7B6FF216808442060052091
:10565000FFF7B0FFED4D28602868000228600620A3
:10566000FFF7A8FF2968084428602868000228601E
:105670000720FFF79FFF2968084428602868000278
:1056800028600820FFF796FF296808442860C0209A
:10569000FFF790FF6063606B00026063C120FFF75B
:1056A00089FF616B08446063606B00026063C22025
:1056B000FFF780FF616B08446063606B000260630A
:1056C000C320FFF777FF616B08446063C420FFF7D6
:1056D00071FF6863686B00026863C520FFF76AFFAB
:1056E000696B08446863686B00026863C620FFF753
:1056F00061FF696B08446863686B00026863C720D8
:10570000FFF758FF696B08446863C820FFF752FF32
:10571000A063A06B0002A063C920FFF74BFFA16B41
:105720000844A063A06B0002A063CA20FFF742FFF9
:10573000A16B0844A063A06B0002A063CB20FFF71D
:1057400039FFA16B0844A063CC20FFF733FFA863A7
:10575000A86B0002A863CD20FFF72CFFA96B0844BB
:10576000A863A86B0002A863CE20FFF723FFA96BF4
:105770000844A863A86B0002A863CF20FFF71AFFB4
:10578000A96B0844A8630920FFF714FF60606068F4
:10579000000260600A20FFF70DFF61680844606046
:1057A0006068000260600B20FFF704FF6168084436
:1057B00060606068000260600C20FFF7FBFE6168BB
:1057C000084460600D20FFF7F5FE6860686800021D
:1057D00068600E20FFF7EEFE69680844686068683C
:1057E000000268600F20FFF7E5FE69680844686002
:1057F0006868000268601020FFF7DCFE69680844F2
:1058000068601120FFF7D6FEA060A0680002A060CB
:105810001220FFF7CFFEA1680844A060A068000234
:10582000A0601320FFF7C6FEA1680844A060A0682E
:105830000002A0601420FFF7BDFEA1680844A0602C
:105840001520FFF7B7FEA860A8680002A860162020
:10585000FFF7B0FEA9680844A860A8680002A86025
:105860001720FFF7A7FEA9680844A860A8680002EF
:10587000A8601820FFF79EFEA9680844A8601920B8
:10588000FFF798FEE060E0680002E0601A20FFF792
:1058900091FEE1680844E060E0680002E0601B20DF
:1058A000FFF788FEE1680844E060E0680002E0601D
:1058B0001C20FFF77FFEE1680844E0601D20FFF731
:1058C00079FEE860E8680002E8601E20FFF772FEDB
:1058D000E9680844E860E8680002E8601F20FFF714
:1058E00069FEE9680844E860E8680002E860202092
:1058F000FFF760FEE9680844E8602120FFF75AFEE0
:1059000020612069000220612220FFF753FE2169F7
:10591000084420612069000220612320FFF74AFE2D
:105920002169084420612069000220612420FFF7DA
:1059300041FE2169084420612520FFF73BFE2861D4
:105940002869000228612620FFF734FE29690844EF
:1059500028612869000228612720FFF72BFE2969AA
:10596000084428612869000228612820FFF722FEE8
:105970002969084428612920FFF71CFE60616069DD
:10598000000260612A20FFF715FE6169084460612A
:105990006069000260612B20FFF70CFE616908441A
:1059A00060616069000260612C20FFF703FE61699D
:1059B000084460612D20FFF7FDFD68616869000201
:1059C00068612E20FFF7F6FD69690844686168691F
:1059D000000268612F20FFF7EDFD696908446861E6
:1059E0006869000268613020FFF7E4FD69690844D6
:1059F0006861AB20FFF7DEFDE062E06A0002E06272
:105A0000AC20FFF7D7FD03E0240B0020780B00202B
:105A1000E16A0844E062E06A0002E062AD20FFF75C
:105A2000C9FDE16A0844E062E06A0002E062AE207B
:105A3000FFF7C0FDE16A0844E062AF20FFF7BAFD5E
:105A4000E862E86A0002E862B020FFF7B3FDE96AA5
:105A50000844E862E86A0002E862B120FFF7AAFDA4
:105A6000E96A0844E862E86A0002E862B220FFF7E7
:105A7000A1FDE96A0844E862B720FFF79BFD2063B7
:105A8000206B00022063B820FFF794FD216B0844CF
:105A90002063206B00022063B920FFF78BFD216B90
:105AA00008442063206B00022063BA20FFF782FDC8
:105AB000216B08442063BB20FFF77CFD2863286B23
:105AC00000022863BC20FFF775FD296B084428639A
:105AD000286B00022863BD20FFF76CFD296B08448A
